{
  "contractName": "Campaign",
  "abi": [
    {
      "inputs": [
        {
          "internalType": "string",
          "name": "_campaign_name",
          "type": "string"
        },
        {
          "internalType": "uint256",
          "name": "_seats",
          "type": "uint256"
        },
        {
          "internalType": "uint256",
          "name": "_price",
          "type": "uint256"
        },
        {
          "internalType": "uint256",
          "name": "_campaign_start_time",
          "type": "uint256"
        },
        {
          "internalType": "uint256",
          "name": "_campaign_end_time",
          "type": "uint256"
        },
        {
          "internalType": "uint256",
          "name": "_start_sell_time",
          "type": "uint256"
        },
        {
          "internalType": "string",
          "name": "_abstraction",
          "type": "string"
        }
      ],
      "stateMutability": "nonpayable",
      "type": "constructor"
    },
    {
      "inputs": [],
      "name": "abstraction",
      "outputs": [
        {
          "internalType": "string",
          "name": "",
          "type": "string"
        }
      ],
      "stateMutability": "view",
      "type": "function"
    },
    {
      "inputs": [],
      "name": "campaign_end_time",
      "outputs": [
        {
          "internalType": "uint256",
          "name": "",
          "type": "uint256"
        }
      ],
      "stateMutability": "view",
      "type": "function"
    },
    {
      "inputs": [],
      "name": "campaign_name",
      "outputs": [
        {
          "internalType": "string",
          "name": "",
          "type": "string"
        }
      ],
      "stateMutability": "view",
      "type": "function"
    },
    {
      "inputs": [],
      "name": "campaign_start_time",
      "outputs": [
        {
          "internalType": "uint256",
          "name": "",
          "type": "uint256"
        }
      ],
      "stateMutability": "view",
      "type": "function"
    },
    {
      "inputs": [],
      "name": "owner",
      "outputs": [
        {
          "internalType": "address",
          "name": "",
          "type": "address"
        }
      ],
      "stateMutability": "view",
      "type": "function"
    },
    {
      "inputs": [],
      "name": "price",
      "outputs": [
        {
          "internalType": "uint256",
          "name": "",
          "type": "uint256"
        }
      ],
      "stateMutability": "view",
      "type": "function"
    },
    {
      "inputs": [],
      "name": "remain",
      "outputs": [
        {
          "internalType": "uint256",
          "name": "",
          "type": "uint256"
        }
      ],
      "stateMutability": "view",
      "type": "function"
    },
    {
      "inputs": [],
      "name": "seats",
      "outputs": [
        {
          "internalType": "uint256",
          "name": "",
          "type": "uint256"
        }
      ],
      "stateMutability": "view",
      "type": "function"
    },
    {
      "inputs": [],
      "name": "start_sell_time",
      "outputs": [
        {
          "internalType": "uint256",
          "name": "",
          "type": "uint256"
        }
      ],
      "stateMutability": "view",
      "type": "function"
    },
    {
      "stateMutability": "payable",
      "type": "receive"
    },
    {
      "inputs": [
        {
          "internalType": "address",
          "name": "buyer",
          "type": "address"
        },
        {
          "internalType": "uint256",
          "name": "amount",
          "type": "uint256"
        }
      ],
      "name": "buy",
      "outputs": [
        {
          "internalType": "uint256[]",
          "name": "seat_num",
          "type": "uint256[]"
        }
      ],
      "stateMutability": "payable",
      "type": "function"
    },
    {
      "inputs": [],
      "name": "withdraw",
      "outputs": [],
      "stateMutability": "nonpayable",
      "type": "function"
    }
  ],
  "bytecode": "0x60806040523480156200001157600080fd5b5060405162000c4938038062000c49833981810160405260e08110156200003757600080fd5b81019080805160405193929190846401000000008211156200005857600080fd5b838201915060208201858111156200006f57600080fd5b82518660018202830111640100000000821117156200008d57600080fd5b8083526020830192505050908051906020019080838360005b83811015620000c3578082015181840152602081019050620000a6565b50505050905090810190601f168015620000f15780820380516001836020036101000a031916815260200191505b506040526020018051906020019092919080519060200190929190805190602001909291908051906020019092919080519060200190929190805160405193929190846401000000008211156200014757600080fd5b838201915060208201858111156200015e57600080fd5b82518660018202830111640100000000821117156200017c57600080fd5b8083526020830192505050908051906020019080838360005b83811015620001b257808201518184015260208101905062000195565b50505050905090810190601f168015620001e05780820380516001836020036101000a031916815260200191505b50604052505050336000806101000a81548173ffffffffffffffffffffffffffffffffffffffff021916908373ffffffffffffffffffffffffffffffffffffffff16021790555085600181905550866002908051906020019062000246929190620002f1565b508460038190555083600481905550826005819055508160068190555080600790805190602001906200027b929190620002f1565b508567ffffffffffffffff811180156200029457600080fd5b50604051908082528060200260200182016040528015620002c45781602001602082028036833780820191505090505b5060089080519060200190620002dc92919062000378565b50856009819055505050505050505062000463565b828054600181600116156101000203166002900490600052602060002090601f016020900481019282601f106200033457805160ff191683800117855562000365565b8280016001018555821562000365579182015b828111156200036457825182559160200191906001019062000347565b5b50905062000374919062000407565b5090565b828054828255906000526020600020908101928215620003f4579160200282015b82811115620003f35782518260006101000a81548173ffffffffffffffffffffffffffffffffffffffff021916908373ffffffffffffffffffffffffffffffffffffffff1602179055509160200191906001019062000399565b5b50905062000403919062000426565b5090565b5b808211156200042257600081600090555060010162000408565b5090565b5b808211156200045f57600081816101000a81549073ffffffffffffffffffffffffffffffffffffffff02191690555060010162000427565b5090565b6107d680620004736000396000f3fe6080604052600436106100a05760003560e01c806361f3c62e1161006457806361f3c62e146102395780638da5cb5b146102645780639c5655d6146102a5578063a035b1fe146102d0578063cce7ec13146102fb578063e8237fb11461039e576100a7565b80630e153e24146100ac57806310b6315d146100d757806321d89592146101025780633ccfd60b146101925780634137e733146101a9576100a7565b366100a757005b600080fd5b3480156100b857600080fd5b506100c16103c9565b6040518082815260200191505060405180910390f35b3480156100e357600080fd5b506100ec6103cf565b6040518082815260200191505060405180910390f35b34801561010e57600080fd5b506101176103d5565b6040518080602001828103825283818151815260200191508051906020019080838360005b8381101561015757808201518184015260208101905061013c565b50505050905090810190601f1680156101845780820380516001836020036101000a031916815260200191505b509250505060405180910390f35b34801561019e57600080fd5b506101a7610473565b005b3480156101b557600080fd5b506101be61053e565b6040518080602001828103825283818151815260200191508051906020019080838360005b838110156101fe5780820151818401526020810190506101e3565b50505050905090810190601f16801561022b5780820380516001836020036101000a031916815260200191505b509250505060405180910390f35b34801561024557600080fd5b5061024e6105dc565b6040518082815260200191505060405180910390f35b34801561027057600080fd5b506102796105e2565b604051808273ffffffffffffffffffffffffffffffffffffffff16815260200191505060405180910390f35b3480156102b157600080fd5b506102ba610606565b6040518082815260200191505060405180910390f35b3480156102dc57600080fd5b506102e561060c565b6040518082815260200191505060405180910390f35b6103476004803603604081101561031157600080fd5b81019080803573ffffffffffffffffffffffffffffffffffffffff16906020019092919080359060200190929190505050610612565b6040518080602001828103825283818151815260200191508051906020019060200280838360005b8381101561038a57808201518184015260208101905061036f565b505050509050019250505060405180910390f35b3480156103aa57600080fd5b506103b361079a565b6040518082815260200191505060405180910390f35b60045481565b60065481565b60078054600181600116156101000203166002900480601f01602080910402602001604051908101604052809291908181526020018280546001816001161561010002031660029004801561046b5780601f106104405761010080835404028352916020019161046b565b820191906000526020600020905b81548152906001019060200180831161044e57829003601f168201915b505050505081565b60008054906101000a900473ffffffffffffffffffffffffffffffffffffffff1673ffffffffffffffffffffffffffffffffffffffff163373ffffffffffffffffffffffffffffffffffffffff16146104cb57600080fd5b60055442111561053c573373ffffffffffffffffffffffffffffffffffffffff164760405180600001905060006040518083038185875af1925050503d8060008114610533576040519150601f19603f3d011682016040523d82523d6000602084013e610538565b606091505b5050505b565b60028054600181600116156101000203166002900480601f0160208091040260200160405190810160405280929190818152602001828054600181600116156101000203166002900480156105d45780601f106105a9576101008083540402835291602001916105d4565b820191906000526020600020905b8154815290600101906020018083116105b757829003601f168201915b505050505081565b60095481565b60008054906101000a900473ffffffffffffffffffffffffffffffffffffffff1681565b60015481565b60035481565b606060008267ffffffffffffffff8111801561062d57600080fd5b5060405190808252806020026020018201604052801561065c5781602001602082028036833780820191505090505b50915060005b600154811015610792575b838210156107855760006008828154811061068457fe5b9060005260206000200160009054906101000a900473ffffffffffffffffffffffffffffffffffffffff169050600073ffffffffffffffffffffffffffffffffffffffff168173ffffffffffffffffffffffffffffffffffffffff161480156106ef57508460095410155b1561077f57856008838154811061070257fe5b9060005260206000200160006101000a81548173ffffffffffffffffffffffffffffffffffffffff021916908373ffffffffffffffffffffffffffffffffffffffff160217905550600960008154809291906001900391905055508184848151811061076a57fe5b60200260200101818152505082806001019350505b5061066d565b8080600101915050610662565b505092915050565b6005548156fea2646970667358221220ee3e298b37a004716bf93dbfc14182eb180b3ece394376f4997bfa4ccab5314964736f6c63430007000033",
  "immutableReferences": {},
  "source": "pragma solidity  >=0.7.0;\n// using SafeMath for uint256\n\ncontract Campaign {\n  address public owner;\n  uint public seats;\n  string public campaign_name;\n  uint public price;\n  uint public campaign_start_time;\n  uint public campaign_end_time;\n  uint public start_sell_time;\n  string public abstraction;\n  address[] seat_owner;\n  uint256 public remain;\n  constructor(string memory _campaign_name, uint _seats, uint _price, uint _campaign_start_time, \n  uint _campaign_end_time, uint _start_sell_time, string memory _abstraction) public {\n    owner = msg.sender;\n    seats = _seats;\n    campaign_name = _campaign_name;\n    price = _price;\n    campaign_start_time = _campaign_start_time;\n    campaign_end_time = _campaign_end_time;\n    start_sell_time = _start_sell_time;\n    abstraction = _abstraction;\n    seat_owner = new address[](_seats);\n    remain = _seats;\n  }\n\n  modifier restricted() {\n    require (msg.sender == owner);\n    _;\n  }\n\n  function buy(address buyer, uint amount) public payable returns (uint[] memory seat_num){\n      uint j=0;\n      // uint k=0;\n      seat_num = new uint[](amount);\n      for (uint i=0; i<seats; i++){\n        while(j<amount){\n          address temp = seat_owner[uint(i)];\n          if (temp==address(0x00000000000000000000000000000000) && remain >= amount){\n              seat_owner[i]=buyer;\n              // buyer.transfer(price);\n              remain--;\n              seat_num[j]=i;\n              j++;\n          }\n        }\n      }\n  }\n\n  function withdraw() public restricted {\n      if (block.timestamp > campaign_end_time) {\n          msg.sender.call{value: address(this).balance}('');\n      }\n  }\n\n  receive () external payable {}\n}\n",
  "sourcePath": "/Users/liu/Desktop/deapp-final/ticket system/contracts/campaign.sol",
  "compiler": {
    "name": "solc",
    "version": "0.7.0+commit.9e61f92b.Emscripten.clang"
  },
  "schemaVersion": "3.3.2",
  "updatedAt": "2020-12-19T17:58:39.233Z",
  "devdoc": {
    "kind": "dev",
    "methods": {},
    "version": 1
  },
  "userdoc": {
    "kind": "user",
    "methods": {},
    "version": 1
  }
}