{
  "contractName": "Server",
  "abi": [
    {
      "inputs": [
        {
          "internalType": "uint256",
          "name": "",
          "type": "uint256"
        }
      ],
      "name": "campaigns",
      "outputs": [
        {
          "internalType": "address",
          "name": "campaign",
          "type": "address"
        },
        {
          "internalType": "bool",
          "name": "isvalid",
          "type": "bool"
        }
      ],
      "stateMutability": "view",
      "type": "function",
      "constant": true
    },
    {
      "stateMutability": "payable",
      "type": "receive",
      "payable": true
    },
    {
      "inputs": [
        {
          "internalType": "address",
          "name": "campaign_address",
          "type": "address"
        }
      ],
      "name": "addCampaign",
      "outputs": [],
      "stateMutability": "nonpayable",
      "type": "function"
    },
    {
      "inputs": [],
      "name": "getCampaigns",
      "outputs": [
        {
          "internalType": "address[]",
          "name": "",
          "type": "address[]"
        }
      ],
      "stateMutability": "nonpayable",
      "type": "function"
    },
    {
      "inputs": [
        {
          "internalType": "uint256",
          "name": "index",
          "type": "uint256"
        },
        {
          "internalType": "uint256",
          "name": "amount",
          "type": "uint256"
        }
      ],
      "name": "buy_ticket",
      "outputs": [
        {
          "internalType": "uint256[]",
          "name": "seat_num",
          "type": "uint256[]"
        }
      ],
      "stateMutability": "payable",
      "type": "function",
      "payable": true
    }
  ],
  "bytecode": "0x6080604052600060015534801561001557600080fd5b5061085e806100256000396000f3fe608060405260043610610060576000357c010000000000000000000000000000000000000000000000000000000090048063141961bc1461006c578063a6b03633146100da578063ac9c4fd314610146578063c71e7edc1461019757610067565b3661006757005b600080fd5b34801561007857600080fd5b506100a56004803603602081101561008f57600080fd5b8101908080359060200190929190505050610224565b604051808373ffffffffffffffffffffffffffffffffffffffff16815260200182151581526020019250505060405180910390f35b3480156100e657600080fd5b506100ef61027e565b6040518080602001828103825283818151815260200191508051906020019060200280838360005b83811015610132578082015181840152602081019050610117565b505050509050019250505060405180910390f35b34801561015257600080fd5b506101956004803603602081101561016957600080fd5b81019080803573ffffffffffffffffffffffffffffffffffffffff1690602001909291905050506104ea565b005b6101cd600480360360408110156101ad57600080fd5b8101908080359060200190929190803590602001909291905050506105ab565b6040518080602001828103825283818151815260200191508051906020019060200280838360005b838110156102105780820151818401526020810190506101f5565b505050509050019250505060405180910390f35b6000818154811061023157fe5b906000526020600020016000915090508060000160009054906101000a900473ffffffffffffffffffffffffffffffffffffffff16908060000160149054906101000a900460ff16905082565b6060600060015490506000606060008054905067ffffffffffffffff811180156102a757600080fd5b506040519080825280602002602001820160405280156102d65781602001602082028036833780820191505090505b509050600060015490505b6000805490508110156104d957600081815481106102fb57fe5b9060005260206000200160000160149054906101000a900460ff16156104cc57426000828154811061032957fe5b9060005260206000200160000160009054906101000a900473ffffffffffffffffffffffffffffffffffffffff1673ffffffffffffffffffffffffffffffffffffffff1663e8237fb16040518163ffffffff167c010000000000000000000000000000000000000000000000000000000002815260040160206040518083038186803b1580156103b857600080fd5b505afa1580156103cc573d6000803e3d6000fd5b505050506040513d60208110156103e257600080fd5b81019080805190602001909291905050501061044157600080828154811061040657fe5b9060005260206000200160000160146101000a81548160ff0219169083151502179055506001840181141561043c576001840193505b6104cb565b6000818154811061044e57fe5b9060005260206000200160000160009054906101000a900473ffffffffffffffffffffffffffffffffffffffff1682848151811061048857fe5b602002602001019073ffffffffffffffffffffffffffffffffffffffff16908173ffffffffffffffffffffffffffffffffffffffff168152505082806001019350505b5b80806001019150506102e1565b508260018190555080935050505090565b600060405180604001604052808373ffffffffffffffffffffffffffffffffffffffff168152602001600115158152509080600181540180825580915050600190039060005260206000200160009091909190915060008201518160000160006101000a81548173ffffffffffffffffffffffffffffffffffffffff021916908373ffffffffffffffffffffffffffffffffffffffff16021790555060208201518160000160146101000a81548160ff021916908315150217905550505050565b6060600083815481106105ba57fe5b9060005260206000200160000160149054906101000a900460ff16156108225760008084815481106105e857fe5b9060005260206000200160000160009054906101000a900473ffffffffffffffffffffffffffffffffffffffff169050828173ffffffffffffffffffffffffffffffffffffffff166361f3c62e6040518163ffffffff167c010000000000000000000000000000000000000000000000000000000002815260040160206040518083038186803b15801561067b57600080fd5b505afa15801561068f573d6000803e3d6000fd5b505050506040513d60208110156106a557600080fd5b810190808051906020019092919050505010610820578073ffffffffffffffffffffffffffffffffffffffff1663cce7ec1333856040518363ffffffff167c0100000000000000000000000000000000000000000000000000000000028152600401808373ffffffffffffffffffffffffffffffffffffffff16815260200182815260200192505050600060405180830381600087803b15801561074857600080fd5b505af115801561075c573d6000803e3d6000fd5b505050506040513d6000823e3d601f19601f82011682018060405250602081101561078657600080fd5b81019080805160405193929190846401000000008211156107a657600080fd5b838201915060208201858111156107bc57600080fd5b82518660208202830111640100000000821117156107d957600080fd5b8083526020830192505050908051906020019060200280838360005b838110156108105780820151818401526020810190506107f5565b5050505090500160405250505091505b505b9291505056fea2646970667358221220ad12c0f00d71521b607e6b15dfac05d9dcc6e5660501098dca6dd9084e68815e64736f6c63430007000033",
  "immutableReferences": {},
  "source": "pragma solidity >=0.7.0;\r\n// using SafeMath for uint256;\r\n// pragma solidity  >=0.7.0;\r\n// using SafeMath for uint256\r\n\r\ncontract Campaign {\r\n  address public owner;\r\n  uint public seats;\r\n  string public campaign_name;\r\n  uint public price;\r\n  uint public campaign_start_time;\r\n  uint public campaign_end_time;\r\n  uint public start_sell_time;\r\n  string public abstraction;\r\n  address[] seat_owner;\r\n  uint256 public remain;\r\n  \r\n\r\n\r\n  function buy(address , uint ) public payable returns (uint[] memory seat_num){}\r\n\r\n  function withdraw() public{  }\r\n}\r\n\r\ncontract Server {\r\n    struct server_campaign{\r\n        address campaign;\r\n        bool isvalid;\r\n    }\r\n    server_campaign[] public campaigns;\r\n    uint ptr = 0;\r\n    function addCampaign(address campaign_address) public {\r\n        campaigns.push(server_campaign(campaign_address, true));\r\n    }\r\n\r\n    function getCampaigns() public returns (address[] memory){\r\n        uint j = ptr;\r\n        uint k = 0;\r\n        address[] memory c = new address[](campaigns.length);\r\n        for (uint i = ptr; i<campaigns.length; i++){\r\n            // server_campaign memory tmp = campaigns[i];\r\n            // Campaign campaign = Campaign(campaigns[i].campaign);\r\n            if (campaigns[i].isvalid){\r\n                if (Campaign(campaigns[i].campaign).campaign_end_time() >= block.timestamp){\r\n                    campaigns[i].isvalid = false;\r\n                    if (i==j+1){\r\n                        j+=1;\r\n                    }\r\n                }else{\r\n                    c[k] = (campaigns[i].campaign);\r\n                    k++;\r\n                }\r\n            }\r\n        }\r\n        ptr = j;\r\n        return c;\r\n    }\r\n\r\n    function buy_ticket(uint index, uint amount) public payable returns(uint[] memory seat_num){\r\n        // campaigns[index];\r\n        if (campaigns[index].isvalid){\r\n            Campaign c = Campaign(campaigns[index].campaign);\r\n            if (c.remain() >= amount){\r\n                seat_num = c.buy(msg.sender, amount);\r\n            }\r\n        }\r\n    }\r\n\r\n    receive () external payable {}\r\n}",
  "sourcePath": "F:/109-1/Networking and Multinmedia(Lab)/deapp-final/ticket system/contracts/server.sol",
  "compiler": {
    "name": "solc",
    "version": "0.7.0+commit.9e61f92b.Emscripten.clang"
  },
  "schemaVersion": "3.3.2",
  "updatedAt": "2020-12-16T08:23:26.811Z",
  "networkType": "ethereum",
  "devdoc": {
    "kind": "dev",
    "methods": {},
    "version": 1
  },
  "userdoc": {
    "kind": "user",
    "methods": {},
    "version": 1
  }
}