{
  "contractName": "Server",
  "abi": [
    {
      "inputs": [
        {
          "internalType": "uint256",
          "name": "",
          "type": "uint256"
        }
      ],
      "name": "campaigns",
      "outputs": [
        {
          "internalType": "address",
          "name": "campaign",
          "type": "address"
        },
        {
          "internalType": "bool",
          "name": "isvalid",
          "type": "bool"
        }
      ],
      "stateMutability": "view",
      "type": "function",
      "constant": true
    },
    {
      "stateMutability": "payable",
      "type": "receive",
      "payable": true
    },
    {
      "inputs": [
        {
          "internalType": "address",
          "name": "campaign_address",
          "type": "address"
        }
      ],
      "name": "addCampaign",
      "outputs": [],
      "stateMutability": "nonpayable",
      "type": "function"
    },
    {
      "inputs": [],
      "name": "getCampaigns",
      "outputs": [
        {
          "internalType": "address[]",
          "name": "",
          "type": "address[]"
        }
      ],
      "stateMutability": "nonpayable",
      "type": "function"
    },
    {
      "inputs": [
        {
          "internalType": "uint256",
          "name": "index",
          "type": "uint256"
        },
        {
          "internalType": "uint256",
          "name": "amount",
          "type": "uint256"
        }
      ],
      "name": "buy_ticket",
      "outputs": [
        {
          "internalType": "uint256[]",
          "name": "seat_num",
          "type": "uint256[]"
        }
      ],
      "stateMutability": "payable",
      "type": "function",
      "payable": true
    }
  ],
  "bytecode": "0x6080604052600060015534801561001557600080fd5b506107ed806100256000396000f3fe6080604052600436106100435760003560e01c8063141961bc1461004f578063a6b03633146100bd578063ac9c4fd314610129578063c71e7edc1461017a5761004a565b3661004a57005b600080fd5b34801561005b57600080fd5b506100886004803603602081101561007257600080fd5b8101908080359060200190929190505050610207565b604051808373ffffffffffffffffffffffffffffffffffffffff16815260200182151581526020019250505060405180910390f35b3480156100c957600080fd5b506100d2610261565b6040518080602001828103825283818151815260200191508051906020019060200280838360005b838110156101155780820151818401526020810190506100fa565b505050509050019250505060405180910390f35b34801561013557600080fd5b506101786004803603602081101561014c57600080fd5b81019080803573ffffffffffffffffffffffffffffffffffffffff1690602001909291905050506104b1565b005b6101b06004803603604081101561019057600080fd5b810190808035906020019092919080359060200190929190505050610572565b6040518080602001828103825283818151815260200191508051906020019060200280838360005b838110156101f35780820151818401526020810190506101d8565b505050509050019250505060405180910390f35b6000818154811061021457fe5b906000526020600020016000915090508060000160009054906101000a900473ffffffffffffffffffffffffffffffffffffffff16908060000160149054906101000a900460ff16905082565b6060600060015490506000606060008054905067ffffffffffffffff8111801561028a57600080fd5b506040519080825280602002602001820160405280156102b95781602001602082028036833780820191505090505b509050600060015490505b6000805490508110156104a057600081815481106102de57fe5b9060005260206000200160000160149054906101000a900460ff161561049357426000828154811061030c57fe5b9060005260206000200160000160009054906101000a900473ffffffffffffffffffffffffffffffffffffffff1673ffffffffffffffffffffffffffffffffffffffff1663e8237fb16040518163ffffffff1660e01b815260040160206040518083038186803b15801561037f57600080fd5b505afa158015610393573d6000803e3d6000fd5b505050506040513d60208110156103a957600080fd5b8101908080519060200190929190505050106104085760008082815481106103cd57fe5b9060005260206000200160000160146101000a81548160ff02191690831515021790555060018401811415610403576001840193505b610492565b6000818154811061041557fe5b9060005260206000200160000160009054906101000a900473ffffffffffffffffffffffffffffffffffffffff1682848151811061044f57fe5b602002602001019073ffffffffffffffffffffffffffffffffffffffff16908173ffffffffffffffffffffffffffffffffffffffff168152505082806001019350505b5b80806001019150506102c4565b508260018190555080935050505090565b600060405180604001604052808373ffffffffffffffffffffffffffffffffffffffff168152602001600115158152509080600181540180825580915050600190039060005260206000200160009091909190915060008201518160000160006101000a81548173ffffffffffffffffffffffffffffffffffffffff021916908373ffffffffffffffffffffffffffffffffffffffff16021790555060208201518160000160146101000a81548160ff021916908315150217905550505050565b60606000838154811061058157fe5b9060005260206000200160000160149054906101000a900460ff16156107b15760008084815481106105af57fe5b9060005260206000200160000160009054906101000a900473ffffffffffffffffffffffffffffffffffffffff169050828173ffffffffffffffffffffffffffffffffffffffff166361f3c62e6040518163ffffffff1660e01b815260040160206040518083038186803b15801561062657600080fd5b505afa15801561063a573d6000803e3d6000fd5b505050506040513d602081101561065057600080fd5b8101908080519060200190929190505050106107af578073ffffffffffffffffffffffffffffffffffffffff1663cce7ec1333856040518363ffffffff1660e01b8152600401808373ffffffffffffffffffffffffffffffffffffffff16815260200182815260200192505050600060405180830381600087803b1580156106d757600080fd5b505af11580156106eb573d6000803e3d6000fd5b505050506040513d6000823e3d601f19601f82011682018060405250602081101561071557600080fd5b810190808051604051939291908464010000000082111561073557600080fd5b8382019150602082018581111561074b57600080fd5b825186602082028301116401000000008211171561076857600080fd5b8083526020830192505050908051906020019060200280838360005b8381101561079f578082015181840152602081019050610784565b5050505090500160405250505091505b505b9291505056fea2646970667358221220c7d70f704bc0ef150b5fcdd24da47ded43b90c652ce05933ca652f9ce55d22f464736f6c63430007000033",
  "immutableReferences": {},
  "source": "pragma solidity >=0.7.0;\n// using SafeMath for uint256;\n// pragma solidity  >=0.7.0;\n// using SafeMath for uint256\n\ncontract Campaign {\n  address public owner;\n  uint public seats;\n  string public campaign_name;\n  uint public price;\n  uint public campaign_start_time;\n  uint public campaign_end_time;\n  uint public start_sell_time;\n  string public abstraction;\n  address[] seat_owner;\n  uint256 public remain;\n  \n\n\n  function buy(address , uint ) public payable returns (uint[] memory seat_num){}\n\n  function withdraw() public{  }\n}\n\ncontract Server {\n    struct server_campaign{\n        address campaign;\n        bool isvalid;\n    }\n    server_campaign[] public campaigns;\n    uint ptr = 0;\n    function addCampaign(address campaign_address) public {\n        campaigns.push(server_campaign(campaign_address, true));\n    }\n\n    function getCampaigns() public returns (address[] memory){\n        uint j = ptr;\n        uint k = 0;\n        address[] memory c = new address[](campaigns.length);\n        for (uint i = ptr; i<campaigns.length; i++){\n            // server_campaign memory tmp = campaigns[i];\n            // Campaign campaign = Campaign(campaigns[i].campaign);\n            if (campaigns[i].isvalid){\n                if (Campaign(campaigns[i].campaign).campaign_end_time() >= block.timestamp){\n                    campaigns[i].isvalid = false;\n                    if (i==j+1){\n                        j+=1;\n                    }\n                }else{\n                    c[k] = (campaigns[i].campaign);\n                    k++;\n                }\n            }\n        }\n        ptr = j;\n        return c;\n    }\n\n    function buy_ticket(uint index, uint amount) public payable returns(uint[] memory seat_num){\n        // campaigns[index];\n        if (campaigns[index].isvalid){\n            Campaign c = Campaign(campaigns[index].campaign);\n            if (c.remain() >= amount){\n                seat_num = c.buy(msg.sender, amount);\n            }\n        }\n    }\n\n    receive () external payable {}\n}",
  "sourcePath": "/Users/liu/Desktop/deapp-final/ticket system/contracts/server.sol",
  "compiler": {
    "name": "solc",
    "version": "0.7.0+commit.9e61f92b.Emscripten.clang"
  },
  "schemaVersion": "3.3.2",
  "updatedAt": "2020-12-16T12:00:53.296Z",
  "networkType": "ethereum",
  "devdoc": {
    "kind": "dev",
    "methods": {},
    "version": 1
  },
  "userdoc": {
    "kind": "user",
    "methods": {},
    "version": 1
  }
}