{
  "contractName": "Server",
  "abi": [
    {
      "inputs": [
        {
          "internalType": "uint256",
          "name": "",
          "type": "uint256"
        }
      ],
      "name": "campaigns",
      "outputs": [
        {
          "internalType": "address payable",
          "name": "campaign",
          "type": "address"
        },
        {
          "internalType": "bool",
          "name": "isvalid",
          "type": "bool"
        }
      ],
      "stateMutability": "view",
      "type": "function",
      "constant": true
    },
    {
      "stateMutability": "payable",
      "type": "receive",
      "payable": true
    },
    {
      "inputs": [
        {
          "internalType": "string",
          "name": "i",
          "type": "string"
        }
      ],
      "name": "callServer",
      "outputs": [
        {
          "internalType": "string",
          "name": "",
          "type": "string"
        }
      ],
      "stateMutability": "pure",
      "type": "function",
      "constant": true
    },
    {
      "inputs": [
        {
          "internalType": "string",
          "name": "_campaign_name",
          "type": "string"
        },
        {
          "internalType": "uint256",
          "name": "_seats",
          "type": "uint256"
        },
        {
          "internalType": "uint256",
          "name": "_price",
          "type": "uint256"
        },
        {
          "internalType": "uint256",
          "name": "_campaign_start_time",
          "type": "uint256"
        },
        {
          "internalType": "uint256",
          "name": "_campaign_end_time",
          "type": "uint256"
        },
        {
          "internalType": "uint256",
          "name": "_start_sell_time",
          "type": "uint256"
        },
        {
          "internalType": "string",
          "name": "_abstraction",
          "type": "string"
        }
      ],
      "name": "addCampaign",
      "outputs": [],
      "stateMutability": "nonpayable",
      "type": "function"
    },
    {
      "inputs": [
        {
          "internalType": "string",
          "name": "_name",
          "type": "string"
        },
        {
          "internalType": "string",
          "name": "_pwd",
          "type": "string"
        }
      ],
      "name": "addUser",
      "outputs": [
        {
          "internalType": "address",
          "name": "user_address",
          "type": "address"
        }
      ],
      "stateMutability": "nonpayable",
      "type": "function"
    },
    {
      "inputs": [],
      "name": "getUserCampaigns",
      "outputs": [
        {
          "internalType": "contract Campaign[]",
          "name": "list",
          "type": "address[]"
        }
      ],
      "stateMutability": "view",
      "type": "function",
      "constant": true
    },
    {
      "inputs": [],
      "name": "getCampaigns",
      "outputs": [
        {
          "internalType": "address[]",
          "name": "",
          "type": "address[]"
        }
      ],
      "stateMutability": "nonpayable",
      "type": "function"
    },
    {
      "inputs": [
        {
          "internalType": "uint256",
          "name": "index",
          "type": "uint256"
        },
        {
          "internalType": "uint256",
          "name": "amount",
          "type": "uint256"
        }
      ],
      "name": "buyTicket",
      "outputs": [
        {
          "internalType": "uint256[]",
          "name": "seat_num",
          "type": "uint256[]"
        }
      ],
      "stateMutability": "payable",
      "type": "function",
      "payable": true
    }
  ],
  "bytecode": "0x6080604052600060015534801561001557600080fd5b50613067806100256000396000f3fe6080604052600436106200007f5760003560e01c8063141961bc1162000055578063141961bc146200042b578063298ec208146200049d5780632ac8ba67146200052f578063a6b03633146200067a5762000087565b8063079eaf34146200008c5780630e274ae2146200021f5780631037398514620002905762000087565b366200008757005b600080fd5b3480156200009957600080fd5b50620001f360048036036040811015620000b257600080fd5b8101908080359060200190640100000000811115620000d057600080fd5b820183602082011115620000e357600080fd5b803590602001918460018302840111640100000000831117156200010657600080fd5b91908080601f016020809104026020016040519081016040528093929190818152602001838380828437600081840152601f19601f820116905080830192505050505050509192919290803590602001906401000000008111156200016a57600080fd5b8201836020820111156200017d57600080fd5b80359060200191846001830284011164010000000083111715620001a057600080fd5b91908080601f016020809104026020016040519081016040528093929190818152602001838380828437600081840152601f19601f820116905080830192505050505050509192919290505050620006eb565b604051808273ffffffffffffffffffffffffffffffffffffffff16815260200191505060405180910390f35b3480156200022c57600080fd5b506200023762000917565b6040518080602001828103825283818151815260200191508051906020019060200280838360005b838110156200027c5780820151818401526020810190506200025f565b505050509050019250505060405180910390f35b3480156200029d57600080fd5b5062000429600480360360e0811015620002b657600080fd5b8101908080359060200190640100000000811115620002d457600080fd5b820183602082011115620002e757600080fd5b803590602001918460018302840111640100000000831117156200030a57600080fd5b91908080601f016020809104026020016040519081016040528093929190818152602001838380828437600081840152601f19601f820116905080830192505050505050509192919290803590602001909291908035906020019092919080359060200190929190803590602001909291908035906020019092919080359060200190640100000000811115620003a057600080fd5b820183602082011115620003b357600080fd5b80359060200191846001830284011164010000000083111715620003d657600080fd5b91908080601f016020809104026020016040519081016040528093929190818152602001838380828437600081840152601f19601f8201169050808301925050505050505091929192905050506200091c565b005b3480156200043857600080fd5b5062000468600480360360208110156200045157600080fd5b810190808035906020019092919050505062000c9c565b604051808373ffffffffffffffffffffffffffffffffffffffff16815260200182151581526020019250505060405180910390f35b620004d660048036036040811015620004b557600080fd5b81019080803590602001909291908035906020019092919050505062000cf7565b6040518080602001828103825283818151815260200191508051906020019060200280838360005b838110156200051b578082015181840152602081019050620004fe565b505050509050019250505060405180910390f35b3480156200053c57600080fd5b50620005fc600480360360208110156200055557600080fd5b81019080803590602001906401000000008111156200057357600080fd5b8201836020820111156200058657600080fd5b80359060200191846001830284011164010000000083111715620005a957600080fd5b91908080601f016020809104026020016040519081016040528093929190818152602001838380828437600081840152601f19601f8201169050808301925050505050505091929192905050506200113b565b6040518080602001828103825283818151815260200191508051906020019080838360005b838110156200063e57808201518184015260208101905062000621565b50505050905090810190601f1680156200066c5780820380516001836020036101000a031916815260200191505b509250505060405180910390f35b3480156200068757600080fd5b506200069262001145565b6040518080602001828103825283818151815260200191508051906020019060200280838360005b83811015620006d7578082015181840152602081019050620006ba565b505050509050019250505060405180910390f35b60008073ffffffffffffffffffffffffffffffffffffffff16600260003373ffffffffffffffffffffffffffffffffffffffff1673ffffffffffffffffffffffffffffffffffffffff16815260200190815260200160002060009054906101000a900473ffffffffffffffffffffffffffffffffffffffff1673ffffffffffffffffffffffffffffffffffffffff161415620009115782826040516200079190620013a5565b808060200180602001838103835285818151815260200191508051906020019080838360005b83811015620007d4578082015181840152602081019050620007b7565b50505050905090810190601f168015620008025780820380516001836020036101000a031916815260200191505b50838103825284818151815260200191508051906020019080838360005b838110156200083d57808201518184015260208101905062000820565b50505050905090810190601f1680156200086b5780820380516001836020036101000a031916815260200191505b50945050505050604051809103906000f0801580156200088f573d6000803e3d6000fd5b50905080600260003373ffffffffffffffffffffffffffffffffffffffff1673ffffffffffffffffffffffffffffffffffffffff16815260200190815260200160002060006101000a81548173ffffffffffffffffffffffffffffffffffffffff021916908373ffffffffffffffffffffffffffffffffffffffff1602179055505b92915050565b606090565b600073ffffffffffffffffffffffffffffffffffffffff16600260003373ffffffffffffffffffffffffffffffffffffffff1673ffffffffffffffffffffffffffffffffffffffff16815260200190815260200160002060009054906101000a900473ffffffffffffffffffffffffffffffffffffffff1673ffffffffffffffffffffffffffffffffffffffff161462000c9357600087878787878787604051620009c790620013b3565b80806020018881526020018781526020018681526020018581526020018481526020018060200183810383528a818151815260200191508051906020019080838360005b8381101562000a2857808201518184015260208101905062000a0b565b50505050905090810190601f16801562000a565780820380516001836020036101000a031916815260200191505b50838103825284818151815260200191508051906020019080838360005b8381101562000a9157808201518184015260208101905062000a74565b50505050905090810190601f16801562000abf5780820380516001836020036101000a031916815260200191505b509950505050505050505050604051809103906000f08015801562000ae8573d6000803e3d6000fd5b509050600060405180604001604052808373ffffffffffffffffffffffffffffffffffffffff168152602001600115158152509080600181540180825580915050600190039060005260206000200160009091909190915060008201518160000160006101000a81548173ffffffffffffffffffffffffffffffffffffffff021916908373ffffffffffffffffffffffffffffffffffffffff16021790555060208201518160000160146101000a81548160ff02191690831515021790555050506000600260003373ffffffffffffffffffffffffffffffffffffffff1673ffffffffffffffffffffffffffffffffffffffff16815260200190815260200160002060009054906101000a900473ffffffffffffffffffffffffffffffffffffffff1690508073ffffffffffffffffffffffffffffffffffffffff1663ac9c4fd3836040518263ffffffff1660e01b8152600401808273ffffffffffffffffffffffffffffffffffffffff168152602001915050600060405180830381600087803b15801562000c7757600080fd5b505af115801562000c8c573d6000803e3d6000fd5b5050505050505b50505050505050565b6000818154811062000caa57fe5b906000526020600020016000915090508060000160009054906101000a900473ffffffffffffffffffffffffffffffffffffffff16908060000160149054906101000a900460ff16905082565b6060600073ffffffffffffffffffffffffffffffffffffffff16600260003373ffffffffffffffffffffffffffffffffffffffff1673ffffffffffffffffffffffffffffffffffffffff16815260200190815260200160002060009054906101000a900473ffffffffffffffffffffffffffffffffffffffff1673ffffffffffffffffffffffffffffffffffffffff161462001135576000600260003373ffffffffffffffffffffffffffffffffffffffff1673ffffffffffffffffffffffffffffffffffffffff16815260200190815260200160002060009054906101000a900473ffffffffffffffffffffffffffffffffffffffff1690506000848154811062000dff57fe5b9060005260206000200160000160149054906101000a900460ff16156200103d57600080858154811062000e2f57fe5b9060005260206000200160000160009054906101000a900473ffffffffffffffffffffffffffffffffffffffff169050838173ffffffffffffffffffffffffffffffffffffffff166361f3c62e6040518163ffffffff1660e01b815260040160206040518083038186803b15801562000ea757600080fd5b505afa15801562000ebc573d6000803e3d6000fd5b505050506040513d602081101562000ed357600080fd5b8101908080519060200190929190505050106200103b578073ffffffffffffffffffffffffffffffffffffffff1663cce7ec1333866040518363ffffffff1660e01b8152600401808373ffffffffffffffffffffffffffffffffffffffff16815260200182815260200192505050600060405180830381600087803b15801562000f5c57600080fd5b505af115801562000f71573d6000803e3d6000fd5b505050506040513d6000823e3d601f19601f82011682018060405250602081101562000f9c57600080fd5b810190808051604051939291908464010000000082111562000fbd57600080fd5b8382019150602082018581111562000fd457600080fd5b825186602082028301116401000000008211171562000ff257600080fd5b8083526020830192505050908051906020019060200280838360005b838110156200102b5780820151818401526020810190506200100e565b5050505090500160405250505092505b505b60005b825181101562001132578173ffffffffffffffffffffffffffffffffffffffff1663651c45d2600087815481106200107457fe5b9060005260206000200160000160009054906101000a900473ffffffffffffffffffffffffffffffffffffffff16858481518110620010af57fe5b60200260200101516040518363ffffffff1660e01b8152600401808373ffffffffffffffffffffffffffffffffffffffff16815260200182815260200192505050600060405180830381600087803b1580156200110b57600080fd5b505af115801562001120573d6000803e3d6000fd5b50505050808060010191505062001040565b50505b92915050565b6060819050919050565b6060600060015490506000606060008054905067ffffffffffffffff811180156200116f57600080fd5b506040519080825280602002602001820160405280156200119f5781602001602082028036833780820191505090505b509050600060015490505b600080549050811015620013945760008181548110620011c657fe5b9060005260206000200160000160149054906101000a900460ff161562001386574260008281548110620011f657fe5b9060005260206000200160000160009054906101000a900473ffffffffffffffffffffffffffffffffffffffff1673ffffffffffffffffffffffffffffffffffffffff1663e8237fb16040518163ffffffff1660e01b815260040160206040518083038186803b1580156200126a57600080fd5b505afa1580156200127f573d6000803e3d6000fd5b505050506040513d60208110156200129657600080fd5b810190808051906020019092919050505010620012f9576000808281548110620012bc57fe5b9060005260206000200160000160146101000a81548160ff02191690831515021790555060018401811415620012f3576001840193505b62001385565b600081815481106200130757fe5b9060005260206000200160000160009054906101000a900473ffffffffffffffffffffffffffffffffffffffff168284815181106200134257fe5b602002602001019073ffffffffffffffffffffffffffffffffffffffff16908173ffffffffffffffffffffffffffffffffffffffff168152505082806001019350505b5b8080600101915050620011aa565b508260018190555080935050505090565b61102780620013c283390190565b610c4980620023e98339019056fe60806040523480156200001157600080fd5b506040516200102738038062001027833981810160405260408110156200003757600080fd5b81019080805160405193929190846401000000008211156200005857600080fd5b838201915060208201858111156200006f57600080fd5b82518660018202830111640100000000821117156200008d57600080fd5b8083526020830192505050908051906020019080838360005b83811015620000c3578082015181840152602081019050620000a6565b50505050905090810190601f168015620000f15780820380516001836020036101000a031916815260200191505b50604052602001805160405193929190846401000000008211156200011557600080fd5b838201915060208201858111156200012c57600080fd5b82518660018202830111640100000000821117156200014a57600080fd5b8083526020830192505050908051906020019080838360005b838110156200018057808201518184015260208101905062000163565b50505050905090810190601f168015620001ae5780820380516001836020036101000a031916815260200191505b50604052505050336000806101000a81548173ffffffffffffffffffffffffffffffffffffffff021916908373ffffffffffffffffffffffffffffffffffffffff16021790555081600190805190602001906200020d9291906200022f565b508060029080519060200190620002269291906200022f565b505050620002d5565b828054600181600116156101000203166002900490600052602060002090601f016020900481019282601f106200027257805160ff1916838001178555620002a3565b82800160010185558215620002a3579182015b82811115620002a257825182559160200191906001019062000285565b5b509050620002b29190620002b6565b5090565b5b80821115620002d1576000816000905550600101620002b7565b5090565b610d4280620002e56000396000f3fe608060405234801561001057600080fd5b506004361061009e5760003560e01c8063a07c385811610066578063a07c38581461024b578063ac9c4fd3146102aa578063ceb91664146102ee578063fb053a1514610332578063fb3ae56f146103765761009e565b806306fdde03146100a35780631cd14c7314610126578063651c45d21461018557806382fc3833146101d35780638da5cb5b14610217575b600080fd5b6100ab6103ba565b6040518080602001828103825283818151815260200191508051906020019080838360005b838110156100eb5780820151818401526020810190506100d0565b50505050905090810190601f1680156101185780820380516001836020036101000a031916815260200191505b509250505060405180910390f35b61012e610458565b6040518080602001828103825283818151815260200191508051906020019060200280838360005b83811015610171578082015181840152602081019050610156565b505050509050019250505060405180910390f35b6101d16004803603604081101561019b57600080fd5b81019080803573ffffffffffffffffffffffffffffffffffffffff169060200190929190803590602001909291905050506105ff565b005b610215600480360360208110156101e957600080fd5b81019080803573ffffffffffffffffffffffffffffffffffffffff16906020019092919050505061078b565b005b61021f610841565b604051808273ffffffffffffffffffffffffffffffffffffffff16815260200191505060405180910390f35b610253610865565b6040518080602001828103825283818151815260200191508051906020019060200280838360005b8381101561029657808201518184015260208101905061027b565b505050509050019250505060405180910390f35b6102ec600480360360208110156102c057600080fd5b81019080803573ffffffffffffffffffffffffffffffffffffffff169060200190929190505050610a08565b005b6103306004803603602081101561030457600080fd5b81019080803573ffffffffffffffffffffffffffffffffffffffff169060200190929190505050610b7f565b005b61035e6004803603602081101561034857600080fd5b8101908080359060200190929190505050610c2d565b60405180821515815260200191505060405180910390f35b6103a26004803603602081101561038c57600080fd5b8101908080359060200190929190505050610c5e565b60405180821515815260200191505060405180910390f35b60018054600181600116156101000203166002900480601f0160208091040260200160405190810160405280929190818152602001828054600181600116156101000203166002900480156104505780601f1061042557610100808354040283529160200191610450565b820191906000526020600020905b81548152906001019060200180831161043357829003601f168201915b505050505081565b60606000606060068054905067ffffffffffffffff8111801561047a57600080fd5b506040519080825280602002602001820160405280156104a95781602001602082028036833780820191505090505b50905060005b6006805490508110156104f9576104c581610c5e565b156104ec57808284815181106104d757fe5b60200260200101818152505082806001019350505b80806001019150506104af565b5060608267ffffffffffffffff8111801561051357600080fd5b506040519080825280602002602001820160405280156105425781602001602082028036833780820191505090505b50905060005b838110156105f557600683828151811061055e57fe5b60200260200101518154811061057057fe5b906000526020600020906002020160000160009054906101000a900473ffffffffffffffffffffffffffffffffffffffff168282815181106105ae57fe5b602002602001019073ffffffffffffffffffffffffffffffffffffffff16908173ffffffffffffffffffffffffffffffffffffffff16815250508080600101915050610548565b5080935050505090565b610607610c8f565b60405180608001604052808473ffffffffffffffffffffffffffffffffffffffff168152602001600115158152602001600015158152602001838152509050600681908060018154018082558091505060019003906000526020600020906002020160009091909190915060008201518160000160006101000a81548173ffffffffffffffffffffffffffffffffffffffff021916908373ffffffffffffffffffffffffffffffffffffffff16021790555060208201518160000160146101000a81548160ff02191690831515021790555060408201518160000160156101000a81548160ff021916908315150217905550606082015181600101555050600060016006805490500390507f5be249500b65b4edc242371051ca673da846850fddc967e8dd4999262f6133d8338583604051808473ffffffffffffffffffffffffffffffffffffffff1681526020018373ffffffffffffffffffffffffffffffffffffffff168152602001828152602001935050505060405180910390a150505050565b6000600460008373ffffffffffffffffffffffffffffffffffffffff1673ffffffffffffffffffffffffffffffffffffffff1681526020019081526020016000205490506000600682815481106107de57fe5b906000526020600020906002020160000160146101000a81548160ff02191690831515021790555060016006828154811061081557fe5b906000526020600020906002020160000160156101000a81548160ff0219169083151502179055505050565b60008054906101000a900473ffffffffffffffffffffffffffffffffffffffff1681565b60606000606060058054905067ffffffffffffffff8111801561088757600080fd5b506040519080825280602002602001820160405280156108b65781602001602082028036833780820191505090505b50905060005b600580549050811015610906576108d281610c2d565b156108f957808284815181106108e457fe5b60200260200101818152505082806001019350505b80806001019150506108bc565b5060608267ffffffffffffffff8111801561092057600080fd5b5060405190808252806020026020018201604052801561094f5781602001602082028036833780820191505090505b50905060005b838110156109fe57600583828151811061096b57fe5b60200260200101518154811061097d57fe5b9060005260206000200160000160009054906101000a900473ffffffffffffffffffffffffffffffffffffffff168282815181106109b757fe5b602002602001019073ffffffffffffffffffffffffffffffffffffffff16908173ffffffffffffffffffffffffffffffffffffffff16815250508080600101915050610955565b5080935050505090565b610a10610cd1565b60405180606001604052808373ffffffffffffffffffffffffffffffffffffffff1681526020016001151581526020016000151581525090506005819080600181540180825580915050600190039060005260206000200160009091909190915060008201518160000160006101000a81548173ffffffffffffffffffffffffffffffffffffffff021916908373ffffffffffffffffffffffffffffffffffffffff16021790555060208201518160000160146101000a81548160ff02191690831515021790555060408201518160000160156101000a81548160ff0219169083151502179055505050600060016005805490500390507fb65db7291775a92be29ca649ea31396d2bb260877cfdde2800b8bfc027840df0338483604051808473ffffffffffffffffffffffffffffffffffffffff1681526020018373ffffffffffffffffffffffffffffffffffffffff168152602001828152602001935050505060405180910390a1505050565b6000600360008373ffffffffffffffffffffffffffffffffffffffff1673ffffffffffffffffffffffffffffffffffffffff168152602001908152602001600020549050600060058281548110610bd257fe5b9060005260206000200160000160146101000a81548160ff021916908315150217905550600160058281548110610c0557fe5b9060005260206000200160000160156101000a81548160ff0219169083151502179055505050565b600060058281548110610c3c57fe5b9060005260206000200160000160149054906101000a900460ff169050919050565b600060058281548110610c6d57fe5b9060005260206000200160000160149054906101000a900460ff169050919050565b6040518060800160405280600073ffffffffffffffffffffffffffffffffffffffff168152602001600015158152602001600015158152602001600081525090565b6040518060600160405280600073ffffffffffffffffffffffffffffffffffffffff168152602001600015158152602001600015158152509056fea26469706673582212201a71ac1ab812ff48ea2d6e4961b270c52c7434da9dcf3c3c284a3d7582553dd464736f6c6343000700003360806040523480156200001157600080fd5b5060405162000c4938038062000c49833981810160405260e08110156200003757600080fd5b81019080805160405193929190846401000000008211156200005857600080fd5b838201915060208201858111156200006f57600080fd5b82518660018202830111640100000000821117156200008d57600080fd5b8083526020830192505050908051906020019080838360005b83811015620000c3578082015181840152602081019050620000a6565b50505050905090810190601f168015620000f15780820380516001836020036101000a031916815260200191505b506040526020018051906020019092919080519060200190929190805190602001909291908051906020019092919080519060200190929190805160405193929190846401000000008211156200014757600080fd5b838201915060208201858111156200015e57600080fd5b82518660018202830111640100000000821117156200017c57600080fd5b8083526020830192505050908051906020019080838360005b83811015620001b257808201518184015260208101905062000195565b50505050905090810190601f168015620001e05780820380516001836020036101000a031916815260200191505b50604052505050336000806101000a81548173ffffffffffffffffffffffffffffffffffffffff021916908373ffffffffffffffffffffffffffffffffffffffff16021790555085600181905550866002908051906020019062000246929190620002f1565b508460038190555083600481905550826005819055508160068190555080600790805190602001906200027b929190620002f1565b508567ffffffffffffffff811180156200029457600080fd5b50604051908082528060200260200182016040528015620002c45781602001602082028036833780820191505090505b5060089080519060200190620002dc92919062000378565b50856009819055505050505050505062000463565b828054600181600116156101000203166002900490600052602060002090601f016020900481019282601f106200033457805160ff191683800117855562000365565b8280016001018555821562000365579182015b828111156200036457825182559160200191906001019062000347565b5b50905062000374919062000407565b5090565b828054828255906000526020600020908101928215620003f4579160200282015b82811115620003f35782518260006101000a81548173ffffffffffffffffffffffffffffffffffffffff021916908373ffffffffffffffffffffffffffffffffffffffff1602179055509160200191906001019062000399565b5b50905062000403919062000426565b5090565b5b808211156200042257600081600090555060010162000408565b5090565b5b808211156200045f57600081816101000a81549073ffffffffffffffffffffffffffffffffffffffff02191690555060010162000427565b5090565b6107d680620004736000396000f3fe6080604052600436106100a05760003560e01c806361f3c62e1161006457806361f3c62e146102395780638da5cb5b146102645780639c5655d6146102a5578063a035b1fe146102d0578063cce7ec13146102fb578063e8237fb11461039e576100a7565b80630e153e24146100ac57806310b6315d146100d757806321d89592146101025780633ccfd60b146101925780634137e733146101a9576100a7565b366100a757005b600080fd5b3480156100b857600080fd5b506100c16103c9565b6040518082815260200191505060405180910390f35b3480156100e357600080fd5b506100ec6103cf565b6040518082815260200191505060405180910390f35b34801561010e57600080fd5b506101176103d5565b6040518080602001828103825283818151815260200191508051906020019080838360005b8381101561015757808201518184015260208101905061013c565b50505050905090810190601f1680156101845780820380516001836020036101000a031916815260200191505b509250505060405180910390f35b34801561019e57600080fd5b506101a7610473565b005b3480156101b557600080fd5b506101be61053e565b6040518080602001828103825283818151815260200191508051906020019080838360005b838110156101fe5780820151818401526020810190506101e3565b50505050905090810190601f16801561022b5780820380516001836020036101000a031916815260200191505b509250505060405180910390f35b34801561024557600080fd5b5061024e6105dc565b6040518082815260200191505060405180910390f35b34801561027057600080fd5b506102796105e2565b604051808273ffffffffffffffffffffffffffffffffffffffff16815260200191505060405180910390f35b3480156102b157600080fd5b506102ba610606565b6040518082815260200191505060405180910390f35b3480156102dc57600080fd5b506102e561060c565b6040518082815260200191505060405180910390f35b6103476004803603604081101561031157600080fd5b81019080803573ffffffffffffffffffffffffffffffffffffffff16906020019092919080359060200190929190505050610612565b6040518080602001828103825283818151815260200191508051906020019060200280838360005b8381101561038a57808201518184015260208101905061036f565b505050509050019250505060405180910390f35b3480156103aa57600080fd5b506103b361079a565b6040518082815260200191505060405180910390f35b60045481565b60065481565b60078054600181600116156101000203166002900480601f01602080910402602001604051908101604052809291908181526020018280546001816001161561010002031660029004801561046b5780601f106104405761010080835404028352916020019161046b565b820191906000526020600020905b81548152906001019060200180831161044e57829003601f168201915b505050505081565b60008054906101000a900473ffffffffffffffffffffffffffffffffffffffff1673ffffffffffffffffffffffffffffffffffffffff163373ffffffffffffffffffffffffffffffffffffffff16146104cb57600080fd5b60055442111561053c573373ffffffffffffffffffffffffffffffffffffffff164760405180600001905060006040518083038185875af1925050503d8060008114610533576040519150601f19603f3d011682016040523d82523d6000602084013e610538565b606091505b5050505b565b60028054600181600116156101000203166002900480601f0160208091040260200160405190810160405280929190818152602001828054600181600116156101000203166002900480156105d45780601f106105a9576101008083540402835291602001916105d4565b820191906000526020600020905b8154815290600101906020018083116105b757829003601f168201915b505050505081565b60095481565b60008054906101000a900473ffffffffffffffffffffffffffffffffffffffff1681565b60015481565b60035481565b606060008267ffffffffffffffff8111801561062d57600080fd5b5060405190808252806020026020018201604052801561065c5781602001602082028036833780820191505090505b50915060005b600154811015610792575b838210156107855760006008828154811061068457fe5b9060005260206000200160009054906101000a900473ffffffffffffffffffffffffffffffffffffffff169050600073ffffffffffffffffffffffffffffffffffffffff168173ffffffffffffffffffffffffffffffffffffffff161480156106ef57508460095410155b1561077f57856008838154811061070257fe5b9060005260206000200160006101000a81548173ffffffffffffffffffffffffffffffffffffffff021916908373ffffffffffffffffffffffffffffffffffffffff160217905550600960008154809291906001900391905055508184848151811061076a57fe5b60200260200101818152505082806001019350505b5061066d565b8080600101915050610662565b505092915050565b6005548156fea2646970667358221220ee3e298b37a004716bf93dbfc14182eb180b3ece394376f4997bfa4ccab5314964736f6c63430007000033a264697066735822122020886d64160c1fdbe47e9e8649adadff9d7673e48ca4d387a828602b8d43d81064736f6c63430007000033",
  "immutableReferences": {},
  "source": "pragma solidity >=0.7.0;\nimport \"./user.sol\";\nimport \"./campaign.sol\";\n// using SafeMath for uint256\n\n/*\npragma solidity  >=0.7.0;\n// using SafeMath for uint256\ncontract Campaign {\n  address public owner;\n  uint public seats;\n  string public campaign_name;\n  uint public price;\n  uint public campaign_start_time;\n  uint public campaign_end_time;\n  uint public start_sell_time;\n  string public abstraction;\n  address[] seat_owner;\n  uint256 public remain;\n  constructor(string memory _campaign_name, uint _seats, uint _price, uint _campaign_start_time, \n  uint _campaign_end_time, uint _start_sell_time, string memory _abstraction) public {\n    owner = msg.sender;\n    seats = _seats;\n    campaign_name = _campaign_name;\n    price = _price;\n    campaign_start_time = _campaign_start_time;\n    campaign_end_time = _campaign_end_time;\n    start_sell_time = _start_sell_time;\n    abstraction = _abstraction;\n    seat_owner = new address[](_seats);\n    remain = _seats;\n  }\n\n  modifier restricted() {\n    require (msg.sender == owner);\n    _;\n  }\n\n  function buy(address buyer, uint amount) public payable returns (uint[] memory seat_num){\n      uint j=0;\n      // uint k=0;\n      seat_num = new uint[](amount);\n      for (uint i=0; i<seats; i++){\n        while(j<amount){\n          address temp = seat_owner[uint(i)];\n          if (temp==address(0x00) && remain >= amount){\n              seat_owner[i]=buyer;\n              // buyer.transfer(price);\n              remain--;\n              seat_num[j]=i;\n              j++;\n          }\n        }\n      }\n  }\n\n  function withdraw() public restricted {\n      if (block.timestamp > campaign_end_time) {\n          msg.sender.call{value: address(this).balance}('');\n      }\n  }\n\n  receive () external payable {}\n}\n*/\n\ncontract Server {\n    struct server_campaign{\n        address payable campaign;\n        bool isvalid;\n    }\n    struct Ticket{\n        address  campaign_address;\n        uint seat_num;\n    }\n    server_campaign[] public campaigns;\n    uint ptr = 0;\n    mapping (address => address) private users;\n\n    function callServer(string memory i) public pure returns (string memory) {\n        return(i);\n    }\n    function addCampaign(string memory _campaign_name, uint _seats, uint _price, uint _campaign_start_time, \n    uint _campaign_end_time, uint _start_sell_time, string memory _abstraction) public {\n        if (users[msg.sender] != address(0x0)){\n            address payable campaign_address = address(new Campaign(_campaign_name, _seats, _price, _campaign_start_time, \n            _campaign_end_time, _start_sell_time, _abstraction));\n            campaigns.push(server_campaign(campaign_address, true));\n            User user = User(users[msg.sender]);\n            user.addCampaign(campaign_address);\n        }\n    }\n\n    function addUser(string memory _name, string memory _pwd) public returns (address user_address) {\n        if (users[msg.sender] == address(0x0)){\n            user_address = address(new User(_name, _pwd));\n            users[msg.sender] = user_address;\n        }\n    }\n\n    //TODO\n    // function getUserTickets() public view returns (Ticket[] memory list) {\n    //     \n    // }\n\n    function getUserCampaigns() public view returns (Campaign[] memory list) {\n        //TODO\n    }\n\n    function getCampaigns() public returns (address[] memory){\n        uint j = ptr;\n        uint k = 0;\n        address[] memory c = new address[](campaigns.length);\n        for (uint i = ptr; i<campaigns.length; i++){\n            if (campaigns[i].isvalid){\n                if (Campaign(campaigns[i].campaign).campaign_end_time() >= block.timestamp){\n                    campaigns[i].isvalid = false;\n                    if (i==j+1){\n                        j+=1;\n                    }\n                }else{\n                    c[k] = (campaigns[i].campaign);\n                    k++;\n                }\n            }\n        }\n        ptr = j;\n        return c;\n    }\n\n    function buyTicket(uint index, uint amount) public payable returns(uint[] memory seat_num){\n        if (users[msg.sender] != address(0x0)){\n            User user = User(users[msg.sender]);\n            if (campaigns[index].isvalid){\n                Campaign c = Campaign(campaigns[index].campaign);\n                if (c.remain() >= amount){\n                    seat_num = c.buy(msg.sender, amount);\n                }\n            }\n            for (uint i = 0; i < seat_num.length; i++){\n                user.addTicket(campaigns[index].campaign, seat_num[i]);\n            }\n        }\n    }\n\n    receive () external payable {}\n}\n\npragma solidity >=0.7.0;\n\n/*\ncontract User {\n\n    event OnAddCampaign(address user, address capmaign_addr, uint Id);\n    event OnAddTicket(address user, address attend_addr, uint Id);\n    event OnCompleteCampaign(address user, address capmaign_addr, uint Id);\n    event OnCompleteTicket(address user, address attend_addr, uint Id);\n\n// If a campaign is completed. Server will find the host of campaign (user),\n// call CompleteCampaign(address campaign_address). The address will be removed from own_campaigns.\n// Also, traverse all seat_owners of this campaign, for all the seat_owners(user), call CompleteTickets to delete the corresponding campaigns.\n    address public owner;\n    string public name;\n    string private pwd;\n\n    struct OwnCampaign {\n        address campaign_address;\n        bool isValid;\n        bool isEnd;\n    }\n    struct OwnTicket {\n        address attend_address;\n        bool isValid;\n        bool isEnd;\n        uint seat;\n    }\n    mapping (address => uint) campaign_addr_to_id;\n    mapping (address => uint) ticket_addr_to_id;\n\n    OwnCampaign[] own_campaigns;\n    OwnTicket[] own_tickets;\n\n\n    constructor(string memory _name, string memory _pwd) public {\n        owner = msg.sender;\n        name = _name;\n        pwd = _pwd;\n    }\n\n    modifier isValidCampaign(uint _campaignId) {\n        require(isCampaignValid(_campaignId), \"The campaign is end\");\n        _;\n    }\n\n    modifier isValidTicket(uint _ticketId) {\n        require(isCampaignValid(_ticketId), \"The campaign is end\");\n        _;\n    }\n\n    function isCampaignValid(uint _campaignId) public view returns(bool isValid) {\n        return own_campaigns[_campaignId].isValid;\n    }\n\n    function isTicketValid(uint _ticketId) public view returns(bool isValid) {\n        return own_campaigns[_ticketId].isValid;\n    }\n\n    function addCampaign(address _campaign_address) public {\n        OwnCampaign memory campaign = OwnCampaign(_campaign_address, true, false);\n        own_campaigns.push(campaign);\n        uint Id = own_campaigns.length - 1;\n\n        emit OnAddCampaign(msg.sender, _campaign_address, Id);\n    }\n\n    function addTicket(address _ticket_address, uint seatId) public {\n        OwnTicket memory ticket = OwnTicket(_ticket_address, true, false, seatId);\n        own_tickets.push(ticket);\n        uint Id = own_tickets.length - 1;\n\n        emit OnAddTicket(msg.sender, _ticket_address, Id);\n    }\n\n    function ViewCampaigns() public view returns(address[] memory) {\n        uint len = 0;\n        uint[] memory count_to_id = new uint[](own_campaigns.length);\n        for(uint id = 0; id < own_campaigns.length; id++) {\n            if (isCampaignValid(id)) {\n                count_to_id[len] = id;\n                len++;\n            }\n        }\n        address[] memory campaignList = new address[](len);\n        for(uint i = 0; i < len; i++) {\n            campaignList[i] = own_campaigns[count_to_id[i]].campaign_address;\n        }\n        return campaignList;\n    }\n\n    function ViewTickets() public view returns(address[] memory) {\n        uint len = 0;\n        uint[] memory count_to_id = new uint[](own_tickets.length);\n        for(uint id = 0; id < own_tickets.length; id++) {\n            if (isTicketValid(id)) {\n                count_to_id[len] = id;\n                len++;\n            }\n        }\n        address[] memory campaignList = new address[](len);\n        for(uint i = 0; i < len; i++) {\n            campaignList[i] = own_tickets[count_to_id[i]].attend_address;\n        }\n        return campaignList;\n    }\n\n    function CompleteCampaign(address _campaign_address) public {\n        uint _id = campaign_addr_to_id[_campaign_address];\n        own_campaigns[_id].isValid = false;\n        own_campaigns[_id].isEnd = true;\n    }\n\n    function CompleteTicket(address _ticket_address) public {\n        uint _id = ticket_addr_to_id[_ticket_address];\n        own_tickets[_id].isValid = false;\n        own_tickets[_id].isEnd = true;\n    }\n}\n*/",
  "sourcePath": "/Users/liu/Desktop/deapp-final/ticket system/contracts/server.sol",
  "compiler": {
    "name": "solc",
    "version": "0.7.0+commit.9e61f92b.Emscripten.clang"
  },
  "schemaVersion": "3.3.2",
  "updatedAt": "2020-12-19T18:31:54.416Z",
  "networkType": "ethereum",
  "devdoc": {
    "kind": "dev",
    "methods": {},
    "version": 1
  },
  "userdoc": {
    "kind": "user",
    "methods": {},
    "version": 1
  }
}