{
  "contractName": "User",
  "abi": [
    {
      "inputs": [
        {
          "internalType": "string",
          "name": "_name",
          "type": "string"
        },
        {
          "internalType": "string",
          "name": "_pwd",
          "type": "string"
        }
      ],
      "stateMutability": "nonpayable",
      "type": "constructor"
    },
    {
      "anonymous": false,
      "inputs": [
        {
          "indexed": false,
          "internalType": "address",
          "name": "user",
          "type": "address"
        },
        {
          "indexed": false,
          "internalType": "address",
          "name": "capmaign_addr",
          "type": "address"
        },
        {
          "indexed": false,
          "internalType": "uint256",
          "name": "Id",
          "type": "uint256"
        }
      ],
      "name": "OnAddCampaign",
      "type": "event"
    },
    {
      "anonymous": false,
      "inputs": [
        {
          "indexed": false,
          "internalType": "address",
          "name": "user",
          "type": "address"
        },
        {
          "indexed": false,
          "internalType": "address",
          "name": "attend_addr",
          "type": "address"
        },
        {
          "indexed": false,
          "internalType": "uint256",
          "name": "Id",
          "type": "uint256"
        }
      ],
      "name": "OnAddTicket",
      "type": "event"
    },
    {
      "anonymous": false,
      "inputs": [
        {
          "indexed": false,
          "internalType": "address",
          "name": "user",
          "type": "address"
        },
        {
          "indexed": false,
          "internalType": "address",
          "name": "capmaign_addr",
          "type": "address"
        },
        {
          "indexed": false,
          "internalType": "uint256",
          "name": "Id",
          "type": "uint256"
        }
      ],
      "name": "OnCompleteCampaign",
      "type": "event"
    },
    {
      "anonymous": false,
      "inputs": [
        {
          "indexed": false,
          "internalType": "address",
          "name": "user",
          "type": "address"
        },
        {
          "indexed": false,
          "internalType": "address",
          "name": "attend_addr",
          "type": "address"
        },
        {
          "indexed": false,
          "internalType": "uint256",
          "name": "Id",
          "type": "uint256"
        }
      ],
      "name": "OnCompleteTicket",
      "type": "event"
    },
    {
      "inputs": [],
      "name": "name",
      "outputs": [
        {
          "internalType": "string",
          "name": "",
          "type": "string"
        }
      ],
      "stateMutability": "view",
      "type": "function"
    },
    {
      "inputs": [],
      "name": "owner",
      "outputs": [
        {
          "internalType": "address",
          "name": "",
          "type": "address"
        }
      ],
      "stateMutability": "view",
      "type": "function"
    },
    {
      "inputs": [
        {
          "internalType": "uint256",
          "name": "_campaignId",
          "type": "uint256"
        }
      ],
      "name": "isCampaignValid",
      "outputs": [
        {
          "internalType": "bool",
          "name": "isValid",
          "type": "bool"
        }
      ],
      "stateMutability": "view",
      "type": "function"
    },
    {
      "inputs": [
        {
          "internalType": "uint256",
          "name": "_ticketId",
          "type": "uint256"
        }
      ],
      "name": "isTicketValid",
      "outputs": [
        {
          "internalType": "bool",
          "name": "isValid",
          "type": "bool"
        }
      ],
      "stateMutability": "view",
      "type": "function"
    },
    {
      "inputs": [
        {
          "internalType": "address",
          "name": "_campaign_address",
          "type": "address"
        }
      ],
      "name": "addCampaign",
      "outputs": [],
      "stateMutability": "nonpayable",
      "type": "function"
    },
    {
      "inputs": [
        {
          "internalType": "address",
          "name": "_ticket_address",
          "type": "address"
        },
        {
          "internalType": "uint256",
          "name": "seatId",
          "type": "uint256"
        }
      ],
      "name": "addTicket",
      "outputs": [],
      "stateMutability": "nonpayable",
      "type": "function"
    },
    {
      "inputs": [],
      "name": "ViewCampaigns",
      "outputs": [
        {
          "internalType": "address[]",
          "name": "",
          "type": "address[]"
        }
      ],
      "stateMutability": "view",
      "type": "function"
    },
    {
      "inputs": [],
      "name": "ViewTickets",
      "outputs": [
        {
          "internalType": "address[]",
          "name": "",
          "type": "address[]"
        }
      ],
      "stateMutability": "view",
      "type": "function"
    },
    {
      "inputs": [
        {
          "internalType": "address",
          "name": "_campaign_address",
          "type": "address"
        }
      ],
      "name": "CompleteCampaign",
      "outputs": [],
      "stateMutability": "nonpayable",
      "type": "function"
    },
    {
      "inputs": [
        {
          "internalType": "address",
          "name": "_ticket_address",
          "type": "address"
        }
      ],
      "name": "CompleteTicket",
      "outputs": [],
      "stateMutability": "nonpayable",
      "type": "function"
    }
  ],
  "bytecode": "0x60806040523480156200001157600080fd5b506040516200104438038062001044833981810160405260408110156200003757600080fd5b81019080805160405193929190846401000000008211156200005857600080fd5b838201915060208201858111156200006f57600080fd5b82518660018202830111640100000000821117156200008d57600080fd5b8083526020830192505050908051906020019080838360005b83811015620000c3578082015181840152602081019050620000a6565b50505050905090810190601f168015620000f15780820380516001836020036101000a031916815260200191505b50604052602001805160405193929190846401000000008211156200011557600080fd5b838201915060208201858111156200012c57600080fd5b82518660018202830111640100000000821117156200014a57600080fd5b8083526020830192505050908051906020019080838360005b838110156200018057808201518184015260208101905062000163565b50505050905090810190601f168015620001ae5780820380516001836020036101000a031916815260200191505b50604052505050336000806101000a81548173ffffffffffffffffffffffffffffffffffffffff021916908373ffffffffffffffffffffffffffffffffffffffff16021790555081600190805190602001906200020d9291906200022f565b508060029080519060200190620002269291906200022f565b505050620002d5565b828054600181600116156101000203166002900490600052602060002090601f016020900481019282601f106200027257805160ff1916838001178555620002a3565b82800160010185558215620002a3579182015b82811115620002a257825182559160200191906001019062000285565b5b509050620002b29190620002b6565b5090565b5b80821115620002d1576000816000905550600101620002b7565b5090565b610d5f80620002e56000396000f3fe608060405234801561001057600080fd5b50600436106100bb576000357c010000000000000000000000000000000000000000000000000000000090048063a07c385811610083578063a07c385814610268578063ac9c4fd3146102c7578063ceb916641461030b578063fb053a151461034f578063fb3ae56f14610393576100bb565b806306fdde03146100c05780631cd14c7314610143578063651c45d2146101a257806382fc3833146101f05780638da5cb5b14610234575b600080fd5b6100c86103d7565b6040518080602001828103825283818151815260200191508051906020019080838360005b838110156101085780820151818401526020810190506100ed565b50505050905090810190601f1680156101355780820380516001836020036101000a031916815260200191505b509250505060405180910390f35b61014b610475565b6040518080602001828103825283818151815260200191508051906020019060200280838360005b8381101561018e578082015181840152602081019050610173565b505050509050019250505060405180910390f35b6101ee600480360360408110156101b857600080fd5b81019080803573ffffffffffffffffffffffffffffffffffffffff1690602001909291908035906020019092919050505061061c565b005b6102326004803603602081101561020657600080fd5b81019080803573ffffffffffffffffffffffffffffffffffffffff1690602001909291905050506107a8565b005b61023c61085e565b604051808273ffffffffffffffffffffffffffffffffffffffff16815260200191505060405180910390f35b610270610882565b6040518080602001828103825283818151815260200191508051906020019060200280838360005b838110156102b3578082015181840152602081019050610298565b505050509050019250505060405180910390f35b610309600480360360208110156102dd57600080fd5b81019080803573ffffffffffffffffffffffffffffffffffffffff169060200190929190505050610a25565b005b61034d6004803603602081101561032157600080fd5b81019080803573ffffffffffffffffffffffffffffffffffffffff169060200190929190505050610b9c565b005b61037b6004803603602081101561036557600080fd5b8101908080359060200190929190505050610c4a565b60405180821515815260200191505060405180910390f35b6103bf600480360360208110156103a957600080fd5b8101908080359060200190929190505050610c7b565b60405180821515815260200191505060405180910390f35b60018054600181600116156101000203166002900480601f01602080910402602001604051908101604052809291908181526020018280546001816001161561010002031660029004801561046d5780601f106104425761010080835404028352916020019161046d565b820191906000526020600020905b81548152906001019060200180831161045057829003601f168201915b505050505081565b60606000606060068054905067ffffffffffffffff8111801561049757600080fd5b506040519080825280602002602001820160405280156104c65781602001602082028036833780820191505090505b50905060005b600680549050811015610516576104e281610c7b565b1561050957808284815181106104f457fe5b60200260200101818152505082806001019350505b80806001019150506104cc565b5060608267ffffffffffffffff8111801561053057600080fd5b5060405190808252806020026020018201604052801561055f5781602001602082028036833780820191505090505b50905060005b8381101561061257600683828151811061057b57fe5b60200260200101518154811061058d57fe5b906000526020600020906002020160000160009054906101000a900473ffffffffffffffffffffffffffffffffffffffff168282815181106105cb57fe5b602002602001019073ffffffffffffffffffffffffffffffffffffffff16908173ffffffffffffffffffffffffffffffffffffffff16815250508080600101915050610565565b5080935050505090565b610624610cac565b60405180608001604052808473ffffffffffffffffffffffffffffffffffffffff168152602001600115158152602001600015158152602001838152509050600681908060018154018082558091505060019003906000526020600020906002020160009091909190915060008201518160000160006101000a81548173ffffffffffffffffffffffffffffffffffffffff021916908373ffffffffffffffffffffffffffffffffffffffff16021790555060208201518160000160146101000a81548160ff02191690831515021790555060408201518160000160156101000a81548160ff021916908315150217905550606082015181600101555050600060016006805490500390507f5be249500b65b4edc242371051ca673da846850fddc967e8dd4999262f6133d8338583604051808473ffffffffffffffffffffffffffffffffffffffff1681526020018373ffffffffffffffffffffffffffffffffffffffff168152602001828152602001935050505060405180910390a150505050565b6000600460008373ffffffffffffffffffffffffffffffffffffffff1673ffffffffffffffffffffffffffffffffffffffff1681526020019081526020016000205490506000600682815481106107fb57fe5b906000526020600020906002020160000160146101000a81548160ff02191690831515021790555060016006828154811061083257fe5b906000526020600020906002020160000160156101000a81548160ff0219169083151502179055505050565b60008054906101000a900473ffffffffffffffffffffffffffffffffffffffff1681565b60606000606060058054905067ffffffffffffffff811180156108a457600080fd5b506040519080825280602002602001820160405280156108d35781602001602082028036833780820191505090505b50905060005b600580549050811015610923576108ef81610c4a565b15610916578082848151811061090157fe5b60200260200101818152505082806001019350505b80806001019150506108d9565b5060608267ffffffffffffffff8111801561093d57600080fd5b5060405190808252806020026020018201604052801561096c5781602001602082028036833780820191505090505b50905060005b83811015610a1b57600583828151811061098857fe5b60200260200101518154811061099a57fe5b9060005260206000200160000160009054906101000a900473ffffffffffffffffffffffffffffffffffffffff168282815181106109d457fe5b602002602001019073ffffffffffffffffffffffffffffffffffffffff16908173ffffffffffffffffffffffffffffffffffffffff16815250508080600101915050610972565b5080935050505090565b610a2d610cee565b60405180606001604052808373ffffffffffffffffffffffffffffffffffffffff1681526020016001151581526020016000151581525090506005819080600181540180825580915050600190039060005260206000200160009091909190915060008201518160000160006101000a81548173ffffffffffffffffffffffffffffffffffffffff021916908373ffffffffffffffffffffffffffffffffffffffff16021790555060208201518160000160146101000a81548160ff02191690831515021790555060408201518160000160156101000a81548160ff0219169083151502179055505050600060016005805490500390507fb65db7291775a92be29ca649ea31396d2bb260877cfdde2800b8bfc027840df0338483604051808473ffffffffffffffffffffffffffffffffffffffff1681526020018373ffffffffffffffffffffffffffffffffffffffff168152602001828152602001935050505060405180910390a1505050565b6000600360008373ffffffffffffffffffffffffffffffffffffffff1673ffffffffffffffffffffffffffffffffffffffff168152602001908152602001600020549050600060058281548110610bef57fe5b9060005260206000200160000160146101000a81548160ff021916908315150217905550600160058281548110610c2257fe5b9060005260206000200160000160156101000a81548160ff0219169083151502179055505050565b600060058281548110610c5957fe5b9060005260206000200160000160149054906101000a900460ff169050919050565b600060058281548110610c8a57fe5b9060005260206000200160000160149054906101000a900460ff169050919050565b6040518060800160405280600073ffffffffffffffffffffffffffffffffffffffff168152602001600015158152602001600015158152602001600081525090565b6040518060600160405280600073ffffffffffffffffffffffffffffffffffffffff168152602001600015158152602001600015158152509056fea264697066735822122075a323eeacd0648df88b6a14dc37122b4437241f2b1335364b32f8b56595d5b464736f6c63430007000033",
  "immutableReferences": {},
  "source": "pragma solidity >=0.7.0;\r\n// using SafeMath for uint256;\r\n// pragma solidity  >=0.7.0;\r\n// using SafeMath for uint256\r\n\r\n// using SafeMath for uint256\r\n\r\ncontract Campaign {\r\n  address public owner;\r\n  uint public seats;\r\n  string public campaign_name;\r\n  uint public price;\r\n  uint public campaign_start_time;\r\n  uint public campaign_end_time;\r\n  uint public start_sell_time;\r\n  string public abstraction;\r\n  address[] seat_owner;\r\n  uint256 public remain;\r\n  constructor(string memory _campaign_name, uint _seats, uint _price, uint _campaign_start_time, \r\n  uint _campaign_end_time, uint _start_sell_time, string memory _abstraction) public {\r\n    owner = msg.sender;\r\n    seats = _seats;\r\n    campaign_name = _campaign_name;\r\n    price = _price;\r\n    campaign_start_time = _campaign_start_time;\r\n    campaign_end_time = _campaign_end_time;\r\n    start_sell_time = _start_sell_time;\r\n    abstraction = _abstraction;\r\n    seat_owner = new address[](_seats);\r\n    remain = _seats;\r\n  }\r\n\r\n  modifier restricted() {\r\n    require (msg.sender == owner);\r\n    _;\r\n  }\r\n\r\n  function buy(address buyer, uint amount) public payable returns (uint[] memory seat_num){\r\n      uint j=0;\r\n      // uint k=0;\r\n      seat_num = new uint[](amount);\r\n      for (uint i=0; i<seats; i++){\r\n        while(j<amount){\r\n          address temp = seat_owner[uint(i)];\r\n          if (temp==address(0x00) && remain >= amount){\r\n              seat_owner[i]=buyer;\r\n              // buyer.transfer(price);\r\n              remain--;\r\n              seat_num[j]=i;\r\n              j++;\r\n          }\r\n        }\r\n      }\r\n  }\r\n\r\n  function withdraw() public restricted {\r\n      if (block.timestamp > campaign_end_time) {\r\n          msg.sender.call{value: address(this).balance}('');\r\n      }\r\n  }\r\n\r\n  receive () external payable {}\r\n}\r\n\r\n\r\ncontract Server {\r\n    struct server_campaign{\r\n        address payable campaign;\r\n        bool isvalid;\r\n    }\r\n    struct Ticket{\r\n        address  campaign_address;\r\n        uint seat_num;\r\n    }\r\n    server_campaign[] public campaigns;\r\n    uint ptr = 0;\r\n    mapping (address => address) private users;\r\n\r\n    function callServer(string memory i) public pure returns (string memory) {\r\n        return(i);\r\n    }\r\n    function addCampaign(string memory _campaign_name, uint _seats, uint _price, uint _campaign_start_time, \r\n    uint _campaign_end_time, uint _start_sell_time, string memory _abstraction) public {\r\n        if (users[msg.sender] != address(0x0)){\r\n            address payable campaign_address = address(new Campaign(_campaign_name, _seats, _price, _campaign_start_time, \r\n            _campaign_end_time, _start_sell_time, _abstraction));\r\n            campaigns.push(server_campaign(campaign_address, true));\r\n            User user = User(users[msg.sender]);\r\n            user.addCampaign(campaign_address);\r\n        }\r\n    }\r\n\r\n    function addUser(string memory _name, string memory _pwd) public returns (string memory message,address user_address) {\r\n        if (users[msg.sender] == address(0x0)){\r\n            user_address = address(new User(_name, _pwd));\r\n            users[msg.sender] = user_address;\r\n            message = \"successs\";\r\n        } else{\r\n            message = \"already exist\";\r\n        }\r\n    }\r\n\r\n    //TODO\r\n    // function getUserTickets() public view returns (Ticket[] memory list) {\r\n    //     \r\n    // }\r\n\r\n    function getUserCampaigns() public view returns (Campaign[] memory list) {\r\n        //TODO\r\n    }\r\n\r\n    function getCampaigns() public returns (address[] memory){\r\n        uint j = ptr;\r\n        uint k = 0;\r\n        address[] memory c = new address[](campaigns.length);\r\n        for (uint i = ptr; i<campaigns.length; i++){\r\n            if (campaigns[i].isvalid){\r\n                if (Campaign(campaigns[i].campaign).campaign_end_time() >= block.timestamp){\r\n                    campaigns[i].isvalid = false;\r\n                    if (i==j+1){\r\n                        j+=1;\r\n                    }\r\n                }else{\r\n                    c[k] = (campaigns[i].campaign);\r\n                    k++;\r\n                }\r\n            }\r\n        }\r\n        ptr = j;\r\n        return c;\r\n    }\r\n\r\n    function buyTicket(uint index, uint amount) public payable returns(uint[] memory seat_num){\r\n        if (users[msg.sender] != address(0x0)){\r\n            User user = User(users[msg.sender]);\r\n            if (campaigns[index].isvalid){\r\n                Campaign c = Campaign(campaigns[index].campaign);\r\n                if (c.remain() >= amount){\r\n                    seat_num = c.buy(msg.sender, amount);\r\n                }\r\n            }\r\n            for (uint i = 0; i < seat_num.length; i++){\r\n                user.addTicket(campaigns[index].campaign, seat_num[i]);\r\n            }\r\n        }\r\n    }\r\n\r\n    receive () external payable {}\r\n}\r\n\r\npragma solidity >=0.7.0;\r\n\r\ncontract User {\r\n\r\n    event OnAddCampaign(address user, address capmaign_addr, uint Id);\r\n    event OnAddTicket(address user, address attend_addr, uint Id);\r\n    event OnCompleteCampaign(address user, address capmaign_addr, uint Id);\r\n    event OnCompleteTicket(address user, address attend_addr, uint Id);\r\n/*\r\nIf a campaign is completed. Server will find the host of campaign (user),\r\ncall CompleteCampaign(address campaign_address). The address will be removed from\r\nown_campaigns.\r\nAlso, traverse all seat_owners of this campaign, for all the seat_owners(user), call CompleteTickets to delete the corresponding campaigns.\r\n*/\r\n    address public owner;\r\n    string public name;\r\n    string private pwd;\r\n\r\n    struct OwnCampaign {\r\n        address campaign_address;\r\n        bool isValid;\r\n        bool isEnd;\r\n    }\r\n    struct OwnTicket {\r\n        address attend_address;\r\n        bool isValid;\r\n        bool isEnd;\r\n        uint seat;\r\n    }\r\n    mapping (address => uint) campaign_addr_to_id;\r\n    mapping (address => uint) ticket_addr_to_id;\r\n\r\n    OwnCampaign[] own_campaigns;\r\n    OwnTicket[] own_tickets;\r\n\r\n\r\n    constructor(string memory _name, string memory _pwd) public {\r\n        owner = msg.sender;\r\n        name = _name;\r\n        pwd = _pwd;\r\n    }\r\n\r\n    modifier isValidCampaign(uint _campaignId) {\r\n        require(isCampaignValid(_campaignId), \"The campaign is end\");\r\n        _;\r\n    }\r\n\r\n    modifier isValidTicket(uint _ticketId) {\r\n        require(isCampaignValid(_ticketId), \"The campaign is end\");\r\n        _;\r\n    }\r\n\r\n    function isCampaignValid(uint _campaignId) public view returns(bool isValid) {\r\n        return own_campaigns[_campaignId].isValid;\r\n    }\r\n\r\n    function isTicketValid(uint _ticketId) public view returns(bool isValid) {\r\n        return own_campaigns[_ticketId].isValid;\r\n    }\r\n\r\n    function addCampaign(address _campaign_address) public {\r\n        OwnCampaign memory campaign = OwnCampaign(_campaign_address, true, false);\r\n        own_campaigns.push(campaign);\r\n        uint Id = own_campaigns.length - 1;\r\n\r\n        emit OnAddCampaign(msg.sender, _campaign_address, Id);\r\n    }\r\n\r\n    function addTicket(address _ticket_address, uint seatId) public {\r\n        OwnTicket memory ticket = OwnTicket(_ticket_address, true, false, seatId);\r\n        own_tickets.push(ticket);\r\n        uint Id = own_tickets.length - 1;\r\n\r\n        emit OnAddTicket(msg.sender, _ticket_address, Id);\r\n    }\r\n\r\n    function ViewCampaigns() public view returns(address[] memory) {\r\n        uint len = 0;\r\n        uint[] memory count_to_id = new uint[](own_campaigns.length);\r\n        for(uint id = 0; id < own_campaigns.length; id++) {\r\n            if (isCampaignValid(id)) {\r\n                count_to_id[len] = id;\r\n                len++;\r\n            }\r\n        }\r\n        address[] memory campaignList = new address[](len);\r\n        for(uint i = 0; i < len; i++) {\r\n            campaignList[i] = own_campaigns[count_to_id[i]].campaign_address;\r\n        }\r\n        return campaignList;\r\n    }\r\n\r\n    function ViewTickets() public view returns(address[] memory) {\r\n        uint len = 0;\r\n        uint[] memory count_to_id = new uint[](own_tickets.length);\r\n        for(uint id = 0; id < own_tickets.length; id++) {\r\n            if (isTicketValid(id)) {\r\n                count_to_id[len] = id;\r\n                len++;\r\n            }\r\n        }\r\n        address[] memory campaignList = new address[](len);\r\n        for(uint i = 0; i < len; i++) {\r\n            campaignList[i] = own_tickets[count_to_id[i]].attend_address;\r\n        }\r\n        return campaignList;\r\n    }\r\n\r\n    function CompleteCampaign(address _campaign_address) public {\r\n        uint _id = campaign_addr_to_id[_campaign_address];\r\n        own_campaigns[_id].isValid = false;\r\n        own_campaigns[_id].isEnd = true;\r\n    }\r\n\r\n    function CompleteTicket(address _ticket_address) public {\r\n        uint _id = ticket_addr_to_id[_ticket_address];\r\n        own_tickets[_id].isValid = false;\r\n        own_tickets[_id].isEnd = true;\r\n    }\r\n}",
  "sourcePath": "F:/109-1/Networking and Multinmedia(Lab)/deapp-final/ticket system/contracts/server.sol",
  "compiler": {
    "name": "solc",
    "version": "0.7.0+commit.9e61f92b.Emscripten.clang"
  },
  "schemaVersion": "3.3.2",
  "updatedAt": "2020-12-19T04:27:56.822Z",
  "devdoc": {
    "kind": "dev",
    "methods": {},
    "version": 1
  },
  "userdoc": {
    "kind": "user",
    "methods": {},
    "version": 1
  }
}