{
  "contractName": "User",
  "abi": [
    {
      "inputs": [
        {
          "internalType": "string",
          "name": "_name",
          "type": "string"
        },
        {
          "internalType": "string",
          "name": "_pwd",
          "type": "string"
        }
      ],
      "stateMutability": "nonpayable",
      "type": "constructor"
    },
    {
      "anonymous": false,
      "inputs": [
        {
          "indexed": false,
          "internalType": "address",
          "name": "user",
          "type": "address"
        },
        {
          "indexed": false,
          "internalType": "address",
          "name": "capmaign_addr",
          "type": "address"
        },
        {
          "indexed": false,
          "internalType": "uint256",
          "name": "Id",
          "type": "uint256"
        }
      ],
      "name": "OnAddCampaign",
      "type": "event"
    },
    {
      "anonymous": false,
      "inputs": [
        {
          "indexed": false,
          "internalType": "address",
          "name": "user",
          "type": "address"
        },
        {
          "indexed": false,
          "internalType": "address",
          "name": "attend_addr",
          "type": "address"
        },
        {
          "indexed": false,
          "internalType": "uint256",
          "name": "Id",
          "type": "uint256"
        }
      ],
      "name": "OnAddTicket",
      "type": "event"
    },
    {
      "anonymous": false,
      "inputs": [
        {
          "indexed": false,
          "internalType": "address",
          "name": "user",
          "type": "address"
        },
        {
          "indexed": false,
          "internalType": "address",
          "name": "capmaign_addr",
          "type": "address"
        },
        {
          "indexed": false,
          "internalType": "uint256",
          "name": "Id",
          "type": "uint256"
        }
      ],
      "name": "OnCompleteCampaign",
      "type": "event"
    },
    {
      "anonymous": false,
      "inputs": [
        {
          "indexed": false,
          "internalType": "address",
          "name": "user",
          "type": "address"
        },
        {
          "indexed": false,
          "internalType": "address",
          "name": "attend_addr",
          "type": "address"
        },
        {
          "indexed": false,
          "internalType": "uint256",
          "name": "Id",
          "type": "uint256"
        }
      ],
      "name": "OnCompleteTicket",
      "type": "event"
    },
    {
      "inputs": [],
      "name": "name",
      "outputs": [
        {
          "internalType": "string",
          "name": "",
          "type": "string"
        }
      ],
      "stateMutability": "view",
      "type": "function",
      "constant": true
    },
    {
      "inputs": [],
      "name": "owner",
      "outputs": [
        {
          "internalType": "address",
          "name": "",
          "type": "address"
        }
      ],
      "stateMutability": "view",
      "type": "function",
      "constant": true
    },
    {
      "inputs": [
        {
          "internalType": "uint256",
          "name": "_campaignId",
          "type": "uint256"
        }
      ],
      "name": "isCampaignValid",
      "outputs": [
        {
          "internalType": "bool",
          "name": "isValid",
          "type": "bool"
        }
      ],
      "stateMutability": "view",
      "type": "function",
      "constant": true
    },
    {
      "inputs": [
        {
          "internalType": "uint256",
          "name": "_ticketId",
          "type": "uint256"
        }
      ],
      "name": "isTicketValid",
      "outputs": [
        {
          "internalType": "bool",
          "name": "isValid",
          "type": "bool"
        }
      ],
      "stateMutability": "view",
      "type": "function",
      "constant": true
    },
    {
      "inputs": [
        {
          "internalType": "address",
          "name": "_campaign_address",
          "type": "address"
        }
      ],
      "name": "addCampaign",
      "outputs": [],
      "stateMutability": "nonpayable",
      "type": "function"
    },
    {
      "inputs": [
        {
          "internalType": "address",
          "name": "_ticket_address",
          "type": "address"
        },
        {
          "internalType": "uint256",
          "name": "seatId",
          "type": "uint256"
        }
      ],
      "name": "addTicket",
      "outputs": [],
      "stateMutability": "nonpayable",
      "type": "function"
    },
    {
      "inputs": [],
      "name": "ViewCampaigns",
      "outputs": [
        {
          "internalType": "address[]",
          "name": "",
          "type": "address[]"
        }
      ],
      "stateMutability": "view",
      "type": "function",
      "constant": true
    },
    {
      "inputs": [],
      "name": "ViewTickets",
      "outputs": [
        {
          "internalType": "address[]",
          "name": "",
          "type": "address[]"
        }
      ],
      "stateMutability": "view",
      "type": "function",
      "constant": true
    },
    {
      "inputs": [
        {
          "internalType": "address",
          "name": "_campaign_address",
          "type": "address"
        }
      ],
      "name": "CompleteCampaign",
      "outputs": [],
      "stateMutability": "nonpayable",
      "type": "function"
    },
    {
      "inputs": [
        {
          "internalType": "address",
          "name": "_ticket_address",
          "type": "address"
        }
      ],
      "name": "CompleteTicket",
      "outputs": [],
      "stateMutability": "nonpayable",
      "type": "function"
    }
  ],
  "bytecode": "0x60806040523480156200001157600080fd5b506040516200102738038062001027833981810160405260408110156200003757600080fd5b81019080805160405193929190846401000000008211156200005857600080fd5b838201915060208201858111156200006f57600080fd5b82518660018202830111640100000000821117156200008d57600080fd5b8083526020830192505050908051906020019080838360005b83811015620000c3578082015181840152602081019050620000a6565b50505050905090810190601f168015620000f15780820380516001836020036101000a031916815260200191505b50604052602001805160405193929190846401000000008211156200011557600080fd5b838201915060208201858111156200012c57600080fd5b82518660018202830111640100000000821117156200014a57600080fd5b8083526020830192505050908051906020019080838360005b838110156200018057808201518184015260208101905062000163565b50505050905090810190601f168015620001ae5780820380516001836020036101000a031916815260200191505b50604052505050336000806101000a81548173ffffffffffffffffffffffffffffffffffffffff021916908373ffffffffffffffffffffffffffffffffffffffff16021790555081600190805190602001906200020d9291906200022f565b508060029080519060200190620002269291906200022f565b505050620002d5565b828054600181600116156101000203166002900490600052602060002090601f016020900481019282601f106200027257805160ff1916838001178555620002a3565b82800160010185558215620002a3579182015b82811115620002a257825182559160200191906001019062000285565b5b509050620002b29190620002b6565b5090565b5b80821115620002d1576000816000905550600101620002b7565b5090565b610d4280620002e56000396000f3fe608060405234801561001057600080fd5b506004361061009e5760003560e01c8063a07c385811610066578063a07c38581461024b578063ac9c4fd3146102aa578063ceb91664146102ee578063fb053a1514610332578063fb3ae56f146103765761009e565b806306fdde03146100a35780631cd14c7314610126578063651c45d21461018557806382fc3833146101d35780638da5cb5b14610217575b600080fd5b6100ab6103ba565b6040518080602001828103825283818151815260200191508051906020019080838360005b838110156100eb5780820151818401526020810190506100d0565b50505050905090810190601f1680156101185780820380516001836020036101000a031916815260200191505b509250505060405180910390f35b61012e610458565b6040518080602001828103825283818151815260200191508051906020019060200280838360005b83811015610171578082015181840152602081019050610156565b505050509050019250505060405180910390f35b6101d16004803603604081101561019b57600080fd5b81019080803573ffffffffffffffffffffffffffffffffffffffff169060200190929190803590602001909291905050506105ff565b005b610215600480360360208110156101e957600080fd5b81019080803573ffffffffffffffffffffffffffffffffffffffff16906020019092919050505061078b565b005b61021f610841565b604051808273ffffffffffffffffffffffffffffffffffffffff16815260200191505060405180910390f35b610253610865565b6040518080602001828103825283818151815260200191508051906020019060200280838360005b8381101561029657808201518184015260208101905061027b565b505050509050019250505060405180910390f35b6102ec600480360360208110156102c057600080fd5b81019080803573ffffffffffffffffffffffffffffffffffffffff169060200190929190505050610a08565b005b6103306004803603602081101561030457600080fd5b81019080803573ffffffffffffffffffffffffffffffffffffffff169060200190929190505050610b7f565b005b61035e6004803603602081101561034857600080fd5b8101908080359060200190929190505050610c2d565b60405180821515815260200191505060405180910390f35b6103a26004803603602081101561038c57600080fd5b8101908080359060200190929190505050610c5e565b60405180821515815260200191505060405180910390f35b60018054600181600116156101000203166002900480601f0160208091040260200160405190810160405280929190818152602001828054600181600116156101000203166002900480156104505780601f1061042557610100808354040283529160200191610450565b820191906000526020600020905b81548152906001019060200180831161043357829003601f168201915b505050505081565b60606000606060068054905067ffffffffffffffff8111801561047a57600080fd5b506040519080825280602002602001820160405280156104a95781602001602082028036833780820191505090505b50905060005b6006805490508110156104f9576104c581610c5e565b156104ec57808284815181106104d757fe5b60200260200101818152505082806001019350505b80806001019150506104af565b5060608267ffffffffffffffff8111801561051357600080fd5b506040519080825280602002602001820160405280156105425781602001602082028036833780820191505090505b50905060005b838110156105f557600683828151811061055e57fe5b60200260200101518154811061057057fe5b906000526020600020906002020160000160009054906101000a900473ffffffffffffffffffffffffffffffffffffffff168282815181106105ae57fe5b602002602001019073ffffffffffffffffffffffffffffffffffffffff16908173ffffffffffffffffffffffffffffffffffffffff16815250508080600101915050610548565b5080935050505090565b610607610c8f565b60405180608001604052808473ffffffffffffffffffffffffffffffffffffffff168152602001600115158152602001600015158152602001838152509050600681908060018154018082558091505060019003906000526020600020906002020160009091909190915060008201518160000160006101000a81548173ffffffffffffffffffffffffffffffffffffffff021916908373ffffffffffffffffffffffffffffffffffffffff16021790555060208201518160000160146101000a81548160ff02191690831515021790555060408201518160000160156101000a81548160ff021916908315150217905550606082015181600101555050600060016006805490500390507f5be249500b65b4edc242371051ca673da846850fddc967e8dd4999262f6133d8338583604051808473ffffffffffffffffffffffffffffffffffffffff1681526020018373ffffffffffffffffffffffffffffffffffffffff168152602001828152602001935050505060405180910390a150505050565b6000600460008373ffffffffffffffffffffffffffffffffffffffff1673ffffffffffffffffffffffffffffffffffffffff1681526020019081526020016000205490506000600682815481106107de57fe5b906000526020600020906002020160000160146101000a81548160ff02191690831515021790555060016006828154811061081557fe5b906000526020600020906002020160000160156101000a81548160ff0219169083151502179055505050565b60008054906101000a900473ffffffffffffffffffffffffffffffffffffffff1681565b60606000606060058054905067ffffffffffffffff8111801561088757600080fd5b506040519080825280602002602001820160405280156108b65781602001602082028036833780820191505090505b50905060005b600580549050811015610906576108d281610c2d565b156108f957808284815181106108e457fe5b60200260200101818152505082806001019350505b80806001019150506108bc565b5060608267ffffffffffffffff8111801561092057600080fd5b5060405190808252806020026020018201604052801561094f5781602001602082028036833780820191505090505b50905060005b838110156109fe57600583828151811061096b57fe5b60200260200101518154811061097d57fe5b9060005260206000200160000160009054906101000a900473ffffffffffffffffffffffffffffffffffffffff168282815181106109b757fe5b602002602001019073ffffffffffffffffffffffffffffffffffffffff16908173ffffffffffffffffffffffffffffffffffffffff16815250508080600101915050610955565b5080935050505090565b610a10610cd1565b60405180606001604052808373ffffffffffffffffffffffffffffffffffffffff1681526020016001151581526020016000151581525090506005819080600181540180825580915050600190039060005260206000200160009091909190915060008201518160000160006101000a81548173ffffffffffffffffffffffffffffffffffffffff021916908373ffffffffffffffffffffffffffffffffffffffff16021790555060208201518160000160146101000a81548160ff02191690831515021790555060408201518160000160156101000a81548160ff0219169083151502179055505050600060016005805490500390507fb65db7291775a92be29ca649ea31396d2bb260877cfdde2800b8bfc027840df0338483604051808473ffffffffffffffffffffffffffffffffffffffff1681526020018373ffffffffffffffffffffffffffffffffffffffff168152602001828152602001935050505060405180910390a1505050565b6000600360008373ffffffffffffffffffffffffffffffffffffffff1673ffffffffffffffffffffffffffffffffffffffff168152602001908152602001600020549050600060058281548110610bd257fe5b9060005260206000200160000160146101000a81548160ff021916908315150217905550600160058281548110610c0557fe5b9060005260206000200160000160156101000a81548160ff0219169083151502179055505050565b600060058281548110610c3c57fe5b9060005260206000200160000160149054906101000a900460ff169050919050565b600060058281548110610c6d57fe5b9060005260206000200160000160149054906101000a900460ff169050919050565b6040518060800160405280600073ffffffffffffffffffffffffffffffffffffffff168152602001600015158152602001600015158152602001600081525090565b6040518060600160405280600073ffffffffffffffffffffffffffffffffffffffff168152602001600015158152602001600015158152509056fea26469706673582212201a71ac1ab812ff48ea2d6e4961b270c52c7434da9dcf3c3c284a3d7582553dd464736f6c63430007000033",
  "immutableReferences": {},
  "source": "pragma solidity >=0.7.0;\n\ncontract User {\n\n    event OnAddCampaign(address user, address capmaign_addr, uint Id);\n    event OnAddTicket(address user, address attend_addr, uint Id);\n    event OnCompleteCampaign(address user, address capmaign_addr, uint Id);\n    event OnCompleteTicket(address user, address attend_addr, uint Id);\n/*\nIf a campaign is completed. Server will find the host of campaign (user),\ncall CompleteCampaign(address campaign_address). The address will be removed from\nown_campaigns.\nAlso, traverse all seat_owners of this campaign, for all the seat_owners(user), call CompleteTickets to delete the corresponding campaigns.\n*/\n    address public owner;\n    string public name;\n    string private pwd;\n\n    struct OwnCampaign {\n        address campaign_address;\n        bool isValid;\n        bool isEnd;\n    }\n    struct OwnTicket {\n        address attend_address;\n        bool isValid;\n        bool isEnd;\n        uint seat;\n    }\n    mapping (address => uint) campaign_addr_to_id;\n    mapping (address => uint) ticket_addr_to_id;\n\n    OwnCampaign[] own_campaigns;\n    OwnTicket[] own_tickets;\n\n\n    constructor(string memory _name, string memory _pwd) public {\n        owner = msg.sender;\n        name = _name;\n        pwd = _pwd;\n    }\n\n    modifier isValidCampaign(uint _campaignId) {\n        require(isCampaignValid(_campaignId), \"The campaign is end\");\n        _;\n    }\n\n    modifier isValidTicket(uint _ticketId) {\n        require(isCampaignValid(_ticketId), \"The campaign is end\");\n        _;\n    }\n\n    function isCampaignValid(uint _campaignId) public view returns(bool isValid) {\n        return own_campaigns[_campaignId].isValid;\n    }\n\n    function isTicketValid(uint _ticketId) public view returns(bool isValid) {\n        return own_campaigns[_ticketId].isValid;\n    }\n\n    function addCampaign(address _campaign_address) public {\n        OwnCampaign memory campaign = OwnCampaign(_campaign_address, true, false);\n        own_campaigns.push(campaign);\n        uint Id = own_campaigns.length - 1;\n\n        emit OnAddCampaign(msg.sender, _campaign_address, Id);\n    }\n\n    function addTicket(address _ticket_address, uint seatId) public {\n        OwnTicket memory ticket = OwnTicket(_ticket_address, true, false, seatId);\n        own_tickets.push(ticket);\n        uint Id = own_tickets.length - 1;\n\n        emit OnAddTicket(msg.sender, _ticket_address, Id);\n    }\n\n    function ViewCampaigns() public view returns(address[] memory) {\n        uint len = 0;\n        uint[] memory count_to_id = new uint[](own_campaigns.length);\n        for(uint id = 0; id < own_campaigns.length; id++) {\n            if (isCampaignValid(id)) {\n                count_to_id[len] = id;\n                len++;\n            }\n        }\n        address[] memory campaignList = new address[](len);\n        for(uint i = 0; i < len; i++) {\n            campaignList[i] = own_campaigns[count_to_id[i]].campaign_address;\n        }\n        return campaignList;\n    }\n\n    function ViewTickets() public view returns(address[] memory) {\n        uint len = 0;\n        uint[] memory count_to_id = new uint[](own_tickets.length);\n        for(uint id = 0; id < own_tickets.length; id++) {\n            if (isTicketValid(id)) {\n                count_to_id[len] = id;\n                len++;\n            }\n        }\n        address[] memory campaignList = new address[](len);\n        for(uint i = 0; i < len; i++) {\n            campaignList[i] = own_tickets[count_to_id[i]].attend_address;\n        }\n        return campaignList;\n    }\n\n    function CompleteCampaign(address _campaign_address) public {\n        uint _id = campaign_addr_to_id[_campaign_address];\n        own_campaigns[_id].isValid = false;\n        own_campaigns[_id].isEnd = true;\n    }\n\n    function CompleteTicket(address _ticket_address) public {\n        uint _id = ticket_addr_to_id[_ticket_address];\n        own_tickets[_id].isValid = false;\n        own_tickets[_id].isEnd = true;\n    }\n}",
  "sourcePath": "/Users/liu/Desktop/deapp-final/ticket system/contracts/user.sol",
  "compiler": {
    "name": "solc",
    "version": "0.7.0+commit.9e61f92b.Emscripten.clang"
  },
  "schemaVersion": "3.3.2",
  "updatedAt": "2020-12-19T18:31:54.785Z",
  "networkType": "ethereum",
  "devdoc": {
    "kind": "dev",
    "methods": {},
    "version": 1
  },
  "userdoc": {
    "kind": "user",
    "methods": {},
    "version": 1
  }
}