{
  "contractName": "Campaign",
  "abi": [
    {
      "inputs": [
        {
          "internalType": "string",
          "name": "_campaign_name",
          "type": "string"
        },
        {
          "internalType": "uint256",
          "name": "_levels",
          "type": "uint256"
        },
        {
          "internalType": "uint256[]",
          "name": "_seats",
          "type": "uint256[]"
        },
        {
          "internalType": "uint256[]",
          "name": "_price",
          "type": "uint256[]"
        },
        {
          "internalType": "uint256",
          "name": "_campaign_start_time",
          "type": "uint256"
        },
        {
          "internalType": "uint256",
          "name": "_campaign_end_time",
          "type": "uint256"
        },
        {
          "internalType": "uint256",
          "name": "_start_sell_time",
          "type": "uint256"
        },
        {
          "internalType": "string",
          "name": "_abstraction",
          "type": "string"
        }
      ],
      "stateMutability": "nonpayable",
      "type": "constructor"
    },
    {
      "inputs": [],
      "name": "abstraction",
      "outputs": [
        {
          "internalType": "string",
          "name": "",
          "type": "string"
        }
      ],
      "stateMutability": "view",
      "type": "function"
    },
    {
      "inputs": [],
      "name": "campaign_end_time",
      "outputs": [
        {
          "internalType": "uint256",
          "name": "",
          "type": "uint256"
        }
      ],
      "stateMutability": "view",
      "type": "function"
    },
    {
      "inputs": [],
      "name": "campaign_name",
      "outputs": [
        {
          "internalType": "string",
          "name": "",
          "type": "string"
        }
      ],
      "stateMutability": "view",
      "type": "function"
    },
    {
      "inputs": [],
      "name": "campaign_start_time",
      "outputs": [
        {
          "internalType": "uint256",
          "name": "",
          "type": "uint256"
        }
      ],
      "stateMutability": "view",
      "type": "function"
    },
    {
      "inputs": [],
      "name": "levels",
      "outputs": [
        {
          "internalType": "uint256",
          "name": "",
          "type": "uint256"
        }
      ],
      "stateMutability": "view",
      "type": "function"
    },
    {
      "inputs": [],
      "name": "owner",
      "outputs": [
        {
          "internalType": "address",
          "name": "",
          "type": "address"
        }
      ],
      "stateMutability": "view",
      "type": "function"
    },
    {
      "inputs": [
        {
          "internalType": "uint256",
          "name": "",
          "type": "uint256"
        }
      ],
      "name": "price",
      "outputs": [
        {
          "internalType": "uint256",
          "name": "",
          "type": "uint256"
        }
      ],
      "stateMutability": "view",
      "type": "function"
    },
    {
      "inputs": [
        {
          "internalType": "uint256",
          "name": "",
          "type": "uint256"
        }
      ],
      "name": "remain",
      "outputs": [
        {
          "internalType": "uint256",
          "name": "",
          "type": "uint256"
        }
      ],
      "stateMutability": "view",
      "type": "function"
    },
    {
      "inputs": [
        {
          "internalType": "uint256",
          "name": "",
          "type": "uint256"
        }
      ],
      "name": "seats",
      "outputs": [
        {
          "internalType": "uint256",
          "name": "",
          "type": "uint256"
        }
      ],
      "stateMutability": "view",
      "type": "function"
    },
    {
      "inputs": [],
      "name": "start_sell_time",
      "outputs": [
        {
          "internalType": "uint256",
          "name": "",
          "type": "uint256"
        }
      ],
      "stateMutability": "view",
      "type": "function"
    },
    {
      "stateMutability": "payable",
      "type": "receive"
    },
    {
      "inputs": [],
      "name": "getSeats",
      "outputs": [
        {
          "internalType": "uint256[]",
          "name": "",
          "type": "uint256[]"
        }
      ],
      "stateMutability": "view",
      "type": "function"
    },
    {
      "inputs": [],
      "name": "getPrice",
      "outputs": [
        {
          "internalType": "uint256[]",
          "name": "",
          "type": "uint256[]"
        }
      ],
      "stateMutability": "view",
      "type": "function"
    },
    {
      "inputs": [
        {
          "internalType": "uint256",
          "name": "amount",
          "type": "uint256"
        },
        {
          "internalType": "uint256",
          "name": "level",
          "type": "uint256"
        }
      ],
      "name": "buy",
      "outputs": [
        {
          "internalType": "uint256[]",
          "name": "seat_num",
          "type": "uint256[]"
        }
      ],
      "stateMutability": "payable",
      "type": "function"
    },
    {
      "inputs": [],
      "name": "withdraw",
      "outputs": [],
      "stateMutability": "nonpayable",
      "type": "function"
    }
  ],
  "bytecode": "0x60806040523480156200001157600080fd5b50604051620011c4380380620011c483398181016040526101008110156200003857600080fd5b81019080805160405193929190846401000000008211156200005957600080fd5b838201915060208201858111156200007057600080fd5b82518660018202830111640100000000821117156200008e57600080fd5b8083526020830192505050908051906020019080838360005b83811015620000c4578082015181840152602081019050620000a7565b50505050905090810190601f168015620000f25780820380516001836020036101000a031916815260200191505b5060405260200180519060200190929190805160405193929190846401000000008211156200012057600080fd5b838201915060208201858111156200013757600080fd5b82518660208202830111640100000000821117156200015557600080fd5b8083526020830192505050908051906020019060200280838360005b838110156200018e57808201518184015260208101905062000171565b5050505090500160405260200180516040519392919084640100000000821115620001b857600080fd5b83820191506020820185811115620001cf57600080fd5b8251866020820283011164010000000082111715620001ed57600080fd5b8083526020830192505050908051906020019060200280838360005b838110156200022657808201518184015260208101905062000209565b50505050905001604052602001805190602001909291908051906020019092919080519060200190929190805160405193929190846401000000008211156200026e57600080fd5b838201915060208201858111156200028557600080fd5b8251866001820283011164010000000082111715620002a357600080fd5b8083526020830192505050908051906020019080838360005b83811015620002d9578082015181840152602081019050620002bc565b50505050905090810190601f168015620003075780820380516001836020036101000a031916815260200191505b50604052505050336000806101000a81548173ffffffffffffffffffffffffffffffffffffffff021916908373ffffffffffffffffffffffffffffffffffffffff160217905550866001819055506000805b600154811015620004425760028882815181106200037357fe5b602002602001015190806001815401808255809150506001900390600052602060002001600090919091909150556004878281518110620003b057fe5b60200260200101519080600181540180825580915050600190039060005260206000200160009091909190915055878181518110620003eb57fe5b602002602001015182019150600a8882815181106200040657fe5b60200260200101519080600181540180825580915050600190039060005260206000200160009091909190915055808060010191505062000359565b5088600390805190602001906200045b929190620004fa565b50846005819055508360068190555082600781905550816008908051906020019062000489929190620004fa565b508067ffffffffffffffff81118015620004a257600080fd5b50604051908082528060200260200182016040528015620004d25781602001602082028036833780820191505090505b5060099080519060200190620004ea92919062000581565b505050505050505050506200066c565b828054600181600116156101000203166002900490600052602060002090601f016020900481019282601f106200053d57805160ff19168380011785556200056e565b828001600101855582156200056e579182015b828111156200056d57825182559160200191906001019062000550565b5b5090506200057d919062000610565b5090565b828054828255906000526020600020908101928215620005fd579160200282015b82811115620005fc5782518260006101000a81548173ffffffffffffffffffffffffffffffffffffffff021916908373ffffffffffffffffffffffffffffffffffffffff16021790555091602001919060010190620005a2565b5b5090506200060c91906200062f565b5090565b5b808211156200062b57600081600090555060010162000611565b5090565b5b808211156200066857600081816101000a81549073ffffffffffffffffffffffffffffffffffffffff02191690555060010162000630565b5090565b610b48806200067c6000396000f3fe6080604052600436106100fe576000357c0100000000000000000000000000000000000000000000000000000000900480634137e7331161009c57806398d5fdca1161007657806398d5fdca146103f0578063a997c66a1461045c578063d6febde8146104c8578063e8237fb11461055557610105565b80634137e733146102f45780634ecf518b146103845780638da5cb5b146103af57610105565b806321d89592116100d857806321d89592146101af57806326a49e371461023f5780633b33c7021461028e5780633ccfd60b146102dd57610105565b80630b451a401461010a5780630e153e241461015957806310b6315d1461018457610105565b3661010557005b600080fd5b34801561011657600080fd5b506101436004803603602081101561012d57600080fd5b8101908080359060200190929190505050610580565b6040518082815260200191505060405180910390f35b34801561016557600080fd5b5061016e6105a1565b6040518082815260200191505060405180910390f35b34801561019057600080fd5b506101996105a7565b6040518082815260200191505060405180910390f35b3480156101bb57600080fd5b506101c46105ad565b6040518080602001828103825283818151815260200191508051906020019080838360005b838110156102045780820151818401526020810190506101e9565b50505050905090810190601f1680156102315780820380516001836020036101000a031916815260200191505b509250505060405180910390f35b34801561024b57600080fd5b506102786004803603602081101561026257600080fd5b810190808035906020019092919050505061064b565b6040518082815260200191505060405180910390f35b34801561029a57600080fd5b506102c7600480360360208110156102b157600080fd5b810190808035906020019092919050505061066c565b6040518082815260200191505060405180910390f35b3480156102e957600080fd5b506102f261068d565b005b34801561030057600080fd5b5061030961076f565b6040518080602001828103825283818151815260200191508051906020019080838360005b8381101561034957808201518184015260208101905061032e565b50505050905090810190601f1680156103765780820380516001836020036101000a031916815260200191505b509250505060405180910390f35b34801561039057600080fd5b5061039961080d565b6040518082815260200191505060405180910390f35b3480156103bb57600080fd5b506103c4610813565b604051808273ffffffffffffffffffffffffffffffffffffffff16815260200191505060405180910390f35b3480156103fc57600080fd5b50610405610837565b6040518080602001828103825283818151815260200191508051906020019060200280838360005b8381101561044857808201518184015260208101905061042d565b505050509050019250505060405180910390f35b34801561046857600080fd5b5061047161088f565b6040518080602001828103825283818151815260200191508051906020019060200280838360005b838110156104b4578082015181840152602081019050610499565b505050509050019250505060405180910390f35b6104fe600480360360408110156104de57600080fd5b8101908080359060200190929190803590602001909291905050506108e7565b6040518080602001828103825283818151815260200191508051906020019060200280838360005b83811015610541578082015181840152602081019050610526565b505050509050019250505060405180910390f35b34801561056157600080fd5b5061056a610b0c565b6040518082815260200191505060405180910390f35b600a818154811061058d57fe5b906000526020600020016000915090505481565b60055481565b60075481565b60088054600181600116156101000203166002900480601f0160208091040260200160405190810160405280929190818152602001828054600181600116156101000203166002900480156106435780601f1061061857610100808354040283529160200191610643565b820191906000526020600020905b81548152906001019060200180831161062657829003601f168201915b505050505081565b6004818154811061065857fe5b906000526020600020016000915090505481565b6002818154811061067957fe5b906000526020600020016000915090505481565b60008054906101000a900473ffffffffffffffffffffffffffffffffffffffff1673ffffffffffffffffffffffffffffffffffffffff163373ffffffffffffffffffffffffffffffffffffffff16146106e557600080fd5b60065442111561076d573373ffffffffffffffffffffffffffffffffffffffff163073ffffffffffffffffffffffffffffffffffffffff163160405180600001905060006040518083038185875af1925050503d8060008114610764576040519150601f19603f3d011682016040523d82523d6000602084013e610769565b606091505b5050505b565b60038054600181600116156101000203166002900480601f0160208091040260200160405190810160405280929190818152602001828054600181600116156101000203166002900480156108055780601f106107da57610100808354040283529160200191610805565b820191906000526020600020905b8154815290600101906020018083116107e857829003601f168201915b505050505081565b60015481565b60008054906101000a900473ffffffffffffffffffffffffffffffffffffffff1681565b6060600480548060200260200160405190810160405280929190818152602001828054801561088557602002820191906000526020600020905b815481526020019060010190808311610871575b5050505050905090565b606060028054806020026020016040519081016040528092919081815260200182805480156108dd57602002820191906000526020600020905b8154815260200190600101908083116108c9575b5050505050905090565b606060008367ffffffffffffffff8111801561090257600080fd5b506040519080825280602002602001820160405280156109315781602001602082028036833780820191505090505b50915060005b6002848154811061094457fe5b9060005260206000200154811015610b04575b84821015610af75760006009828154811061096e57fe5b9060005260206000200160009054906101000a900473ffffffffffffffffffffffffffffffffffffffff169050600073ffffffffffffffffffffffffffffffffffffffff168173ffffffffffffffffffffffffffffffffffffffff161480156109ee575085600a86815481106109e057fe5b906000526020600020015410155b15610af1573360098381548110610a0157fe5b9060005260206000200160006101000a81548173ffffffffffffffffffffffffffffffffffffffff021916908373ffffffffffffffffffffffffffffffffffffffff1602179055503373ffffffffffffffffffffffffffffffffffffffff166108fc60048781548110610a7057fe5b90600052602060002001549081150290604051600060405180830381858888f19350505050158015610aa6573d6000803e3d6000fd5b50600a8581548110610ab457fe5b90600052602060002001600081548092919060019003919050555081848481518110610adc57fe5b60200260200101818152505082806001019350505b50610957565b8080600101915050610937565b505092915050565b6006548156fea26469706673582212208dc4432a228ad8ab57bdc9c72db31eb034f9b5aa806e477ea80e829faa96d99764736f6c63430007000033",
  "immutableReferences": {},
  "source": "pragma solidity >=0.7.0;\r\n\r\n// using SafeMath for uint256;\r\n// pragma solidity  >=0.7.0;\r\n// using SafeMath for uint256\r\n\r\n// using SafeMath for uint256\r\n\r\ncontract Campaign {\r\n    address public owner;\r\n    uint256 public levels;\r\n    uint256[] public seats;\r\n    string public campaign_name;\r\n    uint256[] public price;\r\n    uint256 public campaign_start_time;\r\n    uint256 public campaign_end_time;\r\n    uint256 public start_sell_time;\r\n    string public abstraction;\r\n    address[] seat_owner;\r\n    uint256[] public remain;\r\n\r\n    constructor(\r\n        string memory _campaign_name,\r\n        uint256 _levels,\r\n        uint256[] memory _seats,\r\n        uint256[] memory _price,\r\n        uint256 _campaign_start_time,\r\n        uint256 _campaign_end_time,\r\n        uint256 _start_sell_time,\r\n        string memory _abstraction\r\n    ) public {\r\n        owner = msg.sender;\r\n        levels = _levels;\r\n        uint256 total_seats = 0;\r\n        for (uint256 i = 0; i < levels; i++) {\r\n            seats.push(_seats[i]);\r\n            price.push(_price[i]);\r\n            total_seats += _seats[i];\r\n            remain.push(_seats[i]);\r\n        }\r\n        campaign_name = _campaign_name;\r\n        campaign_start_time = _campaign_start_time;\r\n        campaign_end_time = _campaign_end_time;\r\n        start_sell_time = _start_sell_time;\r\n        abstraction = _abstraction;\r\n        seat_owner = new address[](total_seats);\r\n\r\n    }\r\n\r\n    modifier restricted() {\r\n        require(msg.sender == owner);\r\n        _;\r\n    }\r\n\r\n    function getSeats() public view returns(uint256[] memory) {\r\n        return seats;\r\n    } \r\n\r\n    function getPrice() public view returns(uint256[] memory) {\r\n        return price;\r\n    } \r\n\r\n    function buy(uint256 amount, uint256 level)\r\n        public\r\n        payable\r\n        returns (uint256[] memory seat_num)\r\n    {\r\n        uint256 j = 0;\r\n        // uint k=0;\r\n        seat_num = new uint256[](amount);\r\n        for (uint256 i = 0; i < seats[level]; i++) {\r\n            while (j < amount) {\r\n                address temp = seat_owner[i];\r\n                if (temp == address(0x00) && remain[level] >= amount) {\r\n                    seat_owner[i] = msg.sender;\r\n                    msg.sender.transfer(price[level]);\r\n                    remain[level]--;\r\n                    seat_num[j] = i;\r\n                    j++;\r\n                }\r\n            }\r\n        }\r\n    }\r\n\r\n    function withdraw() public restricted {\r\n        if (block.timestamp > campaign_end_time) {\r\n            msg.sender.call{value: address(this).balance}(\"\");\r\n        }\r\n    }\r\n\r\n    receive() external payable {}\r\n}\r\n\r\ncontract Server {\r\n    struct server_campaign {\r\n        address payable campaign;\r\n        bool isvalid;\r\n    }\r\n\r\n    struct return_campaign {\r\n        address _campaign_address;\r\n        string _campaign_name;\r\n        uint256 _seats;\r\n        uint256 _price;\r\n        uint256 _campaign_start_time;\r\n        uint256 _campaign_end_time;\r\n        uint256 _start_sell_time;\r\n        string _abstraction;\r\n    }\r\n    event OnAddUser(string message, address user_address);\r\n    event OnGetCampaigns(address payable[] campaigns);\r\n    event OnAddCampaign(string message);\r\n    event OnBuyTicket(string message);\r\n\r\n    server_campaign[] public campaigns;\r\n    mapping(address => address) private users;\r\n    // mapping(address => return_campaign) public CampaignStruct;\r\n    modifier validUser() {\r\n        require(users[msg.sender] != address(0x0));\r\n        _;\r\n    }\r\n\r\n    modifier validSignup() {\r\n        require(users[msg.sender] == address(0x0));\r\n        _;\r\n    }\r\n\r\n    function callServer(string memory i) public pure returns (string memory) {\r\n        return (i);\r\n    }\r\n\r\n    function addCampaign(\r\n        string memory _campaign_name,\r\n        uint256 _levels,\r\n        uint256[] memory _seats,\r\n        uint256[] memory _price,\r\n        uint256 _campaign_start_time,\r\n        uint256 _campaign_end_time,\r\n        uint256 _start_sell_time,\r\n        string memory _abstraction\r\n    ) public validUser {\r\n        string memory message;\r\n        if (users[msg.sender] != address(0x0)) {\r\n            address payable campaign_address =\r\n                address(\r\n                    new Campaign(\r\n                        _campaign_name,\r\n                        _levels,\r\n                        _seats,\r\n                        _price,\r\n                        _campaign_start_time,\r\n                        _campaign_end_time,\r\n                        _start_sell_time,\r\n                        _abstraction\r\n                    )\r\n                );\r\n            campaigns.push(server_campaign(campaign_address, true));\r\n            User user = User(users[msg.sender]);\r\n            user.addCampaign(campaign_address);\r\n            message = \"success\";\r\n        } else {\r\n            message = \"fail\";\r\n        }\r\n        emit OnAddCampaign(message);\r\n    }\r\n\r\n    function addUser(string memory _name, string memory _pwd)\r\n        public\r\n        validSignup\r\n    {\r\n        string memory message;\r\n        address user_address;\r\n        if (users[msg.sender] == address(0x0)) {\r\n            user_address = address(new User(_name, _pwd));\r\n            users[msg.sender] = user_address;\r\n            message = \"successs\";\r\n        } else {\r\n            message = \"already exist\";\r\n        }\r\n        emit OnAddUser(message, user_address);\r\n    }\r\n\r\n    function checkUser(string memory _name, string memory _password)\r\n        public\r\n        view\r\n        validUser\r\n        returns (bool success, address user)\r\n    {\r\n        if (users[msg.sender] != address(0x0)) {\r\n            User currentUser = User(users[msg.sender]);\r\n            string memory name = currentUser.name();\r\n            string memory password = currentUser.getPassword();\r\n            success = (keccak256(abi.encodePacked(name)) ==\r\n                keccak256(abi.encodePacked(_name)) &&\r\n                keccak256(abi.encodePacked(password)) ==\r\n                keccak256(abi.encodePacked(_password)));\r\n            if (success) {\r\n                user = users[msg.sender];\r\n            } else {\r\n                user = address(0);\r\n            }\r\n        }\r\n    }\r\n\r\n    function viewCampaign(address payable campaign_address)\r\n        public\r\n        returns (\r\n            uint256[] memory seats,\r\n            string memory campaign_name,\r\n            uint256[] memory price,\r\n            uint256 campaign_start_time,\r\n            uint256 campaign_end_time,\r\n            uint256 start_sell_time,\r\n            string memory abstraction\r\n        )\r\n    {\r\n        Campaign currentCampaign = Campaign(campaign_address);\r\n        campaign_name = currentCampaign.campaign_name();\r\n        seats = currentCampaign.getSeats();\r\n        price = currentCampaign.getPrice();\r\n        campaign_start_time = currentCampaign.campaign_start_time();\r\n        campaign_end_time = currentCampaign.campaign_end_time();\r\n        start_sell_time = currentCampaign.start_sell_time();\r\n        abstraction = currentCampaign.abstraction();\r\n    }\r\n\r\n    function getUserTickets()\r\n        public\r\n        view\r\n        validUser\r\n        returns (address[] memory campaigns, uint256[] memory seats)\r\n    {\r\n        if (users[msg.sender] != address(0x0)) {\r\n            User currentUser = User(users[msg.sender]);\r\n            (campaigns, seats) = currentUser.ViewTickets();\r\n        } else {\r\n            campaigns = new address[](0);\r\n            seats = new uint256[](0);\r\n        }\r\n    }\r\n\r\n    function getUserCampaigns()\r\n        public\r\n        view\r\n        validUser\r\n        returns (address[] memory campaigns)\r\n    {\r\n        if (users[msg.sender] != address(0x0)) {\r\n            User currentUser = User(users[msg.sender]);\r\n            campaigns = currentUser.ViewCampaigns();\r\n        }\r\n    }\r\n\r\n    function getCampaigns() public view returns (address[] memory ) {\r\n        uint256 num = 0;\r\n        for (uint256 i = 0; i < campaigns.length; i++) {\r\n            if (campaigns[i].isvalid) {\r\n                if (\r\n                    Campaign(campaigns[i].campaign).campaign_end_time() >\r\n                    block.timestamp\r\n                ) {\r\n                    num++;\r\n                }\r\n            }\r\n        }\r\n        address [] memory c = new address [](num);\r\n        uint256 j = 0;\r\n        for (uint256 i = 0; i < campaigns.length; i++) {\r\n            if (campaigns[i].isvalid) {\r\n                if (\r\n                    Campaign(campaigns[i].campaign).campaign_end_time() >\r\n                    block.timestamp\r\n                ) {\r\n                    c[j] = address(campaigns[i].campaign);\r\n                    j++;\r\n                }\r\n            }\r\n        }\r\n        return c;\r\n    }\r\n\r\n    function buyTicket(uint256 index, uint256 amount, uint256 level) public payable validUser {\r\n        uint256[] memory seat_num;\r\n        string memory message;\r\n        if (users[msg.sender] != address(0x0)) {\r\n            User user = User(users[msg.sender]);\r\n            if (campaigns[index].isvalid) {\r\n                Campaign c = Campaign(campaigns[index].campaign);\r\n                if (c.remain(level) >= amount) {\r\n                    seat_num = c.buy(amount, level);\r\n                } else {\r\n                    message = \"fail\";\r\n                    emit OnBuyTicket(message);\r\n                }\r\n            } else {\r\n                message = \"fail\";\r\n                emit OnBuyTicket(message);\r\n            }\r\n            for (uint256 i = 0; i < seat_num.length; i++) {\r\n                user.addTicket(campaigns[index].campaign, seat_num[i]);\r\n            }\r\n            message = \"success\";\r\n        }\r\n        emit OnBuyTicket(message);\r\n    }\r\n\r\n    receive() external payable {}\r\n}\r\n\r\npragma solidity >=0.7.0;\r\n\r\ncontract User {\r\n    event OnAddCampaign(address user, address capmaign_addr, uint256 Id);\r\n    event OnAddTicket(address user, address attend_addr, uint256 Id);\r\n    event OnCompleteCampaign(address user, address capmaign_addr, uint256 Id);\r\n    event OnCompleteTicket(address user, address attend_addr, uint256 Id);\r\n    /*\r\nIf a campaign is completed. Server will find the host of campaign (user),\r\ncall CompleteCampaign(address campaign_address). The address will be removed from\r\nown_campaigns.\r\nAlso, traverse all seat_owners of this campaign, for all the seat_owners(user), call CompleteTickets to delete the corresponding campaigns.\r\n*/\r\n    address public owner;\r\n    string public name;\r\n    string private pwd;\r\n\r\n    struct OwnCampaign {\r\n        address payable campaign_address;\r\n        bool isValid;\r\n        bool isEnd;\r\n    }\r\n    struct OwnTicket {\r\n        address attend_address;\r\n        bool isValid;\r\n        bool isEnd;\r\n        uint256 seat;\r\n    }\r\n\r\n    struct Ticket {\r\n        address campaign_address;\r\n        uint256 seat;\r\n    }\r\n    mapping(address => uint256) campaign_addr_to_id;\r\n    mapping(address => uint256) ticket_addr_to_id;\r\n\r\n    OwnCampaign[] own_campaigns;\r\n    OwnTicket[] own_tickets;\r\n\r\n    constructor(string memory _name, string memory _pwd) public {\r\n        owner = msg.sender;\r\n        name = _name;\r\n        pwd = _pwd;\r\n    }\r\n\r\n    modifier isOwner() {\r\n        require(owner == msg.sender);\r\n        _;\r\n    }\r\n\r\n    modifier isValidCampaign(uint256 _campaignId) {\r\n        require(isCampaignValid(_campaignId), \"The campaign is end\");\r\n        _;\r\n    }\r\n\r\n    modifier isValidTicket(uint256 _ticketId) {\r\n        require(isCampaignValid(_ticketId), \"The campaign is end\");\r\n        _;\r\n    }\r\n\r\n    function isCampaignValid(uint256 _campaignId)\r\n        public\r\n        view\r\n        returns (bool isValid)\r\n    {\r\n        return own_campaigns[_campaignId].isValid;\r\n    }\r\n\r\n    function isTicketValid(uint256 _ticketId)\r\n        public\r\n        view\r\n        returns (bool isValid)\r\n    {\r\n        return own_campaigns[_ticketId].isValid;\r\n    }\r\n\r\n    function addCampaign(address payable _campaign_address) public {\r\n        OwnCampaign memory campaign =\r\n            OwnCampaign(_campaign_address, true, false);\r\n        own_campaigns.push(campaign);\r\n        uint256 Id = own_campaigns.length - 1;\r\n\r\n        emit OnAddCampaign(msg.sender, _campaign_address, Id);\r\n    }\r\n\r\n    function addTicket(address _ticket_address, uint256 seatId) public {\r\n        OwnTicket memory ticket =\r\n            OwnTicket(_ticket_address, true, false, seatId);\r\n        own_tickets.push(ticket);\r\n        uint256 Id = own_tickets.length - 1;\r\n\r\n        emit OnAddTicket(msg.sender, _ticket_address, Id);\r\n    }\r\n\r\n    function getPassword()\r\n        public\r\n        view\r\n        isOwner\r\n        returns (string memory password)\r\n    {\r\n        password = pwd;\r\n    }\r\n\r\n    function ViewCampaigns() public view returns (address[] memory) {\r\n        uint256 len = 0;\r\n        uint256[] memory count_to_id = new uint256[](own_campaigns.length);\r\n        for (uint256 id = 0; id < own_campaigns.length; id++) {\r\n            if (isCampaignValid(id)) {\r\n                count_to_id[len] = id;\r\n                len++;\r\n            }\r\n        }\r\n        address[] memory campaignList = new address[](len);\r\n        for (uint256 i = 0; i < len; i++) {\r\n            campaignList[i] = own_campaigns[count_to_id[i]].campaign_address;\r\n        }\r\n        return campaignList;\r\n    }\r\n\r\n    function ViewTickets()\r\n        public\r\n        view\r\n        returns (address[] memory campaigns, uint256[] memory seats)\r\n    {\r\n        uint256 len = 0;\r\n        uint256[] memory count_to_id = new uint256[](own_tickets.length);\r\n        for (uint256 id = 0; id < own_tickets.length; id++) {\r\n            if (isTicketValid(id)) {\r\n                count_to_id[len] = id;\r\n                len++;\r\n            }\r\n        }\r\n        campaigns = new address[](len);\r\n        seats = new uint256[](len);\r\n        for (uint256 i = 0; i < len; i++) {\r\n            campaigns[i] = own_tickets[count_to_id[i]].attend_address;\r\n            seats[i] = own_tickets[count_to_id[i]].seat;\r\n        }\r\n    }\r\n\r\n    function CompleteCampaign(address _campaign_address) public {\r\n        uint256 _id = campaign_addr_to_id[_campaign_address];\r\n        own_campaigns[_id].isValid = false;\r\n        own_campaigns[_id].isEnd = true;\r\n    }\r\n\r\n    function CompleteTicket(address _ticket_address) public {\r\n        uint256 _id = ticket_addr_to_id[_ticket_address];\r\n        own_tickets[_id].isValid = false;\r\n        own_tickets[_id].isEnd = true;\r\n    }\r\n}\r\n",
  "sourcePath": "F:/109-1/Networking and Multinmedia(Lab)/deapp-final/ticket system/contracts/server.sol",
  "compiler": {
    "name": "solc",
    "version": "0.7.0+commit.9e61f92b.Emscripten.clang"
  },
  "schemaVersion": "3.3.2",
  "updatedAt": "2020-12-25T12:29:52.153Z",
  "devdoc": {
    "kind": "dev",
    "methods": {},
    "version": 1
  },
  "userdoc": {
    "kind": "user",
    "methods": {},
    "version": 1
  }
}