{
  "contractName": "Campaign",
  "abi": [
    {
      "inputs": [],
      "name": "abstraction",
      "outputs": [
        {
          "internalType": "string",
          "name": "",
          "type": "string"
        }
      ],
      "stateMutability": "view",
      "type": "function"
    },
    {
      "inputs": [],
      "name": "campaign_end_time",
      "outputs": [
        {
          "internalType": "uint256",
          "name": "",
          "type": "uint256"
        }
      ],
      "stateMutability": "view",
      "type": "function"
    },
    {
      "inputs": [],
      "name": "campaign_name",
      "outputs": [
        {
          "internalType": "string",
          "name": "",
          "type": "string"
        }
      ],
      "stateMutability": "view",
      "type": "function"
    },
    {
      "inputs": [],
      "name": "campaign_start_time",
      "outputs": [
        {
          "internalType": "uint256",
          "name": "",
          "type": "uint256"
        }
      ],
      "stateMutability": "view",
      "type": "function"
    },
    {
      "inputs": [],
      "name": "owner",
      "outputs": [
        {
          "internalType": "address",
          "name": "",
          "type": "address"
        }
      ],
      "stateMutability": "view",
      "type": "function"
    },
    {
      "inputs": [],
      "name": "price",
      "outputs": [
        {
          "internalType": "uint256",
          "name": "",
          "type": "uint256"
        }
      ],
      "stateMutability": "view",
      "type": "function"
    },
    {
      "inputs": [],
      "name": "remain",
      "outputs": [
        {
          "internalType": "uint256",
          "name": "",
          "type": "uint256"
        }
      ],
      "stateMutability": "view",
      "type": "function"
    },
    {
      "inputs": [],
      "name": "seats",
      "outputs": [
        {
          "internalType": "uint256",
          "name": "",
          "type": "uint256"
        }
      ],
      "stateMutability": "view",
      "type": "function"
    },
    {
      "inputs": [],
      "name": "start_sell_time",
      "outputs": [
        {
          "internalType": "uint256",
          "name": "",
          "type": "uint256"
        }
      ],
      "stateMutability": "view",
      "type": "function"
    },
    {
      "inputs": [
        {
          "internalType": "address",
          "name": "",
          "type": "address"
        },
        {
          "internalType": "uint256",
          "name": "",
          "type": "uint256"
        }
      ],
      "name": "buy",
      "outputs": [
        {
          "internalType": "uint256[]",
          "name": "seat_num",
          "type": "uint256[]"
        }
      ],
      "stateMutability": "payable",
      "type": "function"
    },
    {
      "inputs": [],
      "name": "withdraw",
      "outputs": [],
      "stateMutability": "nonpayable",
      "type": "function"
    }
  ],
  "bytecode": "0x608060405234801561001057600080fd5b5061059f806100206000396000f3fe6080604052600436106100b9576000357c01000000000000000000000000000000000000000000000000000000009004806361f3c62e1161008157806361f3c62e1461024b5780638da5cb5b146102765780639c5655d6146102b7578063a035b1fe146102e2578063cce7ec131461030d578063e8237fb1146103b0576100b9565b80630e153e24146100be57806310b6315d146100e957806321d89592146101145780633ccfd60b146101a45780634137e733146101bb575b600080fd5b3480156100ca57600080fd5b506100d36103db565b6040518082815260200191505060405180910390f35b3480156100f557600080fd5b506100fe6103e1565b6040518082815260200191505060405180910390f35b34801561012057600080fd5b506101296103e7565b6040518080602001828103825283818151815260200191508051906020019080838360005b8381101561016957808201518184015260208101905061014e565b50505050905090810190601f1680156101965780820380516001836020036101000a031916815260200191505b509250505060405180910390f35b3480156101b057600080fd5b506101b9610485565b005b3480156101c757600080fd5b506101d0610487565b6040518080602001828103825283818151815260200191508051906020019080838360005b838110156102105780820151818401526020810190506101f5565b50505050905090810190601f16801561023d5780820380516001836020036101000a031916815260200191505b509250505060405180910390f35b34801561025757600080fd5b50610260610525565b6040518082815260200191505060405180910390f35b34801561028257600080fd5b5061028b61052b565b604051808273ffffffffffffffffffffffffffffffffffffffff16815260200191505060405180910390f35b3480156102c357600080fd5b506102cc61054f565b6040518082815260200191505060405180910390f35b3480156102ee57600080fd5b506102f7610555565b6040518082815260200191505060405180910390f35b6103596004803603604081101561032357600080fd5b81019080803573ffffffffffffffffffffffffffffffffffffffff1690602001909291908035906020019092919050505061055b565b6040518080602001828103825283818151815260200191508051906020019060200280838360005b8381101561039c578082015181840152602081019050610381565b505050509050019250505060405180910390f35b3480156103bc57600080fd5b506103c5610563565b6040518082815260200191505060405180910390f35b60045481565b60065481565b60078054600181600116156101000203166002900480601f01602080910402602001604051908101604052809291908181526020018280546001816001161561010002031660029004801561047d5780601f106104525761010080835404028352916020019161047d565b820191906000526020600020905b81548152906001019060200180831161046057829003601f168201915b505050505081565b565b60028054600181600116156101000203166002900480601f01602080910402602001604051908101604052809291908181526020018280546001816001161561010002031660029004801561051d5780601f106104f25761010080835404028352916020019161051d565b820191906000526020600020905b81548152906001019060200180831161050057829003601f168201915b505050505081565b60095481565b60008054906101000a900473ffffffffffffffffffffffffffffffffffffffff1681565b60015481565b60035481565b606092915050565b6005548156fea2646970667358221220dd831539cb08881e6a16abbd5962b905f5296243eafadcb24845909338519ca164736f6c63430007000033",
  "immutableReferences": {},
  "source": "pragma solidity >=0.7.0;\n// using SafeMath for uint256;\n// pragma solidity  >=0.7.0;\n// using SafeMath for uint256\n\ncontract Campaign {\n  address public owner;\n  uint public seats;\n  string public campaign_name;\n  uint public price;\n  uint public campaign_start_time;\n  uint public campaign_end_time;\n  uint public start_sell_time;\n  string public abstraction;\n  address[] seat_owner;\n  uint256 public remain;\n  \n\n\n  function buy(address , uint ) public payable returns (uint[] memory seat_num){}\n\n  function withdraw() public{  }\n}\n\ncontract Server {\n    struct server_campaign{\n        address campaign;\n        bool isvalid;\n    }\n    server_campaign[] public campaigns;\n    uint ptr = 0;\n    function callServer(string memory i) public pure returns (string memory) {\n        return(i);\n    }\n    function addCampaign(address campaign_address) public {\n        campaigns.push(server_campaign(campaign_address, true));\n    }\n\n    function getCampaigns() public returns (address[] memory){\n        uint j = ptr;\n        uint k = 0;\n        address[] memory c = new address[](campaigns.length);\n        for (uint i = ptr; i<campaigns.length; i++){\n            // server_campaign memory tmp = campaigns[i];\n            // Campaign campaign = Campaign(campaigns[i].campaign);\n            if (campaigns[i].isvalid){\n                if (Campaign(campaigns[i].campaign).campaign_end_time() >= block.timestamp){\n                    campaigns[i].isvalid = false;\n                    if (i==j+1){\n                        j+=1;\n                    }\n                }else{\n                    c[k] = (campaigns[i].campaign);\n                    k++;\n                }\n            }\n        }\n        ptr = j;\n        return c;\n    }\n\n    function buy_ticket(uint index, uint amount) public payable returns(uint[] memory seat_num){\n        // campaigns[index];\n        if (campaigns[index].isvalid){\n            Campaign c = Campaign(campaigns[index].campaign);\n            if (c.remain() >= amount){\n                seat_num = c.buy(msg.sender, amount);\n            }\n        }\n    }\n\n    receive () external payable {}\n}",
  "sourcePath": "/Users/binomialwu/Desktop/deapp-final/ticket system/contracts/server.sol",
  "compiler": {
    "name": "solc",
    "version": "0.7.0+commit.9e61f92b.Emscripten.clang"
  },
  "schemaVersion": "3.3.2",
  "updatedAt": "2020-12-16T10:05:43.373Z",
  "devdoc": {
    "kind": "dev",
    "methods": {},
    "version": 1
  },
  "userdoc": {
    "kind": "user",
    "methods": {},
    "version": 1
  }
}