{
  "contractName": "Campaign",
  "abi": [
    {
      "inputs": [
        {
          "internalType": "address",
          "name": "user",
          "type": "address"
        },
        {
          "internalType": "string",
          "name": "_campaign_name",
          "type": "string"
        },
        {
          "internalType": "uint256",
          "name": "_levels",
          "type": "uint256"
        },
        {
          "internalType": "uint256[]",
          "name": "_seats",
          "type": "uint256[]"
        },
        {
          "internalType": "uint256[]",
          "name": "_price",
          "type": "uint256[]"
        },
        {
          "internalType": "uint256",
          "name": "_campaign_start_time",
          "type": "uint256"
        },
        {
          "internalType": "uint256",
          "name": "_campaign_end_time",
          "type": "uint256"
        },
        {
          "internalType": "uint256",
          "name": "_start_sell_time",
          "type": "uint256"
        },
        {
          "internalType": "string",
          "name": "_abstraction",
          "type": "string"
        }
      ],
      "stateMutability": "nonpayable",
      "type": "constructor"
    },
    {
      "inputs": [],
      "name": "abstraction",
      "outputs": [
        {
          "internalType": "string",
          "name": "",
          "type": "string"
        }
      ],
      "stateMutability": "view",
      "type": "function"
    },
    {
      "inputs": [],
      "name": "campaign_end_time",
      "outputs": [
        {
          "internalType": "uint256",
          "name": "",
          "type": "uint256"
        }
      ],
      "stateMutability": "view",
      "type": "function"
    },
    {
      "inputs": [],
      "name": "campaign_name",
      "outputs": [
        {
          "internalType": "string",
          "name": "",
          "type": "string"
        }
      ],
      "stateMutability": "view",
      "type": "function"
    },
    {
      "inputs": [],
      "name": "campaign_start_time",
      "outputs": [
        {
          "internalType": "uint256",
          "name": "",
          "type": "uint256"
        }
      ],
      "stateMutability": "view",
      "type": "function"
    },
    {
      "inputs": [],
      "name": "levels",
      "outputs": [
        {
          "internalType": "uint256",
          "name": "",
          "type": "uint256"
        }
      ],
      "stateMutability": "view",
      "type": "function"
    },
    {
      "inputs": [],
      "name": "owner",
      "outputs": [
        {
          "internalType": "address",
          "name": "",
          "type": "address"
        }
      ],
      "stateMutability": "view",
      "type": "function"
    },
    {
      "inputs": [
        {
          "internalType": "uint256",
          "name": "",
          "type": "uint256"
        }
      ],
      "name": "price",
      "outputs": [
        {
          "internalType": "uint256",
          "name": "",
          "type": "uint256"
        }
      ],
      "stateMutability": "view",
      "type": "function"
    },
    {
      "inputs": [
        {
          "internalType": "uint256",
          "name": "",
          "type": "uint256"
        }
      ],
      "name": "remain",
      "outputs": [
        {
          "internalType": "uint256",
          "name": "",
          "type": "uint256"
        }
      ],
      "stateMutability": "view",
      "type": "function"
    },
    {
      "inputs": [
        {
          "internalType": "uint256",
          "name": "",
          "type": "uint256"
        }
      ],
      "name": "seats",
      "outputs": [
        {
          "internalType": "uint256",
          "name": "",
          "type": "uint256"
        }
      ],
      "stateMutability": "view",
      "type": "function"
    },
    {
      "inputs": [],
      "name": "start_sell_time",
      "outputs": [
        {
          "internalType": "uint256",
          "name": "",
          "type": "uint256"
        }
      ],
      "stateMutability": "view",
      "type": "function"
    },
    {
      "stateMutability": "payable",
      "type": "receive"
    },
    {
      "inputs": [],
      "name": "getSeats",
      "outputs": [
        {
          "internalType": "uint256[]",
          "name": "",
          "type": "uint256[]"
        }
      ],
      "stateMutability": "view",
      "type": "function"
    },
    {
      "inputs": [],
      "name": "getPrice",
      "outputs": [
        {
          "internalType": "uint256[]",
          "name": "",
          "type": "uint256[]"
        }
      ],
      "stateMutability": "view",
      "type": "function"
    },
    {
      "inputs": [],
      "name": "getRemain",
      "outputs": [
        {
          "internalType": "uint256[]",
          "name": "",
          "type": "uint256[]"
        }
      ],
      "stateMutability": "view",
      "type": "function"
    },
    {
      "inputs": [
        {
          "internalType": "address",
          "name": "user",
          "type": "address"
        },
        {
          "internalType": "uint256",
          "name": "amount",
          "type": "uint256"
        },
        {
          "internalType": "uint256",
          "name": "level",
          "type": "uint256"
        }
      ],
      "name": "buy",
      "outputs": [
        {
          "internalType": "uint256[]",
          "name": "seat_num",
          "type": "uint256[]"
        }
      ],
      "stateMutability": "payable",
      "type": "function"
    },
    {
      "inputs": [
        {
          "internalType": "address payable",
          "name": "user",
          "type": "address"
        }
      ],
      "name": "withdraw",
      "outputs": [],
      "stateMutability": "nonpayable",
      "type": "function"
    },
    {
      "inputs": [
        {
          "internalType": "address payable",
          "name": "user",
          "type": "address"
        },
        {
          "internalType": "uint256",
          "name": "level",
          "type": "uint256"
        },
        {
          "internalType": "uint256",
          "name": "seat_num",
          "type": "uint256"
        }
      ],
      "name": "refund",
      "outputs": [],
      "stateMutability": "nonpayable",
      "type": "function"
    }
  ],
  "bytecode": "0x60806040523480156200001157600080fd5b50604051620015f7380380620015f783398181016040526101208110156200003857600080fd5b8101908080519060200190929190805160405193929190846401000000008211156200006357600080fd5b838201915060208201858111156200007a57600080fd5b82518660018202830111640100000000821117156200009857600080fd5b8083526020830192505050908051906020019080838360005b83811015620000ce578082015181840152602081019050620000b1565b50505050905090810190601f168015620000fc5780820380516001836020036101000a031916815260200191505b5060405260200180519060200190929190805160405193929190846401000000008211156200012a57600080fd5b838201915060208201858111156200014157600080fd5b82518660208202830111640100000000821117156200015f57600080fd5b8083526020830192505050908051906020019060200280838360005b83811015620001985780820151818401526020810190506200017b565b5050505090500160405260200180516040519392919084640100000000821115620001c257600080fd5b83820191506020820185811115620001d957600080fd5b8251866020820283011164010000000082111715620001f757600080fd5b8083526020830192505050908051906020019060200280838360005b838110156200023057808201518184015260208101905062000213565b50505050905001604052602001805190602001909291908051906020019092919080519060200190929190805160405193929190846401000000008211156200027857600080fd5b838201915060208201858111156200028f57600080fd5b8251866001820283011164010000000082111715620002ad57600080fd5b8083526020830192505050908051906020019080838360005b83811015620002e3578082015181840152602081019050620002c6565b50505050905090810190601f168015620003115780820380516001836020036101000a031916815260200191505b50604052505050886000806101000a81548173ffffffffffffffffffffffffffffffffffffffff021916908373ffffffffffffffffffffffffffffffffffffffff160217905550866001819055506000805b6001548110156200044c5760028882815181106200037d57fe5b602002602001015190806001815401808255809150506001900390600052602060002001600090919091909150556004878281518110620003ba57fe5b60200260200101519080600181540180825580915050600190039060005260206000200160009091909190915055878181518110620003f557fe5b602002602001015182019150600a8882815181106200041057fe5b60200260200101519080600181540180825580915050600190039060005260206000200160009091909190915055808060010191505062000363565b5088600390805190602001906200046592919062000505565b5084600581905550836006819055508260078190555081600890805190602001906200049392919062000505565b508067ffffffffffffffff81118015620004ac57600080fd5b50604051908082528060200260200182016040528015620004dc5781602001602082028036833780820191505090505b5060099080519060200190620004f49291906200058c565b505050505050505050505062000677565b828054600181600116156101000203166002900490600052602060002090601f016020900481019282601f106200054857805160ff191683800117855562000579565b8280016001018555821562000579579182015b82811115620005785782518255916020019190600101906200055b565b5b5090506200058891906200061b565b5090565b82805482825590600052602060002090810192821562000608579160200282015b82811115620006075782518260006101000a81548173ffffffffffffffffffffffffffffffffffffffff021916908373ffffffffffffffffffffffffffffffffffffffff16021790555091602001919060010190620005ad565b5b5090506200061791906200063a565b5090565b5b80821115620006365760008160009055506001016200061c565b5090565b5b808211156200067357600081816101000a81549073ffffffffffffffffffffffffffffffffffffffff0219169055506001016200063b565b5090565b610f7080620006876000396000f3fe608060405260043610610114576000357c0100000000000000000000000000000000000000000000000000000000900480634ecf518b116100a757806398d5fdca1161007657806398d5fdca14610511578063a59ac6dd1461057d578063a997c66a1461062a578063e8237fb1146106965761011b565b80634ecf518b146103e857806351cff8d9146104135780637fc0f98b146104645780638da5cb5b146104d05761011b565b806321d89592116100e357806321d895921461022a57806326a49e37146102ba5780633b33c702146103095780634137e733146103585761011b565b80630b451a40146101205780630e153e241461016f57806310b6315d1461019a57806318fd8903146101c55761011b565b3661011b57005b600080fd5b34801561012c57600080fd5b506101596004803603602081101561014357600080fd5b81019080803590602001909291905050506106c1565b6040518082815260200191505060405180910390f35b34801561017b57600080fd5b506101846106e2565b6040518082815260200191505060405180910390f35b3480156101a657600080fd5b506101af6106e8565b6040518082815260200191505060405180910390f35b3480156101d157600080fd5b50610228600480360360608110156101e857600080fd5b81019080803573ffffffffffffffffffffffffffffffffffffffff16906020019092919080359060200190929190803590602001909291905050506106ee565b005b34801561023657600080fd5b5061023f6108f7565b6040518080602001828103825283818151815260200191508051906020019080838360005b8381101561027f578082015181840152602081019050610264565b50505050905090810190601f1680156102ac5780820380516001836020036101000a031916815260200191505b509250505060405180910390f35b3480156102c657600080fd5b506102f3600480360360208110156102dd57600080fd5b8101908080359060200190929190505050610995565b6040518082815260200191505060405180910390f35b34801561031557600080fd5b506103426004803603602081101561032c57600080fd5b81019080803590602001909291905050506109b6565b6040518082815260200191505060405180910390f35b34801561036457600080fd5b5061036d6109d7565b6040518080602001828103825283818151815260200191508051906020019080838360005b838110156103ad578082015181840152602081019050610392565b50505050905090810190601f1680156103da5780820380516001836020036101000a031916815260200191505b509250505060405180910390f35b3480156103f457600080fd5b506103fd610a75565b6040518082815260200191505060405180910390f35b34801561041f57600080fd5b506104626004803603602081101561043657600080fd5b81019080803573ffffffffffffffffffffffffffffffffffffffff169060200190929190505050610a7b565b005b34801561047057600080fd5b50610479610bab565b6040518080602001828103825283818151815260200191508051906020019060200280838360005b838110156104bc5780820151818401526020810190506104a1565b505050509050019250505060405180910390f35b3480156104dc57600080fd5b506104e5610c03565b604051808273ffffffffffffffffffffffffffffffffffffffff16815260200191505060405180910390f35b34801561051d57600080fd5b50610526610c27565b6040518080602001828103825283818151815260200191508051906020019060200280838360005b8381101561056957808201518184015260208101905061054e565b505050509050019250505060405180910390f35b6105d36004803603606081101561059357600080fd5b81019080803573ffffffffffffffffffffffffffffffffffffffff1690602001909291908035906020019092919080359060200190929190505050610c7f565b6040518080602001828103825283818151815260200191508051906020019060200280838360005b838110156106165780820151818401526020810190506105fb565b505050509050019250505060405180910390f35b34801561063657600080fd5b5061063f610edc565b6040518080602001828103825283818151815260200191508051906020019060200280838360005b83811015610682578082015181840152602081019050610667565b505050509050019250505060405180910390f35b3480156106a257600080fd5b506106ab610f34565b6040518082815260200191505060405180910390f35b600a81815481106106ce57fe5b906000526020600020016000915090505481565b60055481565b60075481565b6006544210610765576040517f08c379a00000000000000000000000000000000000000000000000000000000081526004018080602001828103825260158152602001807f7468652063616d706169676e20697320636c6f7365000000000000000000000081525060200191505060405180910390fd5b8273ffffffffffffffffffffffffffffffffffffffff166009828154811061078957fe5b9060005260206000200160009054906101000a900473ffffffffffffffffffffffffffffffffffffffff1673ffffffffffffffffffffffffffffffffffffffff161461083d576040517f08c379a00000000000000000000000000000000000000000000000000000000081526004018080602001828103825260148152602001807f796f75206172656e277420746865206f776e657200000000000000000000000081525060200191505060405180910390fd5b60006009828154811061084c57fe5b9060005260206000200160006101000a81548173ffffffffffffffffffffffffffffffffffffffff021916908373ffffffffffffffffffffffffffffffffffffffff1602179055508273ffffffffffffffffffffffffffffffffffffffff166108fc600484815481106108bb57fe5b90600052602060002001549081150290604051600060405180830381858888f193505050501580156108f1573d6000803e3d6000fd5b50505050565b60088054600181600116156101000203166002900480601f01602080910402602001604051908101604052809291908181526020018280546001816001161561010002031660029004801561098d5780601f106109625761010080835404028352916020019161098d565b820191906000526020600020905b81548152906001019060200180831161097057829003601f168201915b505050505081565b600481815481106109a257fe5b906000526020600020016000915090505481565b600281815481106109c357fe5b906000526020600020016000915090505481565b60038054600181600116156101000203166002900480601f016020809104026020016040519081016040528092919081815260200182805460018160011615610100020316600290048015610a6d5780601f10610a4257610100808354040283529160200191610a6d565b820191906000526020600020905b815481529060010190602001808311610a5057829003601f168201915b505050505081565b60015481565b60008054906101000a900473ffffffffffffffffffffffffffffffffffffffff1673ffffffffffffffffffffffffffffffffffffffff163373ffffffffffffffffffffffffffffffffffffffff1614610ad357600080fd5b6006544211610b4a576040517f08c379a000000000000000000000000000000000000000000000000000000000815260040180806020018281038252601b8152602001807f7468652063616d706169676e20686176656e277420636c6f736564000000000081525060200191505060405180910390fd5b8073ffffffffffffffffffffffffffffffffffffffff166108fc3073ffffffffffffffffffffffffffffffffffffffff16319081150290604051600060405180830381858888f19350505050158015610ba7573d6000803e3d6000fd5b5050565b6060600a805480602002602001604051908101604052809291908181526020018280548015610bf957602002820191906000526020600020905b815481526020019060010190808311610be5575b5050505050905090565b60008054906101000a900473ffffffffffffffffffffffffffffffffffffffff1681565b60606004805480602002602001604051908101604052809291908181526020018280548015610c7557602002820191906000526020600020905b815481526020019060010190808311610c61575b5050505050905090565b606060008367ffffffffffffffff81118015610c9a57600080fd5b50604051908082528060200260200182016040528015610cc95781602001602082028036833780820191505090505b50915060005b60028481548110610cdc57fe5b9060005260206000200154811015610ed35784821015610ec6576000805b85811215610d2b5760028181548110610d0f57fe5b9060005260206000200154820191508080600101915050610cfa565b508181019050600060098281548110610d4057fe5b9060005260206000200160009054906101000a900473ffffffffffffffffffffffffffffffffffffffff169050600073ffffffffffffffffffffffffffffffffffffffff168173ffffffffffffffffffffffffffffffffffffffff16148015610dc0575086600a8781548110610db257fe5b906000526020600020015410155b15610ec3578760098381548110610dd357fe5b9060005260206000200160006101000a81548173ffffffffffffffffffffffffffffffffffffffff021916908373ffffffffffffffffffffffffffffffffffffffff1602179055503073ffffffffffffffffffffffffffffffffffffffff166108fc60048881548110610e4257fe5b90600052602060002001549081150290604051600060405180830381858888f19350505050158015610e78573d6000803e3d6000fd5b50600a8681548110610e8657fe5b90600052602060002001600081548092919060019003919050555081858581518110610eae57fe5b60200260200101818152505083806001019450505b50505b8080600101915050610ccf565b50509392505050565b60606002805480602002602001604051908101604052809291908181526020018280548015610f2a57602002820191906000526020600020905b815481526020019060010190808311610f16575b5050505050905090565b6006548156fea2646970667358221220203d9ae2da6dd6c868b5a0972835dda63b7f47e911c1030648368fb41241886d64736f6c63430007000033",
  "immutableReferences": {},
  "source": "pragma solidity >=0.7.0;\r\n\r\n// using SafeMath for uint256\r\n\r\ncontract Campaign {\r\n    address public owner;\r\n    uint256 public levels;\r\n    uint256[] public seats;\r\n    string public campaign_name;\r\n    uint256[] public price;\r\n    uint256 public campaign_start_time;\r\n    uint256 public campaign_end_time;\r\n    uint256 public start_sell_time;\r\n    string public abstraction;\r\n    address[] seat_owner;\r\n    uint256[] public remain;\r\n\r\n    constructor(\r\n        address user,\r\n        string memory _campaign_name,\r\n        uint256 _levels,\r\n        uint256[] memory _seats,\r\n        uint256[] memory _price,\r\n        uint256 _campaign_start_time,\r\n        uint256 _campaign_end_time,\r\n        uint256 _start_sell_time,\r\n        string memory _abstraction\r\n    ) public {\r\n        owner = user;\r\n        levels = _levels;\r\n        uint256 total_seats = 0;\r\n        for (uint256 i = 0; i < levels; i++) {\r\n            seats.push(_seats[i]);\r\n            price.push(_price[i]);\r\n            total_seats += _seats[i];\r\n            remain.push(_seats[i]);\r\n        }\r\n        campaign_name = _campaign_name;\r\n        campaign_start_time = _campaign_start_time;\r\n        campaign_end_time = _campaign_end_time;\r\n        start_sell_time = _start_sell_time;\r\n        abstraction = _abstraction;\r\n        seat_owner = new address[](total_seats);\r\n\r\n    }\r\n\r\n    modifier restricted() {\r\n        require(msg.sender == owner);\r\n        _;\r\n    }\r\n\r\n    function getSeats() public view returns(uint256[] memory) {\r\n        return seats;\r\n    } \r\n\r\n    function getPrice() public view returns(uint256[] memory) {\r\n        return price;\r\n    } \r\n\r\n    function getRemain() public view returns(uint256[] memory) {\r\n        return remain;\r\n    } \r\n\r\n    function buy(address user,uint256 amount, uint256 level)\r\n        public\r\n        payable\r\n        returns (uint256[] memory seat_num)\r\n    {\r\n        uint256 j = 0;\r\n        // uint k=0;\r\n        seat_num = new uint256[](amount);\r\n        for (uint256 i = 0; i < seats[level]; i++) {\r\n            if (j < amount) {\r\n                uint256 num = 0;\r\n                for (int256 k = 0; k < int(level); k++ ){\r\n                    num = num + seats[uint256(k)];\r\n                }\r\n                num += i;\r\n                address temp = seat_owner[num];\r\n                if (temp == address(0x00) && remain[level] >= amount) {\r\n                    seat_owner[num] = user;\r\n                    // address(this).call{value: price[level]}(\"\");\r\n                    // uint256 cost = (price[level]);\r\n                    address(this).transfer(price[level]);\r\n                    remain[level]--;\r\n                    seat_num[j] = num;\r\n                    j++;\r\n                }\r\n            }\r\n        }\r\n    }\r\n\r\n    function withdraw(address payable user) public restricted {\r\n        require ( block.timestamp > campaign_end_time, \"the campaign haven't closed\");\r\n        // if (block.timestamp > campaign_end_time) {\r\n            // msg.sender.call{value: address(this).balance}(\"\");\r\n        user.transfer(address(this).balance);\r\n        // }\r\n    }\r\n\r\n    function refund(address payable user, uint256 level, uint256 seat_num) public {\r\n        require ( block.timestamp < campaign_end_time, \"the campaign is close\");\r\n        require ( seat_owner[seat_num] == user, \"you aren't the owner\");\r\n        // if (block.timestamp < campaign_end_time) {\r\n        //     if (seat_owner[seat_num]!=address(0x0)){\r\n        seat_owner[seat_num]=address(0x0);\r\n        user.transfer(price[level]);\r\n            // }\r\n        // }\r\n    }\r\n\r\n    receive() external payable {}\r\n}\r\n\r\ncontract Server {\r\n    struct server_campaign {\r\n        address payable campaign;\r\n        bool isvalid;\r\n    }\r\n\r\n    // struct return_campaign {\r\n    //     address _campaign_address;\r\n    //     string _campaign_name;\r\n    //     uint256 _seats;\r\n    //     uint256 _price;\r\n    //     uint256 _campaign_start_time;\r\n    //     uint256 _campaign_end_time;\r\n    //     uint256 _start_sell_time;\r\n    //     string _abstraction;\r\n    // }\r\n    event OnAddUser(string message, address user_address);\r\n    event OnGetCampaigns(address payable[] campaigns);\r\n    event OnAddCampaign(string message);\r\n    event OnBuyTicket(string message);\r\n\r\n    server_campaign[] public campaigns;\r\n    address public users_address;\r\n\r\n    constructor() public{\r\n        users_address = address(new Users());\r\n    }\r\n\r\n    function callServer(string memory i) public pure returns (string memory) {\r\n        return (i);\r\n    }\r\n\r\n    function addCampaign(\r\n        string memory _campaign_name,\r\n        uint256 _levels,\r\n        uint256[] memory _seats,\r\n        uint256[] memory _price,\r\n        uint256 _campaign_start_time,\r\n        uint256 _campaign_end_time,\r\n        uint256 _start_sell_time,\r\n        string memory _abstraction\r\n    ) public  {\r\n        string memory message;\r\n        \r\n        address payable campaign_address =\r\n            address(\r\n                new Campaign(\r\n                    msg.sender,\r\n                    _campaign_name,\r\n                    _levels,\r\n                    _seats,\r\n                    _price,\r\n                    _campaign_start_time,\r\n                    _campaign_end_time,\r\n                    _start_sell_time,\r\n                    _abstraction\r\n                )\r\n            );\r\n        campaigns.push(server_campaign(campaign_address, true));\r\n        Users users = Users(users_address);\r\n        users.addCampaign(msg.sender, campaign_address);\r\n        message = \"success\";\r\n        emit OnAddCampaign(message);\r\n    }\r\n\r\n    function viewCampaign(address payable campaign_address)\r\n        public\r\n        view\r\n        returns (\r\n            uint256[] memory seats,\r\n            string memory campaign_name,\r\n            uint256[] memory price,\r\n            uint256 campaign_start_time,\r\n            uint256 campaign_end_time,\r\n            uint256 start_sell_time,\r\n            string memory abstraction,\r\n            uint256[] memory remain\r\n        )\r\n    {\r\n        Campaign currentCampaign = Campaign(campaign_address);\r\n        campaign_name = currentCampaign.campaign_name();\r\n        seats = currentCampaign.getSeats();\r\n        price = currentCampaign.getPrice();\r\n        campaign_start_time = currentCampaign.campaign_start_time();\r\n        campaign_end_time = currentCampaign.campaign_end_time();\r\n        start_sell_time = currentCampaign.start_sell_time();\r\n        abstraction = currentCampaign.abstraction();\r\n        remain = currentCampaign.getRemain();\r\n    }\r\n\r\n    function getUserTickets()\r\n        public\r\n        view\r\n        \r\n        returns (address[] memory , uint256[] memory , uint256[] memory)\r\n    {\r\n        Users users = Users(users_address);\r\n        return users.ViewTickets(msg.sender);\r\n    }\r\n\r\n    function getUserCampaigns()\r\n        public\r\n        view\r\n        returns (address[] memory u_campaigns)\r\n    {\r\n        Users users = Users(users_address);\r\n        return users.ViewCampaigns(msg.sender);\r\n    }\r\n\r\n    function getCampaigns() public view returns (address[] memory ) {\r\n        uint256 num = 0;\r\n        for (uint256 i = 0; i < campaigns.length; i++) {\r\n            if (campaigns[i].isvalid) {\r\n                if (\r\n                    Campaign(campaigns[i].campaign).campaign_end_time() >\r\n                    block.timestamp\r\n                ) {\r\n                    num++;\r\n                }\r\n            }\r\n        }\r\n        address [] memory c = new address [](num);\r\n        uint256 j = 0;\r\n        for (uint256 i = 0; i < campaigns.length; i++) {\r\n            if (campaigns[i].isvalid) {\r\n                if (\r\n                    Campaign(campaigns[i].campaign).campaign_end_time() >\r\n                    block.timestamp\r\n                ) {\r\n                    c[j] = address(campaigns[i].campaign);\r\n                    j++;\r\n                }\r\n            }\r\n        }\r\n        return c;\r\n    }\r\n\r\n    function buyTicket(address payable campaign_address, uint256 amount, uint256 level) public payable  {\r\n        uint256[] memory seat_num;\r\n        string memory message;\r\n        Users users = Users(users_address);\r\n        Campaign c = Campaign(campaign_address);\r\n        if (c.remain(level) >= amount) {\r\n            seat_num = c.buy{value: msg.value}(msg.sender, amount, level);\r\n        } else {\r\n            message = \"fail\";\r\n            emit OnBuyTicket(message);\r\n        }\r\n        for (uint256 i = 0; i < seat_num.length; i++) {\r\n            users.addTicket(msg.sender, campaign_address, seat_num[i], level);\r\n        }\r\n        message = \"success\";\r\n        emit OnBuyTicket(message);\r\n    }\r\n\r\n    function withdraw(address payable campaign_address) public {\r\n        Campaign(campaign_address).withdraw(msg.sender); \r\n    }\r\n\r\n    function completeTicket(address payable campaign_address, uint256 level, uint256 seat_num) public {\r\n        Users(users_address).CompleteTicket(msg.sender, campaign_address, level, seat_num);\r\n    }\r\n\r\n    function refund(address payable campaign_address, uint256 level, uint256 seat_num) public {\r\n        Campaign(campaign_address).refund(msg.sender, level, seat_num); \r\n        Users(users_address).RefundTicket(msg.sender, campaign_address, level, seat_num);\r\n    }\r\n\r\n    receive() external payable {}\r\n}\r\n\r\npragma solidity >=0.7.0;\r\n\r\ncontract Users {\r\n    event OnAddCampaign(address capmaign_addr, uint256 Id);\r\n    event OnAddTicket(address attend_addr, uint256 Id);\r\n    event OnCompleteCampaign(address capmaign_addr, uint256 Id);\r\n    event OnCompleteTicket(string message);\r\n    event OnRefundTicket(string message);\r\n\r\n    mapping (address => User) addr_to_U;\r\n    mapping (address => bool) usr_addr_valid;\r\n\r\n    struct User {\r\n        address user_addr;\r\n        uint256 amount_tickets;\r\n        uint256 amount_campaigns;\r\n        OwnTicket[] tickets;\r\n        OwnCampaign[] campaigns;\r\n        mapping(address => uint256) campaign_addr_to_id;\r\n        mapping(address => uint256) ticket_addr_to_id;\r\n    }\r\n    struct OwnTicket {\r\n        address attend_address;\r\n        uint256 seat;\r\n        uint256 level;\r\n        bool isValid;\r\n        bool isEnd;\r\n    }\r\n     struct OwnCampaign {\r\n        address payable campaign_address;\r\n        bool isValid;\r\n        bool isEnd;\r\n    }\r\n\r\n    /*\r\n    require(msg.sender == server); may be changed\r\n    only server has the right to access user.sol\r\n    */\r\n    modifier isUserValid() {\r\n        require(usr_addr_valid[msg.sender], \"This user does not exist\");\r\n        _;\r\n    }\r\n\r\n    modifier isOwner(address user_addr) {\r\n        require(msg.sender == user_addr);\r\n        _;\r\n    }\r\n\r\n    modifier isValidSignup(address user_addr) {\r\n    require(usr_addr_valid[user_addr], \"Already exists\");\r\n    _;\r\n    }\r\n\r\n    function isValidCampaign(uint256 _campaignId) \r\n        public \r\n        view \r\n        returns(bool)\r\n    {\r\n        return addr_to_U[msg.sender].campaigns[_campaignId].isValid;\r\n    }\r\n\r\n    function isValidTicket(uint256 _ticketId) \r\n        public \r\n        view \r\n        returns(bool)      \r\n    {\r\n        return addr_to_U[msg.sender].tickets[_ticketId].isValid;\r\n    }\r\n\r\n    function addUser(address user_addr)\r\n        public\r\n        // isValidSignup(msg.sender)\r\n    {\r\n        User storage user = addr_to_U[user_addr];\r\n        user.user_addr = user_addr;\r\n        user.amount_tickets = 0;\r\n        user.amount_campaigns = 0;\r\n\r\n        usr_addr_valid[user_addr] = true;\r\n    }\r\n    \r\n    function addCampaign(address user, address payable _campaign_address) \r\n        public \r\n    {\r\n        if (!usr_addr_valid[user]){\r\n            addUser(user);\r\n        }\r\n        OwnCampaign memory campaign =\r\n            OwnCampaign(_campaign_address, true, false);\r\n        addr_to_U[user].campaigns.push(campaign);\r\n        addr_to_U[user].amount_campaigns += 1;\r\n        uint256 Id = addr_to_U[user].amount_campaigns - 1;\r\n\r\n        emit OnAddCampaign(_campaign_address, Id);\r\n    }\r\n\r\n    // if more than one ticket is bought for a single campaign, just call iot several times\r\n    function addTicket(address user, address payable _ticket_address, uint256 seat, uint256 level) \r\n        public \r\n    {\r\n        if (!usr_addr_valid[user]){\r\n            addUser(user);\r\n        }\r\n        OwnTicket memory ticket =\r\n            OwnTicket(_ticket_address, seat, level, true, false);\r\n        addr_to_U[user].tickets.push(ticket);\r\n        addr_to_U[user].amount_tickets += 1;\r\n        uint256 Id = addr_to_U[user].amount_tickets - 1;\r\n\r\n        emit OnAddTicket(_ticket_address, Id);\r\n    }\r\n\r\n    function ViewCampaigns(address user) \r\n        public \r\n        view \r\n        // isUserValid(user_addr)\r\n        returns (address[] memory)\r\n    {\r\n        if (!usr_addr_valid[user]){\r\n            address[] memory tmp = new address[](0);\r\n            return tmp;\r\n        }\r\n        uint256 len = 0;\r\n        uint256[] memory count_to_id = new uint256[](addr_to_U[user].amount_campaigns);\r\n        for (uint256 id = 0; id < addr_to_U[user].amount_campaigns; id++) {\r\n            if (isValidCampaign(id)) {\r\n                count_to_id[len] = id;\r\n                len++;\r\n            }\r\n        }\r\n        address[] memory campaignList = new address[](len);\r\n        for (uint256 i = 0; i < len; i++) {\r\n            campaignList[i] = addr_to_U[user].campaigns[count_to_id[i]].campaign_address;\r\n        }\r\n        return campaignList;\r\n    }\r\n\r\n    function ViewTickets(address user) \r\n        public \r\n        view \r\n        // isUserValid(user_addr)\r\n        returns (address[] memory, uint256[] memory, uint256[] memory )\r\n    {\r\n        if (!usr_addr_valid[user]){\r\n            address[] memory tmp_a = new address[](0);\r\n            uint256[] memory tmp_l = new uint256[](0);\r\n            uint256[] memory tmp_s = new uint256[](0);\r\n            return (tmp_a, tmp_l, tmp_s);\r\n        }\r\n        uint256 len = 0;\r\n        uint256[] memory count_to_id = new uint256[](addr_to_U[user].amount_tickets);\r\n        for (uint256 id = 0; id < addr_to_U[user].amount_tickets; id++) {\r\n            if (isValidTicket(id)) {\r\n                count_to_id[len] = id;\r\n                len++;\r\n            }\r\n        }\r\n        address[] memory ticketList = new address[](len);\r\n        uint256[] memory ticketLevels = new uint256[](len);\r\n        uint256[] memory ticketSeats = new uint256[](len);\r\n        for (uint256 i = 0; i < len; i++) {\r\n            ticketList[i] = addr_to_U[user].tickets[count_to_id[i]].attend_address;\r\n            ticketLevels[i] = addr_to_U[user].tickets[count_to_id[i]].level;\r\n            ticketSeats[i] = addr_to_U[user].tickets[count_to_id[i]].seat;\r\n        }\r\n        return (ticketList, ticketLevels, ticketSeats);\r\n    }\r\n\r\n    function CompleteCampaign(address user, address _campaign_address) public \r\n    {\r\n        uint256 _id = addr_to_U[user].campaign_addr_to_id[_campaign_address];\r\n        addr_to_U[user].campaigns[_id].isValid = false;\r\n        addr_to_U[user].campaigns[_id].isEnd = true;\r\n    }\r\n\r\n    function CompleteTicket(address user, address _ticket_address, uint256 _level, uint256 _seat_num) public \r\n    {\r\n        for (uint256 id = 0; id < addr_to_U[user].amount_tickets; id++) {\r\n            if (isValidTicket(id)) {\r\n                if (addr_to_U[user].tickets[id].attend_address == _ticket_address &&\r\n                    addr_to_U[user].tickets[id].level == _level &&\r\n                    addr_to_U[user].tickets[id].seat == _seat_num){\r\n                        addr_to_U[user].tickets[id].isValid = false;\r\n                        addr_to_U[user].tickets[id].isEnd = true;\r\n                        emit OnCompleteTicket(\"success\");\r\n                    }\r\n            }\r\n        }\r\n        emit OnCompleteTicket(\"can't not find campaign\");\r\n    }\r\n\r\n    function RefundTicket(address user, address _ticket_address, uint256 _level, uint256 _seat_num) public \r\n    {\r\n        for (uint256 id = 0; id < addr_to_U[user].amount_tickets; id++) {\r\n            if (isValidTicket(id)) {\r\n                if (addr_to_U[user].tickets[id].attend_address == _ticket_address &&\r\n                    addr_to_U[user].tickets[id].level == _level &&\r\n                    addr_to_U[user].tickets[id].seat == _seat_num){\r\n                        addr_to_U[user].tickets[id].isValid = false;\r\n                        addr_to_U[user].tickets[id].isEnd = true;\r\n                        emit OnRefundTicket(\"success\");\r\n                    }\r\n            }\r\n        }\r\n        emit OnRefundTicket(\"can't not find ticket\");\r\n    }\r\n}",
  "sourcePath": "F:/109-1/Networking and Multinmedia(Lab)/deapp-final/ticket system/contracts/server.sol",
  "compiler": {
    "name": "solc",
    "version": "0.7.0+commit.9e61f92b.Emscripten.clang"
  },
  "schemaVersion": "3.3.2",
  "updatedAt": "2021-01-15T11:29:51.941Z",
  "devdoc": {
    "kind": "dev",
    "methods": {},
    "version": 1
  },
  "userdoc": {
    "kind": "user",
    "methods": {},
    "version": 1
  }
}