{
  "contractName": "Server",
  "abi": [
    {
      "inputs": [],
      "stateMutability": "nonpayable",
      "type": "constructor"
    },
    {
      "anonymous": false,
      "inputs": [
        {
          "indexed": false,
          "internalType": "string",
          "name": "message",
          "type": "string"
        }
      ],
      "name": "OnAddCampaign",
      "type": "event"
    },
    {
      "anonymous": false,
      "inputs": [
        {
          "indexed": false,
          "internalType": "string",
          "name": "message",
          "type": "string"
        },
        {
          "indexed": false,
          "internalType": "address",
          "name": "user_address",
          "type": "address"
        }
      ],
      "name": "OnAddUser",
      "type": "event"
    },
    {
      "anonymous": false,
      "inputs": [
        {
          "indexed": false,
          "internalType": "string",
          "name": "message",
          "type": "string"
        }
      ],
      "name": "OnBuyTicket",
      "type": "event"
    },
    {
      "anonymous": false,
      "inputs": [
        {
          "indexed": false,
          "internalType": "address payable[]",
          "name": "campaigns",
          "type": "address[]"
        }
      ],
      "name": "OnGetCampaigns",
      "type": "event"
    },
    {
      "inputs": [
        {
          "internalType": "uint256",
          "name": "",
          "type": "uint256"
        }
      ],
      "name": "campaigns",
      "outputs": [
        {
          "internalType": "address payable",
          "name": "campaign",
          "type": "address"
        },
        {
          "internalType": "bool",
          "name": "isvalid",
          "type": "bool"
        }
      ],
      "stateMutability": "view",
      "type": "function",
      "constant": true
    },
    {
      "inputs": [],
      "name": "users_address",
      "outputs": [
        {
          "internalType": "address",
          "name": "",
          "type": "address"
        }
      ],
      "stateMutability": "view",
      "type": "function",
      "constant": true
    },
    {
      "stateMutability": "payable",
      "type": "receive",
      "payable": true
    },
    {
      "inputs": [
        {
          "internalType": "string",
          "name": "i",
          "type": "string"
        }
      ],
      "name": "callServer",
      "outputs": [
        {
          "internalType": "string",
          "name": "",
          "type": "string"
        }
      ],
      "stateMutability": "pure",
      "type": "function",
      "constant": true
    },
    {
      "inputs": [
        {
          "internalType": "string",
          "name": "_campaign_name",
          "type": "string"
        },
        {
          "internalType": "uint256",
          "name": "_levels",
          "type": "uint256"
        },
        {
          "internalType": "uint256[]",
          "name": "_seats",
          "type": "uint256[]"
        },
        {
          "internalType": "uint256[]",
          "name": "_price",
          "type": "uint256[]"
        },
        {
          "internalType": "uint256",
          "name": "_campaign_start_time",
          "type": "uint256"
        },
        {
          "internalType": "uint256",
          "name": "_campaign_end_time",
          "type": "uint256"
        },
        {
          "internalType": "uint256",
          "name": "_start_sell_time",
          "type": "uint256"
        },
        {
          "internalType": "string",
          "name": "_abstraction",
          "type": "string"
        }
      ],
      "name": "addCampaign",
      "outputs": [],
      "stateMutability": "nonpayable",
      "type": "function"
    },
    {
      "inputs": [
        {
          "internalType": "address payable",
          "name": "campaign_address",
          "type": "address"
        }
      ],
      "name": "viewCampaign",
      "outputs": [
        {
          "internalType": "uint256[]",
          "name": "seats",
          "type": "uint256[]"
        },
        {
          "internalType": "string",
          "name": "campaign_name",
          "type": "string"
        },
        {
          "internalType": "uint256[]",
          "name": "price",
          "type": "uint256[]"
        },
        {
          "internalType": "uint256",
          "name": "campaign_start_time",
          "type": "uint256"
        },
        {
          "internalType": "uint256",
          "name": "campaign_end_time",
          "type": "uint256"
        },
        {
          "internalType": "uint256",
          "name": "start_sell_time",
          "type": "uint256"
        },
        {
          "internalType": "string",
          "name": "abstraction",
          "type": "string"
        }
      ],
      "stateMutability": "view",
      "type": "function",
      "constant": true
    },
    {
      "inputs": [],
      "name": "getUserTickets",
      "outputs": [
        {
          "internalType": "address[]",
          "name": "",
          "type": "address[]"
        },
        {
          "internalType": "uint256[]",
          "name": "",
          "type": "uint256[]"
        },
        {
          "internalType": "uint256[]",
          "name": "",
          "type": "uint256[]"
        }
      ],
      "stateMutability": "view",
      "type": "function",
      "constant": true
    },
    {
      "inputs": [],
      "name": "getUserCampaigns",
      "outputs": [
        {
          "internalType": "address[]",
          "name": "u_campaigns",
          "type": "address[]"
        }
      ],
      "stateMutability": "view",
      "type": "function",
      "constant": true
    },
    {
      "inputs": [],
      "name": "getCampaigns",
      "outputs": [
        {
          "internalType": "address[]",
          "name": "",
          "type": "address[]"
        }
      ],
      "stateMutability": "view",
      "type": "function",
      "constant": true
    },
    {
      "inputs": [
        {
          "internalType": "address payable",
          "name": "campaign_address",
          "type": "address"
        },
        {
          "internalType": "uint256",
          "name": "amount",
          "type": "uint256"
        },
        {
          "internalType": "uint256",
          "name": "level",
          "type": "uint256"
        }
      ],
      "name": "buyTicket",
      "outputs": [],
      "stateMutability": "payable",
      "type": "function",
      "payable": true
    }
  ],
  "bytecode": "0x608060405234801561001057600080fd5b5060405161001d9061007f565b604051809103906000f080158015610039573d6000803e3d6000fd5b50600160006101000a81548173ffffffffffffffffffffffffffffffffffffffff021916908373ffffffffffffffffffffffffffffffffffffffff16021790555061008d565b61170280620034b983390190565b61341c806200009d6000396000f3fe608060405260043610620000b4576000357c0100000000000000000000000000000000000000000000000000000000900480633e3b8557116200007e5780633e3b855714620003f45780635112533514620006b457806353f9d2cf146200089d578063a6b0363314620008e1578063e3e5c2b9146200095257620000bc565b8063093c69ae14620000c15780630e274ae214620001c6578063141961bc14620002375780632ac8ba6714620002a957620000bc565b36620000bc57005b600080fd5b348015620000ce57600080fd5b50620000d9620009ad565b60405180806020018060200180602001848103845287818151815260200191508051906020019060200280838360005b838110156200012657808201518184015260208101905062000109565b50505050905001848103835286818151815260200191508051906020019060200280838360005b838110156200016a5780820151818401526020810190506200014d565b50505050905001848103825285818151815260200191508051906020019060200280838360005b83811015620001ae57808201518184015260208101905062000191565b50505050905001965050505050505060405180910390f35b348015620001d357600080fd5b50620001de62000c54565b6040518080602001828103825283818151815260200191508051906020019060200280838360005b838110156200022357808201518184015260208101905062000206565b505050509050019250505060405180910390f35b3480156200024457600080fd5b5062000274600480360360208110156200025d57600080fd5b810190808035906020019092919050505062000dc2565b604051808373ffffffffffffffffffffffffffffffffffffffff16815260200182151581526020019250505060405180910390f35b348015620002b657600080fd5b506200037660048036036020811015620002cf57600080fd5b8101908080359060200190640100000000811115620002ed57600080fd5b8201836020820111156200030057600080fd5b803590602001918460018302840111640100000000831117156200032357600080fd5b91908080601f016020809104026020016040519081016040528093929190818152602001838380828437600081840152601f19601f82011690508083019250505050505050919291929050505062000e1d565b6040518080602001828103825283818151815260200191508051906020019080838360005b83811015620003b85780820151818401526020810190506200039b565b50505050905090810190601f168015620003e65780820380516001836020036101000a031916815260200191505b509250505060405180910390f35b3480156200040157600080fd5b50620006b260048036036101008110156200041b57600080fd5b81019080803590602001906401000000008111156200043957600080fd5b8201836020820111156200044c57600080fd5b803590602001918460018302840111640100000000831117156200046f57600080fd5b91908080601f016020809104026020016040519081016040528093929190818152602001838380828437600081840152601f19601f8201169050808301925050505050505091929192908035906020019092919080359060200190640100000000811115620004dd57600080fd5b820183602082011115620004f057600080fd5b803590602001918460208302840111640100000000831117156200051357600080fd5b919080806020026020016040519081016040528093929190818152602001838360200280828437600081840152601f19601f820116905080830192505050505050509192919290803590602001906401000000008111156200057457600080fd5b8201836020820111156200058757600080fd5b80359060200191846020830284011164010000000083111715620005aa57600080fd5b919080806020026020016040519081016040528093929190818152602001838360200280828437600081840152601f19601f820116905080830192505050505050509192919290803590602001909291908035906020019092919080359060200190929190803590602001906401000000008111156200062957600080fd5b8201836020820111156200063c57600080fd5b803590602001918460018302840111640100000000831117156200065f57600080fd5b91908080601f016020809104026020016040519081016040528093929190818152602001838380828437600081840152601f19601f82011690508083019250505050505050919291929050505062000e27565b005b348015620006c157600080fd5b506200070760048036036020811015620006da57600080fd5b81019080803573ffffffffffffffffffffffffffffffffffffffff1690602001909291905050506200125a565b604051808060200180602001806020018881526020018781526020018681526020018060200185810385528c818151815260200191508051906020019060200280838360005b838110156200076a5780820151818401526020810190506200074d565b5050505090500185810384528b818151815260200191508051906020019080838360005b83811015620007ab5780820151818401526020810190506200078e565b50505050905090810190601f168015620007d95780820380516001836020036101000a031916815260200191505b5085810383528a818151815260200191508051906020019060200280838360005b8381101562000817578082015181840152602081019050620007fa565b50505050905001858103825286818151815260200191508051906020019080838360005b83811015620008585780820151818401526020810190506200083b565b50505050905090810190601f168015620008865780820380516001836020036101000a031916815260200191505b509b50505050505050505050505060405180910390f35b348015620008aa57600080fd5b50620008b5620019ab565b604051808273ffffffffffffffffffffffffffffffffffffffff16815260200191505060405180910390f35b348015620008ee57600080fd5b50620008f9620019d1565b6040518080602001828103825283818151815260200191508051906020019060200280838360005b838110156200093e57808201518184015260208101905062000921565b505050509050019250505060405180910390f35b620009ab600480360360608110156200096a57600080fd5b81019080803573ffffffffffffffffffffffffffffffffffffffff169060200190929190803590602001909291908035906020019092919050505062001d26565b005b60608060606000600160009054906101000a900473ffffffffffffffffffffffffffffffffffffffff1690508073ffffffffffffffffffffffffffffffffffffffff16631cd14c736040518163ffffffff167c010000000000000000000000000000000000000000000000000000000002815260040160006040518083038186803b15801562000a3c57600080fd5b505afa15801562000a51573d6000803e3d6000fd5b505050506040513d6000823e3d601f19601f82011682018060405250606081101562000a7c57600080fd5b810190808051604051939291908464010000000082111562000a9d57600080fd5b8382019150602082018581111562000ab457600080fd5b825186602082028301116401000000008211171562000ad257600080fd5b8083526020830192505050908051906020019060200280838360005b8381101562000b0b57808201518184015260208101905062000aee565b505050509050016040526020018051604051939291908464010000000082111562000b3557600080fd5b8382019150602082018581111562000b4c57600080fd5b825186602082028301116401000000008211171562000b6a57600080fd5b8083526020830192505050908051906020019060200280838360005b8381101562000ba357808201518184015260208101905062000b86565b505050509050016040526020018051604051939291908464010000000082111562000bcd57600080fd5b8382019150602082018581111562000be457600080fd5b825186602082028301116401000000008211171562000c0257600080fd5b8083526020830192505050908051906020019060200280838360005b8381101562000c3b57808201518184015260208101905062000c1e565b5050505090500160405250505093509350935050909192565b60606000600160009054906101000a900473ffffffffffffffffffffffffffffffffffffffff1690508073ffffffffffffffffffffffffffffffffffffffff1663a07c38586040518163ffffffff167c010000000000000000000000000000000000000000000000000000000002815260040160006040518083038186803b15801562000ce057600080fd5b505afa15801562000cf5573d6000803e3d6000fd5b505050506040513d6000823e3d601f19601f82011682018060405250602081101562000d2057600080fd5b810190808051604051939291908464010000000082111562000d4157600080fd5b8382019150602082018581111562000d5857600080fd5b825186602082028301116401000000008211171562000d7657600080fd5b8083526020830192505050908051906020019060200280838360005b8381101562000daf57808201518184015260208101905062000d92565b5050505090500160405250505091505090565b6000818154811062000dd057fe5b906000526020600020016000915090508060000160009054906101000a900473ffffffffffffffffffffffffffffffffffffffff16908060000160149054906101000a900460ff16905082565b6060819050919050565b60606000898989898989898960405162000e4190620021fa565b808060200189815260200180602001806020018881526020018781526020018681526020018060200185810385528d818151815260200191508051906020019080838360005b8381101562000ea457808201518184015260208101905062000e87565b50505050905090810190601f16801562000ed25780820380516001836020036101000a031916815260200191505b5085810384528b818151815260200191508051906020019060200280838360005b8381101562000f1057808201518184015260208101905062000ef3565b5050505090500185810383528a818151815260200191508051906020019060200280838360005b8381101562000f5457808201518184015260208101905062000f37565b50505050905001858103825286818151815260200191508051906020019080838360005b8381101562000f9557808201518184015260208101905062000f78565b50505050905090810190601f16801562000fc35780820380516001836020036101000a031916815260200191505b509c50505050505050505050505050604051809103906000f08015801562000fef573d6000803e3d6000fd5b509050600060405180604001604052808373ffffffffffffffffffffffffffffffffffffffff168152602001600115158152509080600181540180825580915050600190039060005260206000200160009091909190915060008201518160000160006101000a81548173ffffffffffffffffffffffffffffffffffffffff021916908373ffffffffffffffffffffffffffffffffffffffff16021790555060208201518160000160146101000a81548160ff02191690831515021790555050506000600160009054906101000a900473ffffffffffffffffffffffffffffffffffffffff1690508073ffffffffffffffffffffffffffffffffffffffff1663ac9c4fd3836040518263ffffffff167c0100000000000000000000000000000000000000000000000000000000028152600401808273ffffffffffffffffffffffffffffffffffffffff168152602001915050600060405180830381600087803b1580156200115d57600080fd5b505af115801562001172573d6000803e3d6000fd5b505050506040518060400160405280600781526020017f737563636573730000000000000000000000000000000000000000000000000081525092507f97c811501143fd9e53513025da95730dfd0b457a50f5de6848adafb39eb81163836040518080602001828103825283818151815260200191508051906020019080838360005b8381101562001212578082015181840152602081019050620011f5565b50505050905090810190601f168015620012405780820380516001836020036101000a031916815260200191505b509250505060405180910390a15050505050505050505050565b60608060606000806000606060008890508073ffffffffffffffffffffffffffffffffffffffff16634137e7336040518163ffffffff167c010000000000000000000000000000000000000000000000000000000002815260040160006040518083038186803b158015620012ce57600080fd5b505afa158015620012e3573d6000803e3d6000fd5b505050506040513d6000823e3d601f19601f8201168201806040525060208110156200130e57600080fd5b81019080805160405193929190846401000000008211156200132f57600080fd5b838201915060208201858111156200134657600080fd5b82518660018202830111640100000000821117156200136457600080fd5b8083526020830192505050908051906020019080838360005b838110156200139a5780820151818401526020810190506200137d565b50505050905090810190601f168015620013c85780820380516001836020036101000a031916815260200191505b5060405250505096508073ffffffffffffffffffffffffffffffffffffffff1663a997c66a6040518163ffffffff167c010000000000000000000000000000000000000000000000000000000002815260040160006040518083038186803b1580156200143457600080fd5b505afa15801562001449573d6000803e3d6000fd5b505050506040513d6000823e3d601f19601f8201168201806040525060208110156200147457600080fd5b81019080805160405193929190846401000000008211156200149557600080fd5b83820191506020820185811115620014ac57600080fd5b8251866020820283011164010000000082111715620014ca57600080fd5b8083526020830192505050908051906020019060200280838360005b8381101562001503578082015181840152602081019050620014e6565b5050505090500160405250505097508073ffffffffffffffffffffffffffffffffffffffff166398d5fdca6040518163ffffffff167c010000000000000000000000000000000000000000000000000000000002815260040160006040518083038186803b1580156200157557600080fd5b505afa1580156200158a573d6000803e3d6000fd5b505050506040513d6000823e3d601f19601f820116820180604052506020811015620015b557600080fd5b8101908080516040519392919084640100000000821115620015d657600080fd5b83820191506020820185811115620015ed57600080fd5b82518660208202830111640100000000821117156200160b57600080fd5b8083526020830192505050908051906020019060200280838360005b838110156200164457808201518184015260208101905062001627565b5050505090500160405250505095508073ffffffffffffffffffffffffffffffffffffffff16630e153e246040518163ffffffff167c010000000000000000000000000000000000000000000000000000000002815260040160206040518083038186803b158015620016b657600080fd5b505afa158015620016cb573d6000803e3d6000fd5b505050506040513d6020811015620016e257600080fd5b810190808051906020019092919050505094508073ffffffffffffffffffffffffffffffffffffffff1663e8237fb16040518163ffffffff167c010000000000000000000000000000000000000000000000000000000002815260040160206040518083038186803b1580156200175857600080fd5b505afa1580156200176d573d6000803e3d6000fd5b505050506040513d60208110156200178457600080fd5b810190808051906020019092919050505093508073ffffffffffffffffffffffffffffffffffffffff166310b6315d6040518163ffffffff167c010000000000000000000000000000000000000000000000000000000002815260040160206040518083038186803b158015620017fa57600080fd5b505afa1580156200180f573d6000803e3d6000fd5b505050506040513d60208110156200182657600080fd5b810190808051906020019092919050505092508073ffffffffffffffffffffffffffffffffffffffff166321d895926040518163ffffffff167c010000000000000000000000000000000000000000000000000000000002815260040160006040518083038186803b1580156200189c57600080fd5b505afa158015620018b1573d6000803e3d6000fd5b505050506040513d6000823e3d601f19601f820116820180604052506020811015620018dc57600080fd5b8101908080516040519392919084640100000000821115620018fd57600080fd5b838201915060208201858111156200191457600080fd5b82518660018202830111640100000000821117156200193257600080fd5b8083526020830192505050908051906020019080838360005b83811015620019685780820151818401526020810190506200194b565b50505050905090810190601f168015620019965780820380516001836020036101000a031916815260200191505b50604052505050915050919395979092949650565b600160009054906101000a900473ffffffffffffffffffffffffffffffffffffffff1681565b60606000805b60008054905081101562001b0f5760008181548110620019f357fe5b9060005260206000200160000160149054906101000a900460ff161562001b0157426000828154811062001a2357fe5b9060005260206000200160000160009054906101000a900473ffffffffffffffffffffffffffffffffffffffff1673ffffffffffffffffffffffffffffffffffffffff1663e8237fb16040518163ffffffff167c010000000000000000000000000000000000000000000000000000000002815260040160206040518083038186803b15801562001ab357600080fd5b505afa15801562001ac8573d6000803e3d6000fd5b505050506040513d602081101562001adf57600080fd5b8101908080519060200190929190505050111562001b005781806001019250505b5b8080600101915050620019d7565b5060608167ffffffffffffffff8111801562001b2a57600080fd5b5060405190808252806020026020018201604052801562001b5a5781602001602082028036833780820191505090505b5090506000805b60008054905081101562001d1c576000818154811062001b7d57fe5b9060005260206000200160000160149054906101000a900460ff161562001d0e57426000828154811062001bad57fe5b9060005260206000200160000160009054906101000a900473ffffffffffffffffffffffffffffffffffffffff1673ffffffffffffffffffffffffffffffffffffffff1663e8237fb16040518163ffffffff167c010000000000000000000000000000000000000000000000000000000002815260040160206040518083038186803b15801562001c3d57600080fd5b505afa15801562001c52573d6000803e3d6000fd5b505050506040513d602081101562001c6957600080fd5b8101908080519060200190929190505050111562001d0d576000818154811062001c8f57fe5b9060005260206000200160000160009054906101000a900473ffffffffffffffffffffffffffffffffffffffff1683838151811062001cca57fe5b602002602001019073ffffffffffffffffffffffffffffffffffffffff16908173ffffffffffffffffffffffffffffffffffffffff168152505081806001019250505b5b808060010191505062001b61565b5081935050505090565b6060806000600160009054906101000a900473ffffffffffffffffffffffffffffffffffffffff1690506000869050858173ffffffffffffffffffffffffffffffffffffffff16630b451a40876040518263ffffffff167c01000000000000000000000000000000000000000000000000000000000281526004018082815260200191505060206040518083038186803b15801562001dc457600080fd5b505afa15801562001dd9573d6000803e3d6000fd5b505050506040513d602081101562001df057600080fd5b81019080805190602001909291905050501062001f63578073ffffffffffffffffffffffffffffffffffffffff1663d6febde887876040518363ffffffff167c01000000000000000000000000000000000000000000000000000000000281526004018083815260200182815260200192505050600060405180830381600087803b15801562001e7f57600080fd5b505af115801562001e94573d6000803e3d6000fd5b505050506040513d6000823e3d601f19601f82011682018060405250602081101562001ebf57600080fd5b810190808051604051939291908464010000000082111562001ee057600080fd5b8382019150602082018581111562001ef757600080fd5b825186602082028301116401000000008211171562001f1557600080fd5b8083526020830192505050908051906020019060200280838360005b8381101562001f4e57808201518184015260208101905062001f31565b5050505090500160405250505093506200203b565b6040518060400160405280600481526020017f6661696c0000000000000000000000000000000000000000000000000000000081525092507f447e7e1d79c76c3f57822cea70daf3ce7255708525f127e8c5d6d1cfd207eb92836040518080602001828103825283818151815260200191508051906020019080838360005b8381101562001fff57808201518184015260208101905062001fe2565b50505050905090810190601f1680156200202d5780820380516001836020036101000a031916815260200191505b509250505060405180910390a15b60005b845181101562002119578273ffffffffffffffffffffffffffffffffffffffff166309492aa6898784815181106200207257fe5b6020026020010151896040518463ffffffff167c0100000000000000000000000000000000000000000000000000000000028152600401808473ffffffffffffffffffffffffffffffffffffffff1681526020018381526020018281526020019350505050600060405180830381600087803b158015620020f257600080fd5b505af115801562002107573d6000803e3d6000fd5b5050505080806001019150506200203e565b506040518060400160405280600781526020017f737563636573730000000000000000000000000000000000000000000000000081525092507f447e7e1d79c76c3f57822cea70daf3ce7255708525f127e8c5d6d1cfd207eb92836040518080602001828103825283818151815260200191508051906020019080838360005b83811015620021b657808201518184015260208101905062002199565b50505050905090810190601f168015620021e45780820380516001836020036101000a031916815260200191505b509250505060405180910390a150505050505050565b6111de80620022098339019056fe60806040523480156200001157600080fd5b50604051620011de380380620011de83398181016040526101008110156200003857600080fd5b81019080805160405193929190846401000000008211156200005957600080fd5b838201915060208201858111156200007057600080fd5b82518660018202830111640100000000821117156200008e57600080fd5b8083526020830192505050908051906020019080838360005b83811015620000c4578082015181840152602081019050620000a7565b50505050905090810190601f168015620000f25780820380516001836020036101000a031916815260200191505b5060405260200180519060200190929190805160405193929190846401000000008211156200012057600080fd5b838201915060208201858111156200013757600080fd5b82518660208202830111640100000000821117156200015557600080fd5b8083526020830192505050908051906020019060200280838360005b838110156200018e57808201518184015260208101905062000171565b5050505090500160405260200180516040519392919084640100000000821115620001b857600080fd5b83820191506020820185811115620001cf57600080fd5b8251866020820283011164010000000082111715620001ed57600080fd5b8083526020830192505050908051906020019060200280838360005b838110156200022657808201518184015260208101905062000209565b50505050905001604052602001805190602001909291908051906020019092919080519060200190929190805160405193929190846401000000008211156200026e57600080fd5b838201915060208201858111156200028557600080fd5b8251866001820283011164010000000082111715620002a357600080fd5b8083526020830192505050908051906020019080838360005b83811015620002d9578082015181840152602081019050620002bc565b50505050905090810190601f168015620003075780820380516001836020036101000a031916815260200191505b50604052505050336000806101000a81548173ffffffffffffffffffffffffffffffffffffffff021916908373ffffffffffffffffffffffffffffffffffffffff160217905550866001819055506000805b600154811015620004425760028882815181106200037357fe5b602002602001015190806001815401808255809150506001900390600052602060002001600090919091909150556004878281518110620003b057fe5b60200260200101519080600181540180825580915050600190039060005260206000200160009091909190915055878181518110620003eb57fe5b602002602001015182019150600a8882815181106200040657fe5b60200260200101519080600181540180825580915050600190039060005260206000200160009091909190915055808060010191505062000359565b5088600390805190602001906200045b929190620004fa565b50846005819055508360068190555082600781905550816008908051906020019062000489929190620004fa565b508067ffffffffffffffff81118015620004a257600080fd5b50604051908082528060200260200182016040528015620004d25781602001602082028036833780820191505090505b5060099080519060200190620004ea92919062000581565b505050505050505050506200066c565b828054600181600116156101000203166002900490600052602060002090601f016020900481019282601f106200053d57805160ff19168380011785556200056e565b828001600101855582156200056e579182015b828111156200056d57825182559160200191906001019062000550565b5b5090506200057d919062000610565b5090565b828054828255906000526020600020908101928215620005fd579160200282015b82811115620005fc5782518260006101000a81548173ffffffffffffffffffffffffffffffffffffffff021916908373ffffffffffffffffffffffffffffffffffffffff16021790555091602001919060010190620005a2565b5b5090506200060c91906200062f565b5090565b5b808211156200062b57600081600090555060010162000611565b5090565b5b808211156200066857600081816101000a81549073ffffffffffffffffffffffffffffffffffffffff02191690555060010162000630565b5090565b610b62806200067c6000396000f3fe6080604052600436106100fe576000357c0100000000000000000000000000000000000000000000000000000000900480634137e7331161009c57806398d5fdca1161007657806398d5fdca146103f0578063a997c66a1461045c578063d6febde8146104c8578063e8237fb11461055557610105565b80634137e733146102f45780634ecf518b146103845780638da5cb5b146103af57610105565b806321d89592116100d857806321d89592146101af57806326a49e371461023f5780633b33c7021461028e5780633ccfd60b146102dd57610105565b80630b451a401461010a5780630e153e241461015957806310b6315d1461018457610105565b3661010557005b600080fd5b34801561011657600080fd5b506101436004803603602081101561012d57600080fd5b8101908080359060200190929190505050610580565b6040518082815260200191505060405180910390f35b34801561016557600080fd5b5061016e6105a1565b6040518082815260200191505060405180910390f35b34801561019057600080fd5b506101996105a7565b6040518082815260200191505060405180910390f35b3480156101bb57600080fd5b506101c46105ad565b6040518080602001828103825283818151815260200191508051906020019080838360005b838110156102045780820151818401526020810190506101e9565b50505050905090810190601f1680156102315780820380516001836020036101000a031916815260200191505b509250505060405180910390f35b34801561024b57600080fd5b506102786004803603602081101561026257600080fd5b810190808035906020019092919050505061064b565b6040518082815260200191505060405180910390f35b34801561029a57600080fd5b506102c7600480360360208110156102b157600080fd5b810190808035906020019092919050505061066c565b6040518082815260200191505060405180910390f35b3480156102e957600080fd5b506102f261068d565b005b34801561030057600080fd5b5061030961076f565b6040518080602001828103825283818151815260200191508051906020019080838360005b8381101561034957808201518184015260208101905061032e565b50505050905090810190601f1680156103765780820380516001836020036101000a031916815260200191505b509250505060405180910390f35b34801561039057600080fd5b5061039961080d565b6040518082815260200191505060405180910390f35b3480156103bb57600080fd5b506103c4610813565b604051808273ffffffffffffffffffffffffffffffffffffffff16815260200191505060405180910390f35b3480156103fc57600080fd5b50610405610837565b6040518080602001828103825283818151815260200191508051906020019060200280838360005b8381101561044857808201518184015260208101905061042d565b505050509050019250505060405180910390f35b34801561046857600080fd5b5061047161088f565b6040518080602001828103825283818151815260200191508051906020019060200280838360005b838110156104b4578082015181840152602081019050610499565b505050509050019250505060405180910390f35b6104fe600480360360408110156104de57600080fd5b8101908080359060200190929190803590602001909291905050506108e7565b6040518080602001828103825283818151815260200191508051906020019060200280838360005b83811015610541578082015181840152602081019050610526565b505050509050019250505060405180910390f35b34801561056157600080fd5b5061056a610b26565b6040518082815260200191505060405180910390f35b600a818154811061058d57fe5b906000526020600020016000915090505481565b60055481565b60075481565b60088054600181600116156101000203166002900480601f0160208091040260200160405190810160405280929190818152602001828054600181600116156101000203166002900480156106435780601f1061061857610100808354040283529160200191610643565b820191906000526020600020905b81548152906001019060200180831161062657829003601f168201915b505050505081565b6004818154811061065857fe5b906000526020600020016000915090505481565b6002818154811061067957fe5b906000526020600020016000915090505481565b60008054906101000a900473ffffffffffffffffffffffffffffffffffffffff1673ffffffffffffffffffffffffffffffffffffffff163373ffffffffffffffffffffffffffffffffffffffff16146106e557600080fd5b60065442111561076d573373ffffffffffffffffffffffffffffffffffffffff163073ffffffffffffffffffffffffffffffffffffffff163160405180600001905060006040518083038185875af1925050503d8060008114610764576040519150601f19603f3d011682016040523d82523d6000602084013e610769565b606091505b5050505b565b60038054600181600116156101000203166002900480601f0160208091040260200160405190810160405280929190818152602001828054600181600116156101000203166002900480156108055780601f106107da57610100808354040283529160200191610805565b820191906000526020600020905b8154815290600101906020018083116107e857829003601f168201915b505050505081565b60015481565b60008054906101000a900473ffffffffffffffffffffffffffffffffffffffff1681565b6060600480548060200260200160405190810160405280929190818152602001828054801561088557602002820191906000526020600020905b815481526020019060010190808311610871575b5050505050905090565b606060028054806020026020016040519081016040528092919081815260200182805480156108dd57602002820191906000526020600020905b8154815260200190600101908083116108c9575b5050505050905090565b606060008367ffffffffffffffff8111801561090257600080fd5b506040519080825280602002602001820160405280156109315781602001602082028036833780820191505090505b50915060005b6002848154811061094457fe5b9060005260206000200154811015610b1e5784821015610b115760006009828154811061096d57fe5b9060005260206000200160009054906101000a900473ffffffffffffffffffffffffffffffffffffffff169050600073ffffffffffffffffffffffffffffffffffffffff168173ffffffffffffffffffffffffffffffffffffffff161480156109ed575085600a86815481106109df57fe5b906000526020600020015410155b15610b0f573360098381548110610a0057fe5b9060005260206000200160006101000a81548173ffffffffffffffffffffffffffffffffffffffff021916908373ffffffffffffffffffffffffffffffffffffffff1602179055503073ffffffffffffffffffffffffffffffffffffffff1660048681548110610a6c57fe5b906000526020600020015460405180600001905060006040518083038185875af1925050503d8060008114610abd576040519150601f19603f3d011682016040523d82523d6000602084013e610ac2565b606091505b505050600a8581548110610ad257fe5b90600052602060002001600081548092919060019003919050555081848481518110610afa57fe5b60200260200101818152505082806001019350505b505b8080600101915050610937565b505092915050565b6006548156fea2646970667358221220bf0240bd040f603ea5dfd18ce96cdefb2e1bacebeaaaca726652b3930eb39f7164736f6c63430007000033a264697066735822122025bcc8cc3f1d1f0c40ec5ca673594eed91f64e8f56f34e54942fe140c082e5d064736f6c63430007000033608060405234801561001057600080fd5b506116e2806100206000396000f3fe608060405234801561001057600080fd5b50600436106100b0576000357c01000000000000000000000000000000000000000000000000000000009004806382fc38331161008357806382fc383314610284578063a07c3858146102c8578063ac9c4fd314610327578063b8fab0851461036b578063f53d79a7146103af576100b0565b806309492aa6146100b55780631cd14c731461010d578063421b2d8b146101fc57806347b50d5914610240575b600080fd5b61010b600480360360608110156100cb57600080fd5b81019080803573ffffffffffffffffffffffffffffffffffffffff16906020019092919080359060200190929190803590602001909291905050506103f3565b005b610115610698565b60405180806020018060200180602001848103845287818151815260200191508051906020019060200280838360005b83811015610160578082015181840152602081019050610145565b50505050905001848103835286818151815260200191508051906020019060200280838360005b838110156101a2578082015181840152602081019050610187565b50505050905001848103825285818151815260200191508051906020019060200280838360005b838110156101e45780820151818401526020810190506101c9565b50505050905001965050505050505060405180910390f35b61023e6004803603602081101561021257600080fd5b81019080803573ffffffffffffffffffffffffffffffffffffffff169060200190929190505050610bf2565b005b6102826004803603602081101561025657600080fd5b81019080803573ffffffffffffffffffffffffffffffffffffffff169060200190929190505050610ce6565b005b6102c66004803603602081101561029a57600080fd5b81019080803573ffffffffffffffffffffffffffffffffffffffff169060200190929190505050610e51565b005b6102d0610fc4565b6040518080602001828103825283818151815260200191508051906020019060200280838360005b838110156103135780820151818401526020810190506102f8565b505050509050019250505060405180910390f35b6103696004803603602081101561033d57600080fd5b81019080803573ffffffffffffffffffffffffffffffffffffffff1690602001909291905050506112c5565b005b6103976004803603602081101561038157600080fd5b8101908080359060200190929190505050611544565b60405180821515815260200191505060405180910390f35b6103db600480360360208110156103c557600080fd5b81019080803590602001909291905050506115b8565b60405180821515815260200191505060405180910390f35b600160003373ffffffffffffffffffffffffffffffffffffffff1673ffffffffffffffffffffffffffffffffffffffff16815260200190815260200160002060009054906101000a900460ff1661044e5761044d33610bf2565b5b610456611628565b6040518060a001604052808573ffffffffffffffffffffffffffffffffffffffff1681526020018481526020018381526020016001151581526020016000151581525090506000803373ffffffffffffffffffffffffffffffffffffffff1673ffffffffffffffffffffffffffffffffffffffff16815260200190815260200160002060030181908060018154018082558091505060019003906000526020600020906004020160009091909190915060008201518160000160006101000a81548173ffffffffffffffffffffffffffffffffffffffff021916908373ffffffffffffffffffffffffffffffffffffffff160217905550602082015181600101556040820151816002015560608201518160030160006101000a81548160ff02191690831515021790555060808201518160030160016101000a81548160ff021916908315150217905550505060016000803373ffffffffffffffffffffffffffffffffffffffff1673ffffffffffffffffffffffffffffffffffffffff16815260200190815260200160002060010160008282540192505081905550600060016000803373ffffffffffffffffffffffffffffffffffffffff1673ffffffffffffffffffffffffffffffffffffffff168152602001908152602001600020600101540390507f0568a016a6e4a910fd01a860b9afacec51e80a659ec04e7464edd0933f9c13758582604051808373ffffffffffffffffffffffffffffffffffffffff1681526020018281526020019250505060405180910390a15050505050565b6060806060600160003373ffffffffffffffffffffffffffffffffffffffff1673ffffffffffffffffffffffffffffffffffffffff16815260200190815260200160002060009054906101000a900460ff166107e3576060600067ffffffffffffffff8111801561070857600080fd5b506040519080825280602002602001820160405280156107375781602001602082028036833780820191505090505b5090506060600067ffffffffffffffff8111801561075457600080fd5b506040519080825280602002602001820160405280156107835781602001602082028036833780820191505090505b5090506060600067ffffffffffffffff811180156107a057600080fd5b506040519080825280602002602001820160405280156107cf5781602001602082028036833780820191505090505b509050828282955095509550505050610bed565b600060606000803373ffffffffffffffffffffffffffffffffffffffff1673ffffffffffffffffffffffffffffffffffffffff1681526020019081526020016000206001015467ffffffffffffffff8111801561083f57600080fd5b5060405190808252806020026020018201604052801561086e5781602001602082028036833780820191505090505b50905060005b6000803373ffffffffffffffffffffffffffffffffffffffff1673ffffffffffffffffffffffffffffffffffffffff168152602001908152602001600020600101548110156108fa576108c681611544565b156108ed57808284815181106108d857fe5b60200260200101818152505082806001019350505b8080600101915050610874565b5060608267ffffffffffffffff8111801561091457600080fd5b506040519080825280602002602001820160405280156109435781602001602082028036833780820191505090505b50905060608367ffffffffffffffff8111801561095f57600080fd5b5060405190808252806020026020018201604052801561098e5781602001602082028036833780820191505090505b50905060608467ffffffffffffffff811180156109aa57600080fd5b506040519080825280602002602001820160405280156109d95781602001602082028036833780820191505090505b50905060005b85811015610bdd576000803373ffffffffffffffffffffffffffffffffffffffff1673ffffffffffffffffffffffffffffffffffffffff168152602001908152602001600020600301858281518110610a3457fe5b602002602001015181548110610a4657fe5b906000526020600020906004020160000160009054906101000a900473ffffffffffffffffffffffffffffffffffffffff16848281518110610a8457fe5b602002602001019073ffffffffffffffffffffffffffffffffffffffff16908173ffffffffffffffffffffffffffffffffffffffff16815250506000803373ffffffffffffffffffffffffffffffffffffffff1673ffffffffffffffffffffffffffffffffffffffff168152602001908152602001600020600301858281518110610b0b57fe5b602002602001015181548110610b1d57fe5b906000526020600020906004020160020154838281518110610b3b57fe5b6020026020010181815250506000803373ffffffffffffffffffffffffffffffffffffffff1673ffffffffffffffffffffffffffffffffffffffff168152602001908152602001600020600301858281518110610b9457fe5b602002602001015181548110610ba657fe5b906000526020600020906004020160010154828281518110610bc457fe5b60200260200101818152505080806001019150506109df565b5082828297509750975050505050505b909192565b60008060008373ffffffffffffffffffffffffffffffffffffffff1673ffffffffffffffffffffffffffffffffffffffff1681526020019081526020016000209050818160000160006101000a81548173ffffffffffffffffffffffffffffffffffffffff021916908373ffffffffffffffffffffffffffffffffffffffff160217905550600081600101819055506000816002018190555060018060008473ffffffffffffffffffffffffffffffffffffffff1673ffffffffffffffffffffffffffffffffffffffff16815260200190815260200160002060006101000a81548160ff0219169083151502179055505050565b60008060003373ffffffffffffffffffffffffffffffffffffffff1673ffffffffffffffffffffffffffffffffffffffff16815260200190815260200160002060050160008373ffffffffffffffffffffffffffffffffffffffff1673ffffffffffffffffffffffffffffffffffffffff16815260200190815260200160002054905060008060003373ffffffffffffffffffffffffffffffffffffffff1673ffffffffffffffffffffffffffffffffffffffff1681526020019081526020016000206004018281548110610db757fe5b9060005260206000200160000160146101000a81548160ff02191690831515021790555060016000803373ffffffffffffffffffffffffffffffffffffffff1673ffffffffffffffffffffffffffffffffffffffff1681526020019081526020016000206004018281548110610e2957fe5b9060005260206000200160000160156101000a81548160ff0219169083151502179055505050565b60008060003373ffffffffffffffffffffffffffffffffffffffff1673ffffffffffffffffffffffffffffffffffffffff16815260200190815260200160002060060160008373ffffffffffffffffffffffffffffffffffffffff1673ffffffffffffffffffffffffffffffffffffffff16815260200190815260200160002054905060008060003373ffffffffffffffffffffffffffffffffffffffff1673ffffffffffffffffffffffffffffffffffffffff1681526020019081526020016000206003018281548110610f2257fe5b906000526020600020906004020160030160006101000a81548160ff02191690831515021790555060016000803373ffffffffffffffffffffffffffffffffffffffff1673ffffffffffffffffffffffffffffffffffffffff1681526020019081526020016000206003018281548110610f9857fe5b906000526020600020906004020160030160016101000a81548160ff0219169083151502179055505050565b6060600160003373ffffffffffffffffffffffffffffffffffffffff1673ffffffffffffffffffffffffffffffffffffffff16815260200190815260200160002060009054906101000a900460ff1661106c576060600067ffffffffffffffff8111801561103157600080fd5b506040519080825280602002602001820160405280156110605781602001602082028036833780820191505090505b509050809150506112c2565b600060606000803373ffffffffffffffffffffffffffffffffffffffff1673ffffffffffffffffffffffffffffffffffffffff1681526020019081526020016000206002015467ffffffffffffffff811180156110c857600080fd5b506040519080825280602002602001820160405280156110f75781602001602082028036833780820191505090505b50905060005b6000803373ffffffffffffffffffffffffffffffffffffffff1673ffffffffffffffffffffffffffffffffffffffff168152602001908152602001600020600201548110156111835761114f816115b8565b15611176578082848151811061116157fe5b60200260200101818152505082806001019350505b80806001019150506110fd565b5060608267ffffffffffffffff8111801561119d57600080fd5b506040519080825280602002602001820160405280156111cc5781602001602082028036833780820191505090505b50905060005b838110156112ba576000803373ffffffffffffffffffffffffffffffffffffffff1673ffffffffffffffffffffffffffffffffffffffff16815260200190815260200160002060040183828151811061122757fe5b60200260200101518154811061123957fe5b9060005260206000200160000160009054906101000a900473ffffffffffffffffffffffffffffffffffffffff1682828151811061127357fe5b602002602001019073ffffffffffffffffffffffffffffffffffffffff16908173ffffffffffffffffffffffffffffffffffffffff168152505080806001019150506111d2565b508093505050505b90565b600160003373ffffffffffffffffffffffffffffffffffffffff1673ffffffffffffffffffffffffffffffffffffffff16815260200190815260200160002060009054906101000a900460ff166113205761131f33610bf2565b5b611328611671565b60405180606001604052808373ffffffffffffffffffffffffffffffffffffffff1681526020016001151581526020016000151581525090506000803373ffffffffffffffffffffffffffffffffffffffff1673ffffffffffffffffffffffffffffffffffffffff168152602001908152602001600020600401819080600181540180825580915050600190039060005260206000200160009091909190915060008201518160000160006101000a81548173ffffffffffffffffffffffffffffffffffffffff021916908373ffffffffffffffffffffffffffffffffffffffff16021790555060208201518160000160146101000a81548160ff02191690831515021790555060408201518160000160156101000a81548160ff021916908315150217905550505060016000803373ffffffffffffffffffffffffffffffffffffffff1673ffffffffffffffffffffffffffffffffffffffff16815260200190815260200160002060020160008282540192505081905550600060016000803373ffffffffffffffffffffffffffffffffffffffff1673ffffffffffffffffffffffffffffffffffffffff168152602001908152602001600020600201540390507f508c42a45ed681f228fada128f1f328687945ba78e5b0d518725e2e6c55c5eb48382604051808373ffffffffffffffffffffffffffffffffffffffff1681526020018281526020019250505060405180910390a1505050565b60008060003373ffffffffffffffffffffffffffffffffffffffff1673ffffffffffffffffffffffffffffffffffffffff168152602001908152602001600020600301828154811061159257fe5b906000526020600020906004020160030160009054906101000a900460ff169050919050565b60008060003373ffffffffffffffffffffffffffffffffffffffff1673ffffffffffffffffffffffffffffffffffffffff168152602001908152602001600020600401828154811061160657fe5b9060005260206000200160000160149054906101000a900460ff169050919050565b6040518060a00160405280600073ffffffffffffffffffffffffffffffffffffffff16815260200160008152602001600081526020016000151581526020016000151581525090565b6040518060600160405280600073ffffffffffffffffffffffffffffffffffffffff168152602001600015158152602001600015158152509056fea26469706673582212204cf49f812bd20849ba9744bd0b6352630475a5c819b12c98dd57da5b80a4279664736f6c63430007000033",
  "immutableReferences": {},
  "source": "pragma solidity >=0.7.0;\r\n\r\n// using SafeMath for uint256\r\n\r\ncontract Campaign {\r\n    address public owner;\r\n    uint256 public levels;\r\n    uint256[] public seats;\r\n    string public campaign_name;\r\n    uint256[] public price;\r\n    uint256 public campaign_start_time;\r\n    uint256 public campaign_end_time;\r\n    uint256 public start_sell_time;\r\n    string public abstraction;\r\n    address[] seat_owner;\r\n    uint256[] public remain;\r\n\r\n    constructor(\r\n        string memory _campaign_name,\r\n        uint256 _levels,\r\n        uint256[] memory _seats,\r\n        uint256[] memory _price,\r\n        uint256 _campaign_start_time,\r\n        uint256 _campaign_end_time,\r\n        uint256 _start_sell_time,\r\n        string memory _abstraction\r\n    ) public {\r\n        owner = msg.sender;\r\n        levels = _levels;\r\n        uint256 total_seats = 0;\r\n        for (uint256 i = 0; i < levels; i++) {\r\n            seats.push(_seats[i]);\r\n            price.push(_price[i]);\r\n            total_seats += _seats[i];\r\n            remain.push(_seats[i]);\r\n        }\r\n        campaign_name = _campaign_name;\r\n        campaign_start_time = _campaign_start_time;\r\n        campaign_end_time = _campaign_end_time;\r\n        start_sell_time = _start_sell_time;\r\n        abstraction = _abstraction;\r\n        seat_owner = new address[](total_seats);\r\n\r\n    }\r\n\r\n    modifier restricted() {\r\n        require(msg.sender == owner);\r\n        _;\r\n    }\r\n\r\n    function getSeats() public view returns(uint256[] memory) {\r\n        return seats;\r\n    } \r\n\r\n    function getPrice() public view returns(uint256[] memory) {\r\n        return price;\r\n    } \r\n\r\n    function buy(uint256 amount, uint256 level)\r\n        public\r\n        payable\r\n        returns (uint256[] memory seat_num)\r\n    {\r\n        uint256 j = 0;\r\n        // uint k=0;\r\n        seat_num = new uint256[](amount);\r\n        for (uint256 i = 0; i < seats[level]; i++) {\r\n            if (j < amount) {\r\n                address temp = seat_owner[i];\r\n                if (temp == address(0x00) && remain[level] >= amount) {\r\n                    seat_owner[i] = msg.sender;\r\n                    address(this).call{value: price[level]}(\"\");\r\n                    remain[level]--;\r\n                    seat_num[j] = i;\r\n                    j++;\r\n                }\r\n            }\r\n        }\r\n    }\r\n\r\n    function withdraw() public restricted {\r\n        if (block.timestamp > campaign_end_time) {\r\n            msg.sender.call{value: address(this).balance}(\"\");\r\n        }\r\n    }\r\n\r\n    receive() external payable {}\r\n}\r\n\r\ncontract Server {\r\n    struct server_campaign {\r\n        address payable campaign;\r\n        bool isvalid;\r\n    }\r\n\r\n    struct return_campaign {\r\n        address _campaign_address;\r\n        string _campaign_name;\r\n        uint256 _seats;\r\n        uint256 _price;\r\n        uint256 _campaign_start_time;\r\n        uint256 _campaign_end_time;\r\n        uint256 _start_sell_time;\r\n        string _abstraction;\r\n    }\r\n    event OnAddUser(string message, address user_address);\r\n    event OnGetCampaigns(address payable[] campaigns);\r\n    event OnAddCampaign(string message);\r\n    event OnBuyTicket(string message);\r\n\r\n    server_campaign[] public campaigns;\r\n    address public users_address;\r\n\r\n    constructor() public{\r\n        users_address = address(new Users());\r\n    }\r\n    // mapping(address => address) private users;\r\n    // mapping(address => return_campaign) public CampaignStruct;\r\n    // modifier validUser() {\r\n    //     require(users[msg.sender] != address(0x0));\r\n    //     _;\r\n    // }\r\n\r\n    // modifier validSignup() {\r\n    //     require(users[msg.sender] == address(0x0));\r\n    //     _;\r\n    // }\r\n\r\n    function callServer(string memory i) public pure returns (string memory) {\r\n        return (i);\r\n    }\r\n\r\n    function addCampaign(\r\n        string memory _campaign_name,\r\n        uint256 _levels,\r\n        uint256[] memory _seats,\r\n        uint256[] memory _price,\r\n        uint256 _campaign_start_time,\r\n        uint256 _campaign_end_time,\r\n        uint256 _start_sell_time,\r\n        string memory _abstraction\r\n    ) public  {\r\n        string memory message;\r\n        \r\n        address payable campaign_address =\r\n            address(\r\n                new Campaign(\r\n                    _campaign_name,\r\n                    _levels,\r\n                    _seats,\r\n                    _price,\r\n                    _campaign_start_time,\r\n                    _campaign_end_time,\r\n                    _start_sell_time,\r\n                    _abstraction\r\n                )\r\n            );\r\n        campaigns.push(server_campaign(campaign_address, true));\r\n        Users users = Users(users_address);\r\n        users.addCampaign(campaign_address);\r\n        message = \"success\";\r\n\r\n        emit OnAddCampaign(message);\r\n    }\r\n\r\n    // function addUser(string memory _name, string memory _pwd)\r\n    //     public\r\n    // {\r\n    //     string memory message;\r\n    //     address user_address;\r\n    //     if (users[msg.sender] == address(0x0)) {\r\n    //         user_address = address(new User(_name, _pwd));\r\n    //         users[msg.sender] = user_address;\r\n    //         message = \"successs\";\r\n    //     } else {\r\n    //         message = \"already exist\";\r\n    //     }\r\n    //     emit OnAddUser(message, user_address);\r\n    // }\r\n\r\n    // function checkUser(string memory _name, string memory _password)\r\n    //     public\r\n    //     view\r\n        \r\n    //     returns (bool success, address user)\r\n    // {\r\n    //     if (users[msg.sender] != address(0x0)) {\r\n    //         User currentUser = User(users[msg.sender]);\r\n    //         string memory name = currentUser.name();\r\n    //         string memory password = currentUser.getPassword();\r\n    //         success = (keccak256(abi.encodePacked(name)) ==\r\n    //             keccak256(abi.encodePacked(_name)) &&\r\n    //             keccak256(abi.encodePacked(password)) ==\r\n    //             keccak256(abi.encodePacked(_password)));\r\n    //         if (success) {\r\n    //             user = users[msg.sender];\r\n    //         } else {\r\n    //             user = address(0);\r\n    //         }\r\n    //     }\r\n    // }\r\n\r\n    function viewCampaign(address payable campaign_address)\r\n        public\r\n        view\r\n        returns (\r\n            uint256[] memory seats,\r\n            string memory campaign_name,\r\n            uint256[] memory price,\r\n            uint256 campaign_start_time,\r\n            uint256 campaign_end_time,\r\n            uint256 start_sell_time,\r\n            string memory abstraction\r\n        )\r\n    {\r\n        Campaign currentCampaign = Campaign(campaign_address);\r\n        campaign_name = currentCampaign.campaign_name();\r\n        seats = currentCampaign.getSeats();\r\n        price = currentCampaign.getPrice();\r\n        campaign_start_time = currentCampaign.campaign_start_time();\r\n        campaign_end_time = currentCampaign.campaign_end_time();\r\n        start_sell_time = currentCampaign.start_sell_time();\r\n        abstraction = currentCampaign.abstraction();\r\n    }\r\n\r\n    function getUserTickets()\r\n        public\r\n        view\r\n        \r\n        returns (address[] memory , uint256[] memory , uint256[] memory)\r\n    {\r\n        Users users = Users(users_address);\r\n        return users.ViewTickets();\r\n        // if (users[msg.sender] != address(0x0)) {\r\n        //     User currentUser = User(users[msg.sender]);\r\n        //     (u_campaigns, seats) = currentUser.ViewTickets();\r\n        // } else {\r\n        //     u_campaigns = new address[](0);\r\n        //     seats = new uint256[](0);\r\n        // }\r\n    }\r\n\r\n    function getUserCampaigns()\r\n        public\r\n        view\r\n        \r\n        returns (address[] memory u_campaigns)\r\n    {\r\n        Users users = Users(users_address);\r\n        return users.ViewCampaigns();\r\n        // if (users[msg.sender] != address(0x0)) {\r\n        //     User currentUser = User(users[msg.sender]);\r\n        //     u_campaigns = currentUser.ViewCampaigns();\r\n        // }\r\n    }\r\n\r\n    function getCampaigns() public view returns (address[] memory ) {\r\n        uint256 num = 0;\r\n        for (uint256 i = 0; i < campaigns.length; i++) {\r\n            if (campaigns[i].isvalid) {\r\n                if (\r\n                    Campaign(campaigns[i].campaign).campaign_end_time() >\r\n                    block.timestamp\r\n                ) {\r\n                    num++;\r\n                }\r\n            }\r\n        }\r\n        address [] memory c = new address [](num);\r\n        uint256 j = 0;\r\n        for (uint256 i = 0; i < campaigns.length; i++) {\r\n            if (campaigns[i].isvalid) {\r\n                if (\r\n                    Campaign(campaigns[i].campaign).campaign_end_time() >\r\n                    block.timestamp\r\n                ) {\r\n                    c[j] = address(campaigns[i].campaign);\r\n                    j++;\r\n                }\r\n            }\r\n        }\r\n        return c;\r\n    }\r\n\r\n    function buyTicket(address payable campaign_address, uint256 amount, uint256 level) public payable  {\r\n        uint256[] memory seat_num;\r\n        string memory message;\r\n        \r\n        Users users = Users(users_address);\r\n        \r\n        \r\n        Campaign c = Campaign(campaign_address);\r\n        if (c.remain(level) >= amount) {\r\n            seat_num = c.buy(amount, level);\r\n        } else {\r\n            message = \"fail\";\r\n            emit OnBuyTicket(message);\r\n        }\r\n        for (uint256 i = 0; i < seat_num.length; i++) {\r\n            users.addTicket(campaign_address, seat_num[i], level);\r\n        }\r\n        message = \"success\";\r\n        \r\n        emit OnBuyTicket(message);\r\n    }\r\n\r\n    receive() external payable {}\r\n}\r\n\r\npragma solidity >=0.7.0;\r\n\r\ncontract Users {\r\n    event OnAddCampaign(address capmaign_addr, uint256 Id);\r\n    event OnAddTicket(address attend_addr, uint256 Id);\r\n    event OnCompleteCampaign(address capmaign_addr, uint256 Id);\r\n    event OnCompleteTicket(address attend_addr, uint256 Id);\r\n\r\n    mapping (address => User) addr_to_U;\r\n    mapping (address => bool) usr_addr_valid;\r\n\r\n    struct User {\r\n        address user_addr;\r\n        uint256 amount_tickets;\r\n        uint256 amount_campaigns;\r\n        OwnTicket[] tickets;\r\n        OwnCampaign[] campaigns;\r\n        mapping(address => uint256) campaign_addr_to_id;\r\n        mapping(address => uint256) ticket_addr_to_id;\r\n    }\r\n    struct OwnTicket {\r\n        address attend_address;\r\n        uint256 seat;\r\n        uint256 level;\r\n        bool isValid;\r\n        bool isEnd;\r\n    }\r\n     struct OwnCampaign {\r\n        address payable campaign_address;\r\n        bool isValid;\r\n        bool isEnd;\r\n    }\r\n\r\n    /*\r\n    require(msg.sender == server); may be changed\r\n    only server has the right to access user.sol\r\n    */\r\n    modifier isUserValid() {\r\n        require(usr_addr_valid[msg.sender], \"This user does not exist\");\r\n        _;\r\n    }\r\n\r\n    modifier isOwner(address user_addr) {\r\n        require(msg.sender == user_addr);\r\n        _;\r\n    }\r\n\r\n    modifier isValidSignup(address user_addr) {\r\n    require(usr_addr_valid[user_addr], \"Already exists\");\r\n    _;\r\n    }\r\n\r\n    function isValidCampaign(uint256 _campaignId) \r\n        public \r\n        view \r\n        returns(bool)\r\n    {\r\n        return addr_to_U[msg.sender].campaigns[_campaignId].isValid;\r\n    }\r\n\r\n    function isValidTicket(uint256 _ticketId) \r\n        public \r\n        view \r\n        returns(bool)      \r\n    {\r\n        return addr_to_U[msg.sender].tickets[_ticketId].isValid;\r\n    }\r\n\r\n    function addUser(address user_addr)\r\n        public\r\n        // isValidSignup(msg.sender)\r\n    {\r\n        User storage user = addr_to_U[user_addr];\r\n        user.user_addr = user_addr;\r\n        user.amount_tickets = 0;\r\n        user.amount_campaigns = 0;\r\n\r\n        usr_addr_valid[user_addr] = true;\r\n    }\r\n    \r\n    function addCampaign(address payable _campaign_address) \r\n        public \r\n    {\r\n        if (!usr_addr_valid[msg.sender]){\r\n            addUser(msg.sender);\r\n        }\r\n        OwnCampaign memory campaign =\r\n            OwnCampaign(_campaign_address, true, false);\r\n        addr_to_U[msg.sender].campaigns.push(campaign);\r\n        addr_to_U[msg.sender].amount_campaigns += 1;\r\n        uint256 Id = addr_to_U[msg.sender].amount_campaigns - 1;\r\n\r\n        emit OnAddCampaign(_campaign_address, Id);\r\n    }\r\n\r\n    // if more than one ticket is bought for a single campaign, just call iot several times\r\n    function addTicket(address payable _ticket_address, uint256 seat, uint256 level) \r\n        public \r\n    {\r\n        if (!usr_addr_valid[msg.sender]){\r\n            addUser(msg.sender);\r\n        }\r\n        OwnTicket memory ticket =\r\n            OwnTicket(_ticket_address, seat, level, true, false);\r\n        addr_to_U[msg.sender].tickets.push(ticket);\r\n        addr_to_U[msg.sender].amount_tickets += 1;\r\n        uint256 Id = addr_to_U[msg.sender].amount_tickets - 1;\r\n\r\n        emit OnAddTicket(_ticket_address, Id);\r\n    }\r\n\r\n    // function getPassword(address user_addr)\r\n    //     public\r\n    //     view\r\n    //     isServer()\r\n    //     isUserValid(user_addr)\r\n    //     returns (string memory)\r\n    // {\r\n    //     return addr_to_U[user_addr].pwd;\r\n    // }\r\n\r\n    function ViewCampaigns() \r\n        public \r\n        view \r\n        // isUserValid(user_addr)\r\n        returns (address[] memory)\r\n    {\r\n        if (!usr_addr_valid[msg.sender]){\r\n            address[] memory tmp = new address[](0);\r\n            return tmp;\r\n        }\r\n        uint256 len = 0;\r\n        uint256[] memory count_to_id = new uint256[](addr_to_U[msg.sender].amount_campaigns);\r\n        for (uint256 id = 0; id < addr_to_U[msg.sender].amount_campaigns; id++) {\r\n            if (isValidCampaign(id)) {\r\n                count_to_id[len] = id;\r\n                len++;\r\n            }\r\n        }\r\n        address[] memory campaignList = new address[](len);\r\n        for (uint256 i = 0; i < len; i++) {\r\n            campaignList[i] = addr_to_U[msg.sender].campaigns[count_to_id[i]].campaign_address;\r\n        }\r\n        return campaignList;\r\n    }\r\n\r\n    function ViewTickets() \r\n        public \r\n        view \r\n        // isUserValid(user_addr)\r\n        returns (address[] memory, uint256[] memory, uint256[] memory )\r\n    {\r\n        if (!usr_addr_valid[msg.sender]){\r\n            address[] memory tmp_a = new address[](0);\r\n            uint256[] memory tmp_l = new uint256[](0);\r\n            uint256[] memory tmp_s = new uint256[](0);\r\n            return (tmp_a, tmp_l, tmp_s);\r\n        }\r\n        uint256 len = 0;\r\n        uint256[] memory count_to_id = new uint256[](addr_to_U[msg.sender].amount_tickets);\r\n        for (uint256 id = 0; id < addr_to_U[msg.sender].amount_tickets; id++) {\r\n            if (isValidTicket(id)) {\r\n                count_to_id[len] = id;\r\n                len++;\r\n            }\r\n        }\r\n        address[] memory ticketList = new address[](len);\r\n        uint256[] memory ticketLevels = new uint256[](len);\r\n        uint256[] memory ticketSeats = new uint256[](len);\r\n        for (uint256 i = 0; i < len; i++) {\r\n            ticketList[i] = addr_to_U[msg.sender].tickets[count_to_id[i]].attend_address;\r\n            ticketLevels[i] = addr_to_U[msg.sender].tickets[count_to_id[i]].level;\r\n            ticketSeats[i] = addr_to_U[msg.sender].tickets[count_to_id[i]].seat;\r\n        }\r\n        return (ticketList, ticketLevels, ticketSeats);\r\n    }\r\n\r\n    function CompleteCampagin(address _campaign_address) public \r\n    {\r\n        uint256 _id = addr_to_U[msg.sender].campaign_addr_to_id[_campaign_address];\r\n        addr_to_U[msg.sender].campaigns[_id].isValid = false;\r\n        addr_to_U[msg.sender].campaigns[_id].isEnd = true;\r\n    }\r\n\r\n    function CompleteTicket(address _ticket_address) public \r\n    {\r\n        uint256 _id = addr_to_U[msg.sender].ticket_addr_to_id[_ticket_address];\r\n        addr_to_U[msg.sender].tickets[_id].isValid = false;\r\n        addr_to_U[msg.sender].tickets[_id].isEnd = true;\r\n    }\r\n}",
  "sourcePath": "F:/109-1/Networking and Multinmedia(Lab)/deapp-final/ticket system/contracts/server.sol",
  "compiler": {
    "name": "solc",
    "version": "0.7.0+commit.9e61f92b.Emscripten.clang"
  },
  "schemaVersion": "3.3.2",
  "updatedAt": "2021-01-07T06:30:49.250Z",
  "networkType": "ethereum",
  "devdoc": {
    "kind": "dev",
    "methods": {},
    "version": 1
  },
  "userdoc": {
    "kind": "user",
    "methods": {},
    "version": 1
  }
}