{
  "contractName": "Server",
  "abi": [
    {
      "inputs": [],
      "stateMutability": "nonpayable",
      "type": "constructor"
    },
    {
      "anonymous": false,
      "inputs": [
        {
          "indexed": false,
          "internalType": "string",
          "name": "message",
          "type": "string"
        }
      ],
      "name": "OnAddCampaign",
      "type": "event"
    },
    {
      "anonymous": false,
      "inputs": [
        {
          "indexed": false,
          "internalType": "string",
          "name": "message",
          "type": "string"
        },
        {
          "indexed": false,
          "internalType": "address",
          "name": "user_address",
          "type": "address"
        }
      ],
      "name": "OnAddUser",
      "type": "event"
    },
    {
      "anonymous": false,
      "inputs": [
        {
          "indexed": false,
          "internalType": "string",
          "name": "message",
          "type": "string"
        }
      ],
      "name": "OnBuyTicket",
      "type": "event"
    },
    {
      "anonymous": false,
      "inputs": [
        {
          "indexed": false,
          "internalType": "address payable[]",
          "name": "campaigns",
          "type": "address[]"
        }
      ],
      "name": "OnGetCampaigns",
      "type": "event"
    },
    {
      "inputs": [
        {
          "internalType": "uint256",
          "name": "",
          "type": "uint256"
        }
      ],
      "name": "campaigns",
      "outputs": [
        {
          "internalType": "address payable",
          "name": "campaign",
          "type": "address"
        },
        {
          "internalType": "bool",
          "name": "isvalid",
          "type": "bool"
        }
      ],
      "stateMutability": "view",
      "type": "function",
      "constant": true
    },
    {
      "inputs": [],
      "name": "users_address",
      "outputs": [
        {
          "internalType": "address",
          "name": "",
          "type": "address"
        }
      ],
      "stateMutability": "view",
      "type": "function",
      "constant": true
    },
    {
      "stateMutability": "payable",
      "type": "receive",
      "payable": true
    },
    {
      "inputs": [
        {
          "internalType": "string",
          "name": "i",
          "type": "string"
        }
      ],
      "name": "callServer",
      "outputs": [
        {
          "internalType": "string",
          "name": "",
          "type": "string"
        }
      ],
      "stateMutability": "pure",
      "type": "function",
      "constant": true
    },
    {
      "inputs": [
        {
          "internalType": "string",
          "name": "_campaign_name",
          "type": "string"
        },
        {
          "internalType": "uint256",
          "name": "_levels",
          "type": "uint256"
        },
        {
          "internalType": "uint256[]",
          "name": "_seats",
          "type": "uint256[]"
        },
        {
          "internalType": "uint256[]",
          "name": "_price",
          "type": "uint256[]"
        },
        {
          "internalType": "uint256",
          "name": "_campaign_start_time",
          "type": "uint256"
        },
        {
          "internalType": "uint256",
          "name": "_campaign_end_time",
          "type": "uint256"
        },
        {
          "internalType": "uint256",
          "name": "_start_sell_time",
          "type": "uint256"
        },
        {
          "internalType": "string",
          "name": "_abstraction",
          "type": "string"
        }
      ],
      "name": "addCampaign",
      "outputs": [],
      "stateMutability": "nonpayable",
      "type": "function"
    },
    {
      "inputs": [
        {
          "internalType": "address payable",
          "name": "campaign_address",
          "type": "address"
        }
      ],
      "name": "viewCampaign",
      "outputs": [
        {
          "internalType": "uint256[]",
          "name": "seats",
          "type": "uint256[]"
        },
        {
          "internalType": "string",
          "name": "campaign_name",
          "type": "string"
        },
        {
          "internalType": "uint256[]",
          "name": "price",
          "type": "uint256[]"
        },
        {
          "internalType": "uint256",
          "name": "campaign_start_time",
          "type": "uint256"
        },
        {
          "internalType": "uint256",
          "name": "campaign_end_time",
          "type": "uint256"
        },
        {
          "internalType": "uint256",
          "name": "start_sell_time",
          "type": "uint256"
        },
        {
          "internalType": "string",
          "name": "abstraction",
          "type": "string"
        }
      ],
      "stateMutability": "view",
      "type": "function",
      "constant": true
    },
    {
      "inputs": [],
      "name": "getUserTickets",
      "outputs": [
        {
          "internalType": "address[]",
          "name": "",
          "type": "address[]"
        },
        {
          "internalType": "uint256[]",
          "name": "",
          "type": "uint256[]"
        },
        {
          "internalType": "uint256[]",
          "name": "",
          "type": "uint256[]"
        }
      ],
      "stateMutability": "view",
      "type": "function",
      "constant": true
    },
    {
      "inputs": [],
      "name": "getUserCampaigns",
      "outputs": [
        {
          "internalType": "address[]",
          "name": "u_campaigns",
          "type": "address[]"
        }
      ],
      "stateMutability": "view",
      "type": "function",
      "constant": true
    },
    {
      "inputs": [],
      "name": "getCampaigns",
      "outputs": [
        {
          "internalType": "address[]",
          "name": "",
          "type": "address[]"
        }
      ],
      "stateMutability": "view",
      "type": "function",
      "constant": true
    },
    {
      "inputs": [
        {
          "internalType": "address payable",
          "name": "campaign_address",
          "type": "address"
        },
        {
          "internalType": "uint256",
          "name": "amount",
          "type": "uint256"
        },
        {
          "internalType": "uint256",
          "name": "level",
          "type": "uint256"
        }
      ],
      "name": "buyTicket",
      "outputs": [],
      "stateMutability": "payable",
      "type": "function",
      "payable": true
    },
    {
      "inputs": [
        {
          "internalType": "address payable",
          "name": "campaign_address",
          "type": "address"
        }
      ],
      "name": "withdraw",
      "outputs": [],
      "stateMutability": "nonpayable",
      "type": "function"
    },
    {
      "inputs": [
        {
          "internalType": "address payable",
          "name": "campaign_address",
          "type": "address"
        },
        {
          "internalType": "uint256",
          "name": "level",
          "type": "uint256"
        },
        {
          "internalType": "uint256",
          "name": "seat_num",
          "type": "uint256"
        }
      ],
      "name": "completeTicket",
      "outputs": [],
      "stateMutability": "nonpayable",
      "type": "function"
    },
    {
      "inputs": [
        {
          "internalType": "address payable",
          "name": "campaign_address",
          "type": "address"
        },
        {
          "internalType": "uint256",
          "name": "level",
          "type": "uint256"
        },
        {
          "internalType": "uint256",
          "name": "seat_num",
          "type": "uint256"
        }
      ],
      "name": "refund",
      "outputs": [],
      "stateMutability": "nonpayable",
      "type": "function"
    }
  ],
  "bytecode": "0x60806040523480156200001157600080fd5b50604051620000209062000084565b604051809103906000f0801580156200003d573d6000803e3d6000fd5b50600160006101000a81548173ffffffffffffffffffffffffffffffffffffffff021916908373ffffffffffffffffffffffffffffffffffffffff16021790555062000092565b611d5e80620039f383390190565b61395180620000a26000396000f3fe608060405260043610620000d8576000357c01000000000000000000000000000000000000000000000000000000009004806351125335116200008a57806351125335146200074157806351cff8d9146200092a57806353f9d2cf146200097f5780638abf38cc14620009c3578063a6b036331462000a2c578063e3e5c2b91462000a9d57620000e0565b8063093c69ae14620000e55780630e274ae214620001ea578063141961bc146200025b57806318fd890314620002cd5780632ac8ba6714620003365780633e3b8557146200048157620000e0565b36620000e057005b600080fd5b348015620000f257600080fd5b50620000fd62000af8565b60405180806020018060200180602001848103845287818151815260200191508051906020019060200280838360005b838110156200014a5780820151818401526020810190506200012d565b50505050905001848103835286818151815260200191508051906020019060200280838360005b838110156200018e57808201518184015260208101905062000171565b50505050905001848103825285818151815260200191508051906020019060200280838360005b83811015620001d2578082015181840152602081019050620001b5565b50505050905001965050505050505060405180910390f35b348015620001f757600080fd5b506200020262000d9f565b6040518080602001828103825283818151815260200191508051906020019060200280838360005b83811015620002475780820151818401526020810190506200022a565b505050509050019250505060405180910390f35b3480156200026857600080fd5b5062000298600480360360208110156200028157600080fd5b810190808035906020019092919050505062000f0d565b604051808373ffffffffffffffffffffffffffffffffffffffff16815260200182151581526020019250505060405180910390f35b348015620002da57600080fd5b506200033460048036036060811015620002f357600080fd5b81019080803573ffffffffffffffffffffffffffffffffffffffff169060200190929190803590602001909291908035906020019092919050505062000f68565b005b3480156200034357600080fd5b5062000403600480360360208110156200035c57600080fd5b81019080803590602001906401000000008111156200037a57600080fd5b8201836020820111156200038d57600080fd5b80359060200191846001830284011164010000000083111715620003b057600080fd5b91908080601f016020809104026020016040519081016040528093929190818152602001838380828437600081840152601f19601f820116905080830192505050505050509192919290505050620010cf565b6040518080602001828103825283818151815260200191508051906020019080838360005b838110156200044557808201518184015260208101905062000428565b50505050905090810190601f168015620004735780820380516001836020036101000a031916815260200191505b509250505060405180910390f35b3480156200048e57600080fd5b506200073f6004803603610100811015620004a857600080fd5b8101908080359060200190640100000000811115620004c657600080fd5b820183602082011115620004d957600080fd5b80359060200191846001830284011164010000000083111715620004fc57600080fd5b91908080601f016020809104026020016040519081016040528093929190818152602001838380828437600081840152601f19601f82011690508083019250505050505050919291929080359060200190929190803590602001906401000000008111156200056a57600080fd5b8201836020820111156200057d57600080fd5b80359060200191846020830284011164010000000083111715620005a057600080fd5b919080806020026020016040519081016040528093929190818152602001838360200280828437600081840152601f19601f820116905080830192505050505050509192919290803590602001906401000000008111156200060157600080fd5b8201836020820111156200061457600080fd5b803590602001918460208302840111640100000000831117156200063757600080fd5b919080806020026020016040519081016040528093929190818152602001838360200280828437600081840152601f19601f82011690508083019250505050505050919291929080359060200190929190803590602001909291908035906020019092919080359060200190640100000000811115620006b657600080fd5b820183602082011115620006c957600080fd5b80359060200191846001830284011164010000000083111715620006ec57600080fd5b91908080601f016020809104026020016040519081016040528093929190818152602001838380828437600081840152601f19601f820116905080830192505050505050509192919290505050620010d9565b005b3480156200074e57600080fd5b5062000794600480360360208110156200076757600080fd5b81019080803573ffffffffffffffffffffffffffffffffffffffff1690602001909291905050506200150c565b604051808060200180602001806020018881526020018781526020018681526020018060200185810385528c818151815260200191508051906020019060200280838360005b83811015620007f7578082015181840152602081019050620007da565b5050505090500185810384528b818151815260200191508051906020019080838360005b83811015620008385780820151818401526020810190506200081b565b50505050905090810190601f168015620008665780820380516001836020036101000a031916815260200191505b5085810383528a818151815260200191508051906020019060200280838360005b83811015620008a457808201518184015260208101905062000887565b50505050905001858103825286818151815260200191508051906020019080838360005b83811015620008e5578082015181840152602081019050620008c8565b50505050905090810190601f168015620009135780820380516001836020036101000a031916815260200191505b509b50505050505050505050505060405180910390f35b3480156200093757600080fd5b506200097d600480360360208110156200095057600080fd5b81019080803573ffffffffffffffffffffffffffffffffffffffff16906020019092919050505062001c5d565b005b3480156200098c57600080fd5b506200099762001cde565b604051808273ffffffffffffffffffffffffffffffffffffffff16815260200191505060405180910390f35b348015620009d057600080fd5b5062000a2a60048036036060811015620009e957600080fd5b81019080803573ffffffffffffffffffffffffffffffffffffffff169060200190929190803590602001909291908035906020019092919050505062001d04565b005b34801562000a3957600080fd5b5062000a4462001d87565b6040518080602001828103825283818151815260200191508051906020019060200280838360005b8381101562000a8957808201518184015260208101905062000a6c565b505050509050019250505060405180910390f35b62000af66004803603606081101562000ab557600080fd5b81019080803573ffffffffffffffffffffffffffffffffffffffff1690602001909291908035906020019092919080359060200190929190505050620020dc565b005b60608060606000600160009054906101000a900473ffffffffffffffffffffffffffffffffffffffff1690508073ffffffffffffffffffffffffffffffffffffffff16631cd14c736040518163ffffffff167c010000000000000000000000000000000000000000000000000000000002815260040160006040518083038186803b15801562000b8757600080fd5b505afa15801562000b9c573d6000803e3d6000fd5b505050506040513d6000823e3d601f19601f82011682018060405250606081101562000bc757600080fd5b810190808051604051939291908464010000000082111562000be857600080fd5b8382019150602082018581111562000bff57600080fd5b825186602082028301116401000000008211171562000c1d57600080fd5b8083526020830192505050908051906020019060200280838360005b8381101562000c5657808201518184015260208101905062000c39565b505050509050016040526020018051604051939291908464010000000082111562000c8057600080fd5b8382019150602082018581111562000c9757600080fd5b825186602082028301116401000000008211171562000cb557600080fd5b8083526020830192505050908051906020019060200280838360005b8381101562000cee57808201518184015260208101905062000cd1565b505050509050016040526020018051604051939291908464010000000082111562000d1857600080fd5b8382019150602082018581111562000d2f57600080fd5b825186602082028301116401000000008211171562000d4d57600080fd5b8083526020830192505050908051906020019060200280838360005b8381101562000d8657808201518184015260208101905062000d69565b5050505090500160405250505093509350935050909192565b60606000600160009054906101000a900473ffffffffffffffffffffffffffffffffffffffff1690508073ffffffffffffffffffffffffffffffffffffffff1663a07c38586040518163ffffffff167c010000000000000000000000000000000000000000000000000000000002815260040160006040518083038186803b15801562000e2b57600080fd5b505afa15801562000e40573d6000803e3d6000fd5b505050506040513d6000823e3d601f19601f82011682018060405250602081101562000e6b57600080fd5b810190808051604051939291908464010000000082111562000e8c57600080fd5b8382019150602082018581111562000ea357600080fd5b825186602082028301116401000000008211171562000ec157600080fd5b8083526020830192505050908051906020019060200280838360005b8381101562000efa57808201518184015260208101905062000edd565b5050505090500160405250505091505090565b6000818154811062000f1b57fe5b906000526020600020016000915090508060000160009054906101000a900473ffffffffffffffffffffffffffffffffffffffff16908060000160149054906101000a900460ff16905082565b8273ffffffffffffffffffffffffffffffffffffffff16635af36e3e83836040518363ffffffff167c01000000000000000000000000000000000000000000000000000000000281526004018083815260200182815260200192505050600060405180830381600087803b15801562000fe057600080fd5b505af115801562000ff5573d6000803e3d6000fd5b50505050600160009054906101000a900473ffffffffffffffffffffffffffffffffffffffff1673ffffffffffffffffffffffffffffffffffffffff1663f2dbadcc8484846040518463ffffffff167c0100000000000000000000000000000000000000000000000000000000028152600401808473ffffffffffffffffffffffffffffffffffffffff1681526020018381526020018281526020019350505050600060405180830381600087803b158015620010b157600080fd5b505af1158015620010c6573d6000803e3d6000fd5b50505050505050565b6060819050919050565b606060008989898989898989604051620010f390620025b1565b808060200189815260200180602001806020018881526020018781526020018681526020018060200185810385528d818151815260200191508051906020019080838360005b838110156200115657808201518184015260208101905062001139565b50505050905090810190601f168015620011845780820380516001836020036101000a031916815260200191505b5085810384528b818151815260200191508051906020019060200280838360005b83811015620011c2578082015181840152602081019050620011a5565b5050505090500185810383528a818151815260200191508051906020019060200280838360005b8381101562001206578082015181840152602081019050620011e9565b50505050905001858103825286818151815260200191508051906020019080838360005b83811015620012475780820151818401526020810190506200122a565b50505050905090810190601f168015620012755780820380516001836020036101000a031916815260200191505b509c50505050505050505050505050604051809103906000f080158015620012a1573d6000803e3d6000fd5b509050600060405180604001604052808373ffffffffffffffffffffffffffffffffffffffff168152602001600115158152509080600181540180825580915050600190039060005260206000200160009091909190915060008201518160000160006101000a81548173ffffffffffffffffffffffffffffffffffffffff021916908373ffffffffffffffffffffffffffffffffffffffff16021790555060208201518160000160146101000a81548160ff02191690831515021790555050506000600160009054906101000a900473ffffffffffffffffffffffffffffffffffffffff1690508073ffffffffffffffffffffffffffffffffffffffff1663ac9c4fd3836040518263ffffffff167c0100000000000000000000000000000000000000000000000000000000028152600401808273ffffffffffffffffffffffffffffffffffffffff168152602001915050600060405180830381600087803b1580156200140f57600080fd5b505af115801562001424573d6000803e3d6000fd5b505050506040518060400160405280600781526020017f737563636573730000000000000000000000000000000000000000000000000081525092507f97c811501143fd9e53513025da95730dfd0b457a50f5de6848adafb39eb81163836040518080602001828103825283818151815260200191508051906020019080838360005b83811015620014c4578082015181840152602081019050620014a7565b50505050905090810190601f168015620014f25780820380516001836020036101000a031916815260200191505b509250505060405180910390a15050505050505050505050565b60608060606000806000606060008890508073ffffffffffffffffffffffffffffffffffffffff16634137e7336040518163ffffffff167c010000000000000000000000000000000000000000000000000000000002815260040160006040518083038186803b1580156200158057600080fd5b505afa15801562001595573d6000803e3d6000fd5b505050506040513d6000823e3d601f19601f820116820180604052506020811015620015c057600080fd5b8101908080516040519392919084640100000000821115620015e157600080fd5b83820191506020820185811115620015f857600080fd5b82518660018202830111640100000000821117156200161657600080fd5b8083526020830192505050908051906020019080838360005b838110156200164c5780820151818401526020810190506200162f565b50505050905090810190601f1680156200167a5780820380516001836020036101000a031916815260200191505b5060405250505096508073ffffffffffffffffffffffffffffffffffffffff1663a997c66a6040518163ffffffff167c010000000000000000000000000000000000000000000000000000000002815260040160006040518083038186803b158015620016e657600080fd5b505afa158015620016fb573d6000803e3d6000fd5b505050506040513d6000823e3d601f19601f8201168201806040525060208110156200172657600080fd5b81019080805160405193929190846401000000008211156200174757600080fd5b838201915060208201858111156200175e57600080fd5b82518660208202830111640100000000821117156200177c57600080fd5b8083526020830192505050908051906020019060200280838360005b83811015620017b557808201518184015260208101905062001798565b5050505090500160405250505097508073ffffffffffffffffffffffffffffffffffffffff166398d5fdca6040518163ffffffff167c010000000000000000000000000000000000000000000000000000000002815260040160006040518083038186803b1580156200182757600080fd5b505afa1580156200183c573d6000803e3d6000fd5b505050506040513d6000823e3d601f19601f8201168201806040525060208110156200186757600080fd5b81019080805160405193929190846401000000008211156200188857600080fd5b838201915060208201858111156200189f57600080fd5b8251866020820283011164010000000082111715620018bd57600080fd5b8083526020830192505050908051906020019060200280838360005b83811015620018f6578082015181840152602081019050620018d9565b5050505090500160405250505095508073ffffffffffffffffffffffffffffffffffffffff16630e153e246040518163ffffffff167c010000000000000000000000000000000000000000000000000000000002815260040160206040518083038186803b1580156200196857600080fd5b505afa1580156200197d573d6000803e3d6000fd5b505050506040513d60208110156200199457600080fd5b810190808051906020019092919050505094508073ffffffffffffffffffffffffffffffffffffffff1663e8237fb16040518163ffffffff167c010000000000000000000000000000000000000000000000000000000002815260040160206040518083038186803b15801562001a0a57600080fd5b505afa15801562001a1f573d6000803e3d6000fd5b505050506040513d602081101562001a3657600080fd5b810190808051906020019092919050505093508073ffffffffffffffffffffffffffffffffffffffff166310b6315d6040518163ffffffff167c010000000000000000000000000000000000000000000000000000000002815260040160206040518083038186803b15801562001aac57600080fd5b505afa15801562001ac1573d6000803e3d6000fd5b505050506040513d602081101562001ad857600080fd5b810190808051906020019092919050505092508073ffffffffffffffffffffffffffffffffffffffff166321d895926040518163ffffffff167c010000000000000000000000000000000000000000000000000000000002815260040160006040518083038186803b15801562001b4e57600080fd5b505afa15801562001b63573d6000803e3d6000fd5b505050506040513d6000823e3d601f19601f82011682018060405250602081101562001b8e57600080fd5b810190808051604051939291908464010000000082111562001baf57600080fd5b8382019150602082018581111562001bc657600080fd5b825186600182028301116401000000008211171562001be457600080fd5b8083526020830192505050908051906020019080838360005b8381101562001c1a57808201518184015260208101905062001bfd565b50505050905090810190601f16801562001c485780820380516001836020036101000a031916815260200191505b50604052505050915050919395979092949650565b8073ffffffffffffffffffffffffffffffffffffffff16633ccfd60b6040518163ffffffff167c0100000000000000000000000000000000000000000000000000000000028152600401600060405180830381600087803b15801562001cc257600080fd5b505af115801562001cd7573d6000803e3d6000fd5b5050505050565b600160009054906101000a900473ffffffffffffffffffffffffffffffffffffffff1681565b8273ffffffffffffffffffffffffffffffffffffffff16633ccfd60b6040518163ffffffff167c0100000000000000000000000000000000000000000000000000000000028152600401600060405180830381600087803b15801562001d6957600080fd5b505af115801562001d7e573d6000803e3d6000fd5b50505050505050565b60606000805b60008054905081101562001ec5576000818154811062001da957fe5b9060005260206000200160000160149054906101000a900460ff161562001eb757426000828154811062001dd957fe5b9060005260206000200160000160009054906101000a900473ffffffffffffffffffffffffffffffffffffffff1673ffffffffffffffffffffffffffffffffffffffff1663e8237fb16040518163ffffffff167c010000000000000000000000000000000000000000000000000000000002815260040160206040518083038186803b15801562001e6957600080fd5b505afa15801562001e7e573d6000803e3d6000fd5b505050506040513d602081101562001e9557600080fd5b8101908080519060200190929190505050111562001eb65781806001019250505b5b808060010191505062001d8d565b5060608167ffffffffffffffff8111801562001ee057600080fd5b5060405190808252806020026020018201604052801562001f105781602001602082028036833780820191505090505b5090506000805b600080549050811015620020d2576000818154811062001f3357fe5b9060005260206000200160000160149054906101000a900460ff1615620020c457426000828154811062001f6357fe5b9060005260206000200160000160009054906101000a900473ffffffffffffffffffffffffffffffffffffffff1673ffffffffffffffffffffffffffffffffffffffff1663e8237fb16040518163ffffffff167c010000000000000000000000000000000000000000000000000000000002815260040160206040518083038186803b15801562001ff357600080fd5b505afa15801562002008573d6000803e3d6000fd5b505050506040513d60208110156200201f57600080fd5b81019080805190602001909291905050501115620020c357600081815481106200204557fe5b9060005260206000200160000160009054906101000a900473ffffffffffffffffffffffffffffffffffffffff168383815181106200208057fe5b602002602001019073ffffffffffffffffffffffffffffffffffffffff16908173ffffffffffffffffffffffffffffffffffffffff168152505081806001019250505b5b808060010191505062001f17565b5081935050505090565b6060806000600160009054906101000a900473ffffffffffffffffffffffffffffffffffffffff1690506000869050858173ffffffffffffffffffffffffffffffffffffffff16630b451a40876040518263ffffffff167c01000000000000000000000000000000000000000000000000000000000281526004018082815260200191505060206040518083038186803b1580156200217a57600080fd5b505afa1580156200218f573d6000803e3d6000fd5b505050506040513d6020811015620021a657600080fd5b8101908080519060200190929190505050106200231a578073ffffffffffffffffffffffffffffffffffffffff1663d6febde83488886040518463ffffffff167c010000000000000000000000000000000000000000000000000000000002815260040180838152602001828152602001925050506000604051808303818588803b1580156200223557600080fd5b505af11580156200224a573d6000803e3d6000fd5b50505050506040513d6000823e3d601f19601f8201168201806040525060208110156200227657600080fd5b81019080805160405193929190846401000000008211156200229757600080fd5b83820191506020820185811115620022ae57600080fd5b8251866020820283011164010000000082111715620022cc57600080fd5b8083526020830192505050908051906020019060200280838360005b8381101562002305578082015181840152602081019050620022e8565b505050509050016040525050509350620023f2565b6040518060400160405280600481526020017f6661696c0000000000000000000000000000000000000000000000000000000081525092507f447e7e1d79c76c3f57822cea70daf3ce7255708525f127e8c5d6d1cfd207eb92836040518080602001828103825283818151815260200191508051906020019080838360005b83811015620023b657808201518184015260208101905062002399565b50505050905090810190601f168015620023e45780820380516001836020036101000a031916815260200191505b509250505060405180910390a15b60005b8451811015620024d0578273ffffffffffffffffffffffffffffffffffffffff166309492aa6898784815181106200242957fe5b6020026020010151896040518463ffffffff167c0100000000000000000000000000000000000000000000000000000000028152600401808473ffffffffffffffffffffffffffffffffffffffff1681526020018381526020018281526020019350505050600060405180830381600087803b158015620024a957600080fd5b505af1158015620024be573d6000803e3d6000fd5b505050508080600101915050620023f5565b506040518060400160405280600781526020017f737563636573730000000000000000000000000000000000000000000000000081525092507f447e7e1d79c76c3f57822cea70daf3ce7255708525f127e8c5d6d1cfd207eb92836040518080602001828103825283818151815260200191508051906020019080838360005b838110156200256d57808201518184015260208101905062002550565b50505050905090810190601f1680156200259b5780820380516001836020036101000a031916815260200191505b509250505060405180910390a150505050505050565b61135c80620025c08339019056fe60806040523480156200001157600080fd5b506040516200135c3803806200135c83398181016040526101008110156200003857600080fd5b81019080805160405193929190846401000000008211156200005957600080fd5b838201915060208201858111156200007057600080fd5b82518660018202830111640100000000821117156200008e57600080fd5b8083526020830192505050908051906020019080838360005b83811015620000c4578082015181840152602081019050620000a7565b50505050905090810190601f168015620000f25780820380516001836020036101000a031916815260200191505b5060405260200180519060200190929190805160405193929190846401000000008211156200012057600080fd5b838201915060208201858111156200013757600080fd5b82518660208202830111640100000000821117156200015557600080fd5b8083526020830192505050908051906020019060200280838360005b838110156200018e57808201518184015260208101905062000171565b5050505090500160405260200180516040519392919084640100000000821115620001b857600080fd5b83820191506020820185811115620001cf57600080fd5b8251866020820283011164010000000082111715620001ed57600080fd5b8083526020830192505050908051906020019060200280838360005b838110156200022657808201518184015260208101905062000209565b50505050905001604052602001805190602001909291908051906020019092919080519060200190929190805160405193929190846401000000008211156200026e57600080fd5b838201915060208201858111156200028557600080fd5b8251866001820283011164010000000082111715620002a357600080fd5b8083526020830192505050908051906020019080838360005b83811015620002d9578082015181840152602081019050620002bc565b50505050905090810190601f168015620003075780820380516001836020036101000a031916815260200191505b50604052505050336000806101000a81548173ffffffffffffffffffffffffffffffffffffffff021916908373ffffffffffffffffffffffffffffffffffffffff160217905550866001819055506000805b600154811015620004425760028882815181106200037357fe5b602002602001015190806001815401808255809150506001900390600052602060002001600090919091909150556004878281518110620003b057fe5b60200260200101519080600181540180825580915050600190039060005260206000200160009091909190915055878181518110620003eb57fe5b602002602001015182019150600a8882815181106200040657fe5b60200260200101519080600181540180825580915050600190039060005260206000200160009091909190915055808060010191505062000359565b5088600390805190602001906200045b929190620004fa565b50846005819055508360068190555082600781905550816008908051906020019062000489929190620004fa565b508067ffffffffffffffff81118015620004a257600080fd5b50604051908082528060200260200182016040528015620004d25781602001602082028036833780820191505090505b5060099080519060200190620004ea92919062000581565b505050505050505050506200066c565b828054600181600116156101000203166002900490600052602060002090601f016020900481019282601f106200053d57805160ff19168380011785556200056e565b828001600101855582156200056e579182015b828111156200056d57825182559160200191906001019062000550565b5b5090506200057d919062000610565b5090565b828054828255906000526020600020908101928215620005fd579160200282015b82811115620005fc5782518260006101000a81548173ffffffffffffffffffffffffffffffffffffffff021916908373ffffffffffffffffffffffffffffffffffffffff16021790555091602001919060010190620005a2565b5b5090506200060c91906200062f565b5090565b5b808211156200062b57600081600090555060010162000611565b5090565b5b808211156200066857600081816101000a81549073ffffffffffffffffffffffffffffffffffffffff02191690555060010162000630565b5090565b610ce0806200067c6000396000f3fe608060405260043610610109576000357c0100000000000000000000000000000000000000000000000000000000900480634137e733116100a757806398d5fdca1161007657806398d5fdca14610440578063a997c66a146104ac578063d6febde814610518578063e8237fb1146105a557610110565b80634137e733146102ff5780634ecf518b1461038f5780635af36e3e146103ba5780638da5cb5b146103ff57610110565b806321d89592116100e357806321d89592146101ba57806326a49e371461024a5780633b33c702146102995780633ccfd60b146102e857610110565b80630b451a40146101155780630e153e241461016457806310b6315d1461018f57610110565b3661011057005b600080fd5b34801561012157600080fd5b5061014e6004803603602081101561013857600080fd5b81019080803590602001909291905050506105d0565b6040518082815260200191505060405180910390f35b34801561017057600080fd5b506101796105f1565b6040518082815260200191505060405180910390f35b34801561019b57600080fd5b506101a46105f7565b6040518082815260200191505060405180910390f35b3480156101c657600080fd5b506101cf6105fd565b6040518080602001828103825283818151815260200191508051906020019080838360005b8381101561020f5780820151818401526020810190506101f4565b50505050905090810190601f16801561023c5780820380516001836020036101000a031916815260200191505b509250505060405180910390f35b34801561025657600080fd5b506102836004803603602081101561026d57600080fd5b810190808035906020019092919050505061069b565b6040518082815260200191505060405180910390f35b3480156102a557600080fd5b506102d2600480360360208110156102bc57600080fd5b81019080803590602001909291905050506106bc565b6040518082815260200191505060405180910390f35b3480156102f457600080fd5b506102fd6106dd565b005b34801561030b57600080fd5b506103146107a0565b6040518080602001828103825283818151815260200191508051906020019080838360005b83811015610354578082015181840152602081019050610339565b50505050905090810190601f1680156103815780820380516001836020036101000a031916815260200191505b509250505060405180910390f35b34801561039b57600080fd5b506103a461083e565b6040518082815260200191505060405180910390f35b3480156103c657600080fd5b506103fd600480360360408110156103dd57600080fd5b810190808035906020019092919080359060200190929190505050610844565b005b34801561040b57600080fd5b50610414610974565b604051808273ffffffffffffffffffffffffffffffffffffffff16815260200191505060405180910390f35b34801561044c57600080fd5b50610455610998565b6040518080602001828103825283818151815260200191508051906020019060200280838360005b8381101561049857808201518184015260208101905061047d565b505050509050019250505060405180910390f35b3480156104b857600080fd5b506104c16109f0565b6040518080602001828103825283818151815260200191508051906020019060200280838360005b838110156105045780820151818401526020810190506104e9565b505050509050019250505060405180910390f35b61054e6004803603604081101561052e57600080fd5b810190808035906020019092919080359060200190929190505050610a48565b6040518080602001828103825283818151815260200191508051906020019060200280838360005b83811015610591578082015181840152602081019050610576565b505050509050019250505060405180910390f35b3480156105b157600080fd5b506105ba610ca4565b6040518082815260200191505060405180910390f35b600a81815481106105dd57fe5b906000526020600020016000915090505481565b60055481565b60075481565b60088054600181600116156101000203166002900480601f0160208091040260200160405190810160405280929190818152602001828054600181600116156101000203166002900480156106935780601f1061066857610100808354040283529160200191610693565b820191906000526020600020905b81548152906001019060200180831161067657829003601f168201915b505050505081565b600481815481106106a857fe5b906000526020600020016000915090505481565b600281815481106106c957fe5b906000526020600020016000915090505481565b60008054906101000a900473ffffffffffffffffffffffffffffffffffffffff1673ffffffffffffffffffffffffffffffffffffffff163373ffffffffffffffffffffffffffffffffffffffff161461073557600080fd5b60065442111561079e573373ffffffffffffffffffffffffffffffffffffffff166108fc3073ffffffffffffffffffffffffffffffffffffffff16319081150290604051600060405180830381858888f1935050505015801561079c573d6000803e3d6000fd5b505b565b60038054600181600116156101000203166002900480601f0160208091040260200160405190810160405280929190818152602001828054600181600116156101000203166002900480156108365780601f1061080b57610100808354040283529160200191610836565b820191906000526020600020905b81548152906001019060200180831161081957829003601f168201915b505050505081565b60015481565b60065442101561097057600073ffffffffffffffffffffffffffffffffffffffff166009828154811061087357fe5b9060005260206000200160009054906101000a900473ffffffffffffffffffffffffffffffffffffffff1673ffffffffffffffffffffffffffffffffffffffff161461096f576000600982815481106108c857fe5b9060005260206000200160006101000a81548173ffffffffffffffffffffffffffffffffffffffff021916908373ffffffffffffffffffffffffffffffffffffffff1602179055503373ffffffffffffffffffffffffffffffffffffffff166108fc6004848154811061093757fe5b90600052602060002001549081150290604051600060405180830381858888f1935050505015801561096d573d6000803e3d6000fd5b505b5b5050565b60008054906101000a900473ffffffffffffffffffffffffffffffffffffffff1681565b606060048054806020026020016040519081016040528092919081815260200182805480156109e657602002820191906000526020600020905b8154815260200190600101908083116109d2575b5050505050905090565b60606002805480602002602001604051908101604052809291908181526020018280548015610a3e57602002820191906000526020600020905b815481526020019060010190808311610a2a575b5050505050905090565b606060008367ffffffffffffffff81118015610a6357600080fd5b50604051908082528060200260200182016040528015610a925781602001602082028036833780820191505090505b50915060005b60028481548110610aa557fe5b9060005260206000200154811015610c9c5784821015610c8f576000805b85811215610af45760028181548110610ad857fe5b9060005260206000200154820191508080600101915050610ac3565b508181019050600060098281548110610b0957fe5b9060005260206000200160009054906101000a900473ffffffffffffffffffffffffffffffffffffffff169050600073ffffffffffffffffffffffffffffffffffffffff168173ffffffffffffffffffffffffffffffffffffffff16148015610b89575086600a8781548110610b7b57fe5b906000526020600020015410155b15610c8c573360098381548110610b9c57fe5b9060005260206000200160006101000a81548173ffffffffffffffffffffffffffffffffffffffff021916908373ffffffffffffffffffffffffffffffffffffffff1602179055503073ffffffffffffffffffffffffffffffffffffffff166108fc60048881548110610c0b57fe5b90600052602060002001549081150290604051600060405180830381858888f19350505050158015610c41573d6000803e3d6000fd5b50600a8681548110610c4f57fe5b90600052602060002001600081548092919060019003919050555081858581518110610c7757fe5b60200260200101818152505083806001019450505b50505b8080600101915050610a98565b505092915050565b6006548156fea26469706673582212209c380507ef049749974ba733c5be09dd25109c383cb7a71fb26ff56543f6149e64736f6c63430007000033a26469706673582212202602740dd5ef2bd946f65ab58ac05be0169f1751c6030761593a5ce6dfe720eb64736f6c63430007000033608060405234801561001057600080fd5b50611d3e806100206000396000f3fe608060405234801561001057600080fd5b50600436106100bb576000357c010000000000000000000000000000000000000000000000000000000090048063a07c385811610083578063a07c3858146102e7578063ac9c4fd314610346578063b8fab0851461038a578063f2dbadcc146103ce578063f53d79a714610426576100bb565b806309492aa6146100c05780631cd14c7314610118578063421b2d8b1461020757806347b50d591461024b578063533b29031461028f575b600080fd5b610116600480360360608110156100d657600080fd5b81019080803573ffffffffffffffffffffffffffffffffffffffff169060200190929190803590602001909291908035906020019092919050505061046a565b005b61012061070f565b60405180806020018060200180602001848103845287818151815260200191508051906020019060200280838360005b8381101561016b578082015181840152602081019050610150565b50505050905001848103835286818151815260200191508051906020019060200280838360005b838110156101ad578082015181840152602081019050610192565b50505050905001848103825285818151815260200191508051906020019060200280838360005b838110156101ef5780820151818401526020810190506101d4565b50505050905001965050505050505060405180910390f35b6102496004803603602081101561021d57600080fd5b81019080803573ffffffffffffffffffffffffffffffffffffffff169060200190929190505050610c69565b005b61028d6004803603602081101561026157600080fd5b81019080803573ffffffffffffffffffffffffffffffffffffffff169060200190929190505050610d5d565b005b6102e5600480360360608110156102a557600080fd5b81019080803573ffffffffffffffffffffffffffffffffffffffff1690602001909291908035906020019092919080359060200190929190505050610ec8565b005b6102ef611274565b6040518080602001828103825283818151815260200191508051906020019060200280838360005b83811015610332578082015181840152602081019050610317565b505050509050019250505060405180910390f35b6103886004803603602081101561035c57600080fd5b81019080803573ffffffffffffffffffffffffffffffffffffffff169060200190929190505050611575565b005b6103b6600480360360208110156103a057600080fd5b81019080803590602001909291905050506117f4565b60405180821515815260200191505060405180910390f35b610424600480360360608110156103e457600080fd5b81019080803573ffffffffffffffffffffffffffffffffffffffff1690602001909291908035906020019092919080359060200190929190505050611868565b005b6104526004803603602081101561043c57600080fd5b8101908080359060200190929190505050611c14565b60405180821515815260200191505060405180910390f35b600160003373ffffffffffffffffffffffffffffffffffffffff1673ffffffffffffffffffffffffffffffffffffffff16815260200190815260200160002060009054906101000a900460ff166104c5576104c433610c69565b5b6104cd611c84565b6040518060a001604052808573ffffffffffffffffffffffffffffffffffffffff1681526020018481526020018381526020016001151581526020016000151581525090506000803373ffffffffffffffffffffffffffffffffffffffff1673ffffffffffffffffffffffffffffffffffffffff16815260200190815260200160002060030181908060018154018082558091505060019003906000526020600020906004020160009091909190915060008201518160000160006101000a81548173ffffffffffffffffffffffffffffffffffffffff021916908373ffffffffffffffffffffffffffffffffffffffff160217905550602082015181600101556040820151816002015560608201518160030160006101000a81548160ff02191690831515021790555060808201518160030160016101000a81548160ff021916908315150217905550505060016000803373ffffffffffffffffffffffffffffffffffffffff1673ffffffffffffffffffffffffffffffffffffffff16815260200190815260200160002060010160008282540192505081905550600060016000803373ffffffffffffffffffffffffffffffffffffffff1673ffffffffffffffffffffffffffffffffffffffff168152602001908152602001600020600101540390507f0568a016a6e4a910fd01a860b9afacec51e80a659ec04e7464edd0933f9c13758582604051808373ffffffffffffffffffffffffffffffffffffffff1681526020018281526020019250505060405180910390a15050505050565b6060806060600160003373ffffffffffffffffffffffffffffffffffffffff1673ffffffffffffffffffffffffffffffffffffffff16815260200190815260200160002060009054906101000a900460ff1661085a576060600067ffffffffffffffff8111801561077f57600080fd5b506040519080825280602002602001820160405280156107ae5781602001602082028036833780820191505090505b5090506060600067ffffffffffffffff811180156107cb57600080fd5b506040519080825280602002602001820160405280156107fa5781602001602082028036833780820191505090505b5090506060600067ffffffffffffffff8111801561081757600080fd5b506040519080825280602002602001820160405280156108465781602001602082028036833780820191505090505b509050828282955095509550505050610c64565b600060606000803373ffffffffffffffffffffffffffffffffffffffff1673ffffffffffffffffffffffffffffffffffffffff1681526020019081526020016000206001015467ffffffffffffffff811180156108b657600080fd5b506040519080825280602002602001820160405280156108e55781602001602082028036833780820191505090505b50905060005b6000803373ffffffffffffffffffffffffffffffffffffffff1673ffffffffffffffffffffffffffffffffffffffff168152602001908152602001600020600101548110156109715761093d816117f4565b15610964578082848151811061094f57fe5b60200260200101818152505082806001019350505b80806001019150506108eb565b5060608267ffffffffffffffff8111801561098b57600080fd5b506040519080825280602002602001820160405280156109ba5781602001602082028036833780820191505090505b50905060608367ffffffffffffffff811180156109d657600080fd5b50604051908082528060200260200182016040528015610a055781602001602082028036833780820191505090505b50905060608467ffffffffffffffff81118015610a2157600080fd5b50604051908082528060200260200182016040528015610a505781602001602082028036833780820191505090505b50905060005b85811015610c54576000803373ffffffffffffffffffffffffffffffffffffffff1673ffffffffffffffffffffffffffffffffffffffff168152602001908152602001600020600301858281518110610aab57fe5b602002602001015181548110610abd57fe5b906000526020600020906004020160000160009054906101000a900473ffffffffffffffffffffffffffffffffffffffff16848281518110610afb57fe5b602002602001019073ffffffffffffffffffffffffffffffffffffffff16908173ffffffffffffffffffffffffffffffffffffffff16815250506000803373ffffffffffffffffffffffffffffffffffffffff1673ffffffffffffffffffffffffffffffffffffffff168152602001908152602001600020600301858281518110610b8257fe5b602002602001015181548110610b9457fe5b906000526020600020906004020160020154838281518110610bb257fe5b6020026020010181815250506000803373ffffffffffffffffffffffffffffffffffffffff1673ffffffffffffffffffffffffffffffffffffffff168152602001908152602001600020600301858281518110610c0b57fe5b602002602001015181548110610c1d57fe5b906000526020600020906004020160010154828281518110610c3b57fe5b6020026020010181815250508080600101915050610a56565b5082828297509750975050505050505b909192565b60008060008373ffffffffffffffffffffffffffffffffffffffff1673ffffffffffffffffffffffffffffffffffffffff1681526020019081526020016000209050818160000160006101000a81548173ffffffffffffffffffffffffffffffffffffffff021916908373ffffffffffffffffffffffffffffffffffffffff160217905550600081600101819055506000816002018190555060018060008473ffffffffffffffffffffffffffffffffffffffff1673ffffffffffffffffffffffffffffffffffffffff16815260200190815260200160002060006101000a81548160ff0219169083151502179055505050565b60008060003373ffffffffffffffffffffffffffffffffffffffff1673ffffffffffffffffffffffffffffffffffffffff16815260200190815260200160002060050160008373ffffffffffffffffffffffffffffffffffffffff1673ffffffffffffffffffffffffffffffffffffffff16815260200190815260200160002054905060008060003373ffffffffffffffffffffffffffffffffffffffff1673ffffffffffffffffffffffffffffffffffffffff1681526020019081526020016000206004018281548110610e2e57fe5b9060005260206000200160000160146101000a81548160ff02191690831515021790555060016000803373ffffffffffffffffffffffffffffffffffffffff1673ffffffffffffffffffffffffffffffffffffffff1681526020019081526020016000206004018281548110610ea057fe5b9060005260206000200160000160156101000a81548160ff0219169083151502179055505050565b60005b6000803373ffffffffffffffffffffffffffffffffffffffff1673ffffffffffffffffffffffffffffffffffffffff1681526020019081526020016000206001015481101561120657610f1d816117f4565b156111f9578373ffffffffffffffffffffffffffffffffffffffff166000803373ffffffffffffffffffffffffffffffffffffffff1673ffffffffffffffffffffffffffffffffffffffff1681526020019081526020016000206003018281548110610f8557fe5b906000526020600020906004020160000160009054906101000a900473ffffffffffffffffffffffffffffffffffffffff1673ffffffffffffffffffffffffffffffffffffffff161480156110365750826000803373ffffffffffffffffffffffffffffffffffffffff1673ffffffffffffffffffffffffffffffffffffffff168152602001908152602001600020600301828154811061102257fe5b906000526020600020906004020160020154145b801561109e5750816000803373ffffffffffffffffffffffffffffffffffffffff1673ffffffffffffffffffffffffffffffffffffffff168152602001908152602001600020600301828154811061108a57fe5b906000526020600020906004020160010154145b156111f85760008060003373ffffffffffffffffffffffffffffffffffffffff1673ffffffffffffffffffffffffffffffffffffffff16815260200190815260200160002060030182815481106110f157fe5b906000526020600020906004020160030160006101000a81548160ff02191690831515021790555060016000803373ffffffffffffffffffffffffffffffffffffffff1673ffffffffffffffffffffffffffffffffffffffff168152602001908152602001600020600301828154811061116757fe5b906000526020600020906004020160030160016101000a81548160ff0219169083151502179055507f6df0beb3a3c5b58027a344a5ac5242946bde7ea999f6be47346ced77480e7a3f6040518080602001828103825260078152602001807f737563636573730000000000000000000000000000000000000000000000000081525060200191505060405180910390a15b5b8080600101915050610ecb565b507f6df0beb3a3c5b58027a344a5ac5242946bde7ea999f6be47346ced77480e7a3f6040518080602001828103825260158152602001807f63616e2774206e6f742066696e64207469636b6574000000000000000000000081525060200191505060405180910390a1505050565b6060600160003373ffffffffffffffffffffffffffffffffffffffff1673ffffffffffffffffffffffffffffffffffffffff16815260200190815260200160002060009054906101000a900460ff1661131c576060600067ffffffffffffffff811180156112e157600080fd5b506040519080825280602002602001820160405280156113105781602001602082028036833780820191505090505b50905080915050611572565b600060606000803373ffffffffffffffffffffffffffffffffffffffff1673ffffffffffffffffffffffffffffffffffffffff1681526020019081526020016000206002015467ffffffffffffffff8111801561137857600080fd5b506040519080825280602002602001820160405280156113a75781602001602082028036833780820191505090505b50905060005b6000803373ffffffffffffffffffffffffffffffffffffffff1673ffffffffffffffffffffffffffffffffffffffff16815260200190815260200160002060020154811015611433576113ff81611c14565b15611426578082848151811061141157fe5b60200260200101818152505082806001019350505b80806001019150506113ad565b5060608267ffffffffffffffff8111801561144d57600080fd5b5060405190808252806020026020018201604052801561147c5781602001602082028036833780820191505090505b50905060005b8381101561156a576000803373ffffffffffffffffffffffffffffffffffffffff1673ffffffffffffffffffffffffffffffffffffffff1681526020019081526020016000206004018382815181106114d757fe5b6020026020010151815481106114e957fe5b9060005260206000200160000160009054906101000a900473ffffffffffffffffffffffffffffffffffffffff1682828151811061152357fe5b602002602001019073ffffffffffffffffffffffffffffffffffffffff16908173ffffffffffffffffffffffffffffffffffffffff16815250508080600101915050611482565b508093505050505b90565b600160003373ffffffffffffffffffffffffffffffffffffffff1673ffffffffffffffffffffffffffffffffffffffff16815260200190815260200160002060009054906101000a900460ff166115d0576115cf33610c69565b5b6115d8611ccd565b60405180606001604052808373ffffffffffffffffffffffffffffffffffffffff1681526020016001151581526020016000151581525090506000803373ffffffffffffffffffffffffffffffffffffffff1673ffffffffffffffffffffffffffffffffffffffff168152602001908152602001600020600401819080600181540180825580915050600190039060005260206000200160009091909190915060008201518160000160006101000a81548173ffffffffffffffffffffffffffffffffffffffff021916908373ffffffffffffffffffffffffffffffffffffffff16021790555060208201518160000160146101000a81548160ff02191690831515021790555060408201518160000160156101000a81548160ff021916908315150217905550505060016000803373ffffffffffffffffffffffffffffffffffffffff1673ffffffffffffffffffffffffffffffffffffffff16815260200190815260200160002060020160008282540192505081905550600060016000803373ffffffffffffffffffffffffffffffffffffffff1673ffffffffffffffffffffffffffffffffffffffff168152602001908152602001600020600201540390507f508c42a45ed681f228fada128f1f328687945ba78e5b0d518725e2e6c55c5eb48382604051808373ffffffffffffffffffffffffffffffffffffffff1681526020018281526020019250505060405180910390a1505050565b60008060003373ffffffffffffffffffffffffffffffffffffffff1673ffffffffffffffffffffffffffffffffffffffff168152602001908152602001600020600301828154811061184257fe5b906000526020600020906004020160030160009054906101000a900460ff169050919050565b60005b6000803373ffffffffffffffffffffffffffffffffffffffff1673ffffffffffffffffffffffffffffffffffffffff16815260200190815260200160002060010154811015611ba6576118bd816117f4565b15611b99578373ffffffffffffffffffffffffffffffffffffffff166000803373ffffffffffffffffffffffffffffffffffffffff1673ffffffffffffffffffffffffffffffffffffffff168152602001908152602001600020600301828154811061192557fe5b906000526020600020906004020160000160009054906101000a900473ffffffffffffffffffffffffffffffffffffffff1673ffffffffffffffffffffffffffffffffffffffff161480156119d65750826000803373ffffffffffffffffffffffffffffffffffffffff1673ffffffffffffffffffffffffffffffffffffffff16815260200190815260200160002060030182815481106119c257fe5b906000526020600020906004020160020154145b8015611a3e5750816000803373ffffffffffffffffffffffffffffffffffffffff1673ffffffffffffffffffffffffffffffffffffffff1681526020019081526020016000206003018281548110611a2a57fe5b906000526020600020906004020160010154145b15611b985760008060003373ffffffffffffffffffffffffffffffffffffffff1673ffffffffffffffffffffffffffffffffffffffff1681526020019081526020016000206003018281548110611a9157fe5b906000526020600020906004020160030160006101000a81548160ff02191690831515021790555060016000803373ffffffffffffffffffffffffffffffffffffffff1673ffffffffffffffffffffffffffffffffffffffff1681526020019081526020016000206003018281548110611b0757fe5b906000526020600020906004020160030160016101000a81548160ff0219169083151502179055507fea3bbd66fbf5dbeed40042484a92c23715b61db35db84f6824156b9b27b8594e6040518080602001828103825260078152602001807f737563636573730000000000000000000000000000000000000000000000000081525060200191505060405180910390a15b5b808060010191505061186b565b507fea3bbd66fbf5dbeed40042484a92c23715b61db35db84f6824156b9b27b8594e6040518080602001828103825260158152602001807f63616e2774206e6f742066696e64207469636b6574000000000000000000000081525060200191505060405180910390a1505050565b60008060003373ffffffffffffffffffffffffffffffffffffffff1673ffffffffffffffffffffffffffffffffffffffff1681526020019081526020016000206004018281548110611c6257fe5b9060005260206000200160000160149054906101000a900460ff169050919050565b6040518060a00160405280600073ffffffffffffffffffffffffffffffffffffffff16815260200160008152602001600081526020016000151581526020016000151581525090565b6040518060600160405280600073ffffffffffffffffffffffffffffffffffffffff168152602001600015158152602001600015158152509056fea264697066735822122076c29551d24875d14504235bfc2d6f003bd7680f46af3f3256a5b50f190ace7c64736f6c63430007000033",
  "immutableReferences": {},
  "source": "pragma solidity >=0.7.0;\r\n\r\n// using SafeMath for uint256\r\n\r\ncontract Campaign {\r\n    address public owner;\r\n    uint256 public levels;\r\n    uint256[] public seats;\r\n    string public campaign_name;\r\n    uint256[] public price;\r\n    uint256 public campaign_start_time;\r\n    uint256 public campaign_end_time;\r\n    uint256 public start_sell_time;\r\n    string public abstraction;\r\n    address[] seat_owner;\r\n    uint256[] public remain;\r\n\r\n    constructor(\r\n        string memory _campaign_name,\r\n        uint256 _levels,\r\n        uint256[] memory _seats,\r\n        uint256[] memory _price,\r\n        uint256 _campaign_start_time,\r\n        uint256 _campaign_end_time,\r\n        uint256 _start_sell_time,\r\n        string memory _abstraction\r\n    ) public {\r\n        owner = msg.sender;\r\n        levels = _levels;\r\n        uint256 total_seats = 0;\r\n        for (uint256 i = 0; i < levels; i++) {\r\n            seats.push(_seats[i]);\r\n            price.push(_price[i]);\r\n            total_seats += _seats[i];\r\n            remain.push(_seats[i]);\r\n        }\r\n        campaign_name = _campaign_name;\r\n        campaign_start_time = _campaign_start_time;\r\n        campaign_end_time = _campaign_end_time;\r\n        start_sell_time = _start_sell_time;\r\n        abstraction = _abstraction;\r\n        seat_owner = new address[](total_seats);\r\n\r\n    }\r\n\r\n    modifier restricted() {\r\n        require(msg.sender == owner);\r\n        _;\r\n    }\r\n\r\n    function getSeats() public view returns(uint256[] memory) {\r\n        return seats;\r\n    } \r\n\r\n    function getPrice() public view returns(uint256[] memory) {\r\n        return price;\r\n    } \r\n\r\n    function buy(uint256 amount, uint256 level)\r\n        public\r\n        payable\r\n        returns (uint256[] memory seat_num)\r\n    {\r\n        uint256 j = 0;\r\n        // uint k=0;\r\n        seat_num = new uint256[](amount);\r\n        for (uint256 i = 0; i < seats[level]; i++) {\r\n            if (j < amount) {\r\n                uint256 num = 0;\r\n                for (int256 k = 0; k < int(level); k++ ){\r\n                    num = num + seats[uint256(k)];\r\n                }\r\n                num += i;\r\n                address temp = seat_owner[num];\r\n                if (temp == address(0x00) && remain[level] >= amount) {\r\n                    seat_owner[num] = msg.sender;\r\n                    // address(this).call{value: price[level]}(\"\");\r\n                    // uint256 cost = (price[level]);\r\n                    address(this).transfer(price[level]);\r\n                    remain[level]--;\r\n                    seat_num[j] = num;\r\n                    j++;\r\n                }\r\n            }\r\n        }\r\n    }\r\n\r\n    function withdraw() public restricted {\r\n        if (block.timestamp > campaign_end_time) {\r\n            // msg.sender.call{value: address(this).balance}(\"\");\r\n            msg.sender.transfer(address(this).balance);\r\n        }\r\n    }\r\n\r\n    function refund(uint256 level, uint256 seat_num) public {\r\n        if (block.timestamp < campaign_end_time) {\r\n            if (seat_owner[seat_num]!=address(0x0)){\r\n                seat_owner[seat_num]=address(0x0);\r\n                // msg.sender.call{value: price[level]}(\"\");\r\n                msg.sender.transfer(price[level]);\r\n            }\r\n            \r\n        }\r\n    }\r\n\r\n    receive() external payable {}\r\n}\r\n\r\ncontract Server {\r\n    struct server_campaign {\r\n        address payable campaign;\r\n        bool isvalid;\r\n    }\r\n\r\n    struct return_campaign {\r\n        address _campaign_address;\r\n        string _campaign_name;\r\n        uint256 _seats;\r\n        uint256 _price;\r\n        uint256 _campaign_start_time;\r\n        uint256 _campaign_end_time;\r\n        uint256 _start_sell_time;\r\n        string _abstraction;\r\n    }\r\n    event OnAddUser(string message, address user_address);\r\n    event OnGetCampaigns(address payable[] campaigns);\r\n    event OnAddCampaign(string message);\r\n    event OnBuyTicket(string message);\r\n\r\n    server_campaign[] public campaigns;\r\n    address public users_address;\r\n\r\n    constructor() public{\r\n        users_address = address(new Users());\r\n    }\r\n    // mapping(address => address) private users;\r\n    // mapping(address => return_campaign) public CampaignStruct;\r\n    // modifier validUser() {\r\n    //     require(users[msg.sender] != address(0x0));\r\n    //     _;\r\n    // }\r\n\r\n    // modifier validSignup() {\r\n    //     require(users[msg.sender] == address(0x0));\r\n    //     _;\r\n    // }\r\n\r\n    function callServer(string memory i) public pure returns (string memory) {\r\n        return (i);\r\n    }\r\n\r\n    function addCampaign(\r\n        string memory _campaign_name,\r\n        uint256 _levels,\r\n        uint256[] memory _seats,\r\n        uint256[] memory _price,\r\n        uint256 _campaign_start_time,\r\n        uint256 _campaign_end_time,\r\n        uint256 _start_sell_time,\r\n        string memory _abstraction\r\n    ) public  {\r\n        string memory message;\r\n        \r\n        address payable campaign_address =\r\n            address(\r\n                new Campaign(\r\n                    _campaign_name,\r\n                    _levels,\r\n                    _seats,\r\n                    _price,\r\n                    _campaign_start_time,\r\n                    _campaign_end_time,\r\n                    _start_sell_time,\r\n                    _abstraction\r\n                )\r\n            );\r\n        campaigns.push(server_campaign(campaign_address, true));\r\n        Users users = Users(users_address);\r\n        users.addCampaign(campaign_address);\r\n        message = \"success\";\r\n\r\n        emit OnAddCampaign(message);\r\n    }\r\n\r\n    // function addUser(string memory _name, string memory _pwd)\r\n    //     public\r\n    // {\r\n    //     string memory message;\r\n    //     address user_address;\r\n    //     if (users[msg.sender] == address(0x0)) {\r\n    //         user_address = address(new User(_name, _pwd));\r\n    //         users[msg.sender] = user_address;\r\n    //         message = \"successs\";\r\n    //     } else {\r\n    //         message = \"already exist\";\r\n    //     }\r\n    //     emit OnAddUser(message, user_address);\r\n    // }\r\n\r\n    // function checkUser(string memory _name, string memory _password)\r\n    //     public\r\n    //     view\r\n        \r\n    //     returns (bool success, address user)\r\n    // {\r\n    //     if (users[msg.sender] != address(0x0)) {\r\n    //         User currentUser = User(users[msg.sender]);\r\n    //         string memory name = currentUser.name();\r\n    //         string memory password = currentUser.getPassword();\r\n    //         success = (keccak256(abi.encodePacked(name)) ==\r\n    //             keccak256(abi.encodePacked(_name)) &&\r\n    //             keccak256(abi.encodePacked(password)) ==\r\n    //             keccak256(abi.encodePacked(_password)));\r\n    //         if (success) {\r\n    //             user = users[msg.sender];\r\n    //         } else {\r\n    //             user = address(0);\r\n    //         }\r\n    //     }\r\n    // }\r\n\r\n    function viewCampaign(address payable campaign_address)\r\n        public\r\n        view\r\n        returns (\r\n            uint256[] memory seats,\r\n            string memory campaign_name,\r\n            uint256[] memory price,\r\n            uint256 campaign_start_time,\r\n            uint256 campaign_end_time,\r\n            uint256 start_sell_time,\r\n            string memory abstraction\r\n        )\r\n    {\r\n        Campaign currentCampaign = Campaign(campaign_address);\r\n        campaign_name = currentCampaign.campaign_name();\r\n        seats = currentCampaign.getSeats();\r\n        price = currentCampaign.getPrice();\r\n        campaign_start_time = currentCampaign.campaign_start_time();\r\n        campaign_end_time = currentCampaign.campaign_end_time();\r\n        start_sell_time = currentCampaign.start_sell_time();\r\n        abstraction = currentCampaign.abstraction();\r\n    }\r\n\r\n    function getUserTickets()\r\n        public\r\n        view\r\n        \r\n        returns (address[] memory , uint256[] memory , uint256[] memory)\r\n    {\r\n        Users users = Users(users_address);\r\n        return users.ViewTickets();\r\n        // if (users[msg.sender] != address(0x0)) {\r\n        //     User currentUser = User(users[msg.sender]);\r\n        //     (u_campaigns, seats) = currentUser.ViewTickets();\r\n        // } else {\r\n        //     u_campaigns = new address[](0);\r\n        //     seats = new uint256[](0);\r\n        // }\r\n    }\r\n\r\n    function getUserCampaigns()\r\n        public\r\n        view\r\n        \r\n        returns (address[] memory u_campaigns)\r\n    {\r\n        Users users = Users(users_address);\r\n        return users.ViewCampaigns();\r\n        // if (users[msg.sender] != address(0x0)) {\r\n        //     User currentUser = User(users[msg.sender]);\r\n        //     u_campaigns = currentUser.ViewCampaigns();\r\n        // }\r\n    }\r\n\r\n    function getCampaigns() public view returns (address[] memory ) {\r\n        uint256 num = 0;\r\n        for (uint256 i = 0; i < campaigns.length; i++) {\r\n            if (campaigns[i].isvalid) {\r\n                if (\r\n                    Campaign(campaigns[i].campaign).campaign_end_time() >\r\n                    block.timestamp\r\n                ) {\r\n                    num++;\r\n                }\r\n            }\r\n        }\r\n        address [] memory c = new address [](num);\r\n        uint256 j = 0;\r\n        for (uint256 i = 0; i < campaigns.length; i++) {\r\n            if (campaigns[i].isvalid) {\r\n                if (\r\n                    Campaign(campaigns[i].campaign).campaign_end_time() >\r\n                    block.timestamp\r\n                ) {\r\n                    c[j] = address(campaigns[i].campaign);\r\n                    j++;\r\n                }\r\n            }\r\n        }\r\n        return c;\r\n    }\r\n\r\n    function buyTicket(address payable campaign_address, uint256 amount, uint256 level) public payable  {\r\n        uint256[] memory seat_num;\r\n        string memory message;\r\n        Users users = Users(users_address);\r\n        Campaign c = Campaign(campaign_address);\r\n        if (c.remain(level) >= amount) {\r\n            seat_num = c.buy{value: msg.value}(amount, level);\r\n        } else {\r\n            message = \"fail\";\r\n            emit OnBuyTicket(message);\r\n        }\r\n        for (uint256 i = 0; i < seat_num.length; i++) {\r\n            users.addTicket(campaign_address, seat_num[i], level);\r\n        }\r\n        message = \"success\";\r\n        \r\n        emit OnBuyTicket(message);\r\n    }\r\n\r\n    function withdraw(address payable campaign_address) public {\r\n        Campaign(campaign_address).withdraw(); \r\n    }\r\n\r\n    function completeTicket(address payable campaign_address, uint256 level, uint256 seat_num) public {\r\n        Campaign(campaign_address).withdraw(); \r\n    }\r\n\r\n    function refund(address payable campaign_address, uint256 level, uint256 seat_num) public {\r\n        Campaign(campaign_address).refund(level, seat_num); \r\n        Users(users_address).RefundTicket(campaign_address, level, seat_num);\r\n    }\r\n\r\n    receive() external payable {}\r\n}\r\n\r\npragma solidity >=0.7.0;\r\n\r\ncontract Users {\r\n    event OnAddCampaign(address capmaign_addr, uint256 Id);\r\n    event OnAddTicket(address attend_addr, uint256 Id);\r\n    event OnCompleteCampaign(address capmaign_addr, uint256 Id);\r\n    event OnCompleteTicket(string message);\r\n    event OnRefundTicket(string message);\r\n\r\n    mapping (address => User) addr_to_U;\r\n    mapping (address => bool) usr_addr_valid;\r\n\r\n    struct User {\r\n        address user_addr;\r\n        uint256 amount_tickets;\r\n        uint256 amount_campaigns;\r\n        OwnTicket[] tickets;\r\n        OwnCampaign[] campaigns;\r\n        mapping(address => uint256) campaign_addr_to_id;\r\n        mapping(address => uint256) ticket_addr_to_id;\r\n    }\r\n    struct OwnTicket {\r\n        address attend_address;\r\n        uint256 seat;\r\n        uint256 level;\r\n        bool isValid;\r\n        bool isEnd;\r\n    }\r\n     struct OwnCampaign {\r\n        address payable campaign_address;\r\n        bool isValid;\r\n        bool isEnd;\r\n    }\r\n\r\n    /*\r\n    require(msg.sender == server); may be changed\r\n    only server has the right to access user.sol\r\n    */\r\n    modifier isUserValid() {\r\n        require(usr_addr_valid[msg.sender], \"This user does not exist\");\r\n        _;\r\n    }\r\n\r\n    modifier isOwner(address user_addr) {\r\n        require(msg.sender == user_addr);\r\n        _;\r\n    }\r\n\r\n    modifier isValidSignup(address user_addr) {\r\n    require(usr_addr_valid[user_addr], \"Already exists\");\r\n    _;\r\n    }\r\n\r\n    function isValidCampaign(uint256 _campaignId) \r\n        public \r\n        view \r\n        returns(bool)\r\n    {\r\n        return addr_to_U[msg.sender].campaigns[_campaignId].isValid;\r\n    }\r\n\r\n    function isValidTicket(uint256 _ticketId) \r\n        public \r\n        view \r\n        returns(bool)      \r\n    {\r\n        return addr_to_U[msg.sender].tickets[_ticketId].isValid;\r\n    }\r\n\r\n    function addUser(address user_addr)\r\n        public\r\n        // isValidSignup(msg.sender)\r\n    {\r\n        User storage user = addr_to_U[user_addr];\r\n        user.user_addr = user_addr;\r\n        user.amount_tickets = 0;\r\n        user.amount_campaigns = 0;\r\n\r\n        usr_addr_valid[user_addr] = true;\r\n    }\r\n    \r\n    function addCampaign(address payable _campaign_address) \r\n        public \r\n    {\r\n        if (!usr_addr_valid[msg.sender]){\r\n            addUser(msg.sender);\r\n        }\r\n        OwnCampaign memory campaign =\r\n            OwnCampaign(_campaign_address, true, false);\r\n        addr_to_U[msg.sender].campaigns.push(campaign);\r\n        addr_to_U[msg.sender].amount_campaigns += 1;\r\n        uint256 Id = addr_to_U[msg.sender].amount_campaigns - 1;\r\n\r\n        emit OnAddCampaign(_campaign_address, Id);\r\n    }\r\n\r\n    // if more than one ticket is bought for a single campaign, just call iot several times\r\n    function addTicket(address payable _ticket_address, uint256 seat, uint256 level) \r\n        public \r\n    {\r\n        if (!usr_addr_valid[msg.sender]){\r\n            addUser(msg.sender);\r\n        }\r\n        OwnTicket memory ticket =\r\n            OwnTicket(_ticket_address, seat, level, true, false);\r\n        addr_to_U[msg.sender].tickets.push(ticket);\r\n        addr_to_U[msg.sender].amount_tickets += 1;\r\n        uint256 Id = addr_to_U[msg.sender].amount_tickets - 1;\r\n\r\n        emit OnAddTicket(_ticket_address, Id);\r\n    }\r\n\r\n    // function getPassword(address user_addr)\r\n    //     public\r\n    //     view\r\n    //     isServer()\r\n    //     isUserValid(user_addr)\r\n    //     returns (string memory)\r\n    // {\r\n    //     return addr_to_U[user_addr].pwd;\r\n    // }\r\n\r\n    function ViewCampaigns() \r\n        public \r\n        view \r\n        // isUserValid(user_addr)\r\n        returns (address[] memory)\r\n    {\r\n        if (!usr_addr_valid[msg.sender]){\r\n            address[] memory tmp = new address[](0);\r\n            return tmp;\r\n        }\r\n        uint256 len = 0;\r\n        uint256[] memory count_to_id = new uint256[](addr_to_U[msg.sender].amount_campaigns);\r\n        for (uint256 id = 0; id < addr_to_U[msg.sender].amount_campaigns; id++) {\r\n            if (isValidCampaign(id)) {\r\n                count_to_id[len] = id;\r\n                len++;\r\n            }\r\n        }\r\n        address[] memory campaignList = new address[](len);\r\n        for (uint256 i = 0; i < len; i++) {\r\n            campaignList[i] = addr_to_U[msg.sender].campaigns[count_to_id[i]].campaign_address;\r\n        }\r\n        return campaignList;\r\n    }\r\n\r\n    function ViewTickets() \r\n        public \r\n        view \r\n        // isUserValid(user_addr)\r\n        returns (address[] memory, uint256[] memory, uint256[] memory )\r\n    {\r\n        if (!usr_addr_valid[msg.sender]){\r\n            address[] memory tmp_a = new address[](0);\r\n            uint256[] memory tmp_l = new uint256[](0);\r\n            uint256[] memory tmp_s = new uint256[](0);\r\n            return (tmp_a, tmp_l, tmp_s);\r\n        }\r\n        uint256 len = 0;\r\n        uint256[] memory count_to_id = new uint256[](addr_to_U[msg.sender].amount_tickets);\r\n        for (uint256 id = 0; id < addr_to_U[msg.sender].amount_tickets; id++) {\r\n            if (isValidTicket(id)) {\r\n                count_to_id[len] = id;\r\n                len++;\r\n            }\r\n        }\r\n        address[] memory ticketList = new address[](len);\r\n        uint256[] memory ticketLevels = new uint256[](len);\r\n        uint256[] memory ticketSeats = new uint256[](len);\r\n        for (uint256 i = 0; i < len; i++) {\r\n            ticketList[i] = addr_to_U[msg.sender].tickets[count_to_id[i]].attend_address;\r\n            ticketLevels[i] = addr_to_U[msg.sender].tickets[count_to_id[i]].level;\r\n            ticketSeats[i] = addr_to_U[msg.sender].tickets[count_to_id[i]].seat;\r\n        }\r\n        return (ticketList, ticketLevels, ticketSeats);\r\n    }\r\n\r\n    function CompleteCampagin(address _campaign_address) public \r\n    {\r\n        uint256 _id = addr_to_U[msg.sender].campaign_addr_to_id[_campaign_address];\r\n        addr_to_U[msg.sender].campaigns[_id].isValid = false;\r\n        addr_to_U[msg.sender].campaigns[_id].isEnd = true;\r\n    }\r\n\r\n    function CompleteTicket(address _ticket_address, uint256 _level, uint256 _seat_num) public \r\n    {\r\n        for (uint256 id = 0; id < addr_to_U[msg.sender].amount_tickets; id++) {\r\n            if (isValidTicket(id)) {\r\n                if (addr_to_U[msg.sender].tickets[id].attend_address == _ticket_address &&\r\n                    addr_to_U[msg.sender].tickets[id].level == _level &&\r\n                    addr_to_U[msg.sender].tickets[id].seat == _seat_num){\r\n                        addr_to_U[msg.sender].tickets[id].isValid = false;\r\n                        addr_to_U[msg.sender].tickets[id].isEnd = true;\r\n                        emit OnCompleteTicket(\"success\");\r\n                    }\r\n            }\r\n        }\r\n        emit OnCompleteTicket(\"can't not find ticket\");\r\n    }\r\n\r\n    function RefundTicket(address _ticket_address, uint256 _level, uint256 _seat_num) public \r\n    {\r\n        for (uint256 id = 0; id < addr_to_U[msg.sender].amount_tickets; id++) {\r\n            if (isValidTicket(id)) {\r\n                if (addr_to_U[msg.sender].tickets[id].attend_address == _ticket_address &&\r\n                    addr_to_U[msg.sender].tickets[id].level == _level &&\r\n                    addr_to_U[msg.sender].tickets[id].seat == _seat_num){\r\n                        addr_to_U[msg.sender].tickets[id].isValid = false;\r\n                        addr_to_U[msg.sender].tickets[id].isEnd = true;\r\n                        emit OnRefundTicket(\"success\");\r\n                    }\r\n            }\r\n        }\r\n        emit OnRefundTicket(\"can't not find ticket\");\r\n    }\r\n}",
  "sourcePath": "F:/109-1/Networking and Multinmedia(Lab)/deapp-final/ticket system/contracts/server.sol",
  "compiler": {
    "name": "solc",
    "version": "0.7.0+commit.9e61f92b.Emscripten.clang"
  },
  "schemaVersion": "3.3.2",
  "updatedAt": "2021-01-11T03:41:51.209Z",
  "networkType": "ethereum",
  "devdoc": {
    "kind": "dev",
    "methods": {},
    "version": 1
  },
  "userdoc": {
    "kind": "user",
    "methods": {},
    "version": 1
  }
}