{
  "contractName": "Server",
  "abi": [
    {
      "inputs": [],
      "stateMutability": "nonpayable",
      "type": "constructor"
    },
    {
      "anonymous": false,
      "inputs": [
        {
          "indexed": false,
          "internalType": "string",
          "name": "message",
          "type": "string"
        }
      ],
      "name": "OnAddCampaign",
      "type": "event"
    },
    {
      "anonymous": false,
      "inputs": [
        {
          "indexed": false,
          "internalType": "string",
          "name": "message",
          "type": "string"
        },
        {
          "indexed": false,
          "internalType": "address",
          "name": "user_address",
          "type": "address"
        }
      ],
      "name": "OnAddUser",
      "type": "event"
    },
    {
      "anonymous": false,
      "inputs": [
        {
          "indexed": false,
          "internalType": "string",
          "name": "message",
          "type": "string"
        }
      ],
      "name": "OnBuyTicket",
      "type": "event"
    },
    {
      "anonymous": false,
      "inputs": [
        {
          "indexed": false,
          "internalType": "address payable[]",
          "name": "campaigns",
          "type": "address[]"
        }
      ],
      "name": "OnGetCampaigns",
      "type": "event"
    },
    {
      "inputs": [
        {
          "internalType": "uint256",
          "name": "",
          "type": "uint256"
        }
      ],
      "name": "campaigns",
      "outputs": [
        {
          "internalType": "address payable",
          "name": "campaign",
          "type": "address"
        },
        {
          "internalType": "bool",
          "name": "isvalid",
          "type": "bool"
        }
      ],
      "stateMutability": "view",
      "type": "function",
      "constant": true
    },
    {
      "inputs": [],
      "name": "users_address",
      "outputs": [
        {
          "internalType": "address",
          "name": "",
          "type": "address"
        }
      ],
      "stateMutability": "view",
      "type": "function",
      "constant": true
    },
    {
      "stateMutability": "payable",
      "type": "receive",
      "payable": true
    },
    {
      "inputs": [
        {
          "internalType": "string",
          "name": "i",
          "type": "string"
        }
      ],
      "name": "callServer",
      "outputs": [
        {
          "internalType": "string",
          "name": "",
          "type": "string"
        }
      ],
      "stateMutability": "pure",
      "type": "function",
      "constant": true
    },
    {
      "inputs": [
        {
          "internalType": "string",
          "name": "_link",
          "type": "string"
        },
        {
          "internalType": "string",
          "name": "_campaign_name",
          "type": "string"
        },
        {
          "internalType": "uint256",
          "name": "_levels",
          "type": "uint256"
        },
        {
          "internalType": "uint256[]",
          "name": "_seats",
          "type": "uint256[]"
        },
        {
          "internalType": "uint256[]",
          "name": "_price",
          "type": "uint256[]"
        },
        {
          "internalType": "uint256",
          "name": "_campaign_start_time",
          "type": "uint256"
        },
        {
          "internalType": "uint256",
          "name": "_campaign_end_time",
          "type": "uint256"
        },
        {
          "internalType": "uint256",
          "name": "_start_sell_time",
          "type": "uint256"
        },
        {
          "internalType": "string",
          "name": "_abstraction",
          "type": "string"
        }
      ],
      "name": "addCampaign",
      "outputs": [],
      "stateMutability": "nonpayable",
      "type": "function"
    },
    {
      "inputs": [
        {
          "internalType": "address payable",
          "name": "campaign_address",
          "type": "address"
        }
      ],
      "name": "viewCampaign",
      "outputs": [
        {
          "internalType": "uint256[]",
          "name": "seats",
          "type": "uint256[]"
        },
        {
          "internalType": "string",
          "name": "campaign_name",
          "type": "string"
        },
        {
          "internalType": "uint256[]",
          "name": "price",
          "type": "uint256[]"
        },
        {
          "internalType": "uint256",
          "name": "campaign_start_time",
          "type": "uint256"
        },
        {
          "internalType": "uint256",
          "name": "campaign_end_time",
          "type": "uint256"
        },
        {
          "internalType": "uint256",
          "name": "start_sell_time",
          "type": "uint256"
        },
        {
          "internalType": "string",
          "name": "abstraction",
          "type": "string"
        },
        {
          "internalType": "uint256[]",
          "name": "remain",
          "type": "uint256[]"
        }
      ],
      "stateMutability": "view",
      "type": "function",
      "constant": true
    },
    {
      "inputs": [
        {
          "internalType": "address payable",
          "name": "campaign_address",
          "type": "address"
        }
      ],
      "name": "viewCampaign2",
      "outputs": [
        {
          "internalType": "string",
          "name": "link",
          "type": "string"
        }
      ],
      "stateMutability": "view",
      "type": "function",
      "constant": true
    },
    {
      "inputs": [],
      "name": "getUserTickets",
      "outputs": [
        {
          "internalType": "address[]",
          "name": "",
          "type": "address[]"
        },
        {
          "internalType": "uint256[]",
          "name": "",
          "type": "uint256[]"
        },
        {
          "internalType": "uint256[]",
          "name": "",
          "type": "uint256[]"
        }
      ],
      "stateMutability": "view",
      "type": "function",
      "constant": true
    },
    {
      "inputs": [],
      "name": "getUserCampaigns",
      "outputs": [
        {
          "internalType": "address[]",
          "name": "u_campaigns",
          "type": "address[]"
        }
      ],
      "stateMutability": "view",
      "type": "function",
      "constant": true
    },
    {
      "inputs": [],
      "name": "getCampaigns",
      "outputs": [
        {
          "internalType": "address[]",
          "name": "",
          "type": "address[]"
        }
      ],
      "stateMutability": "view",
      "type": "function",
      "constant": true
    },
    {
      "inputs": [
        {
          "internalType": "address payable",
          "name": "campaign_address",
          "type": "address"
        },
        {
          "internalType": "uint256",
          "name": "amount",
          "type": "uint256"
        },
        {
          "internalType": "uint256",
          "name": "level",
          "type": "uint256"
        }
      ],
      "name": "buyTicket",
      "outputs": [],
      "stateMutability": "payable",
      "type": "function",
      "payable": true
    },
    {
      "inputs": [
        {
          "internalType": "address payable",
          "name": "campaign_address",
          "type": "address"
        }
      ],
      "name": "withdraw",
      "outputs": [],
      "stateMutability": "nonpayable",
      "type": "function"
    },
    {
      "inputs": [
        {
          "internalType": "address payable",
          "name": "campaign_address",
          "type": "address"
        },
        {
          "internalType": "uint256",
          "name": "level",
          "type": "uint256"
        },
        {
          "internalType": "uint256",
          "name": "seat_num",
          "type": "uint256"
        }
      ],
      "name": "completeTicket",
      "outputs": [],
      "stateMutability": "nonpayable",
      "type": "function"
    },
    {
      "inputs": [
        {
          "internalType": "address payable",
          "name": "campaign_address",
          "type": "address"
        },
        {
          "internalType": "uint256",
          "name": "level",
          "type": "uint256"
        },
        {
          "internalType": "uint256",
          "name": "seat_num",
          "type": "uint256"
        }
      ],
      "name": "refund",
      "outputs": [],
      "stateMutability": "nonpayable",
      "type": "function"
    }
  ],
  "bytecode": "0x60806040523480156200001157600080fd5b50604051620000209062000084565b604051809103906000f0801580156200003d573d6000803e3d6000fd5b50600160006101000a81548173ffffffffffffffffffffffffffffffffffffffff021916908373ffffffffffffffffffffffffffffffffffffffff16021790555062000092565b611ec180620045ee83390190565b61454c80620000a26000396000f3fe608060405260043610620000f6576000357c0100000000000000000000000000000000000000000000000000000000900480635112533511620000a85780638abf38cc116200007e5780638abf38cc1462000ac5578063a55f6ca71462000b2e578063a6b036331462000bff578063e3e5c2b91462000c7057620000fe565b80635112533514620007f957806351cff8d91462000a2c57806353f9d2cf1462000a8157620000fe565b8063093c69ae14620001035780630e274ae21462000208578063141961bc146200027957806318fd890314620002eb5780632ac8ba67146200035457806335c30e0e146200049f57620000fe565b36620000fe57005b600080fd5b3480156200011057600080fd5b506200011b62000ccb565b60405180806020018060200180602001848103845287818151815260200191508051906020019060200280838360005b83811015620001685780820151818401526020810190506200014b565b50505050905001848103835286818151815260200191508051906020019060200280838360005b83811015620001ac5780820151818401526020810190506200018f565b50505050905001848103825285818151815260200191508051906020019060200280838360005b83811015620001f0578082015181840152602081019050620001d3565b50505050905001965050505050505060405180910390f35b3480156200021557600080fd5b506200022062000f93565b6040518080602001828103825283818151815260200191508051906020019060200280838360005b838110156200026557808201518184015260208101905062000248565b505050509050019250505060405180910390f35b3480156200028657600080fd5b50620002b6600480360360208110156200029f57600080fd5b810190808035906020019092919050505062001122565b604051808373ffffffffffffffffffffffffffffffffffffffff16815260200182151581526020019250505060405180910390f35b348015620002f857600080fd5b5062000352600480360360608110156200031157600080fd5b81019080803573ffffffffffffffffffffffffffffffffffffffff16906020019092919080359060200190929190803590602001909291905050506200117d565b005b3480156200036157600080fd5b5062000421600480360360208110156200037a57600080fd5b81019080803590602001906401000000008111156200039857600080fd5b820183602082011115620003ab57600080fd5b80359060200191846001830284011164010000000083111715620003ce57600080fd5b91908080601f016020809104026020016040519081016040528093929190818152602001838380828437600081840152601f19601f82011690508083019250505050505050919291929050505062001320565b6040518080602001828103825283818151815260200191508051906020019080838360005b838110156200046357808201518184015260208101905062000446565b50505050905090810190601f168015620004915780820380516001836020036101000a031916815260200191505b509250505060405180910390f35b348015620004ac57600080fd5b50620007f76004803603610120811015620004c657600080fd5b8101908080359060200190640100000000811115620004e457600080fd5b820183602082011115620004f757600080fd5b803590602001918460018302840111640100000000831117156200051a57600080fd5b91908080601f016020809104026020016040519081016040528093929190818152602001838380828437600081840152601f19601f820116905080830192505050505050509192919290803590602001906401000000008111156200057e57600080fd5b8201836020820111156200059157600080fd5b80359060200191846001830284011164010000000083111715620005b457600080fd5b91908080601f016020809104026020016040519081016040528093929190818152602001838380828437600081840152601f19601f82011690508083019250505050505050919291929080359060200190929190803590602001906401000000008111156200062257600080fd5b8201836020820111156200063557600080fd5b803590602001918460208302840111640100000000831117156200065857600080fd5b919080806020026020016040519081016040528093929190818152602001838360200280828437600081840152601f19601f82011690508083019250505050505050919291929080359060200190640100000000811115620006b957600080fd5b820183602082011115620006cc57600080fd5b80359060200191846020830284011164010000000083111715620006ef57600080fd5b919080806020026020016040519081016040528093929190818152602001838360200280828437600081840152601f19601f820116905080830192505050505050509192919290803590602001909291908035906020019092919080359060200190929190803590602001906401000000008111156200076e57600080fd5b8201836020820111156200078157600080fd5b80359060200191846001830284011164010000000083111715620007a457600080fd5b91908080601f016020809104026020016040519081016040528093929190818152602001838380828437600081840152601f19601f8201169050808301925050505050505091929192905050506200132a565b005b3480156200080657600080fd5b506200084c600480360360208110156200081f57600080fd5b81019080803573ffffffffffffffffffffffffffffffffffffffff1690602001909291905050506200188b565b60405180806020018060200180602001898152602001888152602001878152602001806020018060200186810386528e818151815260200191508051906020019060200280838360005b83811015620008b357808201518184015260208101905062000896565b5050505090500186810385528d818151815260200191508051906020019080838360005b83811015620008f4578082015181840152602081019050620008d7565b50505050905090810190601f168015620009225780820380516001836020036101000a031916815260200191505b5086810384528c818151815260200191508051906020019060200280838360005b838110156200096057808201518184015260208101905062000943565b50505050905001868103835288818151815260200191508051906020019080838360005b83811015620009a157808201518184015260208101905062000984565b50505050905090810190601f168015620009cf5780820380516001836020036101000a031916815260200191505b50868103825287818151815260200191508051906020019060200280838360005b8381101562000a0d578082015181840152602081019050620009f0565b505050509050019d505050505050505050505050505060405180910390f35b34801562000a3957600080fd5b5062000a7f6004803603602081101562000a5257600080fd5b81019080803573ffffffffffffffffffffffffffffffffffffffff1690602001909291905050506200211e565b005b34801562000a8e57600080fd5b5062000a99620021c0565b604051808273ffffffffffffffffffffffffffffffffffffffff16815260200191505060405180910390f35b34801562000ad257600080fd5b5062000b2c6004803603606081101562000aeb57600080fd5b81019080803573ffffffffffffffffffffffffffffffffffffffff1690602001909291908035906020019092919080359060200190929190505050620021e6565b005b34801562000b3b57600080fd5b5062000b816004803603602081101562000b5457600080fd5b81019080803573ffffffffffffffffffffffffffffffffffffffff169060200190929190505050620022da565b6040518080602001828103825283818151815260200191508051906020019080838360005b8381101562000bc357808201518184015260208101905062000ba6565b50505050905090810190601f16801562000bf15780820380516001836020036101000a031916815260200191505b509250505060405180910390f35b34801562000c0c57600080fd5b5062000c1762002447565b6040518080602001828103825283818151815260200191508051906020019060200280838360005b8381101562000c5c57808201518184015260208101905062000c3f565b505050509050019250505060405180910390f35b62000cc96004803603606081101562000c8857600080fd5b81019080803573ffffffffffffffffffffffffffffffffffffffff16906020019092919080359060200190929190803590602001909291905050506200279c565b005b60608060606000600160009054906101000a900473ffffffffffffffffffffffffffffffffffffffff1690508073ffffffffffffffffffffffffffffffffffffffff166302639df8336040518263ffffffff167c0100000000000000000000000000000000000000000000000000000000028152600401808273ffffffffffffffffffffffffffffffffffffffff16815260200191505060006040518083038186803b15801562000d7b57600080fd5b505afa15801562000d90573d6000803e3d6000fd5b505050506040513d6000823e3d601f19601f82011682018060405250606081101562000dbb57600080fd5b810190808051604051939291908464010000000082111562000ddc57600080fd5b8382019150602082018581111562000df357600080fd5b825186602082028301116401000000008211171562000e1157600080fd5b8083526020830192505050908051906020019060200280838360005b8381101562000e4a57808201518184015260208101905062000e2d565b505050509050016040526020018051604051939291908464010000000082111562000e7457600080fd5b8382019150602082018581111562000e8b57600080fd5b825186602082028301116401000000008211171562000ea957600080fd5b8083526020830192505050908051906020019060200280838360005b8381101562000ee257808201518184015260208101905062000ec5565b505050509050016040526020018051604051939291908464010000000082111562000f0c57600080fd5b8382019150602082018581111562000f2357600080fd5b825186602082028301116401000000008211171562000f4157600080fd5b8083526020830192505050908051906020019060200280838360005b8381101562000f7a57808201518184015260208101905062000f5d565b5050505090500160405250505093509350935050909192565b60606000600160009054906101000a900473ffffffffffffffffffffffffffffffffffffffff1690508073ffffffffffffffffffffffffffffffffffffffff1663e2a6840f336040518263ffffffff167c0100000000000000000000000000000000000000000000000000000000028152600401808273ffffffffffffffffffffffffffffffffffffffff16815260200191505060006040518083038186803b1580156200104057600080fd5b505afa15801562001055573d6000803e3d6000fd5b505050506040513d6000823e3d601f19601f8201168201806040525060208110156200108057600080fd5b8101908080516040519392919084640100000000821115620010a157600080fd5b83820191506020820185811115620010b857600080fd5b8251866020820283011164010000000082111715620010d657600080fd5b8083526020830192505050908051906020019060200280838360005b838110156200110f578082015181840152602081019050620010f2565b5050505090500160405250505091505090565b600081815481106200113057fe5b906000526020600020016000915090508060000160009054906101000a900473ffffffffffffffffffffffffffffffffffffffff16908060000160149054906101000a900460ff16905082565b8273ffffffffffffffffffffffffffffffffffffffff166318fd89033384846040518463ffffffff167c0100000000000000000000000000000000000000000000000000000000028152600401808473ffffffffffffffffffffffffffffffffffffffff1681526020018381526020018281526020019350505050600060405180830381600087803b1580156200121357600080fd5b505af115801562001228573d6000803e3d6000fd5b50505050600160009054906101000a900473ffffffffffffffffffffffffffffffffffffffff1673ffffffffffffffffffffffffffffffffffffffff1663bf9cfa81338585856040518563ffffffff167c0100000000000000000000000000000000000000000000000000000000028152600401808573ffffffffffffffffffffffffffffffffffffffff1681526020018473ffffffffffffffffffffffffffffffffffffffff168152602001838152602001828152602001945050505050600060405180830381600087803b1580156200130257600080fd5b505af115801562001317573d6000803e3d6000fd5b50505050505050565b6060819050919050565b6000898989898989898989604051620013439062002cad565b8080602001806020018a815260200180602001806020018981526020018881526020018781526020018060200186810386528f818151815260200191508051906020019080838360005b83811015620013aa5780820151818401526020810190506200138d565b50505050905090810190601f168015620013d85780820380516001836020036101000a031916815260200191505b5086810385528e818151815260200191508051906020019080838360005b8381101562001413578082015181840152602081019050620013f6565b50505050905090810190601f168015620014415780820380516001836020036101000a031916815260200191505b5086810384528c818151815260200191508051906020019060200280838360005b838110156200147f57808201518184015260208101905062001462565b5050505090500186810383528b818151815260200191508051906020019060200280838360005b83811015620014c3578082015181840152602081019050620014a6565b50505050905001868103825287818151815260200191508051906020019080838360005b8381101562001504578082015181840152602081019050620014e7565b50505050905090810190601f168015620015325780820380516001836020036101000a031916815260200191505b509e505050505050505050505050505050604051809103906000f08015801562001560573d6000803e3d6000fd5b5090508073ffffffffffffffffffffffffffffffffffffffff166313af4035336040518263ffffffff167c0100000000000000000000000000000000000000000000000000000000028152600401808273ffffffffffffffffffffffffffffffffffffffff168152602001915050600060405180830381600087803b158015620015e957600080fd5b505af1158015620015fe573d6000803e3d6000fd5b50505050600060405180604001604052808373ffffffffffffffffffffffffffffffffffffffff168152602001600115158152509080600181540180825580915050600190039060005260206000200160009091909190915060008201518160000160006101000a81548173ffffffffffffffffffffffffffffffffffffffff021916908373ffffffffffffffffffffffffffffffffffffffff16021790555060208201518160000160146101000a81548160ff02191690831515021790555050506000600160009054906101000a900473ffffffffffffffffffffffffffffffffffffffff1690508073ffffffffffffffffffffffffffffffffffffffff16638c0b28aa33846040518363ffffffff167c0100000000000000000000000000000000000000000000000000000000028152600401808373ffffffffffffffffffffffffffffffffffffffff1681526020018273ffffffffffffffffffffffffffffffffffffffff16815260200192505050600060405180830381600087803b1580156200178b57600080fd5b505af1158015620017a0573d6000803e3d6000fd5b5050505060606040518060400160405280600781526020017f737563636573730000000000000000000000000000000000000000000000000081525090507f97c811501143fd9e53513025da95730dfd0b457a50f5de6848adafb39eb81163816040518080602001828103825283818151815260200191508051906020019080838360005b838110156200184257808201518184015260208101905062001825565b50505050905090810190601f168015620018705780820380516001836020036101000a031916815260200191505b509250505060405180910390a1505050505050505050505050565b6060806060600080600060608060008990508073ffffffffffffffffffffffffffffffffffffffff16634137e7336040518163ffffffff167c010000000000000000000000000000000000000000000000000000000002815260040160006040518083038186803b1580156200190057600080fd5b505afa15801562001915573d6000803e3d6000fd5b505050506040513d6000823e3d601f19601f8201168201806040525060208110156200194057600080fd5b81019080805160405193929190846401000000008211156200196157600080fd5b838201915060208201858111156200197857600080fd5b82518660018202830111640100000000821117156200199657600080fd5b8083526020830192505050908051906020019080838360005b83811015620019cc578082015181840152602081019050620019af565b50505050905090810190601f168015620019fa5780820380516001836020036101000a031916815260200191505b5060405250505097508073ffffffffffffffffffffffffffffffffffffffff1663a997c66a6040518163ffffffff167c010000000000000000000000000000000000000000000000000000000002815260040160006040518083038186803b15801562001a6657600080fd5b505afa15801562001a7b573d6000803e3d6000fd5b505050506040513d6000823e3d601f19601f82011682018060405250602081101562001aa657600080fd5b810190808051604051939291908464010000000082111562001ac757600080fd5b8382019150602082018581111562001ade57600080fd5b825186602082028301116401000000008211171562001afc57600080fd5b8083526020830192505050908051906020019060200280838360005b8381101562001b3557808201518184015260208101905062001b18565b5050505090500160405250505098508073ffffffffffffffffffffffffffffffffffffffff166398d5fdca6040518163ffffffff167c010000000000000000000000000000000000000000000000000000000002815260040160006040518083038186803b15801562001ba757600080fd5b505afa15801562001bbc573d6000803e3d6000fd5b505050506040513d6000823e3d601f19601f82011682018060405250602081101562001be757600080fd5b810190808051604051939291908464010000000082111562001c0857600080fd5b8382019150602082018581111562001c1f57600080fd5b825186602082028301116401000000008211171562001c3d57600080fd5b8083526020830192505050908051906020019060200280838360005b8381101562001c7657808201518184015260208101905062001c59565b5050505090500160405250505096508073ffffffffffffffffffffffffffffffffffffffff16630e153e246040518163ffffffff167c010000000000000000000000000000000000000000000000000000000002815260040160206040518083038186803b15801562001ce857600080fd5b505afa15801562001cfd573d6000803e3d6000fd5b505050506040513d602081101562001d1457600080fd5b810190808051906020019092919050505095508073ffffffffffffffffffffffffffffffffffffffff1663e8237fb16040518163ffffffff167c010000000000000000000000000000000000000000000000000000000002815260040160206040518083038186803b15801562001d8a57600080fd5b505afa15801562001d9f573d6000803e3d6000fd5b505050506040513d602081101562001db657600080fd5b810190808051906020019092919050505094508073ffffffffffffffffffffffffffffffffffffffff166310b6315d6040518163ffffffff167c010000000000000000000000000000000000000000000000000000000002815260040160206040518083038186803b15801562001e2c57600080fd5b505afa15801562001e41573d6000803e3d6000fd5b505050506040513d602081101562001e5857600080fd5b810190808051906020019092919050505093508073ffffffffffffffffffffffffffffffffffffffff166321d895926040518163ffffffff167c010000000000000000000000000000000000000000000000000000000002815260040160006040518083038186803b15801562001ece57600080fd5b505afa15801562001ee3573d6000803e3d6000fd5b505050506040513d6000823e3d601f19601f82011682018060405250602081101562001f0e57600080fd5b810190808051604051939291908464010000000082111562001f2f57600080fd5b8382019150602082018581111562001f4657600080fd5b825186600182028301116401000000008211171562001f6457600080fd5b8083526020830192505050908051906020019080838360005b8381101562001f9a57808201518184015260208101905062001f7d565b50505050905090810190601f16801562001fc85780820380516001836020036101000a031916815260200191505b5060405250505092508073ffffffffffffffffffffffffffffffffffffffff16637fc0f98b6040518163ffffffff167c010000000000000000000000000000000000000000000000000000000002815260040160006040518083038186803b1580156200203457600080fd5b505afa15801562002049573d6000803e3d6000fd5b505050506040513d6000823e3d601f19601f8201168201806040525060208110156200207457600080fd5b81019080805160405193929190846401000000008211156200209557600080fd5b83820191506020820185811115620020ac57600080fd5b8251866020820283011164010000000082111715620020ca57600080fd5b8083526020830192505050908051906020019060200280838360005b8381101562002103578082015181840152602081019050620020e6565b50505050905001604052505050915050919395975091939597565b8073ffffffffffffffffffffffffffffffffffffffff166351cff8d9336040518263ffffffff167c0100000000000000000000000000000000000000000000000000000000028152600401808273ffffffffffffffffffffffffffffffffffffffff168152602001915050600060405180830381600087803b158015620021a457600080fd5b505af1158015620021b9573d6000803e3d6000fd5b5050505050565b600160009054906101000a900473ffffffffffffffffffffffffffffffffffffffff1681565b600160009054906101000a900473ffffffffffffffffffffffffffffffffffffffff1673ffffffffffffffffffffffffffffffffffffffff16631c36094d338585856040518563ffffffff167c0100000000000000000000000000000000000000000000000000000000028152600401808573ffffffffffffffffffffffffffffffffffffffff1681526020018473ffffffffffffffffffffffffffffffffffffffff168152602001838152602001828152602001945050505050600060405180830381600087803b158015620022bc57600080fd5b505af1158015620022d1573d6000803e3d6000fd5b50505050505050565b60608173ffffffffffffffffffffffffffffffffffffffff16631c4695f46040518163ffffffff167c010000000000000000000000000000000000000000000000000000000002815260040160006040518083038186803b1580156200233f57600080fd5b505afa15801562002354573d6000803e3d6000fd5b505050506040513d6000823e3d601f19601f8201168201806040525060208110156200237f57600080fd5b8101908080516040519392919084640100000000821115620023a057600080fd5b83820191506020820185811115620023b757600080fd5b8251866001820283011164010000000082111715620023d557600080fd5b8083526020830192505050908051906020019080838360005b838110156200240b578082015181840152602081019050620023ee565b50505050905090810190601f168015620024395780820380516001836020036101000a031916815260200191505b506040525050509050919050565b60606000805b6000805490508110156200258557600081815481106200246957fe5b9060005260206000200160000160149054906101000a900460ff1615620025775742600082815481106200249957fe5b9060005260206000200160000160009054906101000a900473ffffffffffffffffffffffffffffffffffffffff1673ffffffffffffffffffffffffffffffffffffffff1663e8237fb16040518163ffffffff167c010000000000000000000000000000000000000000000000000000000002815260040160206040518083038186803b1580156200252957600080fd5b505afa1580156200253e573d6000803e3d6000fd5b505050506040513d60208110156200255557600080fd5b81019080805190602001909291905050501115620025765781806001019250505b5b80806001019150506200244d565b5060608167ffffffffffffffff81118015620025a057600080fd5b50604051908082528060200260200182016040528015620025d05781602001602082028036833780820191505090505b5090506000805b600080549050811015620027925760008181548110620025f357fe5b9060005260206000200160000160149054906101000a900460ff1615620027845742600082815481106200262357fe5b9060005260206000200160000160009054906101000a900473ffffffffffffffffffffffffffffffffffffffff1673ffffffffffffffffffffffffffffffffffffffff1663e8237fb16040518163ffffffff167c010000000000000000000000000000000000000000000000000000000002815260040160206040518083038186803b158015620026b357600080fd5b505afa158015620026c8573d6000803e3d6000fd5b505050506040513d6020811015620026df57600080fd5b810190808051906020019092919050505011156200278357600081815481106200270557fe5b9060005260206000200160000160009054906101000a900473ffffffffffffffffffffffffffffffffffffffff168383815181106200274057fe5b602002602001019073ffffffffffffffffffffffffffffffffffffffff16908173ffffffffffffffffffffffffffffffffffffffff168152505081806001019250505b5b8080600101915050620025d7565b5081935050505090565b6060806000600160009054906101000a900473ffffffffffffffffffffffffffffffffffffffff1690506000869050858173ffffffffffffffffffffffffffffffffffffffff16630b451a40876040518263ffffffff167c01000000000000000000000000000000000000000000000000000000000281526004018082815260200191505060206040518083038186803b1580156200283a57600080fd5b505afa1580156200284f573d6000803e3d6000fd5b505050506040513d60208110156200286657600080fd5b810190808051906020019092919050505010620029f8578073ffffffffffffffffffffffffffffffffffffffff1663a59ac6dd343389896040518563ffffffff167c0100000000000000000000000000000000000000000000000000000000028152600401808473ffffffffffffffffffffffffffffffffffffffff16815260200183815260200182815260200193505050506000604051808303818588803b1580156200291357600080fd5b505af115801562002928573d6000803e3d6000fd5b50505050506040513d6000823e3d601f19601f8201168201806040525060208110156200295457600080fd5b81019080805160405193929190846401000000008211156200297557600080fd5b838201915060208201858111156200298c57600080fd5b8251866020820283011164010000000082111715620029aa57600080fd5b8083526020830192505050908051906020019060200280838360005b83811015620029e3578082015181840152602081019050620029c6565b50505050905001604052505050935062002ad0565b6040518060400160405280600481526020017f6661696c0000000000000000000000000000000000000000000000000000000081525092507f447e7e1d79c76c3f57822cea70daf3ce7255708525f127e8c5d6d1cfd207eb92836040518080602001828103825283818151815260200191508051906020019080838360005b8381101562002a9457808201518184015260208101905062002a77565b50505050905090810190601f16801562002ac25780820380516001836020036101000a031916815260200191505b509250505060405180910390a15b60005b845181101562002bcc578273ffffffffffffffffffffffffffffffffffffffff1663e0ac7f77338a88858151811062002b0857fe5b60200260200101518a6040518563ffffffff167c0100000000000000000000000000000000000000000000000000000000028152600401808573ffffffffffffffffffffffffffffffffffffffff1681526020018473ffffffffffffffffffffffffffffffffffffffff168152602001838152602001828152602001945050505050600060405180830381600087803b15801562002ba557600080fd5b505af115801562002bba573d6000803e3d6000fd5b50505050808060010191505062002ad3565b506040518060400160405280600781526020017f737563636573730000000000000000000000000000000000000000000000000081525092507f447e7e1d79c76c3f57822cea70daf3ce7255708525f127e8c5d6d1cfd207eb92836040518080602001828103825283818151815260200191508051906020019080838360005b8381101562002c6957808201518184015260208101905062002c4c565b50505050905090810190601f16801562002c975780820380516001836020036101000a031916815260200191505b509250505060405180910390a150505050505050565b61185b8062002cbc8339019056fe60806040523480156200001157600080fd5b506040516200185b3803806200185b83398181016040526101208110156200003857600080fd5b81019080805160405193929190846401000000008211156200005957600080fd5b838201915060208201858111156200007057600080fd5b82518660018202830111640100000000821117156200008e57600080fd5b8083526020830192505050908051906020019080838360005b83811015620000c4578082015181840152602081019050620000a7565b50505050905090810190601f168015620000f25780820380516001836020036101000a031916815260200191505b50604052602001805160405193929190846401000000008211156200011657600080fd5b838201915060208201858111156200012d57600080fd5b82518660018202830111640100000000821117156200014b57600080fd5b8083526020830192505050908051906020019080838360005b838110156200018157808201518184015260208101905062000164565b50505050905090810190601f168015620001af5780820380516001836020036101000a031916815260200191505b506040526020018051906020019092919080516040519392919084640100000000821115620001dd57600080fd5b83820191506020820185811115620001f457600080fd5b82518660208202830111640100000000821117156200021257600080fd5b8083526020830192505050908051906020019060200280838360005b838110156200024b5780820151818401526020810190506200022e565b50505050905001604052602001805160405193929190846401000000008211156200027557600080fd5b838201915060208201858111156200028c57600080fd5b8251866020820283011164010000000082111715620002aa57600080fd5b8083526020830192505050908051906020019060200280838360005b83811015620002e3578082015181840152602081019050620002c6565b50505050905001604052602001805190602001909291908051906020019092919080519060200190929190805160405193929190846401000000008211156200032b57600080fd5b838201915060208201858111156200034257600080fd5b82518660018202830111640100000000821117156200036057600080fd5b8083526020830192505050908051906020019080838360005b838110156200039657808201518184015260208101905062000379565b50505050905090810190601f168015620003c45780820380516001836020036101000a031916815260200191505b50604052505050866001819055506000805b600154811015620004bf576002888281518110620003f057fe5b6020026020010151908060018154018082558091505060019003906000526020600020016000909190919091505560048782815181106200042d57fe5b602002602001015190806001815401808255809150506001900390600052602060002001600090919091909150558781815181106200046857fe5b602002602001015182019150600a8882815181106200048357fe5b602002602001015190806001815401808255809150506001900390600052602060002001600090919091909150558080600101915050620003d6565b5089600b9080519060200190620004d892919062000591565b508860039080519060200190620004f192919062000591565b5084600581905550836006819055508260078190555081600890805190602001906200051f92919062000591565b508067ffffffffffffffff811180156200053857600080fd5b50604051908082528060200260200182016040528015620005685781602001602082028036833780820191505090505b50600990805190602001906200058092919062000618565b505050505050505050505062000703565b828054600181600116156101000203166002900490600052602060002090601f016020900481019282601f10620005d457805160ff191683800117855562000605565b8280016001018555821562000605579182015b8281111562000604578251825591602001919060010190620005e7565b5b509050620006149190620006a7565b5090565b82805482825590600052602060002090810192821562000694579160200282015b82811115620006935782518260006101000a81548173ffffffffffffffffffffffffffffffffffffffff021916908373ffffffffffffffffffffffffffffffffffffffff1602179055509160200191906001019062000639565b5b509050620006a39190620006c6565b5090565b5b80821115620006c2576000816000905550600101620006a8565b5090565b5b80821115620006ff57600081816101000a81549073ffffffffffffffffffffffffffffffffffffffff021916905550600101620006c7565b5090565b61114880620007136000396000f3fe60806040526004361061012a576000357c0100000000000000000000000000000000000000000000000000000000900480634137e733116100b25780638da5cb5b116100815780638da5cb5b146105c757806398d5fdca14610608578063a59ac6dd14610674578063a997c66a14610721578063e8237fb11461078d57610131565b80634137e7331461044f5780634ecf518b146104df57806351cff8d91461050a5780637fc0f98b1461055b57610131565b806318fd8903116100f957806318fd89031461022c5780631c4695f41461029157806321d895921461032157806326a49e37146103b15780633b33c7021461040057610131565b80630b451a40146101365780630e153e241461018557806310b6315d146101b057806313af4035146101db57610131565b3661013157005b600080fd5b34801561014257600080fd5b5061016f6004803603602081101561015957600080fd5b81019080803590602001909291905050506107b8565b6040518082815260200191505060405180910390f35b34801561019157600080fd5b5061019a6107d9565b6040518082815260200191505060405180910390f35b3480156101bc57600080fd5b506101c56107df565b6040518082815260200191505060405180910390f35b3480156101e757600080fd5b5061022a600480360360208110156101fe57600080fd5b81019080803573ffffffffffffffffffffffffffffffffffffffff1690602001909291905050506107e5565b005b34801561023857600080fd5b5061028f6004803603606081101561024f57600080fd5b81019080803573ffffffffffffffffffffffffffffffffffffffff1690602001909291908035906020019092919080359060200190929190505050610828565b005b34801561029d57600080fd5b506102a6610a31565b6040518080602001828103825283818151815260200191508051906020019080838360005b838110156102e65780820151818401526020810190506102cb565b50505050905090810190601f1680156103135780820380516001836020036101000a031916815260200191505b509250505060405180910390f35b34801561032d57600080fd5b50610336610acf565b6040518080602001828103825283818151815260200191508051906020019080838360005b8381101561037657808201518184015260208101905061035b565b50505050905090810190601f1680156103a35780820380516001836020036101000a031916815260200191505b509250505060405180910390f35b3480156103bd57600080fd5b506103ea600480360360208110156103d457600080fd5b8101908080359060200190929190505050610b6d565b6040518082815260200191505060405180910390f35b34801561040c57600080fd5b506104396004803603602081101561042357600080fd5b8101908080359060200190929190505050610b8e565b6040518082815260200191505060405180910390f35b34801561045b57600080fd5b50610464610baf565b6040518080602001828103825283818151815260200191508051906020019080838360005b838110156104a4578082015181840152602081019050610489565b50505050905090810190601f1680156104d15780820380516001836020036101000a031916815260200191505b509250505060405180910390f35b3480156104eb57600080fd5b506104f4610c4d565b6040518082815260200191505060405180910390f35b34801561051657600080fd5b506105596004803603602081101561052d57600080fd5b81019080803573ffffffffffffffffffffffffffffffffffffffff169060200190929190505050610c53565b005b34801561056757600080fd5b50610570610d83565b6040518080602001828103825283818151815260200191508051906020019060200280838360005b838110156105b3578082015181840152602081019050610598565b505050509050019250505060405180910390f35b3480156105d357600080fd5b506105dc610ddb565b604051808273ffffffffffffffffffffffffffffffffffffffff16815260200191505060405180910390f35b34801561061457600080fd5b5061061d610dff565b6040518080602001828103825283818151815260200191508051906020019060200280838360005b83811015610660578082015181840152602081019050610645565b505050509050019250505060405180910390f35b6106ca6004803603606081101561068a57600080fd5b81019080803573ffffffffffffffffffffffffffffffffffffffff1690602001909291908035906020019092919080359060200190929190505050610e57565b6040518080602001828103825283818151815260200191508051906020019060200280838360005b8381101561070d5780820151818401526020810190506106f2565b505050509050019250505060405180910390f35b34801561072d57600080fd5b506107366110b4565b6040518080602001828103825283818151815260200191508051906020019060200280838360005b8381101561077957808201518184015260208101905061075e565b505050509050019250505060405180910390f35b34801561079957600080fd5b506107a261110c565b6040518082815260200191505060405180910390f35b600a81815481106107c557fe5b906000526020600020016000915090505481565b60055481565b60075481565b806000806101000a81548173ffffffffffffffffffffffffffffffffffffffff021916908373ffffffffffffffffffffffffffffffffffffffff16021790555050565b600654421061089f576040517f08c379a00000000000000000000000000000000000000000000000000000000081526004018080602001828103825260158152602001807f7468652063616d706169676e20697320636c6f7365000000000000000000000081525060200191505060405180910390fd5b8273ffffffffffffffffffffffffffffffffffffffff16600982815481106108c357fe5b9060005260206000200160009054906101000a900473ffffffffffffffffffffffffffffffffffffffff1673ffffffffffffffffffffffffffffffffffffffff1614610977576040517f08c379a00000000000000000000000000000000000000000000000000000000081526004018080602001828103825260148152602001807f796f75206172656e277420746865206f776e657200000000000000000000000081525060200191505060405180910390fd5b60006009828154811061098657fe5b9060005260206000200160006101000a81548173ffffffffffffffffffffffffffffffffffffffff021916908373ffffffffffffffffffffffffffffffffffffffff1602179055508273ffffffffffffffffffffffffffffffffffffffff166108fc600484815481106109f557fe5b90600052602060002001549081150290604051600060405180830381858888f19350505050158015610a2b573d6000803e3d6000fd5b50505050565b600b8054600181600116156101000203166002900480601f016020809104026020016040519081016040528092919081815260200182805460018160011615610100020316600290048015610ac75780601f10610a9c57610100808354040283529160200191610ac7565b820191906000526020600020905b815481529060010190602001808311610aaa57829003601f168201915b505050505081565b60088054600181600116156101000203166002900480601f016020809104026020016040519081016040528092919081815260200182805460018160011615610100020316600290048015610b655780601f10610b3a57610100808354040283529160200191610b65565b820191906000526020600020905b815481529060010190602001808311610b4857829003601f168201915b505050505081565b60048181548110610b7a57fe5b906000526020600020016000915090505481565b60028181548110610b9b57fe5b906000526020600020016000915090505481565b60038054600181600116156101000203166002900480601f016020809104026020016040519081016040528092919081815260200182805460018160011615610100020316600290048015610c455780601f10610c1a57610100808354040283529160200191610c45565b820191906000526020600020905b815481529060010190602001808311610c2857829003601f168201915b505050505081565b60015481565b60008054906101000a900473ffffffffffffffffffffffffffffffffffffffff1673ffffffffffffffffffffffffffffffffffffffff163373ffffffffffffffffffffffffffffffffffffffff1614610cab57600080fd5b6006544211610d22576040517f08c379a000000000000000000000000000000000000000000000000000000000815260040180806020018281038252601b8152602001807f7468652063616d706169676e20686176656e277420636c6f736564000000000081525060200191505060405180910390fd5b8073ffffffffffffffffffffffffffffffffffffffff166108fc3073ffffffffffffffffffffffffffffffffffffffff16319081150290604051600060405180830381858888f19350505050158015610d7f573d6000803e3d6000fd5b5050565b6060600a805480602002602001604051908101604052809291908181526020018280548015610dd157602002820191906000526020600020905b815481526020019060010190808311610dbd575b5050505050905090565b60008054906101000a900473ffffffffffffffffffffffffffffffffffffffff1681565b60606004805480602002602001604051908101604052809291908181526020018280548015610e4d57602002820191906000526020600020905b815481526020019060010190808311610e39575b5050505050905090565b606060008367ffffffffffffffff81118015610e7257600080fd5b50604051908082528060200260200182016040528015610ea15781602001602082028036833780820191505090505b50915060005b60028481548110610eb457fe5b90600052602060002001548110156110ab578482101561109e576000805b85811215610f035760028181548110610ee757fe5b9060005260206000200154820191508080600101915050610ed2565b508181019050600060098281548110610f1857fe5b9060005260206000200160009054906101000a900473ffffffffffffffffffffffffffffffffffffffff169050600073ffffffffffffffffffffffffffffffffffffffff168173ffffffffffffffffffffffffffffffffffffffff16148015610f98575086600a8781548110610f8a57fe5b906000526020600020015410155b1561109b578760098381548110610fab57fe5b9060005260206000200160006101000a81548173ffffffffffffffffffffffffffffffffffffffff021916908373ffffffffffffffffffffffffffffffffffffffff1602179055503073ffffffffffffffffffffffffffffffffffffffff166108fc6004888154811061101a57fe5b90600052602060002001549081150290604051600060405180830381858888f19350505050158015611050573d6000803e3d6000fd5b50600a868154811061105e57fe5b9060005260206000200160008154809291906001900391905055508185858151811061108657fe5b60200260200101818152505083806001019450505b50505b8080600101915050610ea7565b50509392505050565b6060600280548060200260200160405190810160405280929190818152602001828054801561110257602002820191906000526020600020905b8154815260200190600101908083116110ee575b5050505050905090565b6006548156fea264697066735822122089123e30943988155d50698aa03a74721209e3fda0a8c9abd1aafaa485a26bc264736f6c63430007000033a26469706673582212209de9b3c8430f88acda4cdefa50b8e7a3123a0ded9082399b965c12d03fa199a664736f6c63430007000033608060405234801561001057600080fd5b50611ea1806100206000396000f3fe608060405234801561001057600080fd5b50600436106100bb576000357c01000000000000000000000000000000000000000000000000000000009004806355c9771e1161008357806355c9771e1461036d5780638c0b28aa146103d1578063bf9cfa8114610435578063e0ac7f77146104ad578063e2a6840f14610525576100bb565b806302639df8146100c05780631159e490146101e95780631c36094d1461024d578063421b2d8b146102c55780635009771314610309575b600080fd5b610102600480360360208110156100d657600080fd5b81019080803573ffffffffffffffffffffffffffffffffffffffff1690602001909291905050506105be565b60405180806020018060200180602001848103845287818151815260200191508051906020019060200280838360005b8381101561014d578082015181840152602081019050610132565b50505050905001848103835286818151815260200191508051906020019060200280838360005b8381101561018f578082015181840152602081019050610174565b50505050905001848103825285818151815260200191508051906020019060200280838360005b838110156101d15780820151818401526020810190506101b6565b50505050905001965050505050505060405180910390f35b610235600480360360408110156101ff57600080fd5b81019080803573ffffffffffffffffffffffffffffffffffffffff16906020019092919080359060200190929190505050610b1b565b60405180821515815260200191505060405180910390f35b6102c36004803603608081101561026357600080fd5b81019080803573ffffffffffffffffffffffffffffffffffffffff169060200190929190803573ffffffffffffffffffffffffffffffffffffffff1690602001909291908035906020019092919080359060200190929190505050610b8c565b005b610307600480360360208110156102db57600080fd5b81019080803573ffffffffffffffffffffffffffffffffffffffff169060200190929190505050610f3a565b005b61036b6004803603604081101561031f57600080fd5b81019080803573ffffffffffffffffffffffffffffffffffffffff169060200190929190803573ffffffffffffffffffffffffffffffffffffffff16906020019092919050505061102e565b005b6103b96004803603604081101561038357600080fd5b81019080803573ffffffffffffffffffffffffffffffffffffffff1690602001909291908035906020019092919050505061119a565b60405180821515815260200191505060405180910390f35b610433600480360360408110156103e757600080fd5b81019080803573ffffffffffffffffffffffffffffffffffffffff169060200190929190803573ffffffffffffffffffffffffffffffffffffffff16906020019092919050505061120f565b005b6104ab6004803603608081101561044b57600080fd5b81019080803573ffffffffffffffffffffffffffffffffffffffff169060200190929190803573ffffffffffffffffffffffffffffffffffffffff169060200190929190803590602001909291908035906020019092919050505061148f565b005b610523600480360360808110156104c357600080fd5b81019080803573ffffffffffffffffffffffffffffffffffffffff169060200190929190803573ffffffffffffffffffffffffffffffffffffffff169060200190929190803590602001909291908035906020019092919050505061183d565b005b6105676004803603602081101561053b57600080fd5b81019080803573ffffffffffffffffffffffffffffffffffffffff169060200190929190505050611ae3565b6040518080602001828103825283818151815260200191508051906020019060200280838360005b838110156105aa57808201518184015260208101905061058f565b505050509050019250505060405180910390f35b6060806060600160008573ffffffffffffffffffffffffffffffffffffffff1673ffffffffffffffffffffffffffffffffffffffff16815260200190815260200160002060009054906101000a900460ff16610709576060600067ffffffffffffffff8111801561062e57600080fd5b5060405190808252806020026020018201604052801561065d5781602001602082028036833780820191505090505b5090506060600067ffffffffffffffff8111801561067a57600080fd5b506040519080825280602002602001820160405280156106a95781602001602082028036833780820191505090505b5090506060600067ffffffffffffffff811180156106c657600080fd5b506040519080825280602002602001820160405280156106f55781602001602082028036833780820191505090505b509050828282955095509550505050610b14565b600060606000808773ffffffffffffffffffffffffffffffffffffffff1673ffffffffffffffffffffffffffffffffffffffff1681526020019081526020016000206001015467ffffffffffffffff8111801561076557600080fd5b506040519080825280602002602001820160405280156107945781602001602082028036833780820191505090505b50905060005b6000808873ffffffffffffffffffffffffffffffffffffffff1673ffffffffffffffffffffffffffffffffffffffff16815260200190815260200160002060010154811015610821576107ed878261119a565b1561081457808284815181106107ff57fe5b60200260200101818152505082806001019350505b808060010191505061079a565b5060608267ffffffffffffffff8111801561083b57600080fd5b5060405190808252806020026020018201604052801561086a5781602001602082028036833780820191505090505b50905060608367ffffffffffffffff8111801561088657600080fd5b506040519080825280602002602001820160405280156108b55781602001602082028036833780820191505090505b50905060608467ffffffffffffffff811180156108d157600080fd5b506040519080825280602002602001820160405280156109005781602001602082028036833780820191505090505b50905060005b85811015610b04576000808b73ffffffffffffffffffffffffffffffffffffffff1673ffffffffffffffffffffffffffffffffffffffff16815260200190815260200160002060030185828151811061095b57fe5b60200260200101518154811061096d57fe5b906000526020600020906004020160000160009054906101000a900473ffffffffffffffffffffffffffffffffffffffff168482815181106109ab57fe5b602002602001019073ffffffffffffffffffffffffffffffffffffffff16908173ffffffffffffffffffffffffffffffffffffffff16815250506000808b73ffffffffffffffffffffffffffffffffffffffff1673ffffffffffffffffffffffffffffffffffffffff168152602001908152602001600020600301858281518110610a3257fe5b602002602001015181548110610a4457fe5b906000526020600020906004020160020154838281518110610a6257fe5b6020026020010181815250506000808b73ffffffffffffffffffffffffffffffffffffffff1673ffffffffffffffffffffffffffffffffffffffff168152602001908152602001600020600301858281518110610abb57fe5b602002602001015181548110610acd57fe5b906000526020600020906004020160010154828281518110610aeb57fe5b6020026020010181815250508080600101915050610906565b5082828297509750975050505050505b9193909250565b60008060008473ffffffffffffffffffffffffffffffffffffffff1673ffffffffffffffffffffffffffffffffffffffff1681526020019081526020016000206004018281548110610b6957fe5b9060005260206000200160000160149054906101000a900460ff16905092915050565b60005b6000808673ffffffffffffffffffffffffffffffffffffffff1673ffffffffffffffffffffffffffffffffffffffff16815260200190815260200160002060010154811015610ecb57610be2858261119a565b15610ebe578373ffffffffffffffffffffffffffffffffffffffff166000808773ffffffffffffffffffffffffffffffffffffffff1673ffffffffffffffffffffffffffffffffffffffff1681526020019081526020016000206003018281548110610c4a57fe5b906000526020600020906004020160000160009054906101000a900473ffffffffffffffffffffffffffffffffffffffff1673ffffffffffffffffffffffffffffffffffffffff16148015610cfb5750826000808773ffffffffffffffffffffffffffffffffffffffff1673ffffffffffffffffffffffffffffffffffffffff1681526020019081526020016000206003018281548110610ce757fe5b906000526020600020906004020160020154145b8015610d635750816000808773ffffffffffffffffffffffffffffffffffffffff1673ffffffffffffffffffffffffffffffffffffffff1681526020019081526020016000206003018281548110610d4f57fe5b906000526020600020906004020160010154145b15610ebd5760008060008773ffffffffffffffffffffffffffffffffffffffff1673ffffffffffffffffffffffffffffffffffffffff1681526020019081526020016000206003018281548110610db657fe5b906000526020600020906004020160030160006101000a81548160ff02191690831515021790555060016000808773ffffffffffffffffffffffffffffffffffffffff1673ffffffffffffffffffffffffffffffffffffffff1681526020019081526020016000206003018281548110610e2c57fe5b906000526020600020906004020160030160016101000a81548160ff0219169083151502179055507f6df0beb3a3c5b58027a344a5ac5242946bde7ea999f6be47346ced77480e7a3f6040518080602001828103825260078152602001807f737563636573730000000000000000000000000000000000000000000000000081525060200191505060405180910390a15b5b8080600101915050610b8f565b507f6df0beb3a3c5b58027a344a5ac5242946bde7ea999f6be47346ced77480e7a3f6040518080602001828103825260178152602001807f63616e2774206e6f742066696e642063616d706169676e00000000000000000081525060200191505060405180910390a150505050565b60008060008373ffffffffffffffffffffffffffffffffffffffff1673ffffffffffffffffffffffffffffffffffffffff1681526020019081526020016000209050818160000160006101000a81548173ffffffffffffffffffffffffffffffffffffffff021916908373ffffffffffffffffffffffffffffffffffffffff160217905550600081600101819055506000816002018190555060018060008473ffffffffffffffffffffffffffffffffffffffff1673ffffffffffffffffffffffffffffffffffffffff16815260200190815260200160002060006101000a81548160ff0219169083151502179055505050565b60008060008473ffffffffffffffffffffffffffffffffffffffff1673ffffffffffffffffffffffffffffffffffffffff16815260200190815260200160002060050160008373ffffffffffffffffffffffffffffffffffffffff1673ffffffffffffffffffffffffffffffffffffffff16815260200190815260200160002054905060008060008573ffffffffffffffffffffffffffffffffffffffff1673ffffffffffffffffffffffffffffffffffffffff16815260200190815260200160002060040182815481106110ff57fe5b9060005260206000200160000160146101000a81548160ff02191690831515021790555060016000808573ffffffffffffffffffffffffffffffffffffffff1673ffffffffffffffffffffffffffffffffffffffff168152602001908152602001600020600401828154811061117157fe5b9060005260206000200160000160156101000a81548160ff021916908315150217905550505050565b60008060008473ffffffffffffffffffffffffffffffffffffffff1673ffffffffffffffffffffffffffffffffffffffff16815260200190815260200160002060030182815481106111e857fe5b906000526020600020906004020160030160009054906101000a900460ff16905092915050565b600160008373ffffffffffffffffffffffffffffffffffffffff1673ffffffffffffffffffffffffffffffffffffffff16815260200190815260200160002060009054906101000a900460ff1661126a5761126982610f3a565b5b611272611de7565b60405180606001604052808373ffffffffffffffffffffffffffffffffffffffff1681526020016001151581526020016000151581525090506000808473ffffffffffffffffffffffffffffffffffffffff1673ffffffffffffffffffffffffffffffffffffffff168152602001908152602001600020600401819080600181540180825580915050600190039060005260206000200160009091909190915060008201518160000160006101000a81548173ffffffffffffffffffffffffffffffffffffffff021916908373ffffffffffffffffffffffffffffffffffffffff16021790555060208201518160000160146101000a81548160ff02191690831515021790555060408201518160000160156101000a81548160ff021916908315150217905550505060016000808573ffffffffffffffffffffffffffffffffffffffff1673ffffffffffffffffffffffffffffffffffffffff16815260200190815260200160002060020160008282540192505081905550600060016000808673ffffffffffffffffffffffffffffffffffffffff1673ffffffffffffffffffffffffffffffffffffffff168152602001908152602001600020600201540390507f508c42a45ed681f228fada128f1f328687945ba78e5b0d518725e2e6c55c5eb48382604051808373ffffffffffffffffffffffffffffffffffffffff1681526020018281526020019250505060405180910390a150505050565b60005b6000808673ffffffffffffffffffffffffffffffffffffffff1673ffffffffffffffffffffffffffffffffffffffff168152602001908152602001600020600101548110156117ce576114e5858261119a565b156117c1578373ffffffffffffffffffffffffffffffffffffffff166000808773ffffffffffffffffffffffffffffffffffffffff1673ffffffffffffffffffffffffffffffffffffffff168152602001908152602001600020600301828154811061154d57fe5b906000526020600020906004020160000160009054906101000a900473ffffffffffffffffffffffffffffffffffffffff1673ffffffffffffffffffffffffffffffffffffffff161480156115fe5750826000808773ffffffffffffffffffffffffffffffffffffffff1673ffffffffffffffffffffffffffffffffffffffff16815260200190815260200160002060030182815481106115ea57fe5b906000526020600020906004020160020154145b80156116665750816000808773ffffffffffffffffffffffffffffffffffffffff1673ffffffffffffffffffffffffffffffffffffffff168152602001908152602001600020600301828154811061165257fe5b906000526020600020906004020160010154145b156117c05760008060008773ffffffffffffffffffffffffffffffffffffffff1673ffffffffffffffffffffffffffffffffffffffff16815260200190815260200160002060030182815481106116b957fe5b906000526020600020906004020160030160006101000a81548160ff02191690831515021790555060016000808773ffffffffffffffffffffffffffffffffffffffff1673ffffffffffffffffffffffffffffffffffffffff168152602001908152602001600020600301828154811061172f57fe5b906000526020600020906004020160030160016101000a81548160ff0219169083151502179055507fea3bbd66fbf5dbeed40042484a92c23715b61db35db84f6824156b9b27b8594e6040518080602001828103825260078152602001807f737563636573730000000000000000000000000000000000000000000000000081525060200191505060405180910390a15b5b8080600101915050611492565b507fea3bbd66fbf5dbeed40042484a92c23715b61db35db84f6824156b9b27b8594e6040518080602001828103825260158152602001807f63616e2774206e6f742066696e64207469636b6574000000000000000000000081525060200191505060405180910390a150505050565b600160008573ffffffffffffffffffffffffffffffffffffffff1673ffffffffffffffffffffffffffffffffffffffff16815260200190815260200160002060009054906101000a900460ff166118985761189784610f3a565b5b6118a0611e22565b6040518060a001604052808573ffffffffffffffffffffffffffffffffffffffff1681526020018481526020018381526020016001151581526020016000151581525090506000808673ffffffffffffffffffffffffffffffffffffffff1673ffffffffffffffffffffffffffffffffffffffff16815260200190815260200160002060030181908060018154018082558091505060019003906000526020600020906004020160009091909190915060008201518160000160006101000a81548173ffffffffffffffffffffffffffffffffffffffff021916908373ffffffffffffffffffffffffffffffffffffffff160217905550602082015181600101556040820151816002015560608201518160030160006101000a81548160ff02191690831515021790555060808201518160030160016101000a81548160ff021916908315150217905550505060016000808773ffffffffffffffffffffffffffffffffffffffff1673ffffffffffffffffffffffffffffffffffffffff16815260200190815260200160002060010160008282540192505081905550600060016000808873ffffffffffffffffffffffffffffffffffffffff1673ffffffffffffffffffffffffffffffffffffffff168152602001908152602001600020600101540390507f0568a016a6e4a910fd01a860b9afacec51e80a659ec04e7464edd0933f9c13758582604051808373ffffffffffffffffffffffffffffffffffffffff1681526020018281526020019250505060405180910390a1505050505050565b6060600160008373ffffffffffffffffffffffffffffffffffffffff1673ffffffffffffffffffffffffffffffffffffffff16815260200190815260200160002060009054906101000a900460ff16611b8b576060600067ffffffffffffffff81118015611b5057600080fd5b50604051908082528060200260200182016040528015611b7f5781602001602082028036833780820191505090505b50905080915050611de2565b600060606000808573ffffffffffffffffffffffffffffffffffffffff1673ffffffffffffffffffffffffffffffffffffffff1681526020019081526020016000206002015467ffffffffffffffff81118015611be757600080fd5b50604051908082528060200260200182016040528015611c165781602001602082028036833780820191505090505b50905060005b6000808673ffffffffffffffffffffffffffffffffffffffff1673ffffffffffffffffffffffffffffffffffffffff16815260200190815260200160002060020154811015611ca357611c6f8582610b1b565b15611c965780828481518110611c8157fe5b60200260200101818152505082806001019350505b8080600101915050611c1c565b5060608267ffffffffffffffff81118015611cbd57600080fd5b50604051908082528060200260200182016040528015611cec5781602001602082028036833780820191505090505b50905060005b83811015611dda576000808773ffffffffffffffffffffffffffffffffffffffff1673ffffffffffffffffffffffffffffffffffffffff168152602001908152602001600020600401838281518110611d4757fe5b602002602001015181548110611d5957fe5b9060005260206000200160000160009054906101000a900473ffffffffffffffffffffffffffffffffffffffff16828281518110611d9357fe5b602002602001019073ffffffffffffffffffffffffffffffffffffffff16908173ffffffffffffffffffffffffffffffffffffffff16815250508080600101915050611cf2565b508093505050505b919050565b6040518060600160405280600073ffffffffffffffffffffffffffffffffffffffff1681526020016000151581526020016000151581525090565b6040518060a00160405280600073ffffffffffffffffffffffffffffffffffffffff1681526020016000815260200160008152602001600015158152602001600015158152509056fea2646970667358221220db3a6b2d44663d6c84f8a7b574409bbba8460e9b4b01babec8128a2bc8e9210e64736f6c63430007000033",
  "immutableReferences": {},
  "source": "pragma solidity >=0.7.0;\r\n\r\n// using SafeMath for uint256\r\n\r\ncontract Campaign {\r\n    address public owner;\r\n    uint256 public levels;\r\n    uint256[] public seats;\r\n    string public campaign_name;\r\n    uint256[] public price;\r\n    uint256 public campaign_start_time;\r\n    uint256 public campaign_end_time;\r\n    uint256 public start_sell_time;\r\n    string public abstraction;\r\n    address[] seat_owner;\r\n    uint256[] public remain;\r\n    string public link; \r\n\r\n    constructor(\r\n        string memory _link,\r\n        // address user,\r\n        string memory _campaign_name,\r\n        uint256 _levels,\r\n        uint256[] memory _seats,\r\n        uint256[] memory _price,\r\n        uint256 _campaign_start_time,\r\n        uint256 _campaign_end_time,\r\n        uint256 _start_sell_time,\r\n        string memory _abstraction\r\n    ) public {\r\n        // owner = user;\r\n        levels = _levels;\r\n        uint256 total_seats = 0;\r\n        for (uint256 i = 0; i < levels; i++) {\r\n            seats.push(_seats[i]);\r\n            price.push(_price[i]);\r\n            total_seats += _seats[i];\r\n            remain.push(_seats[i]);\r\n        }\r\n        link = _link;\r\n        campaign_name = _campaign_name;\r\n        campaign_start_time = _campaign_start_time;\r\n        campaign_end_time = _campaign_end_time;\r\n        start_sell_time = _start_sell_time;\r\n        abstraction = _abstraction;\r\n        seat_owner = new address[](total_seats);\r\n\r\n    }\r\n\r\n    modifier restricted() {\r\n        require(msg.sender == owner);\r\n        _;\r\n    }\r\n\r\n    function setOwner(address user) public {\r\n        owner = user;\r\n    }\r\n\r\n    function getSeats() public view returns(uint256[] memory) {\r\n        return seats;\r\n    } \r\n\r\n    function getPrice() public view returns(uint256[] memory) {\r\n        return price;\r\n    } \r\n\r\n    function getRemain() public view returns(uint256[] memory) {\r\n        return remain;\r\n    } \r\n\r\n    function buy(address user,uint256 amount, uint256 level)\r\n        public\r\n        payable\r\n        returns (uint256[] memory seat_num)\r\n    {\r\n        uint256 j = 0;\r\n        // uint k=0;\r\n        seat_num = new uint256[](amount);\r\n        for (uint256 i = 0; i < seats[level]; i++) {\r\n            if (j < amount) {\r\n                uint256 num = 0;\r\n                for (int256 k = 0; k < int(level); k++ ){\r\n                    num = num + seats[uint256(k)];\r\n                }\r\n                num += i;\r\n                address temp = seat_owner[num];\r\n                if (temp == address(0x00) && remain[level] >= amount) {\r\n                    seat_owner[num] = user;\r\n                    // address(this).call{value: price[level]}(\"\");\r\n                    // uint256 cost = (price[level]);\r\n                    address(this).transfer(price[level]);\r\n                    remain[level]--;\r\n                    seat_num[j] = num;\r\n                    j++;\r\n                }\r\n            }\r\n        }\r\n    }\r\n\r\n    function withdraw(address payable user) public restricted {\r\n        require ( block.timestamp > campaign_end_time, \"the campaign haven't closed\");\r\n        // if (block.timestamp > campaign_end_time) {\r\n            // msg.sender.call{value: address(this).balance}(\"\");\r\n        user.transfer(address(this).balance);\r\n        // }\r\n    }\r\n\r\n    function refund(address payable user, uint256 level, uint256 seat_num) public {\r\n        require ( block.timestamp < campaign_end_time, \"the campaign is close\");\r\n        require ( seat_owner[seat_num] == user, \"you aren't the owner\");\r\n        // if (block.timestamp < campaign_end_time) {\r\n        //     if (seat_owner[seat_num]!=address(0x0)){\r\n        seat_owner[seat_num]=address(0x0);\r\n        user.transfer(price[level]);\r\n            // }\r\n        // }\r\n    }\r\n\r\n    receive() external payable {}\r\n}\r\n\r\ncontract Server {\r\n    struct server_campaign {\r\n        address payable campaign;\r\n        bool isvalid;\r\n    }\r\n\r\n    event OnAddUser(string message, address user_address);\r\n    event OnGetCampaigns(address payable[] campaigns);\r\n    event OnAddCampaign(string message);\r\n    event OnBuyTicket(string message);\r\n\r\n    server_campaign[] public campaigns;\r\n    address public users_address;\r\n\r\n    constructor() public{\r\n        users_address = address(new Users());\r\n    }\r\n\r\n    function callServer(string memory i) public pure returns (string memory) {\r\n        return (i);\r\n    }\r\n\r\n    function addCampaign(\r\n        string memory _link,\r\n        string memory _campaign_name,\r\n        uint256 _levels,\r\n        uint256[] memory _seats,\r\n        uint256[] memory _price,\r\n        uint256 _campaign_start_time,\r\n        uint256 _campaign_end_time,\r\n        uint256 _start_sell_time,\r\n        string memory _abstraction\r\n    ) public  {\r\n        address payable campaign_address =\r\n            address(\r\n                new Campaign(\r\n                    _link,\r\n                    // msg.sender,\r\n                    _campaign_name,\r\n                    _levels,\r\n                    _seats,\r\n                    _price,\r\n                    _campaign_start_time,\r\n                    _campaign_end_time,\r\n                    _start_sell_time,\r\n                    _abstraction\r\n                )\r\n            );\r\n        Campaign(campaign_address).setOwner(msg.sender);\r\n        campaigns.push(server_campaign(campaign_address, true));\r\n        Users users = Users(users_address);\r\n        users.addCampaign(address(msg.sender), campaign_address);\r\n        string memory message = \"success\";\r\n        emit OnAddCampaign(message);\r\n    }\r\n\r\n    function viewCampaign(address payable campaign_address)\r\n        public\r\n        view\r\n        returns (\r\n            // string memory link,\r\n            uint256[] memory seats,\r\n            string memory campaign_name,\r\n            uint256[] memory price,\r\n            uint256 campaign_start_time,\r\n            uint256 campaign_end_time,\r\n            uint256 start_sell_time,\r\n            string memory abstraction,\r\n            uint256[] memory remain\r\n        )\r\n    {\r\n        Campaign currentCampaign = Campaign(campaign_address);\r\n        campaign_name = currentCampaign.campaign_name();\r\n        seats = currentCampaign.getSeats();\r\n        price = currentCampaign.getPrice();\r\n        campaign_start_time = currentCampaign.campaign_start_time();\r\n        campaign_end_time = currentCampaign.campaign_end_time();\r\n        start_sell_time = currentCampaign.start_sell_time();\r\n        abstraction = currentCampaign.abstraction();\r\n        remain = currentCampaign.getRemain();\r\n        // link = currentCampaign.link();\r\n        \r\n    }\r\n\r\n    function viewCampaign2(address payable campaign_address) \r\n        public view \r\n        returns(string memory link)\r\n    {\r\n        link = Campaign(campaign_address).link();\r\n    }\r\n\r\n    function getUserTickets()\r\n        public\r\n        view\r\n        returns (address[] memory , uint256[] memory , uint256[] memory)\r\n    {\r\n        Users users = Users(users_address);\r\n        return users.ViewTickets(address(msg.sender));\r\n    }\r\n\r\n    function getUserCampaigns()\r\n        public\r\n        view\r\n        returns (address[] memory u_campaigns)\r\n    {\r\n        Users users = Users(users_address);\r\n        return users.ViewCampaigns(address(msg.sender));\r\n    }\r\n\r\n    function getCampaigns() public view returns (address[] memory ) {\r\n        uint256 num = 0;\r\n        for (uint256 i = 0; i < campaigns.length; i++) {\r\n            if (campaigns[i].isvalid) {\r\n                if (\r\n                    Campaign(campaigns[i].campaign).campaign_end_time() >\r\n                    block.timestamp\r\n                ) {\r\n                    num++;\r\n                }\r\n            }\r\n        }\r\n        address [] memory c = new address [](num);\r\n        uint256 j = 0;\r\n        for (uint256 i = 0; i < campaigns.length; i++) {\r\n            if (campaigns[i].isvalid) {\r\n                if (\r\n                    Campaign(campaigns[i].campaign).campaign_end_time() >\r\n                    block.timestamp\r\n                ) {\r\n                    c[j] = address(campaigns[i].campaign);\r\n                    j++;\r\n                }\r\n            }\r\n        }\r\n        return c;\r\n    }\r\n\r\n    function buyTicket(address payable campaign_address, uint256 amount, uint256 level) public payable  {\r\n        uint256[] memory seat_num;\r\n        string memory message;\r\n        Users users = Users(users_address);\r\n        Campaign c = Campaign(campaign_address);\r\n        if (c.remain(level) >= amount) {\r\n            seat_num = c.buy{value: msg.value}(address(msg.sender), amount, level);\r\n        } else {\r\n            message = \"fail\";\r\n            emit OnBuyTicket(message);\r\n        }\r\n        for (uint256 i = 0; i < seat_num.length; i++) {\r\n            users.addTicket(address(msg.sender), campaign_address, seat_num[i], level);\r\n        }\r\n        message = \"success\";\r\n        emit OnBuyTicket(message);\r\n    }\r\n\r\n    function withdraw(address payable campaign_address) public {\r\n        Campaign(campaign_address).withdraw(msg.sender); \r\n    }\r\n\r\n    function completeTicket(address payable campaign_address, uint256 level, uint256 seat_num) public {\r\n        Users(users_address).CompleteTicket(msg.sender, campaign_address, level, seat_num);\r\n    }\r\n\r\n    function refund(address payable campaign_address, uint256 level, uint256 seat_num) public {\r\n        Campaign(campaign_address).refund(msg.sender, level, seat_num); \r\n        Users(users_address).RefundTicket(msg.sender, campaign_address, level, seat_num);\r\n    }\r\n\r\n    receive() external payable {}\r\n}\r\n\r\npragma solidity >=0.7.0;\r\n\r\ncontract Users {\r\n    event OnAddCampaign(address capmaign_addr, uint256 Id);\r\n    event OnAddTicket(address attend_addr, uint256 Id);\r\n    event OnCompleteCampaign(address capmaign_addr, uint256 Id);\r\n    event OnCompleteTicket(string message);\r\n    event OnRefundTicket(string message);\r\n\r\n    mapping (address => User) addr_to_U;\r\n    mapping (address => bool) usr_addr_valid;\r\n\r\n    struct User {\r\n        address user_addr;\r\n        uint256 amount_tickets;\r\n        uint256 amount_campaigns;\r\n        OwnTicket[] tickets;\r\n        OwnCampaign[] campaigns;\r\n        mapping(address => uint256) campaign_addr_to_id;\r\n        mapping(address => uint256) ticket_addr_to_id;\r\n    }\r\n    struct OwnTicket {\r\n        address attend_address;\r\n        uint256 seat;\r\n        uint256 level;\r\n        bool isValid;\r\n        bool isEnd;\r\n    }\r\n     struct OwnCampaign {\r\n        address payable campaign_address;\r\n        bool isValid;\r\n        bool isEnd;\r\n    }\r\n\r\n    /*\r\n    require(msg.sender == server); may be changed\r\n    only server has the right to access user.sol\r\n    */\r\n    modifier isUserValid() {\r\n        require(usr_addr_valid[msg.sender], \"This user does not exist\");\r\n        _;\r\n    }\r\n\r\n    modifier isOwner(address user_addr) {\r\n        require(msg.sender == user_addr);\r\n        _;\r\n    }\r\n\r\n    modifier isValidSignup(address user_addr) {\r\n    require(usr_addr_valid[user_addr], \"Already exists\");\r\n    _;\r\n    }\r\n\r\n    function isValidCampaign(address user, uint256 _campaignId) \r\n        public \r\n        view \r\n        returns(bool)\r\n    {\r\n        return addr_to_U[user].campaigns[_campaignId].isValid;\r\n    }\r\n\r\n    function isValidTicket(address user, uint256 _ticketId) \r\n        public \r\n        view \r\n        returns(bool)      \r\n    {\r\n        return addr_to_U[user].tickets[_ticketId].isValid;\r\n    }\r\n\r\n    function addUser(address user_addr)\r\n        public\r\n        // isValidSignup(msg.sender)\r\n    {\r\n        User storage user = addr_to_U[user_addr];\r\n        user.user_addr = user_addr;\r\n        user.amount_tickets = 0;\r\n        user.amount_campaigns = 0;\r\n\r\n        usr_addr_valid[user_addr] = true;\r\n    }\r\n    \r\n    function addCampaign(address user, address payable _campaign_address) \r\n        public \r\n    {\r\n        if (!usr_addr_valid[user]){\r\n            addUser(user);\r\n        }\r\n        OwnCampaign memory campaign =\r\n            OwnCampaign(_campaign_address, true, false);\r\n        addr_to_U[user].campaigns.push(campaign);\r\n        addr_to_U[user].amount_campaigns += 1;\r\n        uint256 Id = addr_to_U[user].amount_campaigns - 1;\r\n\r\n        emit OnAddCampaign(_campaign_address, Id);\r\n    }\r\n\r\n    // if more than one ticket is bought for a single campaign, just call iot several times\r\n    function addTicket(address user, address payable _ticket_address, uint256 seat, uint256 level) \r\n        public \r\n    {\r\n        if (!usr_addr_valid[user]){\r\n            addUser(user);\r\n        }\r\n        OwnTicket memory ticket =\r\n            OwnTicket(_ticket_address, seat, level, true, false);\r\n        addr_to_U[user].tickets.push(ticket);\r\n        addr_to_U[user].amount_tickets += 1;\r\n        uint256 Id = addr_to_U[user].amount_tickets - 1;\r\n\r\n        emit OnAddTicket(_ticket_address, Id);\r\n    }\r\n\r\n    function ViewCampaigns(address user) \r\n        public \r\n        view \r\n        // isUserValid(user_addr)\r\n        returns (address[] memory)\r\n    {\r\n        if (!usr_addr_valid[user]){\r\n            address[] memory tmp = new address[](0);\r\n            return tmp;\r\n        }\r\n        uint256 len = 0;\r\n        uint256[] memory count_to_id = new uint256[](addr_to_U[user].amount_campaigns);\r\n        for (uint256 id = 0; id < addr_to_U[user].amount_campaigns; id++) {\r\n            if (isValidCampaign(user, id)) {\r\n                count_to_id[len] = id;\r\n                len++;\r\n            }\r\n        }\r\n        address[] memory campaignList = new address[](len);\r\n        for (uint256 i = 0; i < len; i++) {\r\n            campaignList[i] = addr_to_U[user].campaigns[count_to_id[i]].campaign_address;\r\n        }\r\n        return campaignList;\r\n    }\r\n\r\n    function ViewTickets(address user) \r\n        public \r\n        view \r\n        // isUserValid(user_addr)\r\n        returns (address[] memory, uint256[] memory, uint256[] memory )\r\n    {\r\n        if (!usr_addr_valid[user]){\r\n            address[] memory tmp_a = new address[](0);\r\n            uint256[] memory tmp_l = new uint256[](0);\r\n            uint256[] memory tmp_s = new uint256[](0);\r\n            return (tmp_a, tmp_l, tmp_s);\r\n        }\r\n        uint256 len = 0;\r\n        uint256[] memory count_to_id = new uint256[](addr_to_U[user].amount_tickets);\r\n        for (uint256 id = 0; id < addr_to_U[user].amount_tickets; id++) {\r\n            if (isValidTicket(user, id)) {\r\n                count_to_id[len] = id;\r\n                len++;\r\n            }\r\n        }\r\n        address[] memory ticketList = new address[](len);\r\n        uint256[] memory ticketLevels = new uint256[](len);\r\n        uint256[] memory ticketSeats = new uint256[](len);\r\n        for (uint256 i = 0; i < len; i++) {\r\n            ticketList[i] = addr_to_U[user].tickets[count_to_id[i]].attend_address;\r\n            ticketLevels[i] = addr_to_U[user].tickets[count_to_id[i]].level;\r\n            ticketSeats[i] = addr_to_U[user].tickets[count_to_id[i]].seat;\r\n        }\r\n        return (ticketList, ticketLevels, ticketSeats);\r\n    }\r\n\r\n    function CompleteCampaign(address user, address _campaign_address) public \r\n    {\r\n        uint256 _id = addr_to_U[user].campaign_addr_to_id[_campaign_address];\r\n        addr_to_U[user].campaigns[_id].isValid = false;\r\n        addr_to_U[user].campaigns[_id].isEnd = true;\r\n    }\r\n\r\n    function CompleteTicket(address user, address _ticket_address, uint256 _level, uint256 _seat_num) public \r\n    {\r\n        for (uint256 id = 0; id < addr_to_U[user].amount_tickets; id++) {\r\n            if (isValidTicket(user, id)) {\r\n                if (addr_to_U[user].tickets[id].attend_address == _ticket_address &&\r\n                    addr_to_U[user].tickets[id].level == _level &&\r\n                    addr_to_U[user].tickets[id].seat == _seat_num){\r\n                        addr_to_U[user].tickets[id].isValid = false;\r\n                        addr_to_U[user].tickets[id].isEnd = true;\r\n                        emit OnCompleteTicket(\"success\");\r\n                    }\r\n            }\r\n        }\r\n        emit OnCompleteTicket(\"can't not find campaign\");\r\n    }\r\n\r\n    function RefundTicket(address user, address _ticket_address, uint256 _level, uint256 _seat_num) public \r\n    {\r\n        for (uint256 id = 0; id < addr_to_U[user].amount_tickets; id++) {\r\n            if (isValidTicket(user, id)) {\r\n                if (addr_to_U[user].tickets[id].attend_address == _ticket_address &&\r\n                    addr_to_U[user].tickets[id].level == _level &&\r\n                    addr_to_U[user].tickets[id].seat == _seat_num){\r\n                        addr_to_U[user].tickets[id].isValid = false;\r\n                        addr_to_U[user].tickets[id].isEnd = true;\r\n                        emit OnRefundTicket(\"success\");\r\n                    }\r\n            }\r\n        }\r\n        emit OnRefundTicket(\"can't not find ticket\");\r\n    }\r\n}",
  "sourcePath": "F:/109-1/Networking and Multinmedia(Lab)/deapp-final/ticket system/contracts/server.sol",
  "compiler": {
    "name": "solc",
    "version": "0.7.0+commit.9e61f92b.Emscripten.clang"
  },
  "schemaVersion": "3.3.2",
  "updatedAt": "2021-01-16T04:09:09.216Z",
  "networkType": "ethereum",
  "devdoc": {
    "kind": "dev",
    "methods": {},
    "version": 1
  },
  "userdoc": {
    "kind": "user",
    "methods": {},
    "version": 1
  }
}