{
  "contractName": "Server",
  "abi": [
    {
      "inputs": [],
      "stateMutability": "nonpayable",
      "type": "constructor"
    },
    {
      "anonymous": false,
      "inputs": [
        {
          "indexed": false,
          "internalType": "string",
          "name": "message",
          "type": "string"
        }
      ],
      "name": "OnAddCampaign",
      "type": "event"
    },
    {
      "anonymous": false,
      "inputs": [
        {
          "indexed": false,
          "internalType": "string",
          "name": "message",
          "type": "string"
        },
        {
          "indexed": false,
          "internalType": "address",
          "name": "user_address",
          "type": "address"
        }
      ],
      "name": "OnAddUser",
      "type": "event"
    },
    {
      "anonymous": false,
      "inputs": [
        {
          "indexed": false,
          "internalType": "string",
          "name": "message",
          "type": "string"
        }
      ],
      "name": "OnBuyTicket",
      "type": "event"
    },
    {
      "anonymous": false,
      "inputs": [
        {
          "indexed": false,
          "internalType": "address payable[]",
          "name": "campaigns",
          "type": "address[]"
        }
      ],
      "name": "OnGetCampaigns",
      "type": "event"
    },
    {
      "inputs": [
        {
          "internalType": "uint256",
          "name": "",
          "type": "uint256"
        }
      ],
      "name": "campaigns",
      "outputs": [
        {
          "internalType": "address payable",
          "name": "campaign",
          "type": "address"
        },
        {
          "internalType": "bool",
          "name": "isvalid",
          "type": "bool"
        }
      ],
      "stateMutability": "view",
      "type": "function",
      "constant": true
    },
    {
      "inputs": [],
      "name": "users_address",
      "outputs": [
        {
          "internalType": "address",
          "name": "",
          "type": "address"
        }
      ],
      "stateMutability": "view",
      "type": "function",
      "constant": true
    },
    {
      "stateMutability": "payable",
      "type": "receive",
      "payable": true
    },
    {
      "inputs": [
        {
          "internalType": "string",
          "name": "i",
          "type": "string"
        }
      ],
      "name": "callServer",
      "outputs": [
        {
          "internalType": "string",
          "name": "",
          "type": "string"
        }
      ],
      "stateMutability": "pure",
      "type": "function",
      "constant": true
    },
    {
      "inputs": [
        {
          "internalType": "string",
          "name": "_campaign_name",
          "type": "string"
        },
        {
          "internalType": "uint256",
          "name": "_levels",
          "type": "uint256"
        },
        {
          "internalType": "uint256[]",
          "name": "_seats",
          "type": "uint256[]"
        },
        {
          "internalType": "uint256[]",
          "name": "_price",
          "type": "uint256[]"
        },
        {
          "internalType": "uint256",
          "name": "_campaign_start_time",
          "type": "uint256"
        },
        {
          "internalType": "uint256",
          "name": "_campaign_end_time",
          "type": "uint256"
        },
        {
          "internalType": "uint256",
          "name": "_start_sell_time",
          "type": "uint256"
        },
        {
          "internalType": "string",
          "name": "_abstraction",
          "type": "string"
        }
      ],
      "name": "addCampaign",
      "outputs": [],
      "stateMutability": "nonpayable",
      "type": "function"
    },
    {
      "inputs": [
        {
          "internalType": "address payable",
          "name": "campaign_address",
          "type": "address"
        }
      ],
      "name": "viewCampaign",
      "outputs": [
        {
          "internalType": "uint256[]",
          "name": "seats",
          "type": "uint256[]"
        },
        {
          "internalType": "string",
          "name": "campaign_name",
          "type": "string"
        },
        {
          "internalType": "uint256[]",
          "name": "price",
          "type": "uint256[]"
        },
        {
          "internalType": "uint256",
          "name": "campaign_start_time",
          "type": "uint256"
        },
        {
          "internalType": "uint256",
          "name": "campaign_end_time",
          "type": "uint256"
        },
        {
          "internalType": "uint256",
          "name": "start_sell_time",
          "type": "uint256"
        },
        {
          "internalType": "string",
          "name": "abstraction",
          "type": "string"
        },
        {
          "internalType": "uint256[]",
          "name": "remain",
          "type": "uint256[]"
        }
      ],
      "stateMutability": "view",
      "type": "function",
      "constant": true
    },
    {
      "inputs": [],
      "name": "getUserTickets",
      "outputs": [
        {
          "internalType": "address[]",
          "name": "",
          "type": "address[]"
        },
        {
          "internalType": "uint256[]",
          "name": "",
          "type": "uint256[]"
        },
        {
          "internalType": "uint256[]",
          "name": "",
          "type": "uint256[]"
        }
      ],
      "stateMutability": "view",
      "type": "function",
      "constant": true
    },
    {
      "inputs": [],
      "name": "getUserCampaigns",
      "outputs": [
        {
          "internalType": "address[]",
          "name": "u_campaigns",
          "type": "address[]"
        }
      ],
      "stateMutability": "view",
      "type": "function",
      "constant": true
    },
    {
      "inputs": [],
      "name": "getCampaigns",
      "outputs": [
        {
          "internalType": "address[]",
          "name": "",
          "type": "address[]"
        }
      ],
      "stateMutability": "view",
      "type": "function",
      "constant": true
    },
    {
      "inputs": [
        {
          "internalType": "address payable",
          "name": "campaign_address",
          "type": "address"
        },
        {
          "internalType": "uint256",
          "name": "amount",
          "type": "uint256"
        },
        {
          "internalType": "uint256",
          "name": "level",
          "type": "uint256"
        }
      ],
      "name": "buyTicket",
      "outputs": [],
      "stateMutability": "payable",
      "type": "function",
      "payable": true
    },
    {
      "inputs": [
        {
          "internalType": "address payable",
          "name": "campaign_address",
          "type": "address"
        }
      ],
      "name": "withdraw",
      "outputs": [],
      "stateMutability": "nonpayable",
      "type": "function"
    },
    {
      "inputs": [
        {
          "internalType": "address payable",
          "name": "campaign_address",
          "type": "address"
        },
        {
          "internalType": "uint256",
          "name": "level",
          "type": "uint256"
        },
        {
          "internalType": "uint256",
          "name": "seat_num",
          "type": "uint256"
        }
      ],
      "name": "completeTicket",
      "outputs": [],
      "stateMutability": "nonpayable",
      "type": "function"
    },
    {
      "inputs": [
        {
          "internalType": "address payable",
          "name": "campaign_address",
          "type": "address"
        },
        {
          "internalType": "uint256",
          "name": "level",
          "type": "uint256"
        },
        {
          "internalType": "uint256",
          "name": "seat_num",
          "type": "uint256"
        }
      ],
      "name": "refund",
      "outputs": [],
      "stateMutability": "nonpayable",
      "type": "function"
    }
  ],
  "bytecode": "0x60806040523480156200001157600080fd5b50604051620000209062000084565b604051809103906000f0801580156200003d573d6000803e3d6000fd5b50600160006101000a81548173ffffffffffffffffffffffffffffffffffffffff021916908373ffffffffffffffffffffffffffffffffffffffff16021790555062000092565b611d5e8062003c4e83390190565b613bac80620000a26000396000f3fe608060405260043610620000d8576000357c01000000000000000000000000000000000000000000000000000000009004806351125335116200008a57806351125335146200074157806351cff8d9146200097457806353f9d2cf14620009c95780638abf38cc1462000a0d578063a6b036331462000a76578063e3e5c2b91462000ae757620000e0565b8063093c69ae14620000e55780630e274ae214620001ea578063141961bc146200025b57806318fd890314620002cd5780632ac8ba6714620003365780633e3b8557146200048157620000e0565b36620000e057005b600080fd5b348015620000f257600080fd5b50620000fd62000b42565b60405180806020018060200180602001848103845287818151815260200191508051906020019060200280838360005b838110156200014a5780820151818401526020810190506200012d565b50505050905001848103835286818151815260200191508051906020019060200280838360005b838110156200018e57808201518184015260208101905062000171565b50505050905001848103825285818151815260200191508051906020019060200280838360005b83811015620001d2578082015181840152602081019050620001b5565b50505050905001965050505050505060405180910390f35b348015620001f757600080fd5b506200020262000de9565b6040518080602001828103825283818151815260200191508051906020019060200280838360005b83811015620002475780820151818401526020810190506200022a565b505050509050019250505060405180910390f35b3480156200026857600080fd5b5062000298600480360360208110156200028157600080fd5b810190808035906020019092919050505062000f57565b604051808373ffffffffffffffffffffffffffffffffffffffff16815260200182151581526020019250505060405180910390f35b348015620002da57600080fd5b506200033460048036036060811015620002f357600080fd5b81019080803573ffffffffffffffffffffffffffffffffffffffff169060200190929190803590602001909291908035906020019092919050505062000fb2565b005b3480156200034357600080fd5b5062000403600480360360208110156200035c57600080fd5b81019080803590602001906401000000008111156200037a57600080fd5b8201836020820111156200038d57600080fd5b80359060200191846001830284011164010000000083111715620003b057600080fd5b91908080601f016020809104026020016040519081016040528093929190818152602001838380828437600081840152601f19601f82011690508083019250505050505050919291929050505062001119565b6040518080602001828103825283818151815260200191508051906020019080838360005b838110156200044557808201518184015260208101905062000428565b50505050905090810190601f168015620004735780820380516001836020036101000a031916815260200191505b509250505060405180910390f35b3480156200048e57600080fd5b506200073f6004803603610100811015620004a857600080fd5b8101908080359060200190640100000000811115620004c657600080fd5b820183602082011115620004d957600080fd5b80359060200191846001830284011164010000000083111715620004fc57600080fd5b91908080601f016020809104026020016040519081016040528093929190818152602001838380828437600081840152601f19601f82011690508083019250505050505050919291929080359060200190929190803590602001906401000000008111156200056a57600080fd5b8201836020820111156200057d57600080fd5b80359060200191846020830284011164010000000083111715620005a057600080fd5b919080806020026020016040519081016040528093929190818152602001838360200280828437600081840152601f19601f820116905080830192505050505050509192919290803590602001906401000000008111156200060157600080fd5b8201836020820111156200061457600080fd5b803590602001918460208302840111640100000000831117156200063757600080fd5b919080806020026020016040519081016040528093929190818152602001838360200280828437600081840152601f19601f82011690508083019250505050505050919291929080359060200190929190803590602001909291908035906020019092919080359060200190640100000000811115620006b657600080fd5b820183602082011115620006c957600080fd5b80359060200191846001830284011164010000000083111715620006ec57600080fd5b91908080601f016020809104026020016040519081016040528093929190818152602001838380828437600081840152601f19601f82011690508083019250505050505050919291929050505062001123565b005b3480156200074e57600080fd5b5062000794600480360360208110156200076757600080fd5b81019080803573ffffffffffffffffffffffffffffffffffffffff16906020019092919050505062001556565b60405180806020018060200180602001898152602001888152602001878152602001806020018060200186810386528e818151815260200191508051906020019060200280838360005b83811015620007fb578082015181840152602081019050620007de565b5050505090500186810385528d818151815260200191508051906020019080838360005b838110156200083c5780820151818401526020810190506200081f565b50505050905090810190601f1680156200086a5780820380516001836020036101000a031916815260200191505b5086810384528c818151815260200191508051906020019060200280838360005b83811015620008a85780820151818401526020810190506200088b565b50505050905001868103835288818151815260200191508051906020019080838360005b83811015620008e9578082015181840152602081019050620008cc565b50505050905090810190601f168015620009175780820380516001836020036101000a031916815260200191505b50868103825287818151815260200191508051906020019060200280838360005b838110156200095557808201518184015260208101905062000938565b505050509050019d505050505050505050505050505060405180910390f35b3480156200098157600080fd5b50620009c7600480360360208110156200099a57600080fd5b81019080803573ffffffffffffffffffffffffffffffffffffffff16906020019092919050505062001de9565b005b348015620009d657600080fd5b50620009e162001e6a565b604051808273ffffffffffffffffffffffffffffffffffffffff16815260200191505060405180910390f35b34801562000a1a57600080fd5b5062000a746004803603606081101562000a3357600080fd5b81019080803573ffffffffffffffffffffffffffffffffffffffff169060200190929190803590602001909291908035906020019092919050505062001e90565b005b34801562000a8357600080fd5b5062000a8e62001f13565b6040518080602001828103825283818151815260200191508051906020019060200280838360005b8381101562000ad357808201518184015260208101905062000ab6565b505050509050019250505060405180910390f35b62000b406004803603606081101562000aff57600080fd5b81019080803573ffffffffffffffffffffffffffffffffffffffff169060200190929190803590602001909291908035906020019092919050505062002268565b005b60608060606000600160009054906101000a900473ffffffffffffffffffffffffffffffffffffffff1690508073ffffffffffffffffffffffffffffffffffffffff16631cd14c736040518163ffffffff167c010000000000000000000000000000000000000000000000000000000002815260040160006040518083038186803b15801562000bd157600080fd5b505afa15801562000be6573d6000803e3d6000fd5b505050506040513d6000823e3d601f19601f82011682018060405250606081101562000c1157600080fd5b810190808051604051939291908464010000000082111562000c3257600080fd5b8382019150602082018581111562000c4957600080fd5b825186602082028301116401000000008211171562000c6757600080fd5b8083526020830192505050908051906020019060200280838360005b8381101562000ca057808201518184015260208101905062000c83565b505050509050016040526020018051604051939291908464010000000082111562000cca57600080fd5b8382019150602082018581111562000ce157600080fd5b825186602082028301116401000000008211171562000cff57600080fd5b8083526020830192505050908051906020019060200280838360005b8381101562000d3857808201518184015260208101905062000d1b565b505050509050016040526020018051604051939291908464010000000082111562000d6257600080fd5b8382019150602082018581111562000d7957600080fd5b825186602082028301116401000000008211171562000d9757600080fd5b8083526020830192505050908051906020019060200280838360005b8381101562000dd057808201518184015260208101905062000db3565b5050505090500160405250505093509350935050909192565b60606000600160009054906101000a900473ffffffffffffffffffffffffffffffffffffffff1690508073ffffffffffffffffffffffffffffffffffffffff1663a07c38586040518163ffffffff167c010000000000000000000000000000000000000000000000000000000002815260040160006040518083038186803b15801562000e7557600080fd5b505afa15801562000e8a573d6000803e3d6000fd5b505050506040513d6000823e3d601f19601f82011682018060405250602081101562000eb557600080fd5b810190808051604051939291908464010000000082111562000ed657600080fd5b8382019150602082018581111562000eed57600080fd5b825186602082028301116401000000008211171562000f0b57600080fd5b8083526020830192505050908051906020019060200280838360005b8381101562000f4457808201518184015260208101905062000f27565b5050505090500160405250505091505090565b6000818154811062000f6557fe5b906000526020600020016000915090508060000160009054906101000a900473ffffffffffffffffffffffffffffffffffffffff16908060000160149054906101000a900460ff16905082565b8273ffffffffffffffffffffffffffffffffffffffff16635af36e3e83836040518363ffffffff167c01000000000000000000000000000000000000000000000000000000000281526004018083815260200182815260200192505050600060405180830381600087803b1580156200102a57600080fd5b505af11580156200103f573d6000803e3d6000fd5b50505050600160009054906101000a900473ffffffffffffffffffffffffffffffffffffffff1673ffffffffffffffffffffffffffffffffffffffff1663f2dbadcc8484846040518463ffffffff167c0100000000000000000000000000000000000000000000000000000000028152600401808473ffffffffffffffffffffffffffffffffffffffff1681526020018381526020018281526020019350505050600060405180830381600087803b158015620010fb57600080fd5b505af115801562001110573d6000803e3d6000fd5b50505050505050565b6060819050919050565b6060600089898989898989896040516200113d906200273d565b808060200189815260200180602001806020018881526020018781526020018681526020018060200185810385528d818151815260200191508051906020019080838360005b83811015620011a057808201518184015260208101905062001183565b50505050905090810190601f168015620011ce5780820380516001836020036101000a031916815260200191505b5085810384528b818151815260200191508051906020019060200280838360005b838110156200120c578082015181840152602081019050620011ef565b5050505090500185810383528a818151815260200191508051906020019060200280838360005b838110156200125057808201518184015260208101905062001233565b50505050905001858103825286818151815260200191508051906020019080838360005b838110156200129157808201518184015260208101905062001274565b50505050905090810190601f168015620012bf5780820380516001836020036101000a031916815260200191505b509c50505050505050505050505050604051809103906000f080158015620012eb573d6000803e3d6000fd5b509050600060405180604001604052808373ffffffffffffffffffffffffffffffffffffffff168152602001600115158152509080600181540180825580915050600190039060005260206000200160009091909190915060008201518160000160006101000a81548173ffffffffffffffffffffffffffffffffffffffff021916908373ffffffffffffffffffffffffffffffffffffffff16021790555060208201518160000160146101000a81548160ff02191690831515021790555050506000600160009054906101000a900473ffffffffffffffffffffffffffffffffffffffff1690508073ffffffffffffffffffffffffffffffffffffffff1663ac9c4fd3836040518263ffffffff167c0100000000000000000000000000000000000000000000000000000000028152600401808273ffffffffffffffffffffffffffffffffffffffff168152602001915050600060405180830381600087803b1580156200145957600080fd5b505af11580156200146e573d6000803e3d6000fd5b505050506040518060400160405280600781526020017f737563636573730000000000000000000000000000000000000000000000000081525092507f97c811501143fd9e53513025da95730dfd0b457a50f5de6848adafb39eb81163836040518080602001828103825283818151815260200191508051906020019080838360005b838110156200150e578082015181840152602081019050620014f1565b50505050905090810190601f1680156200153c5780820380516001836020036101000a031916815260200191505b509250505060405180910390a15050505050505050505050565b6060806060600080600060608060008990508073ffffffffffffffffffffffffffffffffffffffff16634137e7336040518163ffffffff167c010000000000000000000000000000000000000000000000000000000002815260040160006040518083038186803b158015620015cb57600080fd5b505afa158015620015e0573d6000803e3d6000fd5b505050506040513d6000823e3d601f19601f8201168201806040525060208110156200160b57600080fd5b81019080805160405193929190846401000000008211156200162c57600080fd5b838201915060208201858111156200164357600080fd5b82518660018202830111640100000000821117156200166157600080fd5b8083526020830192505050908051906020019080838360005b83811015620016975780820151818401526020810190506200167a565b50505050905090810190601f168015620016c55780820380516001836020036101000a031916815260200191505b5060405250505097508073ffffffffffffffffffffffffffffffffffffffff1663a997c66a6040518163ffffffff167c010000000000000000000000000000000000000000000000000000000002815260040160006040518083038186803b1580156200173157600080fd5b505afa15801562001746573d6000803e3d6000fd5b505050506040513d6000823e3d601f19601f8201168201806040525060208110156200177157600080fd5b81019080805160405193929190846401000000008211156200179257600080fd5b83820191506020820185811115620017a957600080fd5b8251866020820283011164010000000082111715620017c757600080fd5b8083526020830192505050908051906020019060200280838360005b8381101562001800578082015181840152602081019050620017e3565b5050505090500160405250505098508073ffffffffffffffffffffffffffffffffffffffff166398d5fdca6040518163ffffffff167c010000000000000000000000000000000000000000000000000000000002815260040160006040518083038186803b1580156200187257600080fd5b505afa15801562001887573d6000803e3d6000fd5b505050506040513d6000823e3d601f19601f820116820180604052506020811015620018b257600080fd5b8101908080516040519392919084640100000000821115620018d357600080fd5b83820191506020820185811115620018ea57600080fd5b82518660208202830111640100000000821117156200190857600080fd5b8083526020830192505050908051906020019060200280838360005b838110156200194157808201518184015260208101905062001924565b5050505090500160405250505096508073ffffffffffffffffffffffffffffffffffffffff16630e153e246040518163ffffffff167c010000000000000000000000000000000000000000000000000000000002815260040160206040518083038186803b158015620019b357600080fd5b505afa158015620019c8573d6000803e3d6000fd5b505050506040513d6020811015620019df57600080fd5b810190808051906020019092919050505095508073ffffffffffffffffffffffffffffffffffffffff1663e8237fb16040518163ffffffff167c010000000000000000000000000000000000000000000000000000000002815260040160206040518083038186803b15801562001a5557600080fd5b505afa15801562001a6a573d6000803e3d6000fd5b505050506040513d602081101562001a8157600080fd5b810190808051906020019092919050505094508073ffffffffffffffffffffffffffffffffffffffff166310b6315d6040518163ffffffff167c010000000000000000000000000000000000000000000000000000000002815260040160206040518083038186803b15801562001af757600080fd5b505afa15801562001b0c573d6000803e3d6000fd5b505050506040513d602081101562001b2357600080fd5b810190808051906020019092919050505093508073ffffffffffffffffffffffffffffffffffffffff166321d895926040518163ffffffff167c010000000000000000000000000000000000000000000000000000000002815260040160006040518083038186803b15801562001b9957600080fd5b505afa15801562001bae573d6000803e3d6000fd5b505050506040513d6000823e3d601f19601f82011682018060405250602081101562001bd957600080fd5b810190808051604051939291908464010000000082111562001bfa57600080fd5b8382019150602082018581111562001c1157600080fd5b825186600182028301116401000000008211171562001c2f57600080fd5b8083526020830192505050908051906020019080838360005b8381101562001c6557808201518184015260208101905062001c48565b50505050905090810190601f16801562001c935780820380516001836020036101000a031916815260200191505b5060405250505092508073ffffffffffffffffffffffffffffffffffffffff16637fc0f98b6040518163ffffffff167c010000000000000000000000000000000000000000000000000000000002815260040160006040518083038186803b15801562001cff57600080fd5b505afa15801562001d14573d6000803e3d6000fd5b505050506040513d6000823e3d601f19601f82011682018060405250602081101562001d3f57600080fd5b810190808051604051939291908464010000000082111562001d6057600080fd5b8382019150602082018581111562001d7757600080fd5b825186602082028301116401000000008211171562001d9557600080fd5b8083526020830192505050908051906020019060200280838360005b8381101562001dce57808201518184015260208101905062001db1565b50505050905001604052505050915050919395975091939597565b8073ffffffffffffffffffffffffffffffffffffffff16633ccfd60b6040518163ffffffff167c0100000000000000000000000000000000000000000000000000000000028152600401600060405180830381600087803b15801562001e4e57600080fd5b505af115801562001e63573d6000803e3d6000fd5b5050505050565b600160009054906101000a900473ffffffffffffffffffffffffffffffffffffffff1681565b8273ffffffffffffffffffffffffffffffffffffffff16633ccfd60b6040518163ffffffff167c0100000000000000000000000000000000000000000000000000000000028152600401600060405180830381600087803b15801562001ef557600080fd5b505af115801562001f0a573d6000803e3d6000fd5b50505050505050565b60606000805b60008054905081101562002051576000818154811062001f3557fe5b9060005260206000200160000160149054906101000a900460ff16156200204357426000828154811062001f6557fe5b9060005260206000200160000160009054906101000a900473ffffffffffffffffffffffffffffffffffffffff1673ffffffffffffffffffffffffffffffffffffffff1663e8237fb16040518163ffffffff167c010000000000000000000000000000000000000000000000000000000002815260040160206040518083038186803b15801562001ff557600080fd5b505afa1580156200200a573d6000803e3d6000fd5b505050506040513d60208110156200202157600080fd5b81019080805190602001909291905050501115620020425781806001019250505b5b808060010191505062001f19565b5060608167ffffffffffffffff811180156200206c57600080fd5b506040519080825280602002602001820160405280156200209c5781602001602082028036833780820191505090505b5090506000805b6000805490508110156200225e5760008181548110620020bf57fe5b9060005260206000200160000160149054906101000a900460ff161562002250574260008281548110620020ef57fe5b9060005260206000200160000160009054906101000a900473ffffffffffffffffffffffffffffffffffffffff1673ffffffffffffffffffffffffffffffffffffffff1663e8237fb16040518163ffffffff167c010000000000000000000000000000000000000000000000000000000002815260040160206040518083038186803b1580156200217f57600080fd5b505afa15801562002194573d6000803e3d6000fd5b505050506040513d6020811015620021ab57600080fd5b810190808051906020019092919050505011156200224f5760008181548110620021d157fe5b9060005260206000200160000160009054906101000a900473ffffffffffffffffffffffffffffffffffffffff168383815181106200220c57fe5b602002602001019073ffffffffffffffffffffffffffffffffffffffff16908173ffffffffffffffffffffffffffffffffffffffff168152505081806001019250505b5b8080600101915050620020a3565b5081935050505090565b6060806000600160009054906101000a900473ffffffffffffffffffffffffffffffffffffffff1690506000869050858173ffffffffffffffffffffffffffffffffffffffff16630b451a40876040518263ffffffff167c01000000000000000000000000000000000000000000000000000000000281526004018082815260200191505060206040518083038186803b1580156200230657600080fd5b505afa1580156200231b573d6000803e3d6000fd5b505050506040513d60208110156200233257600080fd5b810190808051906020019092919050505010620024a6578073ffffffffffffffffffffffffffffffffffffffff1663d6febde83488886040518463ffffffff167c010000000000000000000000000000000000000000000000000000000002815260040180838152602001828152602001925050506000604051808303818588803b158015620023c157600080fd5b505af1158015620023d6573d6000803e3d6000fd5b50505050506040513d6000823e3d601f19601f8201168201806040525060208110156200240257600080fd5b81019080805160405193929190846401000000008211156200242357600080fd5b838201915060208201858111156200243a57600080fd5b82518660208202830111640100000000821117156200245857600080fd5b8083526020830192505050908051906020019060200280838360005b838110156200249157808201518184015260208101905062002474565b5050505090500160405250505093506200257e565b6040518060400160405280600481526020017f6661696c0000000000000000000000000000000000000000000000000000000081525092507f447e7e1d79c76c3f57822cea70daf3ce7255708525f127e8c5d6d1cfd207eb92836040518080602001828103825283818151815260200191508051906020019080838360005b838110156200254257808201518184015260208101905062002525565b50505050905090810190601f168015620025705780820380516001836020036101000a031916815260200191505b509250505060405180910390a15b60005b84518110156200265c578273ffffffffffffffffffffffffffffffffffffffff166309492aa689878481518110620025b557fe5b6020026020010151896040518463ffffffff167c0100000000000000000000000000000000000000000000000000000000028152600401808473ffffffffffffffffffffffffffffffffffffffff1681526020018381526020018281526020019350505050600060405180830381600087803b1580156200263557600080fd5b505af11580156200264a573d6000803e3d6000fd5b50505050808060010191505062002581565b506040518060400160405280600781526020017f737563636573730000000000000000000000000000000000000000000000000081525092507f447e7e1d79c76c3f57822cea70daf3ce7255708525f127e8c5d6d1cfd207eb92836040518080602001828103825283818151815260200191508051906020019080838360005b83811015620026f9578082015181840152602081019050620026dc565b50505050905090810190601f168015620027275780820380516001836020036101000a031916815260200191505b509250505060405180910390a150505050505050565b61142b806200274c8339019056fe60806040523480156200001157600080fd5b506040516200142b3803806200142b83398181016040526101008110156200003857600080fd5b81019080805160405193929190846401000000008211156200005957600080fd5b838201915060208201858111156200007057600080fd5b82518660018202830111640100000000821117156200008e57600080fd5b8083526020830192505050908051906020019080838360005b83811015620000c4578082015181840152602081019050620000a7565b50505050905090810190601f168015620000f25780820380516001836020036101000a031916815260200191505b5060405260200180519060200190929190805160405193929190846401000000008211156200012057600080fd5b838201915060208201858111156200013757600080fd5b82518660208202830111640100000000821117156200015557600080fd5b8083526020830192505050908051906020019060200280838360005b838110156200018e57808201518184015260208101905062000171565b5050505090500160405260200180516040519392919084640100000000821115620001b857600080fd5b83820191506020820185811115620001cf57600080fd5b8251866020820283011164010000000082111715620001ed57600080fd5b8083526020830192505050908051906020019060200280838360005b838110156200022657808201518184015260208101905062000209565b50505050905001604052602001805190602001909291908051906020019092919080519060200190929190805160405193929190846401000000008211156200026e57600080fd5b838201915060208201858111156200028557600080fd5b8251866001820283011164010000000082111715620002a357600080fd5b8083526020830192505050908051906020019080838360005b83811015620002d9578082015181840152602081019050620002bc565b50505050905090810190601f168015620003075780820380516001836020036101000a031916815260200191505b50604052505050336000806101000a81548173ffffffffffffffffffffffffffffffffffffffff021916908373ffffffffffffffffffffffffffffffffffffffff160217905550866001819055506000805b600154811015620004425760028882815181106200037357fe5b602002602001015190806001815401808255809150506001900390600052602060002001600090919091909150556004878281518110620003b057fe5b60200260200101519080600181540180825580915050600190039060005260206000200160009091909190915055878181518110620003eb57fe5b602002602001015182019150600a8882815181106200040657fe5b60200260200101519080600181540180825580915050600190039060005260206000200160009091909190915055808060010191505062000359565b5088600390805190602001906200045b929190620004fa565b50846005819055508360068190555082600781905550816008908051906020019062000489929190620004fa565b508067ffffffffffffffff81118015620004a257600080fd5b50604051908082528060200260200182016040528015620004d25781602001602082028036833780820191505090505b5060099080519060200190620004ea92919062000581565b505050505050505050506200066c565b828054600181600116156101000203166002900490600052602060002090601f016020900481019282601f106200053d57805160ff19168380011785556200056e565b828001600101855582156200056e579182015b828111156200056d57825182559160200191906001019062000550565b5b5090506200057d919062000610565b5090565b828054828255906000526020600020908101928215620005fd579160200282015b82811115620005fc5782518260006101000a81548173ffffffffffffffffffffffffffffffffffffffff021916908373ffffffffffffffffffffffffffffffffffffffff16021790555091602001919060010190620005a2565b5b5090506200060c91906200062f565b5090565b5b808211156200062b57600081600090555060010162000611565b5090565b5b808211156200066857600081816101000a81549073ffffffffffffffffffffffffffffffffffffffff02191690555060010162000630565b5090565b610daf806200067c6000396000f3fe608060405260043610610114576000357c0100000000000000000000000000000000000000000000000000000000900480634ecf518b116100a757806398d5fdca1161007657806398d5fdca146104b7578063a997c66a14610523578063d6febde81461058f578063e8237fb11461061c5761011b565b80634ecf518b1461039a5780635af36e3e146103c55780637fc0f98b1461040a5780638da5cb5b146104765761011b565b806326a49e37116100e357806326a49e37146102555780633b33c702146102a45780633ccfd60b146102f35780634137e7331461030a5761011b565b80630b451a40146101205780630e153e241461016f57806310b6315d1461019a57806321d89592146101c55761011b565b3661011b57005b600080fd5b34801561012c57600080fd5b506101596004803603602081101561014357600080fd5b8101908080359060200190929190505050610647565b6040518082815260200191505060405180910390f35b34801561017b57600080fd5b50610184610668565b6040518082815260200191505060405180910390f35b3480156101a657600080fd5b506101af61066e565b6040518082815260200191505060405180910390f35b3480156101d157600080fd5b506101da610674565b6040518080602001828103825283818151815260200191508051906020019080838360005b8381101561021a5780820151818401526020810190506101ff565b50505050905090810190601f1680156102475780820380516001836020036101000a031916815260200191505b509250505060405180910390f35b34801561026157600080fd5b5061028e6004803603602081101561027857600080fd5b8101908080359060200190929190505050610712565b6040518082815260200191505060405180910390f35b3480156102b057600080fd5b506102dd600480360360208110156102c757600080fd5b8101908080359060200190929190505050610733565b6040518082815260200191505060405180910390f35b3480156102ff57600080fd5b50610308610754565b005b34801561031657600080fd5b5061031f610817565b6040518080602001828103825283818151815260200191508051906020019080838360005b8381101561035f578082015181840152602081019050610344565b50505050905090810190601f16801561038c5780820380516001836020036101000a031916815260200191505b509250505060405180910390f35b3480156103a657600080fd5b506103af6108b5565b6040518082815260200191505060405180910390f35b3480156103d157600080fd5b50610408600480360360408110156103e857600080fd5b8101908080359060200190929190803590602001909291905050506108bb565b005b34801561041657600080fd5b5061041f6109eb565b6040518080602001828103825283818151815260200191508051906020019060200280838360005b83811015610462578082015181840152602081019050610447565b505050509050019250505060405180910390f35b34801561048257600080fd5b5061048b610a43565b604051808273ffffffffffffffffffffffffffffffffffffffff16815260200191505060405180910390f35b3480156104c357600080fd5b506104cc610a67565b6040518080602001828103825283818151815260200191508051906020019060200280838360005b8381101561050f5780820151818401526020810190506104f4565b505050509050019250505060405180910390f35b34801561052f57600080fd5b50610538610abf565b6040518080602001828103825283818151815260200191508051906020019060200280838360005b8381101561057b578082015181840152602081019050610560565b505050509050019250505060405180910390f35b6105c5600480360360408110156105a557600080fd5b810190808035906020019092919080359060200190929190505050610b17565b6040518080602001828103825283818151815260200191508051906020019060200280838360005b838110156106085780820151818401526020810190506105ed565b505050509050019250505060405180910390f35b34801561062857600080fd5b50610631610d73565b6040518082815260200191505060405180910390f35b600a818154811061065457fe5b906000526020600020016000915090505481565b60055481565b60075481565b60088054600181600116156101000203166002900480601f01602080910402602001604051908101604052809291908181526020018280546001816001161561010002031660029004801561070a5780601f106106df5761010080835404028352916020019161070a565b820191906000526020600020905b8154815290600101906020018083116106ed57829003601f168201915b505050505081565b6004818154811061071f57fe5b906000526020600020016000915090505481565b6002818154811061074057fe5b906000526020600020016000915090505481565b60008054906101000a900473ffffffffffffffffffffffffffffffffffffffff1673ffffffffffffffffffffffffffffffffffffffff163373ffffffffffffffffffffffffffffffffffffffff16146107ac57600080fd5b600654421115610815573373ffffffffffffffffffffffffffffffffffffffff166108fc3073ffffffffffffffffffffffffffffffffffffffff16319081150290604051600060405180830381858888f19350505050158015610813573d6000803e3d6000fd5b505b565b60038054600181600116156101000203166002900480601f0160208091040260200160405190810160405280929190818152602001828054600181600116156101000203166002900480156108ad5780601f10610882576101008083540402835291602001916108ad565b820191906000526020600020905b81548152906001019060200180831161089057829003601f168201915b505050505081565b60015481565b6006544210156109e757600073ffffffffffffffffffffffffffffffffffffffff16600982815481106108ea57fe5b9060005260206000200160009054906101000a900473ffffffffffffffffffffffffffffffffffffffff1673ffffffffffffffffffffffffffffffffffffffff16146109e65760006009828154811061093f57fe5b9060005260206000200160006101000a81548173ffffffffffffffffffffffffffffffffffffffff021916908373ffffffffffffffffffffffffffffffffffffffff1602179055503373ffffffffffffffffffffffffffffffffffffffff166108fc600484815481106109ae57fe5b90600052602060002001549081150290604051600060405180830381858888f193505050501580156109e4573d6000803e3d6000fd5b505b5b5050565b6060600a805480602002602001604051908101604052809291908181526020018280548015610a3957602002820191906000526020600020905b815481526020019060010190808311610a25575b5050505050905090565b60008054906101000a900473ffffffffffffffffffffffffffffffffffffffff1681565b60606004805480602002602001604051908101604052809291908181526020018280548015610ab557602002820191906000526020600020905b815481526020019060010190808311610aa1575b5050505050905090565b60606002805480602002602001604051908101604052809291908181526020018280548015610b0d57602002820191906000526020600020905b815481526020019060010190808311610af9575b5050505050905090565b606060008367ffffffffffffffff81118015610b3257600080fd5b50604051908082528060200260200182016040528015610b615781602001602082028036833780820191505090505b50915060005b60028481548110610b7457fe5b9060005260206000200154811015610d6b5784821015610d5e576000805b85811215610bc35760028181548110610ba757fe5b9060005260206000200154820191508080600101915050610b92565b508181019050600060098281548110610bd857fe5b9060005260206000200160009054906101000a900473ffffffffffffffffffffffffffffffffffffffff169050600073ffffffffffffffffffffffffffffffffffffffff168173ffffffffffffffffffffffffffffffffffffffff16148015610c58575086600a8781548110610c4a57fe5b906000526020600020015410155b15610d5b573360098381548110610c6b57fe5b9060005260206000200160006101000a81548173ffffffffffffffffffffffffffffffffffffffff021916908373ffffffffffffffffffffffffffffffffffffffff1602179055503073ffffffffffffffffffffffffffffffffffffffff166108fc60048881548110610cda57fe5b90600052602060002001549081150290604051600060405180830381858888f19350505050158015610d10573d6000803e3d6000fd5b50600a8681548110610d1e57fe5b90600052602060002001600081548092919060019003919050555081858581518110610d4657fe5b60200260200101818152505083806001019450505b50505b8080600101915050610b67565b505092915050565b6006548156fea2646970667358221220d8d573d0e03f58281682bc55d8dd02855a7cd0f8547c2c999e3dffcac278ea1064736f6c63430007000033a2646970667358221220e7f3ce523da32467ea128df90fa2083de4a2ad2a0bfb373aed85ebbf0bf5b12464736f6c63430007000033608060405234801561001057600080fd5b50611d3e806100206000396000f3fe608060405234801561001057600080fd5b50600436106100bb576000357c010000000000000000000000000000000000000000000000000000000090048063a07c385811610083578063a07c3858146102e7578063ac9c4fd314610346578063b8fab0851461038a578063f2dbadcc146103ce578063f53d79a714610426576100bb565b806309492aa6146100c05780631cd14c7314610118578063421b2d8b1461020757806347b50d591461024b578063533b29031461028f575b600080fd5b610116600480360360608110156100d657600080fd5b81019080803573ffffffffffffffffffffffffffffffffffffffff169060200190929190803590602001909291908035906020019092919050505061046a565b005b61012061070f565b60405180806020018060200180602001848103845287818151815260200191508051906020019060200280838360005b8381101561016b578082015181840152602081019050610150565b50505050905001848103835286818151815260200191508051906020019060200280838360005b838110156101ad578082015181840152602081019050610192565b50505050905001848103825285818151815260200191508051906020019060200280838360005b838110156101ef5780820151818401526020810190506101d4565b50505050905001965050505050505060405180910390f35b6102496004803603602081101561021d57600080fd5b81019080803573ffffffffffffffffffffffffffffffffffffffff169060200190929190505050610c69565b005b61028d6004803603602081101561026157600080fd5b81019080803573ffffffffffffffffffffffffffffffffffffffff169060200190929190505050610d5d565b005b6102e5600480360360608110156102a557600080fd5b81019080803573ffffffffffffffffffffffffffffffffffffffff1690602001909291908035906020019092919080359060200190929190505050610ec8565b005b6102ef611274565b6040518080602001828103825283818151815260200191508051906020019060200280838360005b83811015610332578082015181840152602081019050610317565b505050509050019250505060405180910390f35b6103886004803603602081101561035c57600080fd5b81019080803573ffffffffffffffffffffffffffffffffffffffff169060200190929190505050611575565b005b6103b6600480360360208110156103a057600080fd5b81019080803590602001909291905050506117f4565b60405180821515815260200191505060405180910390f35b610424600480360360608110156103e457600080fd5b81019080803573ffffffffffffffffffffffffffffffffffffffff1690602001909291908035906020019092919080359060200190929190505050611868565b005b6104526004803603602081101561043c57600080fd5b8101908080359060200190929190505050611c14565b60405180821515815260200191505060405180910390f35b600160003373ffffffffffffffffffffffffffffffffffffffff1673ffffffffffffffffffffffffffffffffffffffff16815260200190815260200160002060009054906101000a900460ff166104c5576104c433610c69565b5b6104cd611c84565b6040518060a001604052808573ffffffffffffffffffffffffffffffffffffffff1681526020018481526020018381526020016001151581526020016000151581525090506000803373ffffffffffffffffffffffffffffffffffffffff1673ffffffffffffffffffffffffffffffffffffffff16815260200190815260200160002060030181908060018154018082558091505060019003906000526020600020906004020160009091909190915060008201518160000160006101000a81548173ffffffffffffffffffffffffffffffffffffffff021916908373ffffffffffffffffffffffffffffffffffffffff160217905550602082015181600101556040820151816002015560608201518160030160006101000a81548160ff02191690831515021790555060808201518160030160016101000a81548160ff021916908315150217905550505060016000803373ffffffffffffffffffffffffffffffffffffffff1673ffffffffffffffffffffffffffffffffffffffff16815260200190815260200160002060010160008282540192505081905550600060016000803373ffffffffffffffffffffffffffffffffffffffff1673ffffffffffffffffffffffffffffffffffffffff168152602001908152602001600020600101540390507f0568a016a6e4a910fd01a860b9afacec51e80a659ec04e7464edd0933f9c13758582604051808373ffffffffffffffffffffffffffffffffffffffff1681526020018281526020019250505060405180910390a15050505050565b6060806060600160003373ffffffffffffffffffffffffffffffffffffffff1673ffffffffffffffffffffffffffffffffffffffff16815260200190815260200160002060009054906101000a900460ff1661085a576060600067ffffffffffffffff8111801561077f57600080fd5b506040519080825280602002602001820160405280156107ae5781602001602082028036833780820191505090505b5090506060600067ffffffffffffffff811180156107cb57600080fd5b506040519080825280602002602001820160405280156107fa5781602001602082028036833780820191505090505b5090506060600067ffffffffffffffff8111801561081757600080fd5b506040519080825280602002602001820160405280156108465781602001602082028036833780820191505090505b509050828282955095509550505050610c64565b600060606000803373ffffffffffffffffffffffffffffffffffffffff1673ffffffffffffffffffffffffffffffffffffffff1681526020019081526020016000206001015467ffffffffffffffff811180156108b657600080fd5b506040519080825280602002602001820160405280156108e55781602001602082028036833780820191505090505b50905060005b6000803373ffffffffffffffffffffffffffffffffffffffff1673ffffffffffffffffffffffffffffffffffffffff168152602001908152602001600020600101548110156109715761093d816117f4565b15610964578082848151811061094f57fe5b60200260200101818152505082806001019350505b80806001019150506108eb565b5060608267ffffffffffffffff8111801561098b57600080fd5b506040519080825280602002602001820160405280156109ba5781602001602082028036833780820191505090505b50905060608367ffffffffffffffff811180156109d657600080fd5b50604051908082528060200260200182016040528015610a055781602001602082028036833780820191505090505b50905060608467ffffffffffffffff81118015610a2157600080fd5b50604051908082528060200260200182016040528015610a505781602001602082028036833780820191505090505b50905060005b85811015610c54576000803373ffffffffffffffffffffffffffffffffffffffff1673ffffffffffffffffffffffffffffffffffffffff168152602001908152602001600020600301858281518110610aab57fe5b602002602001015181548110610abd57fe5b906000526020600020906004020160000160009054906101000a900473ffffffffffffffffffffffffffffffffffffffff16848281518110610afb57fe5b602002602001019073ffffffffffffffffffffffffffffffffffffffff16908173ffffffffffffffffffffffffffffffffffffffff16815250506000803373ffffffffffffffffffffffffffffffffffffffff1673ffffffffffffffffffffffffffffffffffffffff168152602001908152602001600020600301858281518110610b8257fe5b602002602001015181548110610b9457fe5b906000526020600020906004020160020154838281518110610bb257fe5b6020026020010181815250506000803373ffffffffffffffffffffffffffffffffffffffff1673ffffffffffffffffffffffffffffffffffffffff168152602001908152602001600020600301858281518110610c0b57fe5b602002602001015181548110610c1d57fe5b906000526020600020906004020160010154828281518110610c3b57fe5b6020026020010181815250508080600101915050610a56565b5082828297509750975050505050505b909192565b60008060008373ffffffffffffffffffffffffffffffffffffffff1673ffffffffffffffffffffffffffffffffffffffff1681526020019081526020016000209050818160000160006101000a81548173ffffffffffffffffffffffffffffffffffffffff021916908373ffffffffffffffffffffffffffffffffffffffff160217905550600081600101819055506000816002018190555060018060008473ffffffffffffffffffffffffffffffffffffffff1673ffffffffffffffffffffffffffffffffffffffff16815260200190815260200160002060006101000a81548160ff0219169083151502179055505050565b60008060003373ffffffffffffffffffffffffffffffffffffffff1673ffffffffffffffffffffffffffffffffffffffff16815260200190815260200160002060050160008373ffffffffffffffffffffffffffffffffffffffff1673ffffffffffffffffffffffffffffffffffffffff16815260200190815260200160002054905060008060003373ffffffffffffffffffffffffffffffffffffffff1673ffffffffffffffffffffffffffffffffffffffff1681526020019081526020016000206004018281548110610e2e57fe5b9060005260206000200160000160146101000a81548160ff02191690831515021790555060016000803373ffffffffffffffffffffffffffffffffffffffff1673ffffffffffffffffffffffffffffffffffffffff1681526020019081526020016000206004018281548110610ea057fe5b9060005260206000200160000160156101000a81548160ff0219169083151502179055505050565b60005b6000803373ffffffffffffffffffffffffffffffffffffffff1673ffffffffffffffffffffffffffffffffffffffff1681526020019081526020016000206001015481101561120657610f1d816117f4565b156111f9578373ffffffffffffffffffffffffffffffffffffffff166000803373ffffffffffffffffffffffffffffffffffffffff1673ffffffffffffffffffffffffffffffffffffffff1681526020019081526020016000206003018281548110610f8557fe5b906000526020600020906004020160000160009054906101000a900473ffffffffffffffffffffffffffffffffffffffff1673ffffffffffffffffffffffffffffffffffffffff161480156110365750826000803373ffffffffffffffffffffffffffffffffffffffff1673ffffffffffffffffffffffffffffffffffffffff168152602001908152602001600020600301828154811061102257fe5b906000526020600020906004020160020154145b801561109e5750816000803373ffffffffffffffffffffffffffffffffffffffff1673ffffffffffffffffffffffffffffffffffffffff168152602001908152602001600020600301828154811061108a57fe5b906000526020600020906004020160010154145b156111f85760008060003373ffffffffffffffffffffffffffffffffffffffff1673ffffffffffffffffffffffffffffffffffffffff16815260200190815260200160002060030182815481106110f157fe5b906000526020600020906004020160030160006101000a81548160ff02191690831515021790555060016000803373ffffffffffffffffffffffffffffffffffffffff1673ffffffffffffffffffffffffffffffffffffffff168152602001908152602001600020600301828154811061116757fe5b906000526020600020906004020160030160016101000a81548160ff0219169083151502179055507f6df0beb3a3c5b58027a344a5ac5242946bde7ea999f6be47346ced77480e7a3f6040518080602001828103825260078152602001807f737563636573730000000000000000000000000000000000000000000000000081525060200191505060405180910390a15b5b8080600101915050610ecb565b507f6df0beb3a3c5b58027a344a5ac5242946bde7ea999f6be47346ced77480e7a3f6040518080602001828103825260158152602001807f63616e2774206e6f742066696e64207469636b6574000000000000000000000081525060200191505060405180910390a1505050565b6060600160003373ffffffffffffffffffffffffffffffffffffffff1673ffffffffffffffffffffffffffffffffffffffff16815260200190815260200160002060009054906101000a900460ff1661131c576060600067ffffffffffffffff811180156112e157600080fd5b506040519080825280602002602001820160405280156113105781602001602082028036833780820191505090505b50905080915050611572565b600060606000803373ffffffffffffffffffffffffffffffffffffffff1673ffffffffffffffffffffffffffffffffffffffff1681526020019081526020016000206002015467ffffffffffffffff8111801561137857600080fd5b506040519080825280602002602001820160405280156113a75781602001602082028036833780820191505090505b50905060005b6000803373ffffffffffffffffffffffffffffffffffffffff1673ffffffffffffffffffffffffffffffffffffffff16815260200190815260200160002060020154811015611433576113ff81611c14565b15611426578082848151811061141157fe5b60200260200101818152505082806001019350505b80806001019150506113ad565b5060608267ffffffffffffffff8111801561144d57600080fd5b5060405190808252806020026020018201604052801561147c5781602001602082028036833780820191505090505b50905060005b8381101561156a576000803373ffffffffffffffffffffffffffffffffffffffff1673ffffffffffffffffffffffffffffffffffffffff1681526020019081526020016000206004018382815181106114d757fe5b6020026020010151815481106114e957fe5b9060005260206000200160000160009054906101000a900473ffffffffffffffffffffffffffffffffffffffff1682828151811061152357fe5b602002602001019073ffffffffffffffffffffffffffffffffffffffff16908173ffffffffffffffffffffffffffffffffffffffff16815250508080600101915050611482565b508093505050505b90565b600160003373ffffffffffffffffffffffffffffffffffffffff1673ffffffffffffffffffffffffffffffffffffffff16815260200190815260200160002060009054906101000a900460ff166115d0576115cf33610c69565b5b6115d8611ccd565b60405180606001604052808373ffffffffffffffffffffffffffffffffffffffff1681526020016001151581526020016000151581525090506000803373ffffffffffffffffffffffffffffffffffffffff1673ffffffffffffffffffffffffffffffffffffffff168152602001908152602001600020600401819080600181540180825580915050600190039060005260206000200160009091909190915060008201518160000160006101000a81548173ffffffffffffffffffffffffffffffffffffffff021916908373ffffffffffffffffffffffffffffffffffffffff16021790555060208201518160000160146101000a81548160ff02191690831515021790555060408201518160000160156101000a81548160ff021916908315150217905550505060016000803373ffffffffffffffffffffffffffffffffffffffff1673ffffffffffffffffffffffffffffffffffffffff16815260200190815260200160002060020160008282540192505081905550600060016000803373ffffffffffffffffffffffffffffffffffffffff1673ffffffffffffffffffffffffffffffffffffffff168152602001908152602001600020600201540390507f508c42a45ed681f228fada128f1f328687945ba78e5b0d518725e2e6c55c5eb48382604051808373ffffffffffffffffffffffffffffffffffffffff1681526020018281526020019250505060405180910390a1505050565b60008060003373ffffffffffffffffffffffffffffffffffffffff1673ffffffffffffffffffffffffffffffffffffffff168152602001908152602001600020600301828154811061184257fe5b906000526020600020906004020160030160009054906101000a900460ff169050919050565b60005b6000803373ffffffffffffffffffffffffffffffffffffffff1673ffffffffffffffffffffffffffffffffffffffff16815260200190815260200160002060010154811015611ba6576118bd816117f4565b15611b99578373ffffffffffffffffffffffffffffffffffffffff166000803373ffffffffffffffffffffffffffffffffffffffff1673ffffffffffffffffffffffffffffffffffffffff168152602001908152602001600020600301828154811061192557fe5b906000526020600020906004020160000160009054906101000a900473ffffffffffffffffffffffffffffffffffffffff1673ffffffffffffffffffffffffffffffffffffffff161480156119d65750826000803373ffffffffffffffffffffffffffffffffffffffff1673ffffffffffffffffffffffffffffffffffffffff16815260200190815260200160002060030182815481106119c257fe5b906000526020600020906004020160020154145b8015611a3e5750816000803373ffffffffffffffffffffffffffffffffffffffff1673ffffffffffffffffffffffffffffffffffffffff1681526020019081526020016000206003018281548110611a2a57fe5b906000526020600020906004020160010154145b15611b985760008060003373ffffffffffffffffffffffffffffffffffffffff1673ffffffffffffffffffffffffffffffffffffffff1681526020019081526020016000206003018281548110611a9157fe5b906000526020600020906004020160030160006101000a81548160ff02191690831515021790555060016000803373ffffffffffffffffffffffffffffffffffffffff1673ffffffffffffffffffffffffffffffffffffffff1681526020019081526020016000206003018281548110611b0757fe5b906000526020600020906004020160030160016101000a81548160ff0219169083151502179055507fea3bbd66fbf5dbeed40042484a92c23715b61db35db84f6824156b9b27b8594e6040518080602001828103825260078152602001807f737563636573730000000000000000000000000000000000000000000000000081525060200191505060405180910390a15b5b808060010191505061186b565b507fea3bbd66fbf5dbeed40042484a92c23715b61db35db84f6824156b9b27b8594e6040518080602001828103825260158152602001807f63616e2774206e6f742066696e64207469636b6574000000000000000000000081525060200191505060405180910390a1505050565b60008060003373ffffffffffffffffffffffffffffffffffffffff1673ffffffffffffffffffffffffffffffffffffffff1681526020019081526020016000206004018281548110611c6257fe5b9060005260206000200160000160149054906101000a900460ff169050919050565b6040518060a00160405280600073ffffffffffffffffffffffffffffffffffffffff16815260200160008152602001600081526020016000151581526020016000151581525090565b6040518060600160405280600073ffffffffffffffffffffffffffffffffffffffff168152602001600015158152602001600015158152509056fea2646970667358221220cef2318ca38e190f37968dc892072f44ab6feefa778ed7d08789b93dabe1b51a64736f6c63430007000033",
  "immutableReferences": {},
  "source": "pragma solidity >=0.7.0;\r\n\r\n// using SafeMath for uint256\r\n\r\ncontract Campaign {\r\n    address public owner;\r\n    uint256 public levels;\r\n    uint256[] public seats;\r\n    string public campaign_name;\r\n    uint256[] public price;\r\n    uint256 public campaign_start_time;\r\n    uint256 public campaign_end_time;\r\n    uint256 public start_sell_time;\r\n    string public abstraction;\r\n    address[] seat_owner;\r\n    uint256[] public remain;\r\n\r\n    constructor(\r\n        string memory _campaign_name,\r\n        uint256 _levels,\r\n        uint256[] memory _seats,\r\n        uint256[] memory _price,\r\n        uint256 _campaign_start_time,\r\n        uint256 _campaign_end_time,\r\n        uint256 _start_sell_time,\r\n        string memory _abstraction\r\n    ) public {\r\n        owner = msg.sender;\r\n        levels = _levels;\r\n        uint256 total_seats = 0;\r\n        for (uint256 i = 0; i < levels; i++) {\r\n            seats.push(_seats[i]);\r\n            price.push(_price[i]);\r\n            total_seats += _seats[i];\r\n            remain.push(_seats[i]);\r\n        }\r\n        campaign_name = _campaign_name;\r\n        campaign_start_time = _campaign_start_time;\r\n        campaign_end_time = _campaign_end_time;\r\n        start_sell_time = _start_sell_time;\r\n        abstraction = _abstraction;\r\n        seat_owner = new address[](total_seats);\r\n\r\n    }\r\n\r\n    modifier restricted() {\r\n        require(msg.sender == owner);\r\n        _;\r\n    }\r\n\r\n    function getSeats() public view returns(uint256[] memory) {\r\n        return seats;\r\n    } \r\n\r\n    function getPrice() public view returns(uint256[] memory) {\r\n        return price;\r\n    } \r\n\r\n    function getRemain() public view returns(uint256[] memory) {\r\n        return remain;\r\n    } \r\n\r\n    function buy(uint256 amount, uint256 level)\r\n        public\r\n        payable\r\n        returns (uint256[] memory seat_num)\r\n    {\r\n        uint256 j = 0;\r\n        // uint k=0;\r\n        seat_num = new uint256[](amount);\r\n        for (uint256 i = 0; i < seats[level]; i++) {\r\n            if (j < amount) {\r\n                uint256 num = 0;\r\n                for (int256 k = 0; k < int(level); k++ ){\r\n                    num = num + seats[uint256(k)];\r\n                }\r\n                num += i;\r\n                address temp = seat_owner[num];\r\n                if (temp == address(0x00) && remain[level] >= amount) {\r\n                    seat_owner[num] = msg.sender;\r\n                    // address(this).call{value: price[level]}(\"\");\r\n                    // uint256 cost = (price[level]);\r\n                    address(this).transfer(price[level]);\r\n                    remain[level]--;\r\n                    seat_num[j] = num;\r\n                    j++;\r\n                }\r\n            }\r\n        }\r\n    }\r\n\r\n    function withdraw() public restricted {\r\n        if (block.timestamp > campaign_end_time) {\r\n            // msg.sender.call{value: address(this).balance}(\"\");\r\n            msg.sender.transfer(address(this).balance);\r\n        }\r\n    }\r\n\r\n    function refund(uint256 level, uint256 seat_num) public {\r\n        if (block.timestamp < campaign_end_time) {\r\n            if (seat_owner[seat_num]!=address(0x0)){\r\n                seat_owner[seat_num]=address(0x0);\r\n                // msg.sender.call{value: price[level]}(\"\");\r\n                msg.sender.transfer(price[level]);\r\n            }\r\n            \r\n        }\r\n    }\r\n\r\n    receive() external payable {}\r\n}\r\n\r\ncontract Server {\r\n    struct server_campaign {\r\n        address payable campaign;\r\n        bool isvalid;\r\n    }\r\n\r\n    struct return_campaign {\r\n        address _campaign_address;\r\n        string _campaign_name;\r\n        uint256 _seats;\r\n        uint256 _price;\r\n        uint256 _campaign_start_time;\r\n        uint256 _campaign_end_time;\r\n        uint256 _start_sell_time;\r\n        string _abstraction;\r\n    }\r\n    event OnAddUser(string message, address user_address);\r\n    event OnGetCampaigns(address payable[] campaigns);\r\n    event OnAddCampaign(string message);\r\n    event OnBuyTicket(string message);\r\n\r\n    server_campaign[] public campaigns;\r\n    address public users_address;\r\n\r\n    constructor() public{\r\n        users_address = address(new Users());\r\n    }\r\n    // mapping(address => address) private users;\r\n    // mapping(address => return_campaign) public CampaignStruct;\r\n    // modifier validUser() {\r\n    //     require(users[msg.sender] != address(0x0));\r\n    //     _;\r\n    // }\r\n\r\n    // modifier validSignup() {\r\n    //     require(users[msg.sender] == address(0x0));\r\n    //     _;\r\n    // }\r\n\r\n    function callServer(string memory i) public pure returns (string memory) {\r\n        return (i);\r\n    }\r\n\r\n    function addCampaign(\r\n        string memory _campaign_name,\r\n        uint256 _levels,\r\n        uint256[] memory _seats,\r\n        uint256[] memory _price,\r\n        uint256 _campaign_start_time,\r\n        uint256 _campaign_end_time,\r\n        uint256 _start_sell_time,\r\n        string memory _abstraction\r\n    ) public  {\r\n        string memory message;\r\n        \r\n        address payable campaign_address =\r\n            address(\r\n                new Campaign(\r\n                    _campaign_name,\r\n                    _levels,\r\n                    _seats,\r\n                    _price,\r\n                    _campaign_start_time,\r\n                    _campaign_end_time,\r\n                    _start_sell_time,\r\n                    _abstraction\r\n                )\r\n            );\r\n        campaigns.push(server_campaign(campaign_address, true));\r\n        Users users = Users(users_address);\r\n        users.addCampaign(campaign_address);\r\n        message = \"success\";\r\n\r\n        emit OnAddCampaign(message);\r\n    }\r\n\r\n    // function addUser(string memory _name, string memory _pwd)\r\n    //     public\r\n    // {\r\n    //     string memory message;\r\n    //     address user_address;\r\n    //     if (users[msg.sender] == address(0x0)) {\r\n    //         user_address = address(new User(_name, _pwd));\r\n    //         users[msg.sender] = user_address;\r\n    //         message = \"successs\";\r\n    //     } else {\r\n    //         message = \"already exist\";\r\n    //     }\r\n    //     emit OnAddUser(message, user_address);\r\n    // }\r\n\r\n    // function checkUser(string memory _name, string memory _password)\r\n    //     public\r\n    //     view\r\n        \r\n    //     returns (bool success, address user)\r\n    // {\r\n    //     if (users[msg.sender] != address(0x0)) {\r\n    //         User currentUser = User(users[msg.sender]);\r\n    //         string memory name = currentUser.name();\r\n    //         string memory password = currentUser.getPassword();\r\n    //         success = (keccak256(abi.encodePacked(name)) ==\r\n    //             keccak256(abi.encodePacked(_name)) &&\r\n    //             keccak256(abi.encodePacked(password)) ==\r\n    //             keccak256(abi.encodePacked(_password)));\r\n    //         if (success) {\r\n    //             user = users[msg.sender];\r\n    //         } else {\r\n    //             user = address(0);\r\n    //         }\r\n    //     }\r\n    // }\r\n\r\n    function viewCampaign(address payable campaign_address)\r\n        public\r\n        view\r\n        returns (\r\n            uint256[] memory seats,\r\n            string memory campaign_name,\r\n            uint256[] memory price,\r\n            uint256 campaign_start_time,\r\n            uint256 campaign_end_time,\r\n            uint256 start_sell_time,\r\n            string memory abstraction,\r\n            uint256[] memory remain\r\n        )\r\n    {\r\n        Campaign currentCampaign = Campaign(campaign_address);\r\n        campaign_name = currentCampaign.campaign_name();\r\n        seats = currentCampaign.getSeats();\r\n        price = currentCampaign.getPrice();\r\n        campaign_start_time = currentCampaign.campaign_start_time();\r\n        campaign_end_time = currentCampaign.campaign_end_time();\r\n        start_sell_time = currentCampaign.start_sell_time();\r\n        abstraction = currentCampaign.abstraction();\r\n        remain = currentCampaign.getRemain();\r\n    }\r\n\r\n    function getUserTickets()\r\n        public\r\n        view\r\n        \r\n        returns (address[] memory , uint256[] memory , uint256[] memory)\r\n    {\r\n        Users users = Users(users_address);\r\n        return users.ViewTickets();\r\n        // if (users[msg.sender] != address(0x0)) {\r\n        //     User currentUser = User(users[msg.sender]);\r\n        //     (u_campaigns, seats) = currentUser.ViewTickets();\r\n        // } else {\r\n        //     u_campaigns = new address[](0);\r\n        //     seats = new uint256[](0);\r\n        // }\r\n    }\r\n\r\n    function getUserCampaigns()\r\n        public\r\n        view\r\n        returns (address[] memory u_campaigns)\r\n    {\r\n        Users users = Users(users_address);\r\n        return users.ViewCampaigns();\r\n        // if (users[msg.sender] != address(0x0)) {\r\n        //     User currentUser = User(users[msg.sender]);\r\n        //     u_campaigns = currentUser.ViewCampaigns();\r\n        // }\r\n    }\r\n\r\n    function getCampaigns() public view returns (address[] memory ) {\r\n        uint256 num = 0;\r\n        for (uint256 i = 0; i < campaigns.length; i++) {\r\n            if (campaigns[i].isvalid) {\r\n                if (\r\n                    Campaign(campaigns[i].campaign).campaign_end_time() >\r\n                    block.timestamp\r\n                ) {\r\n                    num++;\r\n                }\r\n            }\r\n        }\r\n        address [] memory c = new address [](num);\r\n        uint256 j = 0;\r\n        for (uint256 i = 0; i < campaigns.length; i++) {\r\n            if (campaigns[i].isvalid) {\r\n                if (\r\n                    Campaign(campaigns[i].campaign).campaign_end_time() >\r\n                    block.timestamp\r\n                ) {\r\n                    c[j] = address(campaigns[i].campaign);\r\n                    j++;\r\n                }\r\n            }\r\n        }\r\n        return c;\r\n    }\r\n\r\n    function buyTicket(address payable campaign_address, uint256 amount, uint256 level) public payable  {\r\n        uint256[] memory seat_num;\r\n        string memory message;\r\n        Users users = Users(users_address);\r\n        Campaign c = Campaign(campaign_address);\r\n        if (c.remain(level) >= amount) {\r\n            seat_num = c.buy{value: msg.value}(amount, level);\r\n        } else {\r\n            message = \"fail\";\r\n            emit OnBuyTicket(message);\r\n        }\r\n        for (uint256 i = 0; i < seat_num.length; i++) {\r\n            users.addTicket(campaign_address, seat_num[i], level);\r\n        }\r\n        message = \"success\";\r\n        \r\n        emit OnBuyTicket(message);\r\n    }\r\n\r\n    function withdraw(address payable campaign_address) public {\r\n        Campaign(campaign_address).withdraw(); \r\n    }\r\n\r\n    function completeTicket(address payable campaign_address, uint256 level, uint256 seat_num) public {\r\n        Campaign(campaign_address).withdraw(); \r\n    }\r\n\r\n    function refund(address payable campaign_address, uint256 level, uint256 seat_num) public {\r\n        Campaign(campaign_address).refund(level, seat_num); \r\n        Users(users_address).RefundTicket(campaign_address, level, seat_num);\r\n    }\r\n\r\n    receive() external payable {}\r\n}\r\n\r\npragma solidity >=0.7.0;\r\n\r\ncontract Users {\r\n    event OnAddCampaign(address capmaign_addr, uint256 Id);\r\n    event OnAddTicket(address attend_addr, uint256 Id);\r\n    event OnCompleteCampaign(address capmaign_addr, uint256 Id);\r\n    event OnCompleteTicket(string message);\r\n    event OnRefundTicket(string message);\r\n\r\n    mapping (address => User) addr_to_U;\r\n    mapping (address => bool) usr_addr_valid;\r\n\r\n    struct User {\r\n        address user_addr;\r\n        uint256 amount_tickets;\r\n        uint256 amount_campaigns;\r\n        OwnTicket[] tickets;\r\n        OwnCampaign[] campaigns;\r\n        mapping(address => uint256) campaign_addr_to_id;\r\n        mapping(address => uint256) ticket_addr_to_id;\r\n    }\r\n    struct OwnTicket {\r\n        address attend_address;\r\n        uint256 seat;\r\n        uint256 level;\r\n        bool isValid;\r\n        bool isEnd;\r\n    }\r\n     struct OwnCampaign {\r\n        address payable campaign_address;\r\n        bool isValid;\r\n        bool isEnd;\r\n    }\r\n\r\n    /*\r\n    require(msg.sender == server); may be changed\r\n    only server has the right to access user.sol\r\n    */\r\n    modifier isUserValid() {\r\n        require(usr_addr_valid[msg.sender], \"This user does not exist\");\r\n        _;\r\n    }\r\n\r\n    modifier isOwner(address user_addr) {\r\n        require(msg.sender == user_addr);\r\n        _;\r\n    }\r\n\r\n    modifier isValidSignup(address user_addr) {\r\n    require(usr_addr_valid[user_addr], \"Already exists\");\r\n    _;\r\n    }\r\n\r\n    function isValidCampaign(uint256 _campaignId) \r\n        public \r\n        view \r\n        returns(bool)\r\n    {\r\n        return addr_to_U[msg.sender].campaigns[_campaignId].isValid;\r\n    }\r\n\r\n    function isValidTicket(uint256 _ticketId) \r\n        public \r\n        view \r\n        returns(bool)      \r\n    {\r\n        return addr_to_U[msg.sender].tickets[_ticketId].isValid;\r\n    }\r\n\r\n    function addUser(address user_addr)\r\n        public\r\n        // isValidSignup(msg.sender)\r\n    {\r\n        User storage user = addr_to_U[user_addr];\r\n        user.user_addr = user_addr;\r\n        user.amount_tickets = 0;\r\n        user.amount_campaigns = 0;\r\n\r\n        usr_addr_valid[user_addr] = true;\r\n    }\r\n    \r\n    function addCampaign(address payable _campaign_address) \r\n        public \r\n    {\r\n        if (!usr_addr_valid[msg.sender]){\r\n            addUser(msg.sender);\r\n        }\r\n        OwnCampaign memory campaign =\r\n            OwnCampaign(_campaign_address, true, false);\r\n        addr_to_U[msg.sender].campaigns.push(campaign);\r\n        addr_to_U[msg.sender].amount_campaigns += 1;\r\n        uint256 Id = addr_to_U[msg.sender].amount_campaigns - 1;\r\n\r\n        emit OnAddCampaign(_campaign_address, Id);\r\n    }\r\n\r\n    // if more than one ticket is bought for a single campaign, just call iot several times\r\n    function addTicket(address payable _ticket_address, uint256 seat, uint256 level) \r\n        public \r\n    {\r\n        if (!usr_addr_valid[msg.sender]){\r\n            addUser(msg.sender);\r\n        }\r\n        OwnTicket memory ticket =\r\n            OwnTicket(_ticket_address, seat, level, true, false);\r\n        addr_to_U[msg.sender].tickets.push(ticket);\r\n        addr_to_U[msg.sender].amount_tickets += 1;\r\n        uint256 Id = addr_to_U[msg.sender].amount_tickets - 1;\r\n\r\n        emit OnAddTicket(_ticket_address, Id);\r\n    }\r\n\r\n    // function getPassword(address user_addr)\r\n    //     public\r\n    //     view\r\n    //     isServer()\r\n    //     isUserValid(user_addr)\r\n    //     returns (string memory)\r\n    // {\r\n    //     return addr_to_U[user_addr].pwd;\r\n    // }\r\n\r\n    function ViewCampaigns() \r\n        public \r\n        view \r\n        // isUserValid(user_addr)\r\n        returns (address[] memory)\r\n    {\r\n        if (!usr_addr_valid[msg.sender]){\r\n            address[] memory tmp = new address[](0);\r\n            return tmp;\r\n        }\r\n        uint256 len = 0;\r\n        uint256[] memory count_to_id = new uint256[](addr_to_U[msg.sender].amount_campaigns);\r\n        for (uint256 id = 0; id < addr_to_U[msg.sender].amount_campaigns; id++) {\r\n            if (isValidCampaign(id)) {\r\n                count_to_id[len] = id;\r\n                len++;\r\n            }\r\n        }\r\n        address[] memory campaignList = new address[](len);\r\n        for (uint256 i = 0; i < len; i++) {\r\n            campaignList[i] = addr_to_U[msg.sender].campaigns[count_to_id[i]].campaign_address;\r\n        }\r\n        return campaignList;\r\n    }\r\n\r\n    function ViewTickets() \r\n        public \r\n        view \r\n        // isUserValid(user_addr)\r\n        returns (address[] memory, uint256[] memory, uint256[] memory )\r\n    {\r\n        if (!usr_addr_valid[msg.sender]){\r\n            address[] memory tmp_a = new address[](0);\r\n            uint256[] memory tmp_l = new uint256[](0);\r\n            uint256[] memory tmp_s = new uint256[](0);\r\n            return (tmp_a, tmp_l, tmp_s);\r\n        }\r\n        uint256 len = 0;\r\n        uint256[] memory count_to_id = new uint256[](addr_to_U[msg.sender].amount_tickets);\r\n        for (uint256 id = 0; id < addr_to_U[msg.sender].amount_tickets; id++) {\r\n            if (isValidTicket(id)) {\r\n                count_to_id[len] = id;\r\n                len++;\r\n            }\r\n        }\r\n        address[] memory ticketList = new address[](len);\r\n        uint256[] memory ticketLevels = new uint256[](len);\r\n        uint256[] memory ticketSeats = new uint256[](len);\r\n        for (uint256 i = 0; i < len; i++) {\r\n            ticketList[i] = addr_to_U[msg.sender].tickets[count_to_id[i]].attend_address;\r\n            ticketLevels[i] = addr_to_U[msg.sender].tickets[count_to_id[i]].level;\r\n            ticketSeats[i] = addr_to_U[msg.sender].tickets[count_to_id[i]].seat;\r\n        }\r\n        return (ticketList, ticketLevels, ticketSeats);\r\n    }\r\n\r\n    function CompleteCampagin(address _campaign_address) public \r\n    {\r\n        uint256 _id = addr_to_U[msg.sender].campaign_addr_to_id[_campaign_address];\r\n        addr_to_U[msg.sender].campaigns[_id].isValid = false;\r\n        addr_to_U[msg.sender].campaigns[_id].isEnd = true;\r\n    }\r\n\r\n    function CompleteTicket(address _ticket_address, uint256 _level, uint256 _seat_num) public \r\n    {\r\n        for (uint256 id = 0; id < addr_to_U[msg.sender].amount_tickets; id++) {\r\n            if (isValidTicket(id)) {\r\n                if (addr_to_U[msg.sender].tickets[id].attend_address == _ticket_address &&\r\n                    addr_to_U[msg.sender].tickets[id].level == _level &&\r\n                    addr_to_U[msg.sender].tickets[id].seat == _seat_num){\r\n                        addr_to_U[msg.sender].tickets[id].isValid = false;\r\n                        addr_to_U[msg.sender].tickets[id].isEnd = true;\r\n                        emit OnCompleteTicket(\"success\");\r\n                    }\r\n            }\r\n        }\r\n        emit OnCompleteTicket(\"can't not find ticket\");\r\n    }\r\n\r\n    function RefundTicket(address _ticket_address, uint256 _level, uint256 _seat_num) public \r\n    {\r\n        for (uint256 id = 0; id < addr_to_U[msg.sender].amount_tickets; id++) {\r\n            if (isValidTicket(id)) {\r\n                if (addr_to_U[msg.sender].tickets[id].attend_address == _ticket_address &&\r\n                    addr_to_U[msg.sender].tickets[id].level == _level &&\r\n                    addr_to_U[msg.sender].tickets[id].seat == _seat_num){\r\n                        addr_to_U[msg.sender].tickets[id].isValid = false;\r\n                        addr_to_U[msg.sender].tickets[id].isEnd = true;\r\n                        emit OnRefundTicket(\"success\");\r\n                    }\r\n            }\r\n        }\r\n        emit OnRefundTicket(\"can't not find ticket\");\r\n    }\r\n}",
  "sourcePath": "F:/109-1/Networking and Multinmedia(Lab)/deapp-final/ticket system/contracts/server.sol",
  "compiler": {
    "name": "solc",
    "version": "0.7.0+commit.9e61f92b.Emscripten.clang"
  },
  "schemaVersion": "3.3.2",
  "updatedAt": "2021-01-13T12:16:06.605Z",
  "networkType": "ethereum",
  "devdoc": {
    "kind": "dev",
    "methods": {},
    "version": 1
  },
  "userdoc": {
    "kind": "user",
    "methods": {},
    "version": 1
  }
}