{
  "contractName": "Server",
  "abi": [
    {
      "inputs": [
        {
          "internalType": "uint256",
          "name": "",
          "type": "uint256"
        }
      ],
      "name": "campaigns",
      "outputs": [
        {
          "internalType": "address",
          "name": "campaign",
          "type": "address"
        },
        {
          "internalType": "bool",
          "name": "isvalid",
          "type": "bool"
        }
      ],
      "stateMutability": "view",
      "type": "function"
    },
    {
      "stateMutability": "payable",
      "type": "receive"
    },
    {
      "inputs": [
        {
          "internalType": "string",
          "name": "i",
          "type": "string"
        }
      ],
      "name": "callServer",
      "outputs": [
        {
          "internalType": "string",
          "name": "",
          "type": "string"
        }
      ],
      "stateMutability": "pure",
      "type": "function"
    },
    {
      "inputs": [
        {
          "internalType": "address",
          "name": "campaign_address",
          "type": "address"
        }
      ],
      "name": "addCampaign",
      "outputs": [],
      "stateMutability": "nonpayable",
      "type": "function"
    },
    {
      "inputs": [],
      "name": "getCampaigns",
      "outputs": [
        {
          "internalType": "address[]",
          "name": "",
          "type": "address[]"
        }
      ],
      "stateMutability": "nonpayable",
      "type": "function"
    },
    {
      "inputs": [
        {
          "internalType": "uint256",
          "name": "index",
          "type": "uint256"
        },
        {
          "internalType": "uint256",
          "name": "amount",
          "type": "uint256"
        }
      ],
      "name": "buy_ticket",
      "outputs": [
        {
          "internalType": "uint256[]",
          "name": "seat_num",
          "type": "uint256[]"
        }
      ],
      "stateMutability": "payable",
      "type": "function"
    }
  ],
  "bytecode": "0x6080604052600060015534801561001557600080fd5b506109b4806100256000396000f3fe60806040526004361061006b576000357c010000000000000000000000000000000000000000000000000000000090048063141961bc146100775780632ac8ba67146100e5578063a6b0363314610226578063ac9c4fd314610292578063c71e7edc146102e357610072565b3661007257005b600080fd5b34801561008357600080fd5b506100b06004803603602081101561009a57600080fd5b8101908080359060200190929190505050610370565b604051808373ffffffffffffffffffffffffffffffffffffffff16815260200182151581526020019250505060405180910390f35b3480156100f157600080fd5b506101ab6004803603602081101561010857600080fd5b810190808035906020019064010000000081111561012557600080fd5b82018360208201111561013757600080fd5b8035906020019184600183028401116401000000008311171561015957600080fd5b91908080601f016020809104026020016040519081016040528093929190818152602001838380828437600081840152601f19601f8201169050808301925050505050505091929192905050506103ca565b6040518080602001828103825283818151815260200191508051906020019080838360005b838110156101eb5780820151818401526020810190506101d0565b50505050905090810190601f1680156102185780820380516001836020036101000a031916815260200191505b509250505060405180910390f35b34801561023257600080fd5b5061023b6103d4565b6040518080602001828103825283818151815260200191508051906020019060200280838360005b8381101561027e578082015181840152602081019050610263565b505050509050019250505060405180910390f35b34801561029e57600080fd5b506102e1600480360360208110156102b557600080fd5b81019080803573ffffffffffffffffffffffffffffffffffffffff169060200190929190505050610640565b005b610319600480360360408110156102f957600080fd5b810190808035906020019092919080359060200190929190505050610701565b6040518080602001828103825283818151815260200191508051906020019060200280838360005b8381101561035c578082015181840152602081019050610341565b505050509050019250505060405180910390f35b6000818154811061037d57fe5b906000526020600020016000915090508060000160009054906101000a900473ffffffffffffffffffffffffffffffffffffffff16908060000160149054906101000a900460ff16905082565b6060819050919050565b6060600060015490506000606060008054905067ffffffffffffffff811180156103fd57600080fd5b5060405190808252806020026020018201604052801561042c5781602001602082028036833780820191505090505b509050600060015490505b60008054905081101561062f576000818154811061045157fe5b9060005260206000200160000160149054906101000a900460ff161561062257426000828154811061047f57fe5b9060005260206000200160000160009054906101000a900473ffffffffffffffffffffffffffffffffffffffff1673ffffffffffffffffffffffffffffffffffffffff1663e8237fb16040518163ffffffff167c010000000000000000000000000000000000000000000000000000000002815260040160206040518083038186803b15801561050e57600080fd5b505afa158015610522573d6000803e3d6000fd5b505050506040513d602081101561053857600080fd5b81019080805190602001909291905050501061059757600080828154811061055c57fe5b9060005260206000200160000160146101000a81548160ff02191690831515021790555060018401811415610592576001840193505b610621565b600081815481106105a457fe5b9060005260206000200160000160009054906101000a900473ffffffffffffffffffffffffffffffffffffffff168284815181106105de57fe5b602002602001019073ffffffffffffffffffffffffffffffffffffffff16908173ffffffffffffffffffffffffffffffffffffffff168152505082806001019350505b5b8080600101915050610437565b508260018190555080935050505090565b600060405180604001604052808373ffffffffffffffffffffffffffffffffffffffff168152602001600115158152509080600181540180825580915050600190039060005260206000200160009091909190915060008201518160000160006101000a81548173ffffffffffffffffffffffffffffffffffffffff021916908373ffffffffffffffffffffffffffffffffffffffff16021790555060208201518160000160146101000a81548160ff021916908315150217905550505050565b60606000838154811061071057fe5b9060005260206000200160000160149054906101000a900460ff161561097857600080848154811061073e57fe5b9060005260206000200160000160009054906101000a900473ffffffffffffffffffffffffffffffffffffffff169050828173ffffffffffffffffffffffffffffffffffffffff166361f3c62e6040518163ffffffff167c010000000000000000000000000000000000000000000000000000000002815260040160206040518083038186803b1580156107d157600080fd5b505afa1580156107e5573d6000803e3d6000fd5b505050506040513d60208110156107fb57600080fd5b810190808051906020019092919050505010610976578073ffffffffffffffffffffffffffffffffffffffff1663cce7ec1333856040518363ffffffff167c0100000000000000000000000000000000000000000000000000000000028152600401808373ffffffffffffffffffffffffffffffffffffffff16815260200182815260200192505050600060405180830381600087803b15801561089e57600080fd5b505af11580156108b2573d6000803e3d6000fd5b505050506040513d6000823e3d601f19601f8201168201806040525060208110156108dc57600080fd5b81019080805160405193929190846401000000008211156108fc57600080fd5b8382019150602082018581111561091257600080fd5b825186602082028301116401000000008211171561092f57600080fd5b8083526020830192505050908051906020019060200280838360005b8381101561096657808201518184015260208101905061094b565b5050505090500160405250505091505b505b9291505056fea2646970667358221220be8ab04a5d87b0e7d13da04655c038135ede298112cd0f50b74f350f51e0289964736f6c63430007000033",
  "immutableReferences": {},
  "source": "pragma solidity >=0.7.0;\n// using SafeMath for uint256;\n// pragma solidity  >=0.7.0;\n// using SafeMath for uint256\n\ncontract Campaign {\n  address public owner;\n  uint public seats;\n  string public campaign_name;\n  uint public price;\n  uint public campaign_start_time;\n  uint public campaign_end_time;\n  uint public start_sell_time;\n  string public abstraction;\n  address[] seat_owner;\n  uint256 public remain;\n  \n\n\n  function buy(address , uint ) public payable returns (uint[] memory seat_num){}\n\n  function withdraw() public{  }\n}\n\ncontract Server {\n    struct server_campaign{\n        address campaign;\n        bool isvalid;\n    }\n    server_campaign[] public campaigns;\n    uint ptr = 0;\n    function callServer(string memory i) public pure returns (string memory) {\n        return(i);\n    }\n    function addCampaign(address campaign_address) public {\n        campaigns.push(server_campaign(campaign_address, true));\n    }\n\n    function getCampaigns() public returns (address[] memory){\n        uint j = ptr;\n        uint k = 0;\n        address[] memory c = new address[](campaigns.length);\n        for (uint i = ptr; i<campaigns.length; i++){\n            // server_campaign memory tmp = campaigns[i];\n            // Campaign campaign = Campaign(campaigns[i].campaign);\n            if (campaigns[i].isvalid){\n                if (Campaign(campaigns[i].campaign).campaign_end_time() >= block.timestamp){\n                    campaigns[i].isvalid = false;\n                    if (i==j+1){\n                        j+=1;\n                    }\n                }else{\n                    c[k] = (campaigns[i].campaign);\n                    k++;\n                }\n            }\n        }\n        ptr = j;\n        return c;\n    }\n\n    function buy_ticket(uint index, uint amount) public payable returns(uint[] memory seat_num){\n        // campaigns[index];\n        if (campaigns[index].isvalid){\n            Campaign c = Campaign(campaigns[index].campaign);\n            if (c.remain() >= amount){\n                seat_num = c.buy(msg.sender, amount);\n            }\n        }\n    }\n\n    receive () external payable {}\n}",
  "sourcePath": "/Users/binomialwu/Desktop/deapp-final/ticket system/contracts/server.sol",
  "compiler": {
    "name": "solc",
    "version": "0.7.0+commit.9e61f92b.Emscripten.clang"
  },
  "schemaVersion": "3.3.2",
  "updatedAt": "2020-12-16T10:05:43.384Z",
  "devdoc": {
    "kind": "dev",
    "methods": {},
    "version": 1
  },
  "userdoc": {
    "kind": "user",
    "methods": {},
    "version": 1
  }
}