{
  "contractName": "User",
  "abi": [
    {
      "inputs": [
        {
          "internalType": "string",
          "name": "_name",
          "type": "string"
        },
        {
          "internalType": "string",
          "name": "_pwd",
          "type": "string"
        }
      ],
      "stateMutability": "nonpayable",
      "type": "constructor"
    },
    {
      "anonymous": false,
      "inputs": [
        {
          "indexed": false,
          "internalType": "address",
          "name": "user",
          "type": "address"
        },
        {
          "indexed": false,
          "internalType": "address",
          "name": "capmaign_addr",
          "type": "address"
        },
        {
          "indexed": false,
          "internalType": "uint256",
          "name": "Id",
          "type": "uint256"
        }
      ],
      "name": "OnAddCampaign",
      "type": "event"
    },
    {
      "anonymous": false,
      "inputs": [
        {
          "indexed": false,
          "internalType": "address",
          "name": "user",
          "type": "address"
        },
        {
          "indexed": false,
          "internalType": "address",
          "name": "attend_addr",
          "type": "address"
        },
        {
          "indexed": false,
          "internalType": "uint256",
          "name": "Id",
          "type": "uint256"
        }
      ],
      "name": "OnAddTicket",
      "type": "event"
    },
    {
      "anonymous": false,
      "inputs": [
        {
          "indexed": false,
          "internalType": "address",
          "name": "user",
          "type": "address"
        },
        {
          "indexed": false,
          "internalType": "address",
          "name": "capmaign_addr",
          "type": "address"
        },
        {
          "indexed": false,
          "internalType": "uint256",
          "name": "Id",
          "type": "uint256"
        }
      ],
      "name": "OnCompleteCampaign",
      "type": "event"
    },
    {
      "anonymous": false,
      "inputs": [
        {
          "indexed": false,
          "internalType": "address",
          "name": "user",
          "type": "address"
        },
        {
          "indexed": false,
          "internalType": "address",
          "name": "attend_addr",
          "type": "address"
        },
        {
          "indexed": false,
          "internalType": "uint256",
          "name": "Id",
          "type": "uint256"
        }
      ],
      "name": "OnCompleteTicket",
      "type": "event"
    },
    {
      "inputs": [],
      "name": "name",
      "outputs": [
        {
          "internalType": "string",
          "name": "",
          "type": "string"
        }
      ],
      "stateMutability": "view",
      "type": "function"
    },
    {
      "inputs": [],
      "name": "owner",
      "outputs": [
        {
          "internalType": "address",
          "name": "",
          "type": "address"
        }
      ],
      "stateMutability": "view",
      "type": "function"
    },
    {
      "inputs": [
        {
          "internalType": "uint256",
          "name": "_campaignId",
          "type": "uint256"
        }
      ],
      "name": "isCampaignValid",
      "outputs": [
        {
          "internalType": "bool",
          "name": "isValid",
          "type": "bool"
        }
      ],
      "stateMutability": "view",
      "type": "function"
    },
    {
      "inputs": [
        {
          "internalType": "uint256",
          "name": "_ticketId",
          "type": "uint256"
        }
      ],
      "name": "isTicketValid",
      "outputs": [
        {
          "internalType": "bool",
          "name": "isValid",
          "type": "bool"
        }
      ],
      "stateMutability": "view",
      "type": "function"
    },
    {
      "inputs": [
        {
          "internalType": "address payable",
          "name": "_campaign_address",
          "type": "address"
        }
      ],
      "name": "addCampaign",
      "outputs": [],
      "stateMutability": "nonpayable",
      "type": "function"
    },
    {
      "inputs": [
        {
          "internalType": "address",
          "name": "_ticket_address",
          "type": "address"
        },
        {
          "internalType": "uint256",
          "name": "seatId",
          "type": "uint256"
        }
      ],
      "name": "addTicket",
      "outputs": [],
      "stateMutability": "nonpayable",
      "type": "function"
    },
    {
      "inputs": [],
      "name": "getPassword",
      "outputs": [
        {
          "internalType": "string",
          "name": "password",
          "type": "string"
        }
      ],
      "stateMutability": "view",
      "type": "function"
    },
    {
      "inputs": [],
      "name": "ViewCampaigns",
      "outputs": [
        {
          "internalType": "contract Campaign[]",
          "name": "",
          "type": "address[]"
        }
      ],
      "stateMutability": "view",
      "type": "function"
    },
    {
      "inputs": [],
      "name": "ViewTickets",
      "outputs": [
        {
          "internalType": "address[]",
          "name": "campaigns",
          "type": "address[]"
        },
        {
          "internalType": "uint256[]",
          "name": "seats",
          "type": "uint256[]"
        }
      ],
      "stateMutability": "view",
      "type": "function"
    },
    {
      "inputs": [
        {
          "internalType": "address",
          "name": "_campaign_address",
          "type": "address"
        }
      ],
      "name": "CompleteCampaign",
      "outputs": [],
      "stateMutability": "nonpayable",
      "type": "function"
    },
    {
      "inputs": [
        {
          "internalType": "address",
          "name": "_ticket_address",
          "type": "address"
        }
      ],
      "name": "CompleteTicket",
      "outputs": [],
      "stateMutability": "nonpayable",
      "type": "function"
    }
  ],
  "bytecode": "0x60806040523480156200001157600080fd5b50604051620012a3380380620012a3833981810160405260408110156200003757600080fd5b81019080805160405193929190846401000000008211156200005857600080fd5b838201915060208201858111156200006f57600080fd5b82518660018202830111640100000000821117156200008d57600080fd5b8083526020830192505050908051906020019080838360005b83811015620000c3578082015181840152602081019050620000a6565b50505050905090810190601f168015620000f15780820380516001836020036101000a031916815260200191505b50604052602001805160405193929190846401000000008211156200011557600080fd5b838201915060208201858111156200012c57600080fd5b82518660018202830111640100000000821117156200014a57600080fd5b8083526020830192505050908051906020019080838360005b838110156200018057808201518184015260208101905062000163565b50505050905090810190601f168015620001ae5780820380516001836020036101000a031916815260200191505b50604052505050336000806101000a81548173ffffffffffffffffffffffffffffffffffffffff021916908373ffffffffffffffffffffffffffffffffffffffff16021790555081600190805190602001906200020d9291906200022f565b508060029080519060200190620002269291906200022f565b505050620002d5565b828054600181600116156101000203166002900490600052602060002090601f016020900481019282601f106200027257805160ff1916838001178555620002a3565b82800160010185558215620002a3579182015b82811115620002a257825182559160200191906001019062000285565b5b509050620002b29190620002b6565b5090565b5b80821115620002d1576000816000905550600101620002b7565b5090565b610fbe80620002e56000396000f3fe608060405234801561001057600080fd5b50600436106100c6576000357c010000000000000000000000000000000000000000000000000000000090048063a07c38581161008e578063a07c3858146102bb578063ac9c4fd31461031a578063cc8e23941461035e578063ceb91664146103e1578063fb053a1514610425578063fb3ae56f14610469576100c6565b806306fdde03146100cb5780631cd14c731461014e578063651c45d2146101f557806382fc3833146102435780638da5cb5b14610287575b600080fd5b6100d36104ad565b6040518080602001828103825283818151815260200191508051906020019080838360005b838110156101135780820151818401526020810190506100f8565b50505050905090810190601f1680156101405780820380516001836020036101000a031916815260200191505b509250505060405180910390f35b61015661054b565b604051808060200180602001838103835285818151815260200191508051906020019060200280838360005b8381101561019d578082015181840152602081019050610182565b50505050905001838103825284818151815260200191508051906020019060200280838360005b838110156101df5780820151818401526020810190506101c4565b5050505090500194505050505060405180910390f35b6102416004803603604081101561020b57600080fd5b81019080803573ffffffffffffffffffffffffffffffffffffffff16906020019092919080359060200190929190505050610781565b005b6102856004803603602081101561025957600080fd5b81019080803573ffffffffffffffffffffffffffffffffffffffff16906020019092919050505061090d565b005b61028f6109c3565b604051808273ffffffffffffffffffffffffffffffffffffffff16815260200191505060405180910390f35b6102c36109e7565b6040518080602001828103825283818151815260200191508051906020019060200280838360005b838110156103065780820151818401526020810190506102eb565b505050509050019250505060405180910390f35b61035c6004803603602081101561033057600080fd5b81019080803573ffffffffffffffffffffffffffffffffffffffff169060200190929190505050610b8a565b005b610366610d01565b6040518080602001828103825283818151815260200191508051906020019080838360005b838110156103a657808201518184015260208101905061038b565b50505050905090810190601f1680156103d35780820380516001836020036101000a031916815260200191505b509250505060405180910390f35b610423600480360360208110156103f757600080fd5b81019080803573ffffffffffffffffffffffffffffffffffffffff169060200190929190505050610dfb565b005b6104516004803603602081101561043b57600080fd5b8101908080359060200190929190505050610ea9565b60405180821515815260200191505060405180910390f35b6104956004803603602081101561047f57600080fd5b8101908080359060200190929190505050610eda565b60405180821515815260200191505060405180910390f35b60018054600181600116156101000203166002900480601f0160208091040260200160405190810160405280929190818152602001828054600181600116156101000203166002900480156105435780601f1061051857610100808354040283529160200191610543565b820191906000526020600020905b81548152906001019060200180831161052657829003601f168201915b505050505081565b6060806000606060068054905067ffffffffffffffff8111801561056e57600080fd5b5060405190808252806020026020018201604052801561059d5781602001602082028036833780820191505090505b50905060005b6006805490508110156105ed576105b981610eda565b156105e057808284815181106105cb57fe5b60200260200101818152505082806001019350505b80806001019150506105a3565b508167ffffffffffffffff8111801561060557600080fd5b506040519080825280602002602001820160405280156106345781602001602082028036833780820191505090505b5093508167ffffffffffffffff8111801561064e57600080fd5b5060405190808252806020026020018201604052801561067d5781602001602082028036833780820191505090505b50925060005b8281101561077a57600682828151811061069957fe5b6020026020010151815481106106ab57fe5b906000526020600020906002020160000160009054906101000a900473ffffffffffffffffffffffffffffffffffffffff168582815181106106e957fe5b602002602001019073ffffffffffffffffffffffffffffffffffffffff16908173ffffffffffffffffffffffffffffffffffffffff1681525050600682828151811061073157fe5b60200260200101518154811061074357fe5b90600052602060002090600202016001015484828151811061076157fe5b6020026020010181815250508080600101915050610683565b5050509091565b610789610f0b565b60405180608001604052808473ffffffffffffffffffffffffffffffffffffffff168152602001600115158152602001600015158152602001838152509050600681908060018154018082558091505060019003906000526020600020906002020160009091909190915060008201518160000160006101000a81548173ffffffffffffffffffffffffffffffffffffffff021916908373ffffffffffffffffffffffffffffffffffffffff16021790555060208201518160000160146101000a81548160ff02191690831515021790555060408201518160000160156101000a81548160ff021916908315150217905550606082015181600101555050600060016006805490500390507f5be249500b65b4edc242371051ca673da846850fddc967e8dd4999262f6133d8338583604051808473ffffffffffffffffffffffffffffffffffffffff1681526020018373ffffffffffffffffffffffffffffffffffffffff168152602001828152602001935050505060405180910390a150505050565b6000600460008373ffffffffffffffffffffffffffffffffffffffff1673ffffffffffffffffffffffffffffffffffffffff16815260200190815260200160002054905060006006828154811061096057fe5b906000526020600020906002020160000160146101000a81548160ff02191690831515021790555060016006828154811061099757fe5b906000526020600020906002020160000160156101000a81548160ff0219169083151502179055505050565b60008054906101000a900473ffffffffffffffffffffffffffffffffffffffff1681565b60606000606060058054905067ffffffffffffffff81118015610a0957600080fd5b50604051908082528060200260200182016040528015610a385781602001602082028036833780820191505090505b50905060005b600580549050811015610a8857610a5481610ea9565b15610a7b5780828481518110610a6657fe5b60200260200101818152505082806001019350505b8080600101915050610a3e565b5060608267ffffffffffffffff81118015610aa257600080fd5b50604051908082528060200260200182016040528015610ad15781602001602082028036833780820191505090505b50905060005b83811015610b80576005838281518110610aed57fe5b602002602001015181548110610aff57fe5b9060005260206000200160000160009054906101000a900473ffffffffffffffffffffffffffffffffffffffff16828281518110610b3957fe5b602002602001019073ffffffffffffffffffffffffffffffffffffffff16908173ffffffffffffffffffffffffffffffffffffffff16815250508080600101915050610ad7565b5080935050505090565b610b92610f4d565b60405180606001604052808373ffffffffffffffffffffffffffffffffffffffff1681526020016001151581526020016000151581525090506005819080600181540180825580915050600190039060005260206000200160009091909190915060008201518160000160006101000a81548173ffffffffffffffffffffffffffffffffffffffff021916908373ffffffffffffffffffffffffffffffffffffffff16021790555060208201518160000160146101000a81548160ff02191690831515021790555060408201518160000160156101000a81548160ff0219169083151502179055505050600060016005805490500390507fb65db7291775a92be29ca649ea31396d2bb260877cfdde2800b8bfc027840df0338483604051808473ffffffffffffffffffffffffffffffffffffffff1681526020018373ffffffffffffffffffffffffffffffffffffffff168152602001828152602001935050505060405180910390a1505050565b60603373ffffffffffffffffffffffffffffffffffffffff1660008054906101000a900473ffffffffffffffffffffffffffffffffffffffff1673ffffffffffffffffffffffffffffffffffffffff1614610d5b57600080fd5b60028054600181600116156101000203166002900480601f016020809104026020016040519081016040528092919081815260200182805460018160011615610100020316600290048015610df15780601f10610dc657610100808354040283529160200191610df1565b820191906000526020600020905b815481529060010190602001808311610dd457829003601f168201915b5050505050905090565b6000600360008373ffffffffffffffffffffffffffffffffffffffff1673ffffffffffffffffffffffffffffffffffffffff168152602001908152602001600020549050600060058281548110610e4e57fe5b9060005260206000200160000160146101000a81548160ff021916908315150217905550600160058281548110610e8157fe5b9060005260206000200160000160156101000a81548160ff0219169083151502179055505050565b600060058281548110610eb857fe5b9060005260206000200160000160149054906101000a900460ff169050919050565b600060058281548110610ee957fe5b9060005260206000200160000160149054906101000a900460ff169050919050565b6040518060800160405280600073ffffffffffffffffffffffffffffffffffffffff168152602001600015158152602001600015158152602001600081525090565b6040518060600160405280600073ffffffffffffffffffffffffffffffffffffffff168152602001600015158152602001600015158152509056fea2646970667358221220d898cc626f185e76be627f75ca9abdb7520fe04c0f51537073ee3f084c21f0b264736f6c63430007000033",
  "immutableReferences": {},
  "source": "pragma solidity >=0.7.0;\r\n\r\n// using SafeMath for uint256;\r\n// pragma solidity  >=0.7.0;\r\n// using SafeMath for uint256\r\n\r\n// using SafeMath for uint256\r\n\r\ncontract Campaign {\r\n    address public owner;\r\n    uint256 public seats;\r\n    string public campaign_name;\r\n    uint256 public price;\r\n    uint256 public campaign_start_time;\r\n    uint256 public campaign_end_time;\r\n    uint256 public start_sell_time;\r\n    string public abstraction;\r\n    address[] seat_owner;\r\n    uint256 public remain;\r\n\r\n    constructor(\r\n        string memory _campaign_name,\r\n        uint256 _seats,\r\n        uint256 _price,\r\n        uint256 _campaign_start_time,\r\n        uint256 _campaign_end_time,\r\n        uint256 _start_sell_time,\r\n        string memory _abstraction\r\n    ) public {\r\n        owner = msg.sender;\r\n        seats = _seats;\r\n        campaign_name = _campaign_name;\r\n        price = _price;\r\n        campaign_start_time = _campaign_start_time;\r\n        campaign_end_time = _campaign_end_time;\r\n        start_sell_time = _start_sell_time;\r\n        abstraction = _abstraction;\r\n        seat_owner = new address[](_seats);\r\n        remain = _seats;\r\n    }\r\n\r\n    modifier restricted() {\r\n        require(msg.sender == owner);\r\n        _;\r\n    }\r\n\r\n    function buy(address buyer, uint256 amount)\r\n        public\r\n        payable\r\n        returns (uint256[] memory seat_num)\r\n    {\r\n        uint256 j = 0;\r\n        // uint k=0;\r\n        seat_num = new uint256[](amount);\r\n        for (uint256 i = 0; i < seats; i++) {\r\n            while (j < amount) {\r\n                address temp = seat_owner[uint256(i)];\r\n                if (temp == address(0x00) && remain >= amount) {\r\n                    seat_owner[i] = buyer;\r\n                    // buyer.transfer(price);\r\n                    remain--;\r\n                    seat_num[j] = i;\r\n                    j++;\r\n                }\r\n            }\r\n        }\r\n    }\r\n\r\n    function withdraw() public restricted {\r\n        if (block.timestamp > campaign_end_time) {\r\n            msg.sender.call{value: address(this).balance}(\"\");\r\n        }\r\n    }\r\n\r\n    receive() external payable {}\r\n}\r\n\r\ncontract Server {\r\n    struct server_campaign {\r\n        address payable campaign;\r\n        bool isvalid;\r\n    }\r\n    event OnAddUser(string message, address user_address);\r\n    event OnGetCampaigns(Campaign[] campaigns);\r\n    event OnAddCampaign(string message);\r\n    event OnBuyTicket(string message);\r\n\r\n    server_campaign[] public campaigns;\r\n    uint256 ptr = 0;\r\n    mapping(address => address) private users;\r\n    modifier validUser() {\r\n        require(users[msg.sender] != address(0x0));\r\n        _;\r\n    }\r\n\r\n    modifier validSignup() {\r\n        require(users[msg.sender] == address(0x0));\r\n        _;\r\n    }\r\n\r\n    function callServer(string memory i) public pure returns (string memory) {\r\n        return (i);\r\n    }\r\n\r\n    function addCampaign(\r\n        string memory _campaign_name,\r\n        uint256 _seats,\r\n        uint256 _price,\r\n        uint256 _campaign_start_time,\r\n        uint256 _campaign_end_time,\r\n        uint256 _start_sell_time,\r\n        string memory _abstraction\r\n    ) public validUser {\r\n        string memory message;\r\n        address payable campaign_address;\r\n        if (users[msg.sender] != address(0x0)) {\r\n            campaign_address = address(\r\n                new Campaign(\r\n                    _campaign_name,\r\n                    _seats,\r\n                    _price,\r\n                    _campaign_start_time,\r\n                    _campaign_end_time,\r\n                    _start_sell_time,\r\n                    _abstraction\r\n                )\r\n            );\r\n            campaigns.push(server_campaign(campaign_address, true));\r\n            User user = User(users[msg.sender]);\r\n            user.addCampaign(campaign_address);\r\n            message = \"success\";\r\n        } else {\r\n            message = \"fail\";\r\n        }\r\n        emit OnAddCampaign(message);\r\n    }\r\n\r\n    function addUser(string memory _name, string memory _pwd)\r\n        public\r\n        validSignup\r\n    {\r\n        string memory message;\r\n        address user_address;\r\n        if (users[msg.sender] == address(0x0)) {\r\n            user_address = address(new User(_name, _pwd));\r\n            users[msg.sender] = user_address;\r\n            message = \"successs\";\r\n        } else {\r\n            message = \"already exist\";\r\n        }\r\n        emit OnAddUser(message, user_address);\r\n    }\r\n\r\n    function checkUser(string memory _name, string memory _password)\r\n        public\r\n        view\r\n        validUser\r\n        returns (bool success, address user)\r\n    {\r\n        if (users[msg.sender] != address(0x0)) {\r\n            User currentUser = User(users[msg.sender]);\r\n            string memory name = currentUser.name();\r\n            string memory password = currentUser.getPassword();\r\n            success = (keccak256(abi.encodePacked(name)) ==\r\n                keccak256(abi.encodePacked(_name)) &&\r\n                keccak256(abi.encodePacked(password)) ==\r\n                keccak256(abi.encodePacked(_password)));\r\n            user = users[msg.sender];\r\n        }\r\n    }\r\n\r\n    function getUserTickets()\r\n        public\r\n        view\r\n        validUser\r\n        returns (address[] memory campaigns, uint256[] memory seats)\r\n    {\r\n        if (users[msg.sender] != address(0x0)) {\r\n            User currentUser = User(users[msg.sender]);\r\n            (campaigns, seats) = currentUser.ViewTickets();\r\n        } else {\r\n            campaigns = new address[](0);\r\n            seats = new uint256[](0);\r\n        }\r\n    }\r\n\r\n    function getUserCampaigns()\r\n        public\r\n        view\r\n        validUser\r\n        returns (Campaign[] memory campaigns)\r\n    {\r\n        if (users[msg.sender] != address(0x0)) {\r\n            User currentUser = User(users[msg.sender]);\r\n            campaigns = currentUser.ViewCampaigns();\r\n            // Campaign[] memory campaigns = new Campaign[](\r\n            //     campaigns_address.length\r\n            // );\r\n            // for (uint256 i = 0; i < campaigns_address.length; i++) {\r\n            //     campaigns[i] = Campaign(campaigns_address[i]);\r\n            // }\r\n        }\r\n    }\r\n\r\n    function getCampaigns() public {\r\n        uint256 j = ptr;\r\n        uint256 k = 0;\r\n        Campaign[] memory c = new Campaign[](campaigns.length);\r\n        for (uint256 i = ptr; i < campaigns.length; i++) {\r\n            if (campaigns[i].isvalid) {\r\n                if (\r\n                    Campaign(campaigns[i].campaign).campaign_end_time() >=\r\n                    block.timestamp\r\n                ) {\r\n                    campaigns[i].isvalid = false;\r\n                    if (i == j + 1) {\r\n                        j += 1;\r\n                    }\r\n                } else {\r\n                    c[k] = (Campaign(campaigns[i].campaign));\r\n                    k++;\r\n                }\r\n            }\r\n        }\r\n        ptr = j;\r\n        emit OnGetCampaigns(c);\r\n    }\r\n\r\n    function buyTicket(uint256 index, uint256 amount) public payable validUser {\r\n        uint256[] memory seat_num;\r\n        string memory message;\r\n        if (users[msg.sender] != address(0x0)) {\r\n            User user = User(users[msg.sender]);\r\n            if (campaigns[index].isvalid) {\r\n                Campaign c = Campaign(campaigns[index].campaign);\r\n                if (c.remain() >= amount) {\r\n                    seat_num = c.buy(msg.sender, amount);\r\n                } else {\r\n                    message = \"fail\";\r\n                    emit OnBuyTicket(message);\r\n                }\r\n            } else {\r\n                message = \"fail\";\r\n                emit OnBuyTicket(message);\r\n            }\r\n            for (uint256 i = 0; i < seat_num.length; i++) {\r\n                user.addTicket(campaigns[index].campaign, seat_num[i]);\r\n            }\r\n            message = \"success\";\r\n        }\r\n        emit OnBuyTicket(message);\r\n    }\r\n\r\n    receive() external payable {}\r\n}\r\n\r\npragma solidity >=0.7.0;\r\n\r\ncontract User {\r\n    event OnAddCampaign(address user, address capmaign_addr, uint256 Id);\r\n    event OnAddTicket(address user, address attend_addr, uint256 Id);\r\n    event OnCompleteCampaign(address user, address capmaign_addr, uint256 Id);\r\n    event OnCompleteTicket(address user, address attend_addr, uint256 Id);\r\n    /*\r\nIf a campaign is completed. Server will find the host of campaign (user),\r\ncall CompleteCampaign(address campaign_address). The address will be removed from\r\nown_campaigns.\r\nAlso, traverse all seat_owners of this campaign, for all the seat_owners(user), call CompleteTickets to delete the corresponding campaigns.\r\n*/\r\n    address public owner;\r\n    string public name;\r\n    string private pwd;\r\n\r\n    struct OwnCampaign {\r\n        address payable campaign_address;\r\n        bool isValid;\r\n        bool isEnd;\r\n    }\r\n    struct OwnTicket {\r\n        address attend_address;\r\n        bool isValid;\r\n        bool isEnd;\r\n        uint256 seat;\r\n    }\r\n\r\n    struct Ticket {\r\n        address campaign_address;\r\n        uint256 seat;\r\n    }\r\n    mapping(address => uint256) campaign_addr_to_id;\r\n    mapping(address => uint256) ticket_addr_to_id;\r\n\r\n    OwnCampaign[] own_campaigns;\r\n    OwnTicket[] own_tickets;\r\n\r\n    constructor(string memory _name, string memory _pwd) public {\r\n        owner = msg.sender;\r\n        name = _name;\r\n        pwd = _pwd;\r\n    }\r\n\r\n    modifier isOwner() {\r\n        require(owner == msg.sender);\r\n        _;\r\n    }\r\n\r\n    modifier isValidCampaign(uint256 _campaignId) {\r\n        require(isCampaignValid(_campaignId), \"The campaign is end\");\r\n        _;\r\n    }\r\n\r\n    modifier isValidTicket(uint256 _ticketId) {\r\n        require(isCampaignValid(_ticketId), \"The campaign is end\");\r\n        _;\r\n    }\r\n\r\n    function isCampaignValid(uint256 _campaignId)\r\n        public\r\n        view\r\n        returns (bool isValid)\r\n    {\r\n        return own_campaigns[_campaignId].isValid;\r\n    }\r\n\r\n    function isTicketValid(uint256 _ticketId)\r\n        public\r\n        view\r\n        returns (bool isValid)\r\n    {\r\n        return own_campaigns[_ticketId].isValid;\r\n    }\r\n\r\n    function addCampaign(address payable _campaign_address) public {\r\n        OwnCampaign memory campaign =\r\n            OwnCampaign(_campaign_address, true, false);\r\n        own_campaigns.push(campaign);\r\n        uint256 Id = own_campaigns.length - 1;\r\n\r\n        emit OnAddCampaign(msg.sender, _campaign_address, Id);\r\n    }\r\n\r\n    function addTicket(address _ticket_address, uint256 seatId) public {\r\n        OwnTicket memory ticket =\r\n            OwnTicket(_ticket_address, true, false, seatId);\r\n        own_tickets.push(ticket);\r\n        uint256 Id = own_tickets.length - 1;\r\n\r\n        emit OnAddTicket(msg.sender, _ticket_address, Id);\r\n    }\r\n\r\n    function getPassword()\r\n        public\r\n        view\r\n        isOwner\r\n        returns (string memory password)\r\n    {\r\n        password = pwd;\r\n    }\r\n\r\n    function ViewCampaigns() public view returns (Campaign[] memory) {\r\n        uint256 len = 0;\r\n        uint256[] memory count_to_id = new uint256[](own_campaigns.length);\r\n        for (uint256 id = 0; id < own_campaigns.length; id++) {\r\n            if (isCampaignValid(id)) {\r\n                count_to_id[len] = id;\r\n                len++;\r\n            }\r\n        }\r\n        Campaign[] memory campaignList = new Campaign[](len);\r\n        for (uint256 i = 0; i < len; i++) {\r\n            campaignList[i] = Campaign(\r\n                own_campaigns[count_to_id[i]].campaign_address\r\n            );\r\n        }\r\n        return campaignList;\r\n    }\r\n\r\n    function ViewTickets()\r\n        public\r\n        view\r\n        returns (address[] memory campaigns, uint256[] memory seats)\r\n    {\r\n        uint256 len = 0;\r\n        uint256[] memory count_to_id = new uint256[](own_tickets.length);\r\n        for (uint256 id = 0; id < own_tickets.length; id++) {\r\n            if (isTicketValid(id)) {\r\n                count_to_id[len] = id;\r\n                len++;\r\n            }\r\n        }\r\n        campaigns = new address[](len);\r\n        seats = new uint256[](len);\r\n        for (uint256 i = 0; i < len; i++) {\r\n            campaigns[i] = own_tickets[count_to_id[i]].attend_address;\r\n            seats[i] = own_tickets[count_to_id[i]].seat;\r\n        }\r\n    }\r\n\r\n    function CompleteCampaign(address _campaign_address) public {\r\n        uint256 _id = campaign_addr_to_id[_campaign_address];\r\n        own_campaigns[_id].isValid = false;\r\n        own_campaigns[_id].isEnd = true;\r\n    }\r\n\r\n    function CompleteTicket(address _ticket_address) public {\r\n        uint256 _id = ticket_addr_to_id[_ticket_address];\r\n        own_tickets[_id].isValid = false;\r\n        own_tickets[_id].isEnd = true;\r\n    }\r\n}\r\n",
  "sourcePath": "F:/109-1/Networking and Multinmedia(Lab)/deapp-final/ticket system/contracts/server.sol",
  "compiler": {
    "name": "solc",
    "version": "0.7.0+commit.9e61f92b.Emscripten.clang"
  },
  "schemaVersion": "3.3.2",
  "updatedAt": "2020-12-21T02:06:10.329Z",
  "devdoc": {
    "kind": "dev",
    "methods": {},
    "version": 1
  },
  "userdoc": {
    "kind": "user",
    "methods": {},
    "version": 1
  }
}